{
  "contractName": "LogicTwo",
  "abi": [
    {
      "anonymous": false,
      "inputs": [
        {
          "indexed": true,
          "internalType": "address",
          "name": "account",
          "type": "address"
        },
        {
          "indexed": true,
          "internalType": "address",
          "name": "operator",
          "type": "address"
        },
        {
          "indexed": false,
          "internalType": "bool",
          "name": "approved",
          "type": "bool"
        }
      ],
      "name": "ApprovalForAll",
      "type": "event"
    },
    {
      "anonymous": false,
      "inputs": [
        {
          "indexed": false,
          "internalType": "address",
          "name": "account",
          "type": "address"
        }
      ],
      "name": "Paused",
      "type": "event"
    },
    {
      "anonymous": false,
      "inputs": [
        {
          "indexed": false,
          "internalType": "uint256",
          "name": "timestamp",
          "type": "uint256"
        },
        {
          "indexed": true,
          "internalType": "uint256",
          "name": "id",
          "type": "uint256"
        },
        {
          "indexed": true,
          "internalType": "uint256",
          "name": "totalSupply",
          "type": "uint256"
        },
        {
          "indexed": true,
          "internalType": "address",
          "name": "owner",
          "type": "address"
        },
        {
          "indexed": false,
          "internalType": "string",
          "name": "valuationReport",
          "type": "string"
        },
        {
          "indexed": false,
          "internalType": "string",
          "name": "legalContract",
          "type": "string"
        }
      ],
      "name": "RETokenID",
      "type": "event"
    },
    {
      "anonymous": false,
      "inputs": [
        {
          "indexed": false,
          "internalType": "uint256",
          "name": "timestamp",
          "type": "uint256"
        },
        {
          "indexed": true,
          "internalType": "uint256",
          "name": "id",
          "type": "uint256"
        },
        {
          "indexed": false,
          "internalType": "uint256",
          "name": "tokenAmt",
          "type": "uint256"
        },
        {
          "indexed": true,
          "internalType": "address",
          "name": "buyer",
          "type": "address"
        },
        {
          "indexed": true,
          "internalType": "address",
          "name": "seller",
          "type": "address"
        },
        {
          "indexed": false,
          "internalType": "uint256",
          "name": "USDT",
          "type": "uint256"
        }
      ],
      "name": "RETokenUSDT",
      "type": "event"
    },
    {
      "anonymous": false,
      "inputs": [
        {
          "indexed": true,
          "internalType": "bytes32",
          "name": "role",
          "type": "bytes32"
        },
        {
          "indexed": true,
          "internalType": "bytes32",
          "name": "previousAdminRole",
          "type": "bytes32"
        },
        {
          "indexed": true,
          "internalType": "bytes32",
          "name": "newAdminRole",
          "type": "bytes32"
        }
      ],
      "name": "RoleAdminChanged",
      "type": "event"
    },
    {
      "anonymous": false,
      "inputs": [
        {
          "indexed": true,
          "internalType": "bytes32",
          "name": "role",
          "type": "bytes32"
        },
        {
          "indexed": true,
          "internalType": "address",
          "name": "account",
          "type": "address"
        },
        {
          "indexed": true,
          "internalType": "address",
          "name": "sender",
          "type": "address"
        }
      ],
      "name": "RoleGranted",
      "type": "event"
    },
    {
      "anonymous": false,
      "inputs": [
        {
          "indexed": true,
          "internalType": "bytes32",
          "name": "role",
          "type": "bytes32"
        },
        {
          "indexed": true,
          "internalType": "address",
          "name": "account",
          "type": "address"
        },
        {
          "indexed": true,
          "internalType": "address",
          "name": "sender",
          "type": "address"
        }
      ],
      "name": "RoleRevoked",
      "type": "event"
    },
    {
      "anonymous": false,
      "inputs": [
        {
          "indexed": true,
          "internalType": "address",
          "name": "operator",
          "type": "address"
        },
        {
          "indexed": true,
          "internalType": "address",
          "name": "from",
          "type": "address"
        },
        {
          "indexed": true,
          "internalType": "address",
          "name": "to",
          "type": "address"
        },
        {
          "indexed": false,
          "internalType": "uint256[]",
          "name": "ids",
          "type": "uint256[]"
        },
        {
          "indexed": false,
          "internalType": "uint256[]",
          "name": "values",
          "type": "uint256[]"
        }
      ],
      "name": "TransferBatch",
      "type": "event"
    },
    {
      "anonymous": false,
      "inputs": [
        {
          "indexed": true,
          "internalType": "address",
          "name": "operator",
          "type": "address"
        },
        {
          "indexed": true,
          "internalType": "address",
          "name": "from",
          "type": "address"
        },
        {
          "indexed": true,
          "internalType": "address",
          "name": "to",
          "type": "address"
        },
        {
          "indexed": false,
          "internalType": "uint256",
          "name": "id",
          "type": "uint256"
        },
        {
          "indexed": false,
          "internalType": "uint256",
          "name": "value",
          "type": "uint256"
        }
      ],
      "name": "TransferSingle",
      "type": "event"
    },
    {
      "anonymous": false,
      "inputs": [
        {
          "indexed": false,
          "internalType": "string",
          "name": "value",
          "type": "string"
        },
        {
          "indexed": true,
          "internalType": "uint256",
          "name": "id",
          "type": "uint256"
        }
      ],
      "name": "URI",
      "type": "event"
    },
    {
      "anonymous": false,
      "inputs": [
        {
          "indexed": false,
          "internalType": "uint256",
          "name": "timestamp",
          "type": "uint256"
        },
        {
          "indexed": false,
          "internalType": "address",
          "name": "initiator",
          "type": "address"
        },
        {
          "indexed": false,
          "internalType": "address",
          "name": "recipient",
          "type": "address"
        },
        {
          "indexed": false,
          "internalType": "uint256",
          "name": "USDT",
          "type": "uint256"
        }
      ],
      "name": "USDTWithdrawn",
      "type": "event"
    },
    {
      "anonymous": false,
      "inputs": [
        {
          "indexed": false,
          "internalType": "address",
          "name": "account",
          "type": "address"
        }
      ],
      "name": "Unpaused",
      "type": "event"
    },
    {
      "inputs": [],
      "name": "ADMIN_ROLE",
      "outputs": [
        {
          "internalType": "bytes32",
          "name": "",
          "type": "bytes32"
        }
      ],
      "stateMutability": "view",
      "type": "function",
      "constant": true
    },
    {
      "inputs": [],
      "name": "DEFAULT_ADMIN_ROLE",
      "outputs": [
        {
          "internalType": "bytes32",
          "name": "",
          "type": "bytes32"
        }
      ],
      "stateMutability": "view",
      "type": "function",
      "constant": true
    },
    {
      "inputs": [],
      "name": "MODERATOR",
      "outputs": [
        {
          "internalType": "bytes32",
          "name": "",
          "type": "bytes32"
        }
      ],
      "stateMutability": "view",
      "type": "function",
      "constant": true
    },
    {
      "inputs": [],
      "name": "_tokenID",
      "outputs": [
        {
          "internalType": "uint256",
          "name": "",
          "type": "uint256"
        }
      ],
      "stateMutability": "view",
      "type": "function",
      "constant": true
    },
    {
      "inputs": [
        {
          "internalType": "address",
          "name": "account",
          "type": "address"
        },
        {
          "internalType": "uint256",
          "name": "id",
          "type": "uint256"
        }
      ],
      "name": "balanceOf",
      "outputs": [
        {
          "internalType": "uint256",
          "name": "",
          "type": "uint256"
        }
      ],
      "stateMutability": "view",
      "type": "function",
      "constant": true
    },
    {
      "inputs": [
        {
          "internalType": "address[]",
          "name": "accounts",
          "type": "address[]"
        },
        {
          "internalType": "uint256[]",
          "name": "ids",
          "type": "uint256[]"
        }
      ],
      "name": "balanceOfBatch",
      "outputs": [
        {
          "internalType": "uint256[]",
          "name": "",
          "type": "uint256[]"
        }
      ],
      "stateMutability": "view",
      "type": "function",
      "constant": true
    },
    {
      "inputs": [
        {
          "internalType": "bytes32",
          "name": "role",
          "type": "bytes32"
        }
      ],
      "name": "getRoleAdmin",
      "outputs": [
        {
          "internalType": "bytes32",
          "name": "",
          "type": "bytes32"
        }
      ],
      "stateMutability": "view",
      "type": "function",
      "constant": true
    },
    {
      "inputs": [
        {
          "internalType": "bytes32",
          "name": "role",
          "type": "bytes32"
        },
        {
          "internalType": "uint256",
          "name": "index",
          "type": "uint256"
        }
      ],
      "name": "getRoleMember",
      "outputs": [
        {
          "internalType": "address",
          "name": "",
          "type": "address"
        }
      ],
      "stateMutability": "view",
      "type": "function",
      "constant": true
    },
    {
      "inputs": [
        {
          "internalType": "bytes32",
          "name": "role",
          "type": "bytes32"
        }
      ],
      "name": "getRoleMemberCount",
      "outputs": [
        {
          "internalType": "uint256",
          "name": "",
          "type": "uint256"
        }
      ],
      "stateMutability": "view",
      "type": "function",
      "constant": true
    },
    {
      "inputs": [
        {
          "internalType": "bytes32",
          "name": "role",
          "type": "bytes32"
        },
        {
          "internalType": "address",
          "name": "account",
          "type": "address"
        }
      ],
      "name": "grantRole",
      "outputs": [],
      "stateMutability": "nonpayable",
      "type": "function"
    },
    {
      "inputs": [
        {
          "internalType": "bytes32",
          "name": "role",
          "type": "bytes32"
        },
        {
          "internalType": "address",
          "name": "account",
          "type": "address"
        }
      ],
      "name": "hasRole",
      "outputs": [
        {
          "internalType": "bool",
          "name": "",
          "type": "bool"
        }
      ],
      "stateMutability": "view",
      "type": "function",
      "constant": true
    },
    {
      "inputs": [
        {
          "internalType": "address",
          "name": "account",
          "type": "address"
        },
        {
          "internalType": "address",
          "name": "operator",
          "type": "address"
        }
      ],
      "name": "isApprovedForAll",
      "outputs": [
        {
          "internalType": "bool",
          "name": "",
          "type": "bool"
        }
      ],
      "stateMutability": "view",
      "type": "function",
      "constant": true
    },
    {
      "inputs": [
        {
          "internalType": "address",
          "name": "",
          "type": "address"
        },
        {
          "internalType": "address",
          "name": "",
          "type": "address"
        },
        {
          "internalType": "uint256[]",
          "name": "",
          "type": "uint256[]"
        },
        {
          "internalType": "uint256[]",
          "name": "",
          "type": "uint256[]"
        },
        {
          "internalType": "bytes",
          "name": "",
          "type": "bytes"
        }
      ],
      "name": "onERC1155BatchReceived",
      "outputs": [
        {
          "internalType": "bytes4",
          "name": "",
          "type": "bytes4"
        }
      ],
      "stateMutability": "nonpayable",
      "type": "function"
    },
    {
      "inputs": [
        {
          "internalType": "address",
          "name": "",
          "type": "address"
        },
        {
          "internalType": "address",
          "name": "",
          "type": "address"
        },
        {
          "internalType": "uint256",
          "name": "",
          "type": "uint256"
        },
        {
          "internalType": "uint256",
          "name": "",
          "type": "uint256"
        },
        {
          "internalType": "bytes",
          "name": "",
          "type": "bytes"
        }
      ],
      "name": "onERC1155Received",
      "outputs": [
        {
          "internalType": "bytes4",
          "name": "",
          "type": "bytes4"
        }
      ],
      "stateMutability": "nonpayable",
      "type": "function"
    },
    {
      "inputs": [],
      "name": "paused",
      "outputs": [
        {
          "internalType": "bool",
          "name": "",
          "type": "bool"
        }
      ],
      "stateMutability": "view",
      "type": "function",
      "constant": true
    },
    {
      "inputs": [],
      "name": "proxy_contract",
      "outputs": [
        {
          "internalType": "address payable",
          "name": "",
          "type": "address"
        }
      ],
      "stateMutability": "view",
      "type": "function",
      "constant": true
    },
    {
      "inputs": [
        {
          "internalType": "bytes32",
          "name": "role",
          "type": "bytes32"
        },
        {
          "internalType": "address",
          "name": "account",
          "type": "address"
        }
      ],
      "name": "renounceRole",
      "outputs": [],
      "stateMutability": "nonpayable",
      "type": "function"
    },
    {
      "inputs": [
        {
          "internalType": "bytes32",
          "name": "role",
          "type": "bytes32"
        },
        {
          "internalType": "address",
          "name": "account",
          "type": "address"
        }
      ],
      "name": "revokeRole",
      "outputs": [],
      "stateMutability": "nonpayable",
      "type": "function"
    },
    {
      "inputs": [
        {
          "internalType": "address",
          "name": "from",
          "type": "address"
        },
        {
          "internalType": "address",
          "name": "to",
          "type": "address"
        },
        {
          "internalType": "uint256[]",
          "name": "ids",
          "type": "uint256[]"
        },
        {
          "internalType": "uint256[]",
          "name": "amounts",
          "type": "uint256[]"
        },
        {
          "internalType": "bytes",
          "name": "data",
          "type": "bytes"
        }
      ],
      "name": "safeBatchTransferFrom",
      "outputs": [],
      "stateMutability": "nonpayable",
      "type": "function"
    },
    {
      "inputs": [
        {
          "internalType": "address",
          "name": "from",
          "type": "address"
        },
        {
          "internalType": "address",
          "name": "to",
          "type": "address"
        },
        {
          "internalType": "uint256",
          "name": "id",
          "type": "uint256"
        },
        {
          "internalType": "uint256",
          "name": "amount",
          "type": "uint256"
        },
        {
          "internalType": "bytes",
          "name": "data",
          "type": "bytes"
        }
      ],
      "name": "safeTransferFrom",
      "outputs": [],
      "stateMutability": "nonpayable",
      "type": "function"
    },
    {
      "inputs": [
        {
          "internalType": "address",
          "name": "operator",
          "type": "address"
        },
        {
          "internalType": "bool",
          "name": "approved",
          "type": "bool"
        }
      ],
      "name": "setApprovalForAll",
      "outputs": [],
      "stateMutability": "nonpayable",
      "type": "function"
    },
    {
      "inputs": [
        {
          "internalType": "bytes4",
          "name": "interfaceId",
          "type": "bytes4"
        }
      ],
      "name": "supportsInterface",
      "outputs": [
        {
          "internalType": "bool",
          "name": "",
          "type": "bool"
        }
      ],
      "stateMutability": "view",
      "type": "function",
      "constant": true
    },
    {
      "inputs": [
        {
          "internalType": "uint256",
          "name": "",
          "type": "uint256"
        }
      ],
      "name": "uri",
      "outputs": [
        {
          "internalType": "string",
          "name": "",
          "type": "string"
        }
      ],
      "stateMutability": "view",
      "type": "function",
      "constant": true
    },
    {
      "inputs": [],
      "name": "usdt_contract",
      "outputs": [
        {
          "internalType": "address",
          "name": "",
          "type": "address"
        }
      ],
      "stateMutability": "view",
      "type": "function",
      "constant": true
    },
    {
      "inputs": [
        {
          "internalType": "uint256",
          "name": "tokenId",
          "type": "uint256"
        }
      ],
      "name": "getTotalSupply",
      "outputs": [
        {
          "internalType": "uint256",
          "name": "",
          "type": "uint256"
        }
      ],
      "stateMutability": "view",
      "type": "function",
      "constant": true
    },
    {
      "inputs": [
        {
          "internalType": "uint256",
          "name": "tokenId",
          "type": "uint256"
        }
      ],
      "name": "getOwner",
      "outputs": [
        {
          "internalType": "address",
          "name": "",
          "type": "address"
        }
      ],
      "stateMutability": "view",
      "type": "function",
      "constant": true
    },
    {
      "inputs": [
        {
          "internalType": "uint256",
          "name": "tokenId",
          "type": "uint256"
        }
      ],
      "name": "getValuationRpt",
      "outputs": [
        {
          "internalType": "string",
          "name": "",
          "type": "string"
        }
      ],
      "stateMutability": "view",
      "type": "function",
      "constant": true
    },
    {
      "inputs": [
        {
          "internalType": "uint256",
          "name": "tokenId",
          "type": "uint256"
        }
      ],
      "name": "getLegalContr",
      "outputs": [
        {
          "internalType": "string",
          "name": "",
          "type": "string"
        }
      ],
      "stateMutability": "view",
      "type": "function",
      "constant": true
    },
    {
      "inputs": [
        {
          "internalType": "uint256",
          "name": "tokenId",
          "type": "uint256"
        }
      ],
      "name": "getFee",
      "outputs": [
        {
          "internalType": "uint256",
          "name": "",
          "type": "uint256"
        }
      ],
      "stateMutability": "view",
      "type": "function",
      "constant": true
    },
    {
      "inputs": [
        {
          "internalType": "address",
          "name": "assetOwner",
          "type": "address"
        },
        {
          "internalType": "uint256",
          "name": "totalAmt",
          "type": "uint256"
        },
        {
          "internalType": "uint256",
          "name": "ownerAmt",
          "type": "uint256"
        },
        {
          "internalType": "string",
          "name": "valueRpt",
          "type": "string"
        },
        {
          "internalType": "string",
          "name": "legalContr",
          "type": "string"
        },
        {
          "internalType": "uint256",
          "name": "fee",
          "type": "uint256"
        }
      ],
      "name": "mintToken",
      "outputs": [],
      "stateMutability": "nonpayable",
      "type": "function"
    },
    {
      "inputs": [
        {
          "internalType": "address",
          "name": "recipient",
          "type": "address"
        },
        {
          "internalType": "uint256",
          "name": "amt",
          "type": "uint256"
        }
      ],
      "name": "withdrawUSDT",
      "outputs": [],
      "stateMutability": "nonpayable",
      "type": "function"
    },
    {
      "inputs": [
        {
          "internalType": "uint256",
          "name": "id",
          "type": "uint256"
        },
        {
          "internalType": "uint256",
          "name": "tokenAmt",
          "type": "uint256"
        },
        {
          "internalType": "uint256",
          "name": "usdtAmt",
          "type": "uint256"
        }
      ],
      "name": "buyToken",
      "outputs": [],
      "stateMutability": "nonpayable",
      "type": "function"
    }
  ],
  "bytecode": "0x60806040526200001c6101646200003460201b62003e0b1760201c565b610165553480156200002d57600080fd5b5062000042565b600081600001549050919050565b61520480620000526000396000f3fe608060405234801561001057600080fd5b50600436106101ef5760003560e01c806391d148541161010f578063ca15c873116100a2578063e985e9c511610071578063e985e9c514611106578063f23a6e6114611180578063f242432a146112c2578063fcee45f4146113d1576101ef565b8063ca15c87314611000578063d547741f14611042578063d84e803814611090578063de2d554b146110c4576101ef565b8063ad0cdd89116100de578063ad0cdd8914610ba4578063b06496ae14610bc2578063bc197c8114610d52578063c41a360a14610fa8576101ef565b806391d1485414610a9057806392ab723e14610af4578063a217fddf14610b36578063a22cb46514610b54576101ef565b806334b4e625116101875780635c975abb116101565780635c975abb146109bc57806375b238fc146109dc57806375e15838146109fa5780639010d07c14610a2e576101ef565b806334b4e6251461070857806336568abe146107265780634aa10a80146107745780634e1273f41461081b576101ef565b8063248a9ca3116101c3578063248a9ca3146103ae5780632eb2c2d6146103f05780632f2ff15d14610613578063308ff12714610661576101ef565b8062fdd58e146101f457806301ffc9a7146102565780630e89341c146102b95780631481794e14610360575b600080fd5b6102406004803603604081101561020a57600080fd5b81019080803573ffffffffffffffffffffffffffffffffffffffff16906020019092919080359060200190929190505050611413565b6040518082815260200191505060405180910390f35b6102a16004803603602081101561026c57600080fd5b8101908080357bffffffffffffffffffffffffffffffffffffffffffffffffffffffff191690602001909291905050506114f3565b60405180821515815260200191505060405180910390f35b6102e5600480360360208110156102cf57600080fd5b810190808035906020019092919050505061155b565b6040518080602001828103825283818151815260200191508051906020019080838360005b8381101561032557808201518184015260208101905061030a565b50505050905090810190601f1680156103525780820380516001836020036101000a031916815260200191505b509250505060405180910390f35b6103ac6004803603604081101561037657600080fd5b81019080803573ffffffffffffffffffffffffffffffffffffffff169060200190929190803590602001909291905050506115ff565b005b6103da600480360360208110156103c457600080fd5b810190808035906020019092919050505061192a565b6040518082815260200191505060405180910390f35b610611600480360360a081101561040657600080fd5b81019080803573ffffffffffffffffffffffffffffffffffffffff169060200190929190803573ffffffffffffffffffffffffffffffffffffffff1690602001909291908035906020019064010000000081111561046357600080fd5b82018360208201111561047557600080fd5b8035906020019184602083028401116401000000008311171561049757600080fd5b919080806020026020016040519081016040528093929190818152602001838360200280828437600081840152601f19601f820116905080830192505050505050509192919290803590602001906401000000008111156104f757600080fd5b82018360208201111561050957600080fd5b8035906020019184602083028401116401000000008311171561052b57600080fd5b919080806020026020016040519081016040528093929190818152602001838360200280828437600081840152601f19601f8201169050808301925050505050505091929192908035906020019064010000000081111561058b57600080fd5b82018360208201111561059d57600080fd5b803590602001918460018302840111640100000000831117156105bf57600080fd5b91908080601f016020809104026020016040519081016040528093929190818152602001838380828437600081840152601f19601f82011690508083019250505050505050919291929050505061194a565b005b61065f6004803603604081101561062957600080fd5b8101908080359060200190929190803573ffffffffffffffffffffffffffffffffffffffff169060200190929190505050611dd5565b005b61068d6004803603602081101561067757600080fd5b8101908080359060200190929190505050611e5f565b6040518080602001828103825283818151815260200191508051906020019080838360005b838110156106cd5780820151818401526020810190506106b2565b50505050905090810190601f1680156106fa5780820380516001836020036101000a031916815260200191505b509250505060405180910390f35b610710612045565b6040518082815260200191505060405180910390f35b6107726004803603604081101561073c57600080fd5b8101908080359060200190929190803573ffffffffffffffffffffffffffffffffffffffff169060200190929190505050612069565b005b6107a06004803603602081101561078a57600080fd5b8101908080359060200190929190505050612102565b6040518080602001828103825283818151815260200191508051906020019080838360005b838110156107e05780820151818401526020810190506107c5565b50505050905090810190601f16801561080d5780820380516001836020036101000a031916815260200191505b509250505060405180910390f35b6109656004803603604081101561083157600080fd5b810190808035906020019064010000000081111561084e57600080fd5b82018360208201111561086057600080fd5b8035906020019184602083028401116401000000008311171561088257600080fd5b919080806020026020016040519081016040528093929190818152602001838360200280828437600081840152601f19601f820116905080830192505050505050509192919290803590602001906401000000008111156108e257600080fd5b8201836020820111156108f457600080fd5b8035906020019184602083028401116401000000008311171561091657600080fd5b919080806020026020016040519081016040528093929190818152602001838360200280828437600081840152601f19601f8201169050808301925050505050505091929192905050506122e8565b6040518080602001828103825283818151815260200191508051906020019060200280838360005b838110156109a857808201518184015260208101905061098d565b505050509050019250505060405180910390f35b6109c46123fa565b60405180821515815260200191505060405180910390f35b6109e4612411565b6040518082815260200191505060405180910390f35b610a02612435565b604051808273ffffffffffffffffffffffffffffffffffffffff16815260200191505060405180910390f35b610a6460048036036040811015610a4457600080fd5b81019080803590602001909291908035906020019092919050505061245c565b604051808273ffffffffffffffffffffffffffffffffffffffff16815260200191505060405180910390f35b610adc60048036036040811015610aa657600080fd5b8101908080359060200190929190803573ffffffffffffffffffffffffffffffffffffffff16906020019092919050505061248e565b60405180821515815260200191505060405180910390f35b610b2060048036036020811015610b0a57600080fd5b81019080803590602001909291905050506124c0565b6040518082815260200191505060405180910390f35b610b3e6126a6565b6040518082815260200191505060405180910390f35b610ba260048036036040811015610b6a57600080fd5b81019080803573ffffffffffffffffffffffffffffffffffffffff1690602001909291908035151590602001909291905050506126ad565b005b610bac612846565b6040518082815260200191505060405180910390f35b610d50600480360360c0811015610bd857600080fd5b81019080803573ffffffffffffffffffffffffffffffffffffffff169060200190929190803590602001909291908035906020019092919080359060200190640100000000811115610c2957600080fd5b820183602082011115610c3b57600080fd5b80359060200191846001830284011164010000000083111715610c5d57600080fd5b91908080601f016020809104026020016040519081016040528093929190818152602001838380828437600081840152601f19601f82011690508083019250505050505050919291929080359060200190640100000000811115610cc057600080fd5b820183602082011115610cd257600080fd5b80359060200191846001830284011164010000000083111715610cf457600080fd5b91908080601f016020809104026020016040519081016040528093929190818152602001838380828437600081840152601f19601f8201169050808301925050505050505091929192908035906020019092919050505061284d565b005b610f73600480360360a0811015610d6857600080fd5b81019080803573ffffffffffffffffffffffffffffffffffffffff169060200190929190803573ffffffffffffffffffffffffffffffffffffffff16906020019092919080359060200190640100000000811115610dc557600080fd5b820183602082011115610dd757600080fd5b80359060200191846020830284011164010000000083111715610df957600080fd5b919080806020026020016040519081016040528093929190818152602001838360200280828437600081840152601f19601f82011690508083019250505050505050919291929080359060200190640100000000811115610e5957600080fd5b820183602082011115610e6b57600080fd5b80359060200191846020830284011164010000000083111715610e8d57600080fd5b919080806020026020016040519081016040528093929190818152602001838360200280828437600081840152601f19601f82011690508083019250505050505050919291929080359060200190640100000000811115610eed57600080fd5b820183602082011115610eff57600080fd5b80359060200191846001830284011164010000000083111715610f2157600080fd5b91908080601f016020809104026020016040519081016040528093929190818152602001838380828437600081840152601f19601f820116905080830192505050505050509192919290505050612cc3565b60405180827bffffffffffffffffffffffffffffffffffffffffffffffffffffffff1916815260200191505060405180910390f35b610fd460048036036020811015610fbe57600080fd5b8101908080359060200190929190505050612cd8565b604051808273ffffffffffffffffffffffffffffffffffffffff16815260200191505060405180910390f35b61102c6004803603602081101561101657600080fd5b8101908080359060200190929190505050612ebe565b6040518082815260200191505060405180910390f35b61108e6004803603604081101561105857600080fd5b8101908080359060200190929190803573ffffffffffffffffffffffffffffffffffffffff169060200190929190505050612ee5565b005b611098612f6f565b604051808273ffffffffffffffffffffffffffffffffffffffff16815260200191505060405180910390f35b611104600480360360608110156110da57600080fd5b81019080803590602001909291908035906020019092919080359060200190929190505050612f96565b005b6111686004803603604081101561111c57600080fd5b81019080803573ffffffffffffffffffffffffffffffffffffffff169060200190929190803573ffffffffffffffffffffffffffffffffffffffff169060200190929190505050613807565b60405180821515815260200191505060405180910390f35b61128d600480360360a081101561119657600080fd5b81019080803573ffffffffffffffffffffffffffffffffffffffff169060200190929190803573ffffffffffffffffffffffffffffffffffffffff16906020019092919080359060200190929190803590602001909291908035906020019064010000000081111561120757600080fd5b82018360208201111561121957600080fd5b8035906020019184600183028401116401000000008311171561123b57600080fd5b91908080601f016020809104026020016040519081016040528093929190818152602001838380828437600081840152601f19601f82011690508083019250505050505050919291929050505061389b565b60405180827bffffffffffffffffffffffffffffffffffffffffffffffffffffffff1916815260200191505060405180910390f35b6113cf600480360360a08110156112d857600080fd5b81019080803573ffffffffffffffffffffffffffffffffffffffff169060200190929190803573ffffffffffffffffffffffffffffffffffffffff16906020019092919080359060200190929190803590602001909291908035906020019064010000000081111561134957600080fd5b82018360208201111561135b57600080fd5b8035906020019184600183028401116401000000008311171561137d57600080fd5b91908080601f016020809104026020016040519081016040528093929190818152602001838380828437600081840152601f19601f8201169050808301925050505050505091929192905050506138b0565b005b6113fd600480360360208110156113e757600080fd5b8101908080359060200190929190505050613c25565b6040518082815260200191505060405180910390f35b60008073ffffffffffffffffffffffffffffffffffffffff168373ffffffffffffffffffffffffffffffffffffffff16141561149a576040517f08c379a000000000000000000000000000000000000000000000000000000000815260040180806020018281038252602b815260200180614f7f602b913960400191505060405180910390fd5b60c9600083815260200190815260200160002060008473ffffffffffffffffffffffffffffffffffffffff1673ffffffffffffffffffffffffffffffffffffffff16815260200190815260200160002054905092915050565b600060976000837bffffffffffffffffffffffffffffffffffffffffffffffffffffffff19167bffffffffffffffffffffffffffffffffffffffffffffffffffffffff1916815260200190815260200160002060009054906101000a900460ff169050919050565b606060cb8054600181600116156101000203166002900480601f0160208091040260200160405190810160405280929190818152602001828054600181600116156101000203166002900480156115f35780601f106115c8576101008083540402835291602001916115f3565b820191906000526020600020905b8154815290600101906020018083116115d657829003601f168201915b50505050509050919050565b6116297fa49807205ce4d355092ef5a8a18f56e8913cf4a201fbe287825b095693c217753361248e565b61167e576040517f08c379a00000000000000000000000000000000000000000000000000000000081526004018080602001828103825260268152602001806151096026913960400191505060405180910390fd5b8061016060009054906101000a900473ffffffffffffffffffffffffffffffffffffffff1673ffffffffffffffffffffffffffffffffffffffff166370a0823161016160009054906101000a900473ffffffffffffffffffffffffffffffffffffffff166040518263ffffffff1660e01b8152600401808273ffffffffffffffffffffffffffffffffffffffff16815260200191505060206040518083038186803b15801561172c57600080fd5b505afa158015611740573d6000803e3d6000fd5b505050506040513d602081101561175657600080fd5b810190808051906020019092919050505010156117be576040517f08c379a00000000000000000000000000000000000000000000000000000000081526004018080602001828103825260288152602001806151a76028913960400191505060405180910390fd5b7f8928471dcaee5e7f6fbc83c385d8800ec5de7f6bc00ab13895e972bef8c73ad642338484604051808581526020018473ffffffffffffffffffffffffffffffffffffffff1681526020018373ffffffffffffffffffffffffffffffffffffffff16815260200182815260200194505050505060405180910390a161016060009054906101000a900473ffffffffffffffffffffffffffffffffffffffff1673ffffffffffffffffffffffffffffffffffffffff166347ab2eb861016160009054906101000a900473ffffffffffffffffffffffffffffffffffffffff1684846040518463ffffffff1660e01b8152600401808473ffffffffffffffffffffffffffffffffffffffff1681526020018373ffffffffffffffffffffffffffffffffffffffff1681526020018281526020019350505050600060405180830381600087803b15801561190e57600080fd5b505af1158015611922573d6000803e3d6000fd5b505050505050565b600060336000838152602001908152602001600020600201549050919050565b81518351146119a4576040517f08c379a000000000000000000000000000000000000000000000000000000000815260040180806020018281038252602881526020018061512f6028913960400191505060405180910390fd5b600073ffffffffffffffffffffffffffffffffffffffff168473ffffffffffffffffffffffffffffffffffffffff161415611a2a576040517f08c379a00000000000000000000000000000000000000000000000000000000081526004018080602001828103825260258152602001806150366025913960400191505060405180910390fd5b611a32613e19565b73ffffffffffffffffffffffffffffffffffffffff168573ffffffffffffffffffffffffffffffffffffffff161480611a785750611a7785611a72613e19565b613807565b5b611acd576040517f08c379a000000000000000000000000000000000000000000000000000000000815260040180806020018281038252603281526020018061505b6032913960400191505060405180910390fd5b6000611ad7613e19565b9050611ae7818787878787613e21565b60005b8451811015611cb8576000858281518110611b0157fe5b602002602001015190506000858381518110611b1957fe5b60200260200101519050611ba0816040518060600160405280602a815260200161508d602a913960c9600086815260200190815260200160002060008d73ffffffffffffffffffffffffffffffffffffffff1673ffffffffffffffffffffffffffffffffffffffff16815260200190815260200160002054613e299092919063ffffffff16565b60c9600084815260200190815260200160002060008b73ffffffffffffffffffffffffffffffffffffffff1673ffffffffffffffffffffffffffffffffffffffff16815260200190815260200160002081905550611c578160c9600085815260200190815260200160002060008b73ffffffffffffffffffffffffffffffffffffffff1673ffffffffffffffffffffffffffffffffffffffff16815260200190815260200160002054613ee390919063ffffffff16565b60c9600084815260200190815260200160002060008a73ffffffffffffffffffffffffffffffffffffffff1673ffffffffffffffffffffffffffffffffffffffff168152602001908152602001600020819055505050806001019050611aea565b508473ffffffffffffffffffffffffffffffffffffffff168673ffffffffffffffffffffffffffffffffffffffff168273ffffffffffffffffffffffffffffffffffffffff167f4a39dc06d4c0dbc64b70af90fd698a233a518aa5d07e595d983b8c0526c8f7fb8787604051808060200180602001838103835285818151815260200191508051906020019060200280838360005b83811015611d68578082015181840152602081019050611d4d565b50505050905001838103825284818151815260200191508051906020019060200280838360005b83811015611daa578082015181840152602081019050611d8f565b5050505090500194505050505060405180910390a4611dcd818787878787613f6b565b505050505050565b611dfc6033600084815260200190815260200160002060020154611df7613e19565b61248e565b611e51576040517f08c379a000000000000000000000000000000000000000000000000000000000815260040180806020018281038252602f815260200180614f50602f913960400191505060405180910390fd5b611e5b82826142fa565b5050565b6060611e69614cb8565b61016660008481526020019081526020016000206040518060a0016040529081600082015481526020016001820160009054906101000a900473ffffffffffffffffffffffffffffffffffffffff1673ffffffffffffffffffffffffffffffffffffffff1673ffffffffffffffffffffffffffffffffffffffff168152602001600282018054600181600116156101000203166002900480601f016020809104026020016040519081016040528092919081815260200182805460018160011615610100020316600290048015611f815780601f10611f5657610100808354040283529160200191611f81565b820191906000526020600020905b815481529060010190602001808311611f6457829003601f168201915b50505050508152602001600382018054600181600116156101000203166002900480601f0160208091040260200160405190810160405280929190818152602001828054600181600116156101000203166002900480156120235780601f10611ff857610100808354040283529160200191612023565b820191906000526020600020905b81548152906001019060200180831161200657829003601f168201915b5050505050815260200160048201548152505090508060600151915050919050565b7f58c8e11deab7910e89bf18a1168c6e6ef28748f00fd3094549459f01cec5e0aa81565b612071613e19565b73ffffffffffffffffffffffffffffffffffffffff168173ffffffffffffffffffffffffffffffffffffffff16146120f4576040517f08c379a000000000000000000000000000000000000000000000000000000000815260040180806020018281038252602f815260200180615178602f913960400191505060405180910390fd5b6120fe828261438e565b5050565b606061210c614cb8565b61016660008481526020019081526020016000206040518060a0016040529081600082015481526020016001820160009054906101000a900473ffffffffffffffffffffffffffffffffffffffff1673ffffffffffffffffffffffffffffffffffffffff1673ffffffffffffffffffffffffffffffffffffffff168152602001600282018054600181600116156101000203166002900480601f0160208091040260200160405190810160405280929190818152602001828054600181600116156101000203166002900480156122245780601f106121f957610100808354040283529160200191612224565b820191906000526020600020905b81548152906001019060200180831161220757829003601f168201915b50505050508152602001600382018054600181600116156101000203166002900480601f0160208091040260200160405190810160405280929190818152602001828054600181600116156101000203166002900480156122c65780601f1061229b576101008083540402835291602001916122c6565b820191906000526020600020905b8154815290600101906020018083116122a957829003601f168201915b5050505050815260200160048201548152505090508060400151915050919050565b60608151835114612344576040517f08c379a00000000000000000000000000000000000000000000000000000000081526004018080602001828103825260298152602001806150e06029913960400191505060405180910390fd5b6060835167ffffffffffffffff8111801561235e57600080fd5b5060405190808252806020026020018201604052801561238d5781602001602082028036833780820191505090505b50905060005b84518110156123ef576123cc8582815181106123ab57fe5b60200260200101518583815181106123bf57fe5b6020026020010151611413565b8282815181106123d857fe5b602002602001018181525050806001019050612393565b508091505092915050565b6000606560009054906101000a900460ff16905090565b7fa49807205ce4d355092ef5a8a18f56e8913cf4a201fbe287825b095693c2177581565b61015f60009054906101000a900473ffffffffffffffffffffffffffffffffffffffff1681565b6000612486826033600086815260200190815260200160002060000161442290919063ffffffff16565b905092915050565b60006124b8826033600086815260200190815260200160002060000161443c90919063ffffffff16565b905092915050565b60006124ca614cb8565b61016660008481526020019081526020016000206040518060a0016040529081600082015481526020016001820160009054906101000a900473ffffffffffffffffffffffffffffffffffffffff1673ffffffffffffffffffffffffffffffffffffffff1673ffffffffffffffffffffffffffffffffffffffff168152602001600282018054600181600116156101000203166002900480601f0160208091040260200160405190810160405280929190818152602001828054600181600116156101000203166002900480156125e25780601f106125b7576101008083540402835291602001916125e2565b820191906000526020600020905b8154815290600101906020018083116125c557829003601f168201915b50505050508152602001600382018054600181600116156101000203166002900480601f0160208091040260200160405190810160405280929190818152602001828054600181600116156101000203166002900480156126845780601f1061265957610100808354040283529160200191612684565b820191906000526020600020905b81548152906001019060200180831161266757829003601f168201915b5050505050815260200160048201548152505090508060000151915050919050565b6000801b81565b8173ffffffffffffffffffffffffffffffffffffffff166126cc613e19565b73ffffffffffffffffffffffffffffffffffffffff161415612739576040517f08c379a00000000000000000000000000000000000000000000000000000000081526004018080602001828103825260298152602001806150b76029913960400191505060405180910390fd5b8060ca6000612746613e19565b73ffffffffffffffffffffffffffffffffffffffff1673ffffffffffffffffffffffffffffffffffffffff16815260200190815260200160002060008473ffffffffffffffffffffffffffffffffffffffff1673ffffffffffffffffffffffffffffffffffffffff16815260200190815260200160002060006101000a81548160ff0219169083151502179055508173ffffffffffffffffffffffffffffffffffffffff166127f3613e19565b73ffffffffffffffffffffffffffffffffffffffff167f17307eab39ab6107e8899845ad3d59bd9653f200f220920489ca2b5937696c318360405180821515815260200191505060405180910390a35050565b6101655481565b6128777fa49807205ce4d355092ef5a8a18f56e8913cf4a201fbe287825b095693c217753361248e565b6128cc576040517f08c379a00000000000000000000000000000000000000000000000000000000081526004018080602001828103825260268152602001806151096026913960400191505060405180910390fd5b6128d46123fa565b15612947576040517f08c379a00000000000000000000000000000000000000000000000000000000081526004018080602001828103825260108152602001807f5061757361626c653a207061757365640000000000000000000000000000000081525060200191505060405180910390fd5b6000610163836040518082805190602001908083835b60208310612980578051825260208201915060208101905060208303925061295d565b6001836020036101000a03801982511681845116808217855250505050505090500191505090815260200160405180910390205414612a0a576040517f08c379a0000000000000000000000000000000000000000000000000000000008152600401808060200182810382526026815260200180614ed36026913960400191505060405180910390fd5b612a1261446c565b6000610165549050600085870390508773ffffffffffffffffffffffffffffffffffffffff1687837faeee3bcad317d189c3a5fdbb0251902831536f3752d0bf9d6d13c0e8a6b77c6f428989604051808481526020018060200180602001838103835285818151815260200191508051906020019080838360005b83811015612aa8578082015181840152602081019050612a8d565b50505050905090810190601f168015612ad55780820380516001836020036101000a031916815260200191505b50838103825284818151815260200191508051906020019080838360005b83811015612b0e578082015181840152602081019050612af3565b50505050905090810190601f168015612b3b5780820380516001836020036101000a031916815260200191505b509550505050505060405180910390a4600061016660006101655481526020019081526020016000209050878160000181905550888160010160006101000a81548173ffffffffffffffffffffffffffffffffffffffff021916908373ffffffffffffffffffffffffffffffffffffffff16021790555085816002019080519060200190612bca929190614cfd565b5084816003019080519060200190612be3929190614cfd565b5083816004018190555061016554610163866040518082805190602001908083835b60208310612c285780518252602082019150602081019050602083039250612c05565b6001836020036101000a038019825116818451168082178552505050505050905001915050908152602001604051809103902081905550612c9d61016160009054906101000a900473ffffffffffffffffffffffffffffffffffffffff1684846040518060200160405280600081525061448b565b612cb88984896040518060200160405280600081525061448b565b505050505050505050565b600063bc197c8160e01b905095945050505050565b6000612ce2614cb8565b61016660008481526020019081526020016000206040518060a0016040529081600082015481526020016001820160009054906101000a900473ffffffffffffffffffffffffffffffffffffffff1673ffffffffffffffffffffffffffffffffffffffff1673ffffffffffffffffffffffffffffffffffffffff168152602001600282018054600181600116156101000203166002900480601f016020809104026020016040519081016040528092919081815260200182805460018160011615610100020316600290048015612dfa5780601f10612dcf57610100808354040283529160200191612dfa565b820191906000526020600020905b815481529060010190602001808311612ddd57829003601f168201915b50505050508152602001600382018054600181600116156101000203166002900480601f016020809104026020016040519081016040528092919081815260200182805460018160011615610100020316600290048015612e9c5780601f10612e7157610100808354040283529160200191612e9c565b820191906000526020600020905b815481529060010190602001808311612e7f57829003601f168201915b5050505050815260200160048201548152505090508060200151915050919050565b6000612ede6033600084815260200190815260200160002060000161468e565b9050919050565b612f0c6033600084815260200190815260200160002060020154612f07613e19565b61248e565b612f61576040517f08c379a00000000000000000000000000000000000000000000000000000000081526004018080602001828103825260308152602001806150066030913960400191505060405180910390fd5b612f6b828261438e565b5050565b61016160009054906101000a900473ffffffffffffffffffffffffffffffffffffffff1681565b612f9e6123fa565b15613011576040517f08c379a00000000000000000000000000000000000000000000000000000000081526004018080602001828103825260108152602001807f5061757361626c653a207061757365640000000000000000000000000000000081525060200191505060405180910390fd5b8261016554101561308a576040517f08c379a00000000000000000000000000000000000000000000000000000000081526004018080602001828103825260178152602001807f546f6b656e20494420646f65736e27742065786973742e00000000000000000081525060200191505060405180910390fd5b816130b861016160009054906101000a900473ffffffffffffffffffffffffffffffffffffffff1685611413565b101561310f576040517f08c379a0000000000000000000000000000000000000000000000000000000008152600401808060200182810382526033815260200180614fd36033913960400191505060405180910390fd5b613117614cb8565b61016660008581526020019081526020016000206040518060a0016040529081600082015481526020016001820160009054906101000a900473ffffffffffffffffffffffffffffffffffffffff1673ffffffffffffffffffffffffffffffffffffffff1673ffffffffffffffffffffffffffffffffffffffff168152602001600282018054600181600116156101000203166002900480601f01602080910402602001604051908101604052809291908181526020018280546001816001161561010002031660029004801561322f5780601f106132045761010080835404028352916020019161322f565b820191906000526020600020905b81548152906001019060200180831161321257829003601f168201915b50505050508152602001600382018054600181600116156101000203166002900480601f0160208091040260200160405190810160405280929190818152602001828054600181600116156101000203166002900480156132d15780601f106132a6576101008083540402835291602001916132d1565b820191906000526020600020905b8154815290600101906020018083116132b457829003601f168201915b5050505050815260200160048201548152505090506000339050600082602001519050600083608001519050600060648287028161330b57fe5b049050600081870390508661016060009054906101000a900473ffffffffffffffffffffffffffffffffffffffff1673ffffffffffffffffffffffffffffffffffffffff166370a08231876040518263ffffffff1660e01b8152600401808273ffffffffffffffffffffffffffffffffffffffff16815260200191505060206040518083038186803b1580156133a057600080fd5b505afa1580156133b4573d6000803e3d6000fd5b505050506040513d60208110156133ca57600080fd5b81019080805190602001909291905050501015613432576040517f08c379a000000000000000000000000000000000000000000000000000000000815260040180806020018281038252602f815260200180614f21602f913960400191505060405180910390fd5b8373ffffffffffffffffffffffffffffffffffffffff168573ffffffffffffffffffffffffffffffffffffffff168a7fbeb6f1d3f6763543ec116c367e1a2e8d3d01a2bcc2e3c66f44b8f4fec52c4d51428c8660405180848152602001838152602001828152602001935050505060405180910390a461016060009054906101000a900473ffffffffffffffffffffffffffffffffffffffff1673ffffffffffffffffffffffffffffffffffffffff166347ab2eb88686846040518463ffffffff1660e01b8152600401808473ffffffffffffffffffffffffffffffffffffffff1681526020018373ffffffffffffffffffffffffffffffffffffffff1681526020018281526020019350505050600060405180830381600087803b15801561355a57600080fd5b505af115801561356e573d6000803e3d6000fd5b5050505061016060009054906101000a900473ffffffffffffffffffffffffffffffffffffffff1673ffffffffffffffffffffffffffffffffffffffff166347ab2eb88661016160009054906101000a900473ffffffffffffffffffffffffffffffffffffffff16856040518463ffffffff1660e01b8152600401808473ffffffffffffffffffffffffffffffffffffffff1681526020018373ffffffffffffffffffffffffffffffffffffffff1681526020018281526020019350505050600060405180830381600087803b15801561364757600080fd5b505af115801561365b573d6000803e3d6000fd5b5050505061016260009054906101000a900473ffffffffffffffffffffffffffffffffffffffff1673ffffffffffffffffffffffffffffffffffffffff1663a22cb4658660016040518363ffffffff1660e01b8152600401808373ffffffffffffffffffffffffffffffffffffffff168152602001821515815260200192505050600060405180830381600087803b1580156136f657600080fd5b505af115801561370a573d6000803e3d6000fd5b5050505061374d61016160009054906101000a900473ffffffffffffffffffffffffffffffffffffffff16868b8b604051806020016040528060008152506138b0565b61016260009054906101000a900473ffffffffffffffffffffffffffffffffffffffff1673ffffffffffffffffffffffffffffffffffffffff1663a22cb4658660006040518363ffffffff1660e01b8152600401808373ffffffffffffffffffffffffffffffffffffffff168152602001821515815260200192505050600060405180830381600087803b1580156137e457600080fd5b505af11580156137f8573d6000803e3d6000fd5b50505050505050505050505050565b600060ca60008473ffffffffffffffffffffffffffffffffffffffff1673ffffffffffffffffffffffffffffffffffffffff16815260200190815260200160002060008373ffffffffffffffffffffffffffffffffffffffff1673ffffffffffffffffffffffffffffffffffffffff16815260200190815260200160002060009054906101000a900460ff16905092915050565b600063f23a6e6160e01b905095945050505050565b600073ffffffffffffffffffffffffffffffffffffffff168473ffffffffffffffffffffffffffffffffffffffff161415613936576040517f08c379a00000000000000000000000000000000000000000000000000000000081526004018080602001828103825260258152602001806150366025913960400191505060405180910390fd5b61393e613e19565b73ffffffffffffffffffffffffffffffffffffffff168573ffffffffffffffffffffffffffffffffffffffff16148061398457506139838561397e613e19565b613807565b5b6139d9576040517f08c379a0000000000000000000000000000000000000000000000000000000008152600401808060200182810382526029815260200180614faa6029913960400191505060405180910390fd5b60006139e3613e19565b9050613a038187876139f4886146a3565b6139fd886146a3565b87613e21565b613a80836040518060600160405280602a815260200161508d602a913960c9600088815260200190815260200160002060008a73ffffffffffffffffffffffffffffffffffffffff1673ffffffffffffffffffffffffffffffffffffffff16815260200190815260200160002054613e299092919063ffffffff16565b60c9600086815260200190815260200160002060008873ffffffffffffffffffffffffffffffffffffffff1673ffffffffffffffffffffffffffffffffffffffff16815260200190815260200160002081905550613b378360c9600087815260200190815260200160002060008873ffffffffffffffffffffffffffffffffffffffff1673ffffffffffffffffffffffffffffffffffffffff16815260200190815260200160002054613ee390919063ffffffff16565b60c9600086815260200190815260200160002060008773ffffffffffffffffffffffffffffffffffffffff1673ffffffffffffffffffffffffffffffffffffffff168152602001908152602001600020819055508473ffffffffffffffffffffffffffffffffffffffff168673ffffffffffffffffffffffffffffffffffffffff168273ffffffffffffffffffffffffffffffffffffffff167fc3d58168c5ae7397731d063d5bbf3d657854427343f4c083240f7aacaa2d0f628787604051808381526020018281526020019250505060405180910390a4613c1d818787878787614713565b505050505050565b6000613c2f614cb8565b61016660008481526020019081526020016000206040518060a0016040529081600082015481526020016001820160009054906101000a900473ffffffffffffffffffffffffffffffffffffffff1673ffffffffffffffffffffffffffffffffffffffff1673ffffffffffffffffffffffffffffffffffffffff168152602001600282018054600181600116156101000203166002900480601f016020809104026020016040519081016040528092919081815260200182805460018160011615610100020316600290048015613d475780601f10613d1c57610100808354040283529160200191613d47565b820191906000526020600020905b815481529060010190602001808311613d2a57829003601f168201915b50505050508152602001600382018054600181600116156101000203166002900480601f016020809104026020016040519081016040528092919081815260200182805460018160011615610100020316600290048015613de95780601f10613dbe57610100808354040283529160200191613de9565b820191906000526020600020905b815481529060010190602001808311613dcc57829003601f168201915b5050505050815260200160048201548152505090508060800151915050919050565b600081600001549050919050565b600033905090565b505050505050565b6000838311158290613ed6576040517f08c379a00000000000000000000000000000000000000000000000000000000081526004018080602001828103825283818151815260200191508051906020019080838360005b83811015613e9b578082015181840152602081019050613e80565b50505050905090810190601f168015613ec85780820380516001836020036101000a031916815260200191505b509250505060405180910390fd5b5082840390509392505050565b600080828401905083811015613f61576040517f08c379a000000000000000000000000000000000000000000000000000000000815260040180806020018281038252601b8152602001807f536166654d6174683a206164646974696f6e206f766572666c6f77000000000081525060200191505060405180910390fd5b8091505092915050565b613f8a8473ffffffffffffffffffffffffffffffffffffffff16614a20565b156142f2578373ffffffffffffffffffffffffffffffffffffffff1663bc197c8187878686866040518663ffffffff1660e01b8152600401808673ffffffffffffffffffffffffffffffffffffffff1681526020018573ffffffffffffffffffffffffffffffffffffffff168152602001806020018060200180602001848103845287818151815260200191508051906020019060200280838360005b83811015614042578082015181840152602081019050614027565b50505050905001848103835286818151815260200191508051906020019060200280838360005b83811015614084578082015181840152602081019050614069565b50505050905001848103825285818151815260200191508051906020019080838360005b838110156140c35780820151818401526020810190506140a8565b50505050905090810190601f1680156140f05780820380516001836020036101000a031916815260200191505b5098505050505050505050602060405180830381600087803b15801561411557600080fd5b505af192505050801561414957506040513d602081101561413557600080fd5b810190808051906020019092919050505060015b61425357614155614dc6565b806141605750614202565b806040517f08c379a00000000000000000000000000000000000000000000000000000000081526004018080602001828103825283818151815260200191508051906020019080838360005b838110156141c75780820151818401526020810190506141ac565b50505050905090810190601f1680156141f45780820380516001836020036101000a031916815260200191505b509250505060405180910390fd5b6040517f08c379a0000000000000000000000000000000000000000000000000000000008152600401808060200182810382526034815260200180614e7d6034913960400191505060405180910390fd5b63bc197c8160e01b7bffffffffffffffffffffffffffffffffffffffffffffffffffffffff1916817bffffffffffffffffffffffffffffffffffffffffffffffffffffffff1916146142f0576040517f08c379a0000000000000000000000000000000000000000000000000000000008152600401808060200182810382526028815260200180614ef96028913960400191505060405180910390fd5b505b505050505050565b6143228160336000858152602001908152602001600020600001614a3390919063ffffffff16565b1561438a5761432f613e19565b73ffffffffffffffffffffffffffffffffffffffff168173ffffffffffffffffffffffffffffffffffffffff16837f2f8788117e7eff1d82e926ec794901d17c78024a50270940304540a733656f0d60405160405180910390a45b5050565b6143b68160336000858152602001908152602001600020600001614a6390919063ffffffff16565b1561441e576143c3613e19565b73ffffffffffffffffffffffffffffffffffffffff168173ffffffffffffffffffffffffffffffffffffffff16837ff6391f5c32d9c69d2a47ea670b442974b53935d1edc7fd64eb21e047a839171b60405160405180910390a45b5050565b60006144318360000183614a93565b60001c905092915050565b6000614464836000018373ffffffffffffffffffffffffffffffffffffffff1660001b614b16565b905092915050565b614477610164614b39565b614482610164613e0b565b61016581905550565b600073ffffffffffffffffffffffffffffffffffffffff168473ffffffffffffffffffffffffffffffffffffffff161415614511576040517f08c379a00000000000000000000000000000000000000000000000000000000081526004018080602001828103825260218152602001806151576021913960400191505060405180910390fd5b600061451b613e19565b905061453c8160008761452d886146a3565b614536886146a3565b87613e21565b61459f8360c9600087815260200190815260200160002060008873ffffffffffffffffffffffffffffffffffffffff1673ffffffffffffffffffffffffffffffffffffffff16815260200190815260200160002054613ee390919063ffffffff16565b60c9600086815260200190815260200160002060008773ffffffffffffffffffffffffffffffffffffffff1673ffffffffffffffffffffffffffffffffffffffff168152602001908152602001600020819055508473ffffffffffffffffffffffffffffffffffffffff16600073ffffffffffffffffffffffffffffffffffffffff168273ffffffffffffffffffffffffffffffffffffffff167fc3d58168c5ae7397731d063d5bbf3d657854427343f4c083240f7aacaa2d0f628787604051808381526020018281526020019250505060405180910390a461468781600087878787614713565b5050505050565b600061469c82600001614b4f565b9050919050565b606080600167ffffffffffffffff811180156146be57600080fd5b506040519080825280602002602001820160405280156146ed5781602001602082028036833780820191505090505b50905082816000815181106146fe57fe5b60200260200101818152505080915050919050565b6147328473ffffffffffffffffffffffffffffffffffffffff16614a20565b15614a18578373ffffffffffffffffffffffffffffffffffffffff1663f23a6e6187878686866040518663ffffffff1660e01b8152600401808673ffffffffffffffffffffffffffffffffffffffff1681526020018573ffffffffffffffffffffffffffffffffffffffff16815260200184815260200183815260200180602001828103825283818151815260200191508051906020019080838360005b838110156147eb5780820151818401526020810190506147d0565b50505050905090810190601f1680156148185780820380516001836020036101000a031916815260200191505b509650505050505050602060405180830381600087803b15801561483b57600080fd5b505af192505050801561486f57506040513d602081101561485b57600080fd5b810190808051906020019092919050505060015b6149795761487b614dc6565b806148865750614928565b806040517f08c379a00000000000000000000000000000000000000000000000000000000081526004018080602001828103825283818151815260200191508051906020019080838360005b838110156148ed5780820151818401526020810190506148d2565b50505050905090810190601f16801561491a5780820380516001836020036101000a031916815260200191505b509250505060405180910390fd5b6040517f08c379a0000000000000000000000000000000000000000000000000000000008152600401808060200182810382526034815260200180614e7d6034913960400191505060405180910390fd5b63f23a6e6160e01b7bffffffffffffffffffffffffffffffffffffffffffffffffffffffff1916817bffffffffffffffffffffffffffffffffffffffffffffffffffffffff191614614a16576040517f08c379a0000000000000000000000000000000000000000000000000000000008152600401808060200182810382526028815260200180614ef96028913960400191505060405180910390fd5b505b505050505050565b600080823b905060008111915050919050565b6000614a5b836000018373ffffffffffffffffffffffffffffffffffffffff1660001b614b60565b905092915050565b6000614a8b836000018373ffffffffffffffffffffffffffffffffffffffff1660001b614bd0565b905092915050565b600081836000018054905011614af4576040517f08c379a0000000000000000000000000000000000000000000000000000000008152600401808060200182810382526022815260200180614eb16022913960400191505060405180910390fd5b826000018281548110614b0357fe5b9060005260206000200154905092915050565b600080836001016000848152602001908152602001600020541415905092915050565b6001816000016000828254019250508190555050565b600081600001805490509050919050565b6000614b6c8383614b16565b614bc5578260000182908060018154018082558091505060019003906000526020600020016000909190919091505582600001805490508360010160008481526020019081526020016000208190555060019050614bca565b600090505b92915050565b60008083600101600084815260200190815260200160002054905060008114614cac5760006001820390506000600186600001805490500390506000866000018281548110614c1b57fe5b9060005260206000200154905080876000018481548110614c3857fe5b9060005260206000200181905550600183018760010160008381526020019081526020016000208190555086600001805480614c7057fe5b60019003818190600052602060002001600090559055866001016000878152602001908152602001600020600090556001945050505050614cb2565b60009150505b92915050565b6040518060a0016040528060008152602001600073ffffffffffffffffffffffffffffffffffffffff1681526020016060815260200160608152602001600081525090565b828054600181600116156101000203166002900490600052602060002090601f016020900481019282614d335760008555614d7a565b82601f10614d4c57805160ff1916838001178555614d7a565b82800160010185558215614d7a579182015b82811115614d79578251825591602001919060010190614d5e565b5b509050614d879190614d8b565b5090565b5b80821115614da4576000816000905550600101614d8c565b5090565b6000601f19601f8301169050919050565b60008160e01c9050919050565b600060443d1015614dd657614e79565b60046000803e614de7600051614db9565b6308c379a08114614df85750614e79565b60405160043d036004823e80513d602482011167ffffffffffffffff82111715614e2457505050614e79565b808201805167ffffffffffffffff811115614e43575050505050614e79565b8060208301013d8501811115614e5e57505050505050614e79565b614e6782614da8565b60208401016040528296505050505050505b9056fe455243313135353a207472616e7366657220746f206e6f6e2045524331313535526563656976657220696d706c656d656e746572456e756d657261626c655365743a20696e646578206f7574206f6620626f756e6473546869732061737365742068617320616c7265616479206265656e20746f6b656e697a65642e455243313135353a204552433131353552656365697665722072656a656374656420746f6b656e73596f75206861766520696e73756666696369656e742066756e647320746f20707572636861736520746f6b656e732e416363657373436f6e74726f6c3a2073656e646572206d75737420626520616e2061646d696e20746f206772616e74455243313135353a2062616c616e636520717565727920666f7220746865207a65726f2061646472657373455243313135353a2063616c6c6572206973206e6f74206f776e6572206e6f7220617070726f7665644e756d626572206f6620746f6b656e73207075726368617365642065786365656420746f6b656e7320617661696c61626c652e416363657373436f6e74726f6c3a2073656e646572206d75737420626520616e2061646d696e20746f207265766f6b65455243313135353a207472616e7366657220746f20746865207a65726f2061646472657373455243313135353a207472616e736665722063616c6c6572206973206e6f74206f776e6572206e6f7220617070726f766564455243313135353a20696e73756666696369656e742062616c616e636520666f72207472616e73666572455243313135353a2073657474696e6720617070726f76616c2073746174757320666f722073656c66455243313135353a206163636f756e747320616e6420696473206c656e677468206d69736d617463684163636573732044656e6965643a2043616c6c6572206973206e6f74207468652041646d696e455243313135353a2069647320616e6420616d6f756e7473206c656e677468206d69736d61746368455243313135353a206d696e7420746f20746865207a65726f2061646472657373416363657373436f6e74726f6c3a2063616e206f6e6c792072656e6f756e636520726f6c657320666f722073656c664e756d626572206f6620555344542077697468647261776e206578636565642062616c616e63652ea26469706673582212204c254090481c5e2e8622f3ca54e6824b10276ac0ee298e87b09dff3dc62f4e9364736f6c63430007040033",
  "immutableReferences": {},
  "source": "// SPDX-License-Identifier: MIT\n\npragma solidity ^0.7.4;\n\nimport \"./libraries/AccessControlUpgradeable.sol\";\nimport \"./libraries/PausableUpgradeable.sol\";\nimport './RETokenStorageOne.sol';\n\n/**\n * @title RETokenBusinessLogic\n * @dev This contract provides the business logic for RETokenProxy with an authorization\n * mechanism for admin tasks.\n * \n * VERSION: 2 (Ver.2)\n * 1. Add buyToken() function for Investor to purchase tokens from Owner.\n */ \n\ncontract LogicTwo is AccessControlUpgradeable, PausableUpgradeable, RETokenStorageOne {\n\n    /**\n     * @dev Ver.1 Throws if called by any account without ADMIN_ROLE access.\n     */\n    modifier onlyAdmin() {\n        require(hasRole(ADMIN_ROLE, msg.sender), \"Access Denied: Caller is not the Admin\");\n        _;\n    }\n\n    /**\n     * @dev Series of functions to retrieve token details from `REToken` struct, including\n     * Total Supply, Owner, Valuation Report, Legal Contract and Service Fee.\n     *\n     * @param tokenId - Unique token id of token\n     */\n    function getTotalSupply(uint256 tokenId) external view returns (uint256) {\n        REToken memory token = reToken[tokenId];\n        return token.totalSupply;\n    }\n\n    function getOwner(uint256 tokenId) external view returns (address) {\n        REToken memory token = reToken[tokenId];\n        return token.owner;\n    }\n\n    function getValuationRpt(uint256 tokenId) external view returns (string memory) {\n        REToken memory token = reToken[tokenId];\n        return token.valuationReport;\n    }\n\n    function getLegalContr(uint256 tokenId) external view returns (string memory) {\n        REToken memory token = reToken[tokenId];\n        return token.legalContract;\n    }\n\n    function getFee(uint256 tokenId) public view returns (uint256) {\n        REToken memory token = reToken[tokenId];\n        return token.fee;\n    }\n\n    /**\n     * @dev Creates `totalAmt` tokens of token type `newTokenId`, and assigns `adminAmt` to\n     * `proxy_contract` and `ownerAmt` `assetOwner` by calling ERC1155 _mint function.\n     *\n     * Can only be called by the current admin.\n     * \n     * Emits a {RETokenID} event.\n     * Emits two {TransferSingle} events via ERC1155 library.\n     *\n     * Requirements:\n     * - `legalContr` must not have been used for another token ID.\n     *\n     * @param assetOwner - Asset Owner wallet address\n     * @param totalAmt - Total number of tokens for unique token ID\n     * @param ownerAmt - Total number of tokens for Asset Owner\n     * @param valueRpt - File Hash of Valuation Report\n     * @param legalContr - File Hash of Legal Contract\n     */\n    function mintToken(address assetOwner, uint256 totalAmt, uint256 ownerAmt, string memory valueRpt, string memory legalContr, uint256 fee) external onlyAdmin whenNotPaused {\n        require(_legalContracts[legalContr] == 0, \"This asset has already been tokenized.\");\n\n        RETokenStorageOne.incrementTokenId();\n        \n        uint256 newTokenId = _tokenID;\n        uint256 adminAmt = totalAmt - ownerAmt;\n\n        emit RETokenID(block.timestamp, newTokenId, totalAmt, assetOwner, valueRpt, legalContr);\n\n        // Creates and updates REToken Struct of unique token ID with token details\n        REToken storage token = reToken[_tokenID];\n        token.totalSupply = totalAmt;\n        token.owner = assetOwner;\n        token.valuationReport = valueRpt;\n        token.legalContract = legalContr;\n        token.fee = fee;\n\n        _legalContracts[legalContr] = _tokenID;\n\n        _mint(proxy_contract, newTokenId, adminAmt, \"\");\n        _mint(assetOwner, newTokenId, ownerAmt, \"\");\n    }\n    \n    /**\n     * @dev Withdraws USDT from Proxy Contract\n     *\n     * Can only be called by the current admin.\n     * \n     * Emits a {USDTWithdrawn} event.\n     *\n     * @param recipient - Wallet address to withdraw USDT to\n     * @param amt - Amount of USDT to withdraw\n     */\n    function withdrawUSDT(address recipient, uint256 amt) external onlyAdmin {\n        require(usdtContract.balanceOf(proxy_contract) >= amt, \"Number of USDT withdrawn exceed balance.\");\n        \n        emit USDTWithdrawn(block.timestamp, msg.sender, recipient, amt);\n        \n        usdtContract.transferUSDT(proxy_contract, recipient, amt);\n    }\n\n    /**\n     * @dev Ver.2 Transfers `tokenAmt` tokens of token type `id` from `proxy-contract` to `investor`\n     * by calling ERC1155 safeTransferFrom function.\n     * Approves `investor` to transfer tokens of `proxy-contract` and removes the approval\n     * after transferring by calling ERC1155 setApprovalForAll function.\n     * Requires usage of external call `proxyContract` to ensure msg.sender is Proxy Contract address.\n     * \n     * Emits a {RETokenUSDT} event.\n     * Emits a {TransferSingle} event and two {ApprovalForAll} events via ERC1155 library.\n     * \n     * Requirements:\n     * - `id` must be equal or less than current Token ID.\n     * - `tokenAmt` must be equal or less than balance of Proxy Contract\n     *\n     * Transfers `usdtAmt` tokens from `investor` to `owner` via USDT Contract transferUSDT function by\n     * calling ERC20 _transfer function.\n     * Requires usage of external call `usdtContract` to communicate with USDT Contract.\n     * \n     * Emits a {Transfer} event in USDT Contract via ERC20 library.\n     *\n     * Requirements:\n     * - `usdtAmt` must be equal or more than balance of investor.\n     *\n     * @param id - Token ID\n     * @param tokenAmt - Number of tokens purchased\n     * @param usdtAmt - Price of tokens purchased in USDT\n     */\n    function buyToken(uint256 id, uint256 tokenAmt, uint256 usdtAmt) external whenNotPaused {\n        require(_tokenID >= id, \"Token ID doesn't exist.\");\n        require(balanceOf(proxy_contract, id) >= tokenAmt, \"Number of tokens purchased exceed tokens available.\");\n\n        REToken memory token = reToken[id];\n        \n        address investor = msg.sender;\n        address owner = token.owner;\n        uint256 fee = token.fee;\n        uint256 serviceFee = (usdtAmt * fee) / 100;\n        uint256 ownerProceeds = usdtAmt - serviceFee;\n        \n        require(usdtContract.balanceOf(investor) >= usdtAmt, \"You have insufficient funds to purchase tokens.\");\n\n        emit RETokenUSDT(block.timestamp, id, tokenAmt, investor, owner, ownerProceeds);\n\n        usdtContract.transferUSDT(investor, owner, ownerProceeds);\n        usdtContract.transferUSDT(investor, proxy_contract, serviceFee);\n\n        proxyContract.setApprovalForAll(investor, true);\n        safeTransferFrom(proxy_contract, investor, id, tokenAmt, \"\");\n        proxyContract.setApprovalForAll(investor, false);\n    }\n    \n}",
  "sourcePath": "C:/Users/seexy/Downloads/Project/solidity/v4/contracts/LogicTwo.sol",
  "compiler": {
    "name": "solc",
    "version": "0.7.4+commit.3f05b770.Emscripten.clang"
  },
  "schemaVersion": "3.3.4",
  "updatedAt": "2021-03-23T03:46:56.917Z",
  "networkType": "ethereum",
  "devdoc": {
    "details": "This contract provides the business logic for RETokenProxy with an authorization mechanism for admin tasks.  VERSION: 2 (Ver.2) 1. Add buyToken() function for Investor to purchase tokens from Owner.",
    "kind": "dev",
    "methods": {
      "balanceOf(address,uint256)": {
        "details": "See {IERC1155-balanceOf}. Requirements: - `account` cannot be the zero address."
      },
      "balanceOfBatch(address[],uint256[])": {
        "details": "See {IERC1155-balanceOfBatch}. Requirements: - `accounts` and `ids` must have the same length."
      },
      "buyToken(uint256,uint256,uint256)": {
        "details": "Ver.2 Transfers `tokenAmt` tokens of token type `id` from `proxy-contract` to `investor` by calling ERC1155 safeTransferFrom function. Approves `investor` to transfer tokens of `proxy-contract` and removes the approval after transferring by calling ERC1155 setApprovalForAll function. Requires usage of external call `proxyContract` to ensure msg.sender is Proxy Contract address.  Emits a {RETokenUSDT} event. Emits a {TransferSingle} event and two {ApprovalForAll} events via ERC1155 library.  Requirements: - `id` must be equal or less than current Token ID. - `tokenAmt` must be equal or less than balance of Proxy Contract Transfers `usdtAmt` tokens from `investor` to `owner` via USDT Contract transferUSDT function by calling ERC20 _transfer function. Requires usage of external call `usdtContract` to communicate with USDT Contract.  Emits a {Transfer} event in USDT Contract via ERC20 library. Requirements: - `usdtAmt` must be equal or more than balance of investor.",
        "params": {
          "id": "- Token ID",
          "tokenAmt": "- Number of tokens purchased",
          "usdtAmt": "- Price of tokens purchased in USDT"
        }
      },
      "getRoleAdmin(bytes32)": {
        "details": "Returns the admin role that controls `role`. See {grantRole} and {revokeRole}. To change a role's admin, use {_setRoleAdmin}."
      },
      "getRoleMember(bytes32,uint256)": {
        "details": "Returns one of the accounts that have `role`. `index` must be a value between 0 and {getRoleMemberCount}, non-inclusive. Role bearers are not sorted in any particular way, and their ordering may change at any point. WARNING: When using {getRoleMember} and {getRoleMemberCount}, make sure you perform all queries on the same block. See the following https://forum.openzeppelin.com/t/iterating-over-elements-on-enumerableset-in-openzeppelin-contracts/2296[forum post] for more information."
      },
      "getRoleMemberCount(bytes32)": {
        "details": "Returns the number of accounts that have `role`. Can be used together with {getRoleMember} to enumerate all bearers of a role."
      },
      "getTotalSupply(uint256)": {
        "details": "Series of functions to retrieve token details from `REToken` struct, including Total Supply, Owner, Valuation Report, Legal Contract and Service Fee.",
        "params": {
          "tokenId": "- Unique token id of token"
        }
      },
      "grantRole(bytes32,address)": {
        "details": "Grants `role` to `account`. If `account` had not been already granted `role`, emits a {RoleGranted} event. Requirements: - the caller must have ``role``'s admin role."
      },
      "hasRole(bytes32,address)": {
        "details": "Returns `true` if `account` has been granted `role`."
      },
      "isApprovedForAll(address,address)": {
        "details": "See {IERC1155-isApprovedForAll}."
      },
      "mintToken(address,uint256,uint256,string,string,uint256)": {
        "details": "Creates `totalAmt` tokens of token type `newTokenId`, and assigns `adminAmt` to `proxy_contract` and `ownerAmt` `assetOwner` by calling ERC1155 _mint function. Can only be called by the current admin.  Emits a {RETokenID} event. Emits two {TransferSingle} events via ERC1155 library. Requirements: - `legalContr` must not have been used for another token ID.",
        "params": {
          "assetOwner": "- Asset Owner wallet address",
          "legalContr": "- File Hash of Legal Contract",
          "ownerAmt": "- Total number of tokens for Asset Owner",
          "totalAmt": "- Total number of tokens for unique token ID",
          "valueRpt": "- File Hash of Valuation Report"
        }
      },
      "paused()": {
        "details": "Returns true if the contract is paused, and false otherwise."
      },
      "renounceRole(bytes32,address)": {
        "details": "Revokes `role` from the calling account. Roles are often managed via {grantRole} and {revokeRole}: this function's purpose is to provide a mechanism for accounts to lose their privileges if they are compromised (such as when a trusted device is misplaced). If the calling account had been granted `role`, emits a {RoleRevoked} event. Requirements: - the caller must be `account`."
      },
      "revokeRole(bytes32,address)": {
        "details": "Revokes `role` from `account`. If `account` had been granted `role`, emits a {RoleRevoked} event. Requirements: - the caller must have ``role``'s admin role."
      },
      "safeBatchTransferFrom(address,address,uint256[],uint256[],bytes)": {
        "details": "See {IERC1155-safeBatchTransferFrom}."
      },
      "safeTransferFrom(address,address,uint256,uint256,bytes)": {
        "details": "See {IERC1155-safeTransferFrom}."
      },
      "setApprovalForAll(address,bool)": {
        "details": "See {IERC1155-setApprovalForAll}."
      },
      "supportsInterface(bytes4)": {
        "details": "See {IERC165-supportsInterface}. Time complexity O(1), guaranteed to always use less than 30 000 gas."
      },
      "uri(uint256)": {
        "details": "See {IERC1155MetadataURI-uri}. This implementation returns the same URI for *all* token types. It relies on the token type ID substitution mechanism https://eips.ethereum.org/EIPS/eip-1155#metadata[defined in the EIP]. Clients calling this function must replace the `\\{id\\}` substring with the actual token type ID."
      },
      "withdrawUSDT(address,uint256)": {
        "details": "Withdraws USDT from Proxy Contract Can only be called by the current admin.  Emits a {USDTWithdrawn} event.",
        "params": {
          "amt": "- Amount of USDT to withdraw",
          "recipient": "- Wallet address to withdraw USDT to"
        }
      }
    },
    "title": "RETokenBusinessLogic",
    "version": 1
  },
  "userdoc": {
    "kind": "user",
    "methods": {},
    "version": 1
  }
}