{
  "contractName": "LogicOne",
  "abi": [
    {
      "anonymous": false,
      "inputs": [
        {
          "indexed": true,
          "internalType": "address",
          "name": "account",
          "type": "address"
        },
        {
          "indexed": true,
          "internalType": "address",
          "name": "operator",
          "type": "address"
        },
        {
          "indexed": false,
          "internalType": "bool",
          "name": "approved",
          "type": "bool"
        }
      ],
      "name": "ApprovalForAll",
      "type": "event"
    },
    {
      "anonymous": false,
      "inputs": [
        {
          "indexed": true,
          "internalType": "uint256",
          "name": "id",
          "type": "uint256"
        },
        {
          "indexed": true,
          "internalType": "uint256",
          "name": "totalSupply",
          "type": "uint256"
        },
        {
          "indexed": true,
          "internalType": "address",
          "name": "owner",
          "type": "address"
        },
        {
          "indexed": false,
          "internalType": "string",
          "name": "valuationReport",
          "type": "string"
        },
        {
          "indexed": false,
          "internalType": "string",
          "name": "legalContract",
          "type": "string"
        }
      ],
      "name": "RETokenID",
      "type": "event"
    },
    {
      "anonymous": false,
      "inputs": [
        {
          "indexed": true,
          "internalType": "uint256",
          "name": "id",
          "type": "uint256"
        },
        {
          "indexed": false,
          "internalType": "uint256",
          "name": "tokenAmt",
          "type": "uint256"
        },
        {
          "indexed": true,
          "internalType": "address",
          "name": "buyer",
          "type": "address"
        },
        {
          "indexed": true,
          "internalType": "address",
          "name": "seller",
          "type": "address"
        },
        {
          "indexed": false,
          "internalType": "uint256",
          "name": "USDT",
          "type": "uint256"
        }
      ],
      "name": "RETokenUSDT",
      "type": "event"
    },
    {
      "anonymous": false,
      "inputs": [
        {
          "indexed": true,
          "internalType": "bytes32",
          "name": "role",
          "type": "bytes32"
        },
        {
          "indexed": true,
          "internalType": "bytes32",
          "name": "previousAdminRole",
          "type": "bytes32"
        },
        {
          "indexed": true,
          "internalType": "bytes32",
          "name": "newAdminRole",
          "type": "bytes32"
        }
      ],
      "name": "RoleAdminChanged",
      "type": "event"
    },
    {
      "anonymous": false,
      "inputs": [
        {
          "indexed": true,
          "internalType": "bytes32",
          "name": "role",
          "type": "bytes32"
        },
        {
          "indexed": true,
          "internalType": "address",
          "name": "account",
          "type": "address"
        },
        {
          "indexed": true,
          "internalType": "address",
          "name": "sender",
          "type": "address"
        }
      ],
      "name": "RoleGranted",
      "type": "event"
    },
    {
      "anonymous": false,
      "inputs": [
        {
          "indexed": true,
          "internalType": "bytes32",
          "name": "role",
          "type": "bytes32"
        },
        {
          "indexed": true,
          "internalType": "address",
          "name": "account",
          "type": "address"
        },
        {
          "indexed": true,
          "internalType": "address",
          "name": "sender",
          "type": "address"
        }
      ],
      "name": "RoleRevoked",
      "type": "event"
    },
    {
      "anonymous": false,
      "inputs": [
        {
          "indexed": true,
          "internalType": "address",
          "name": "operator",
          "type": "address"
        },
        {
          "indexed": true,
          "internalType": "address",
          "name": "from",
          "type": "address"
        },
        {
          "indexed": true,
          "internalType": "address",
          "name": "to",
          "type": "address"
        },
        {
          "indexed": false,
          "internalType": "uint256[]",
          "name": "ids",
          "type": "uint256[]"
        },
        {
          "indexed": false,
          "internalType": "uint256[]",
          "name": "values",
          "type": "uint256[]"
        }
      ],
      "name": "TransferBatch",
      "type": "event"
    },
    {
      "anonymous": false,
      "inputs": [
        {
          "indexed": true,
          "internalType": "address",
          "name": "operator",
          "type": "address"
        },
        {
          "indexed": true,
          "internalType": "address",
          "name": "from",
          "type": "address"
        },
        {
          "indexed": true,
          "internalType": "address",
          "name": "to",
          "type": "address"
        },
        {
          "indexed": false,
          "internalType": "uint256",
          "name": "id",
          "type": "uint256"
        },
        {
          "indexed": false,
          "internalType": "uint256",
          "name": "value",
          "type": "uint256"
        }
      ],
      "name": "TransferSingle",
      "type": "event"
    },
    {
      "anonymous": false,
      "inputs": [
        {
          "indexed": false,
          "internalType": "string",
          "name": "value",
          "type": "string"
        },
        {
          "indexed": true,
          "internalType": "uint256",
          "name": "id",
          "type": "uint256"
        }
      ],
      "name": "URI",
      "type": "event"
    },
    {
      "inputs": [],
      "name": "ADMIN_ROLE",
      "outputs": [
        {
          "internalType": "bytes32",
          "name": "",
          "type": "bytes32"
        }
      ],
      "stateMutability": "view",
      "type": "function"
    },
    {
      "inputs": [],
      "name": "DEFAULT_ADMIN_ROLE",
      "outputs": [
        {
          "internalType": "bytes32",
          "name": "",
          "type": "bytes32"
        }
      ],
      "stateMutability": "view",
      "type": "function"
    },
    {
      "inputs": [],
      "name": "MODERATOR",
      "outputs": [
        {
          "internalType": "bytes32",
          "name": "",
          "type": "bytes32"
        }
      ],
      "stateMutability": "view",
      "type": "function"
    },
    {
      "inputs": [],
      "name": "_tokenID",
      "outputs": [
        {
          "internalType": "uint256",
          "name": "",
          "type": "uint256"
        }
      ],
      "stateMutability": "view",
      "type": "function"
    },
    {
      "inputs": [
        {
          "internalType": "address",
          "name": "account",
          "type": "address"
        },
        {
          "internalType": "uint256",
          "name": "id",
          "type": "uint256"
        }
      ],
      "name": "balanceOf",
      "outputs": [
        {
          "internalType": "uint256",
          "name": "",
          "type": "uint256"
        }
      ],
      "stateMutability": "view",
      "type": "function"
    },
    {
      "inputs": [
        {
          "internalType": "address[]",
          "name": "accounts",
          "type": "address[]"
        },
        {
          "internalType": "uint256[]",
          "name": "ids",
          "type": "uint256[]"
        }
      ],
      "name": "balanceOfBatch",
      "outputs": [
        {
          "internalType": "uint256[]",
          "name": "",
          "type": "uint256[]"
        }
      ],
      "stateMutability": "view",
      "type": "function"
    },
    {
      "inputs": [
        {
          "internalType": "bytes32",
          "name": "role",
          "type": "bytes32"
        }
      ],
      "name": "getRoleAdmin",
      "outputs": [
        {
          "internalType": "bytes32",
          "name": "",
          "type": "bytes32"
        }
      ],
      "stateMutability": "view",
      "type": "function"
    },
    {
      "inputs": [
        {
          "internalType": "bytes32",
          "name": "role",
          "type": "bytes32"
        },
        {
          "internalType": "uint256",
          "name": "index",
          "type": "uint256"
        }
      ],
      "name": "getRoleMember",
      "outputs": [
        {
          "internalType": "address",
          "name": "",
          "type": "address"
        }
      ],
      "stateMutability": "view",
      "type": "function"
    },
    {
      "inputs": [
        {
          "internalType": "bytes32",
          "name": "role",
          "type": "bytes32"
        }
      ],
      "name": "getRoleMemberCount",
      "outputs": [
        {
          "internalType": "uint256",
          "name": "",
          "type": "uint256"
        }
      ],
      "stateMutability": "view",
      "type": "function"
    },
    {
      "inputs": [
        {
          "internalType": "bytes32",
          "name": "role",
          "type": "bytes32"
        },
        {
          "internalType": "address",
          "name": "account",
          "type": "address"
        }
      ],
      "name": "grantRole",
      "outputs": [],
      "stateMutability": "nonpayable",
      "type": "function"
    },
    {
      "inputs": [
        {
          "internalType": "bytes32",
          "name": "role",
          "type": "bytes32"
        },
        {
          "internalType": "address",
          "name": "account",
          "type": "address"
        }
      ],
      "name": "hasRole",
      "outputs": [
        {
          "internalType": "bool",
          "name": "",
          "type": "bool"
        }
      ],
      "stateMutability": "view",
      "type": "function"
    },
    {
      "inputs": [
        {
          "internalType": "address",
          "name": "account",
          "type": "address"
        },
        {
          "internalType": "address",
          "name": "operator",
          "type": "address"
        }
      ],
      "name": "isApprovedForAll",
      "outputs": [
        {
          "internalType": "bool",
          "name": "",
          "type": "bool"
        }
      ],
      "stateMutability": "view",
      "type": "function"
    },
    {
      "inputs": [
        {
          "internalType": "address",
          "name": "",
          "type": "address"
        },
        {
          "internalType": "address",
          "name": "",
          "type": "address"
        },
        {
          "internalType": "uint256[]",
          "name": "",
          "type": "uint256[]"
        },
        {
          "internalType": "uint256[]",
          "name": "",
          "type": "uint256[]"
        },
        {
          "internalType": "bytes",
          "name": "",
          "type": "bytes"
        }
      ],
      "name": "onERC1155BatchReceived",
      "outputs": [
        {
          "internalType": "bytes4",
          "name": "",
          "type": "bytes4"
        }
      ],
      "stateMutability": "nonpayable",
      "type": "function"
    },
    {
      "inputs": [
        {
          "internalType": "address",
          "name": "",
          "type": "address"
        },
        {
          "internalType": "address",
          "name": "",
          "type": "address"
        },
        {
          "internalType": "uint256",
          "name": "",
          "type": "uint256"
        },
        {
          "internalType": "uint256",
          "name": "",
          "type": "uint256"
        },
        {
          "internalType": "bytes",
          "name": "",
          "type": "bytes"
        }
      ],
      "name": "onERC1155Received",
      "outputs": [
        {
          "internalType": "bytes4",
          "name": "",
          "type": "bytes4"
        }
      ],
      "stateMutability": "nonpayable",
      "type": "function"
    },
    {
      "inputs": [],
      "name": "proxy_contract",
      "outputs": [
        {
          "internalType": "address payable",
          "name": "",
          "type": "address"
        }
      ],
      "stateMutability": "view",
      "type": "function"
    },
    {
      "inputs": [
        {
          "internalType": "bytes32",
          "name": "role",
          "type": "bytes32"
        },
        {
          "internalType": "address",
          "name": "account",
          "type": "address"
        }
      ],
      "name": "renounceRole",
      "outputs": [],
      "stateMutability": "nonpayable",
      "type": "function"
    },
    {
      "inputs": [
        {
          "internalType": "bytes32",
          "name": "role",
          "type": "bytes32"
        },
        {
          "internalType": "address",
          "name": "account",
          "type": "address"
        }
      ],
      "name": "revokeRole",
      "outputs": [],
      "stateMutability": "nonpayable",
      "type": "function"
    },
    {
      "inputs": [
        {
          "internalType": "address",
          "name": "from",
          "type": "address"
        },
        {
          "internalType": "address",
          "name": "to",
          "type": "address"
        },
        {
          "internalType": "uint256[]",
          "name": "ids",
          "type": "uint256[]"
        },
        {
          "internalType": "uint256[]",
          "name": "amounts",
          "type": "uint256[]"
        },
        {
          "internalType": "bytes",
          "name": "data",
          "type": "bytes"
        }
      ],
      "name": "safeBatchTransferFrom",
      "outputs": [],
      "stateMutability": "nonpayable",
      "type": "function"
    },
    {
      "inputs": [
        {
          "internalType": "address",
          "name": "from",
          "type": "address"
        },
        {
          "internalType": "address",
          "name": "to",
          "type": "address"
        },
        {
          "internalType": "uint256",
          "name": "id",
          "type": "uint256"
        },
        {
          "internalType": "uint256",
          "name": "amount",
          "type": "uint256"
        },
        {
          "internalType": "bytes",
          "name": "data",
          "type": "bytes"
        }
      ],
      "name": "safeTransferFrom",
      "outputs": [],
      "stateMutability": "nonpayable",
      "type": "function"
    },
    {
      "inputs": [
        {
          "internalType": "address",
          "name": "operator",
          "type": "address"
        },
        {
          "internalType": "bool",
          "name": "approved",
          "type": "bool"
        }
      ],
      "name": "setApprovalForAll",
      "outputs": [],
      "stateMutability": "nonpayable",
      "type": "function"
    },
    {
      "inputs": [
        {
          "internalType": "bytes4",
          "name": "interfaceId",
          "type": "bytes4"
        }
      ],
      "name": "supportsInterface",
      "outputs": [
        {
          "internalType": "bool",
          "name": "",
          "type": "bool"
        }
      ],
      "stateMutability": "view",
      "type": "function"
    },
    {
      "inputs": [
        {
          "internalType": "uint256",
          "name": "",
          "type": "uint256"
        }
      ],
      "name": "uri",
      "outputs": [
        {
          "internalType": "string",
          "name": "",
          "type": "string"
        }
      ],
      "stateMutability": "view",
      "type": "function"
    },
    {
      "inputs": [],
      "name": "usdt_contract",
      "outputs": [
        {
          "internalType": "address",
          "name": "",
          "type": "address"
        }
      ],
      "stateMutability": "view",
      "type": "function"
    },
    {
      "inputs": [
        {
          "internalType": "uint256",
          "name": "tokenId",
          "type": "uint256"
        }
      ],
      "name": "getTotalSupply",
      "outputs": [
        {
          "internalType": "uint256",
          "name": "",
          "type": "uint256"
        }
      ],
      "stateMutability": "view",
      "type": "function"
    },
    {
      "inputs": [
        {
          "internalType": "uint256",
          "name": "tokenId",
          "type": "uint256"
        }
      ],
      "name": "getOwner",
      "outputs": [
        {
          "internalType": "address",
          "name": "",
          "type": "address"
        }
      ],
      "stateMutability": "view",
      "type": "function"
    },
    {
      "inputs": [
        {
          "internalType": "uint256",
          "name": "tokenId",
          "type": "uint256"
        }
      ],
      "name": "getValuationRpt",
      "outputs": [
        {
          "internalType": "string",
          "name": "",
          "type": "string"
        }
      ],
      "stateMutability": "view",
      "type": "function"
    },
    {
      "inputs": [
        {
          "internalType": "uint256",
          "name": "tokenId",
          "type": "uint256"
        }
      ],
      "name": "getLegalContr",
      "outputs": [
        {
          "internalType": "string",
          "name": "",
          "type": "string"
        }
      ],
      "stateMutability": "view",
      "type": "function"
    },
    {
      "inputs": [
        {
          "internalType": "address",
          "name": "assetOwner",
          "type": "address"
        },
        {
          "internalType": "uint256",
          "name": "totalAmt",
          "type": "uint256"
        },
        {
          "internalType": "uint256",
          "name": "ownerAmt",
          "type": "uint256"
        },
        {
          "internalType": "string",
          "name": "valueRpt",
          "type": "string"
        },
        {
          "internalType": "string",
          "name": "legalContr",
          "type": "string"
        }
      ],
      "name": "mintToken",
      "outputs": [],
      "stateMutability": "nonpayable",
      "type": "function"
    }
  ],
  "bytecode": "0x60806040526200001c6101316200003460201b62001f9f1760201c565b610132553480156200002d57600080fd5b5062000042565b600081600001549050919050565b613e1a80620000526000396000f3fe608060405234801561001057600080fd5b50600436106101c35760003560e01c806391d14854116100f9578063ca15c87311610097578063e3b7b0f511610071578063e3b7b0f514610578578063e985e9c514610594578063f23a6e61146105c4578063f242432a146105f4576101c3565b8063ca15c8731461050e578063d547741f1461053e578063d84e80381461055a576101c3565b8063a22cb465116100d3578063a22cb46514610474578063ad0cdd8914610490578063bc197c81146104ae578063c41a360a146104de576101c3565b806391d14854146103f657806392ab723e14610426578063a217fddf14610456576101c3565b806334b4e625116101665780634e1273f4116101405780634e1273f41461035a57806375b238fc1461038a57806375e15838146103a85780639010d07c146103c6576101c3565b806334b4e625146102f057806336568abe1461030e5780634aa10a801461032a576101c3565b8063248a9ca3116101a2578063248a9ca3146102585780632eb2c2d6146102885780632f2ff15d146102a4578063308ff127146102c0576101c3565b8062fdd58e146101c857806301ffc9a7146101f85780630e89341c14610228575b600080fd5b6101e260048036038101906101dd9190613312565b610610565b6040516101ef91906137f4565b60405180910390f35b610212600480360381019061020d9190613502565b6106f0565b60405161021f919061372a565b60405180910390f35b610242600480360381019061023d919061352b565b610758565b60405161024f919061377b565b60405180910390f35b610272600480360381019061026d9190613461565b6107fc565b60405161027f9190613745565b60405180910390f35b6102a2600480360381019061029d9190613188565b61081c565b005b6102be60048036038101906102b9919061348a565b610ca7565b005b6102da60048036038101906102d5919061352b565b610d31565b6040516102e7919061377b565b60405180910390f35b6102f8610f0d565b6040516103059190613745565b60405180910390f35b6103286004803603810190610323919061348a565b610f31565b005b610344600480360381019061033f919061352b565b610fca565b604051610351919061377b565b60405180910390f35b610374600480360381019061036f91906133f5565b6111a6565b6040516103819190613708565b60405180910390f35b6103926112b8565b60405161039f9190613745565b60405180910390f35b6103b06112dc565b6040516103bd91906136d2565b60405180910390f35b6103e060048036038101906103db91906134c6565b611303565b6040516103ed91906136d2565b60405180910390f35b610410600480360381019061040b919061348a565b611335565b60405161041d919061372a565b60405180910390f35b610440600480360381019061043b919061352b565b611367565b60405161044d91906137f4565b60405180910390f35b61045e611543565b60405161046b9190613745565b60405180910390f35b61048e600480360381019061048991906132d6565b61154a565b005b6104986116e3565b6040516104a591906137f4565b60405180910390f35b6104c860048036038101906104c39190613188565b6116ea565b6040516104d59190613760565b60405180910390f35b6104f860048036038101906104f3919061352b565b6116ff565b60405161050591906136d2565b60405180910390f35b61052860048036038101906105239190613461565b6118db565b60405161053591906137f4565b60405180910390f35b6105586004803603810190610553919061348a565b611902565b005b61056261198c565b60405161056f91906136ed565b60405180910390f35b610592600480360381019061058d919061334e565b6119b3565b005b6105ae60048036038101906105a9919061314c565b611b81565b6040516105bb919061372a565b60405180910390f35b6105de60048036038101906105d99190613247565b611c15565b6040516105eb9190613760565b60405180910390f35b61060e60048036038101906106099190613247565b611c2a565b005b60008073ffffffffffffffffffffffffffffffffffffffff168373ffffffffffffffffffffffffffffffffffffffff161415610697576040517f08c379a000000000000000000000000000000000000000000000000000000000815260040180806020018281038252602b815260200180613c16602b913960400191505060405180910390fd5b6097600083815260200190815260200160002060008473ffffffffffffffffffffffffffffffffffffffff1673ffffffffffffffffffffffffffffffffffffffff16815260200190815260200160002054905092915050565b600060656000837bffffffffffffffffffffffffffffffffffffffffffffffffffffffff19167bffffffffffffffffffffffffffffffffffffffffffffffffffffffff1916815260200190815260200160002060009054906101000a900460ff169050919050565b606060998054600181600116156101000203166002900480601f0160208091040260200160405190810160405280929190818152602001828054600181600116156101000203166002900480156107f05780601f106107c5576101008083540402835291602001916107f0565b820191906000526020600020905b8154815290600101906020018083116107d357829003601f168201915b50505050509050919050565b600060336000838152602001908152602001600020600201549050919050565b8151835114610876576040517f08c379a0000000000000000000000000000000000000000000000000000000008152600401808060200182810382526028815260200180613d6d6028913960400191505060405180910390fd5b600073ffffffffffffffffffffffffffffffffffffffff168473ffffffffffffffffffffffffffffffffffffffff1614156108fc576040517f08c379a0000000000000000000000000000000000000000000000000000000008152600401808060200182810382526025815260200180613c9a6025913960400191505060405180910390fd5b610904611fad565b73ffffffffffffffffffffffffffffffffffffffff168573ffffffffffffffffffffffffffffffffffffffff16148061094a575061094985610944611fad565b611b81565b5b61099f576040517f08c379a0000000000000000000000000000000000000000000000000000000008152600401808060200182810382526032815260200180613cbf6032913960400191505060405180910390fd5b60006109a9611fad565b90506109b9818787878787611fb5565b60005b8451811015610b8a5760008582815181106109d357fe5b6020026020010151905060008583815181106109eb57fe5b60200260200101519050610a72816040518060600160405280602a8152602001613cf1602a91396097600086815260200190815260200160002060008d73ffffffffffffffffffffffffffffffffffffffff1673ffffffffffffffffffffffffffffffffffffffff16815260200190815260200160002054611fbd9092919063ffffffff16565b6097600084815260200190815260200160002060008b73ffffffffffffffffffffffffffffffffffffffff1673ffffffffffffffffffffffffffffffffffffffff16815260200190815260200160002081905550610b29816097600085815260200190815260200160002060008b73ffffffffffffffffffffffffffffffffffffffff1673ffffffffffffffffffffffffffffffffffffffff1681526020019081526020016000205461207790919063ffffffff16565b6097600084815260200190815260200160002060008a73ffffffffffffffffffffffffffffffffffffffff1673ffffffffffffffffffffffffffffffffffffffff1681526020019081526020016000208190555050508060010190506109bc565b508473ffffffffffffffffffffffffffffffffffffffff168673ffffffffffffffffffffffffffffffffffffffff168273ffffffffffffffffffffffffffffffffffffffff167f4a39dc06d4c0dbc64b70af90fd698a233a518aa5d07e595d983b8c0526c8f7fb8787604051808060200180602001838103835285818151815260200191508051906020019060200280838360005b83811015610c3a578082015181840152602081019050610c1f565b50505050905001838103825284818151815260200191508051906020019060200280838360005b83811015610c7c578082015181840152602081019050610c61565b5050505090500194505050505060405180910390a4610c9f8187878787876120ff565b505050505050565b610cce6033600084815260200190815260200160002060020154610cc9611fad565b611335565b610d23576040517f08c379a000000000000000000000000000000000000000000000000000000000815260040180806020018281038252602f815260200180613be7602f913960400191505060405180910390fd5b610d2d828261248e565b5050565b6060610d3b612e4c565b6101336000848152602001908152602001600020604051806080016040529081600082015481526020016001820160009054906101000a900473ffffffffffffffffffffffffffffffffffffffff1673ffffffffffffffffffffffffffffffffffffffff1673ffffffffffffffffffffffffffffffffffffffff168152602001600282018054600181600116156101000203166002900480601f016020809104026020016040519081016040528092919081815260200182805460018160011615610100020316600290048015610e535780601f10610e2857610100808354040283529160200191610e53565b820191906000526020600020905b815481529060010190602001808311610e3657829003601f168201915b50505050508152602001600382018054600181600116156101000203166002900480601f016020809104026020016040519081016040528092919081815260200182805460018160011615610100020316600290048015610ef55780601f10610eca57610100808354040283529160200191610ef5565b820191906000526020600020905b815481529060010190602001808311610ed857829003601f168201915b50505050508152505090508060600151915050919050565b7f58c8e11deab7910e89bf18a1168c6e6ef28748f00fd3094549459f01cec5e0aa81565b610f39611fad565b73ffffffffffffffffffffffffffffffffffffffff168173ffffffffffffffffffffffffffffffffffffffff1614610fbc576040517f08c379a000000000000000000000000000000000000000000000000000000000815260040180806020018281038252602f815260200180613db6602f913960400191505060405180910390fd5b610fc68282612522565b5050565b6060610fd4612e4c565b6101336000848152602001908152602001600020604051806080016040529081600082015481526020016001820160009054906101000a900473ffffffffffffffffffffffffffffffffffffffff1673ffffffffffffffffffffffffffffffffffffffff1673ffffffffffffffffffffffffffffffffffffffff168152602001600282018054600181600116156101000203166002900480601f0160208091040260200160405190810160405280929190818152602001828054600181600116156101000203166002900480156110ec5780601f106110c1576101008083540402835291602001916110ec565b820191906000526020600020905b8154815290600101906020018083116110cf57829003601f168201915b50505050508152602001600382018054600181600116156101000203166002900480601f01602080910402602001604051908101604052809291908181526020018280546001816001161561010002031660029004801561118e5780601f106111635761010080835404028352916020019161118e565b820191906000526020600020905b81548152906001019060200180831161117157829003601f168201915b50505050508152505090508060400151915050919050565b60608151835114611202576040517f08c379a0000000000000000000000000000000000000000000000000000000008152600401808060200182810382526029815260200180613d446029913960400191505060405180910390fd5b6060835167ffffffffffffffff8111801561121c57600080fd5b5060405190808252806020026020018201604052801561124b5781602001602082028036833780820191505090505b50905060005b84518110156112ad5761128a85828151811061126957fe5b602002602001015185838151811061127d57fe5b6020026020010151610610565b82828151811061129657fe5b602002602001018181525050806001019050611251565b508091505092915050565b7fa49807205ce4d355092ef5a8a18f56e8913cf4a201fbe287825b095693c2177581565b61012d60009054906101000a900473ffffffffffffffffffffffffffffffffffffffff1681565b600061132d82603360008681526020019081526020016000206000016125b690919063ffffffff16565b905092915050565b600061135f82603360008681526020019081526020016000206000016125d090919063ffffffff16565b905092915050565b6000611371612e4c565b6101336000848152602001908152602001600020604051806080016040529081600082015481526020016001820160009054906101000a900473ffffffffffffffffffffffffffffffffffffffff1673ffffffffffffffffffffffffffffffffffffffff1673ffffffffffffffffffffffffffffffffffffffff168152602001600282018054600181600116156101000203166002900480601f0160208091040260200160405190810160405280929190818152602001828054600181600116156101000203166002900480156114895780601f1061145e57610100808354040283529160200191611489565b820191906000526020600020905b81548152906001019060200180831161146c57829003601f168201915b50505050508152602001600382018054600181600116156101000203166002900480601f01602080910402602001604051908101604052809291908181526020018280546001816001161561010002031660029004801561152b5780601f106115005761010080835404028352916020019161152b565b820191906000526020600020905b81548152906001019060200180831161150e57829003601f168201915b50505050508152505090508060000151915050919050565b6000801b81565b8173ffffffffffffffffffffffffffffffffffffffff16611569611fad565b73ffffffffffffffffffffffffffffffffffffffff1614156115d6576040517f08c379a0000000000000000000000000000000000000000000000000000000008152600401808060200182810382526029815260200180613d1b6029913960400191505060405180910390fd5b80609860006115e3611fad565b73ffffffffffffffffffffffffffffffffffffffff1673ffffffffffffffffffffffffffffffffffffffff16815260200190815260200160002060008473ffffffffffffffffffffffffffffffffffffffff1673ffffffffffffffffffffffffffffffffffffffff16815260200190815260200160002060006101000a81548160ff0219169083151502179055508173ffffffffffffffffffffffffffffffffffffffff16611690611fad565b73ffffffffffffffffffffffffffffffffffffffff167f17307eab39ab6107e8899845ad3d59bd9653f200f220920489ca2b5937696c318360405180821515815260200191505060405180910390a35050565b6101325481565b600063bc197c8160e01b905095945050505050565b6000611709612e4c565b6101336000848152602001908152602001600020604051806080016040529081600082015481526020016001820160009054906101000a900473ffffffffffffffffffffffffffffffffffffffff1673ffffffffffffffffffffffffffffffffffffffff1673ffffffffffffffffffffffffffffffffffffffff168152602001600282018054600181600116156101000203166002900480601f0160208091040260200160405190810160405280929190818152602001828054600181600116156101000203166002900480156118215780601f106117f657610100808354040283529160200191611821565b820191906000526020600020905b81548152906001019060200180831161180457829003601f168201915b50505050508152602001600382018054600181600116156101000203166002900480601f0160208091040260200160405190810160405280929190818152602001828054600181600116156101000203166002900480156118c35780601f10611898576101008083540402835291602001916118c3565b820191906000526020600020905b8154815290600101906020018083116118a657829003601f168201915b50505050508152505090508060200151915050919050565b60006118fb60336000848152602001908152602001600020600001612600565b9050919050565b6119296033600084815260200190815260200160002060020154611924611fad565b611335565b61197e576040517f08c379a0000000000000000000000000000000000000000000000000000000008152600401808060200182810382526030815260200180613c6a6030913960400191505060405180910390fd5b6119888282612522565b5050565b61012f60009054906101000a900473ffffffffffffffffffffffffffffffffffffffff1681565b6119dd7fa49807205ce4d355092ef5a8a18f56e8913cf4a201fbe287825b095693c2177533611335565b611a1c576040517f08c379a0000000000000000000000000000000000000000000000000000000008152600401611a13906137d4565b60405180910390fd5b611a24612615565b6000610132549050600084860390508673ffffffffffffffffffffffffffffffffffffffff1686837fc5f427d241be2e5ecfbb701dbd74cd1a6b63171ff1b84635c73bd10b385ca8b48787604051611a7d92919061379d565b60405180910390a4600061013360006101325481526020019081526020016000209050868160000181905550878160010160006101000a81548173ffffffffffffffffffffffffffffffffffffffff021916908373ffffffffffffffffffffffffffffffffffffffff16021790555084816002019080519060200190611b04929190612e8a565b5083816003019080519060200190611b1d929190612e8a565b50611b5c61012f60009054906101000a900473ffffffffffffffffffffffffffffffffffffffff16848460405180602001604052806000815250612634565b611b7788848860405180602001604052806000815250612634565b5050505050505050565b6000609860008473ffffffffffffffffffffffffffffffffffffffff1673ffffffffffffffffffffffffffffffffffffffff16815260200190815260200160002060008373ffffffffffffffffffffffffffffffffffffffff1673ffffffffffffffffffffffffffffffffffffffff16815260200190815260200160002060009054906101000a900460ff16905092915050565b600063f23a6e6160e01b905095945050505050565b600073ffffffffffffffffffffffffffffffffffffffff168473ffffffffffffffffffffffffffffffffffffffff161415611cb0576040517f08c379a0000000000000000000000000000000000000000000000000000000008152600401808060200182810382526025815260200180613c9a6025913960400191505060405180910390fd5b611cb8611fad565b73ffffffffffffffffffffffffffffffffffffffff168573ffffffffffffffffffffffffffffffffffffffff161480611cfe5750611cfd85611cf8611fad565b611b81565b5b611d53576040517f08c379a0000000000000000000000000000000000000000000000000000000008152600401808060200182810382526029815260200180613c416029913960400191505060405180910390fd5b6000611d5d611fad565b9050611d7d818787611d6e88612837565b611d7788612837565b87611fb5565b611dfa836040518060600160405280602a8152602001613cf1602a91396097600088815260200190815260200160002060008a73ffffffffffffffffffffffffffffffffffffffff1673ffffffffffffffffffffffffffffffffffffffff16815260200190815260200160002054611fbd9092919063ffffffff16565b6097600086815260200190815260200160002060008873ffffffffffffffffffffffffffffffffffffffff1673ffffffffffffffffffffffffffffffffffffffff16815260200190815260200160002081905550611eb1836097600087815260200190815260200160002060008873ffffffffffffffffffffffffffffffffffffffff1673ffffffffffffffffffffffffffffffffffffffff1681526020019081526020016000205461207790919063ffffffff16565b6097600086815260200190815260200160002060008773ffffffffffffffffffffffffffffffffffffffff1673ffffffffffffffffffffffffffffffffffffffff168152602001908152602001600020819055508473ffffffffffffffffffffffffffffffffffffffff168673ffffffffffffffffffffffffffffffffffffffff168273ffffffffffffffffffffffffffffffffffffffff167fc3d58168c5ae7397731d063d5bbf3d657854427343f4c083240f7aacaa2d0f628787604051808381526020018281526020019250505060405180910390a4611f978187878787876128a7565b505050505050565b600081600001549050919050565b600033905090565b505050505050565b600083831115829061206a576040517f08c379a00000000000000000000000000000000000000000000000000000000081526004018080602001828103825283818151815260200191508051906020019080838360005b8381101561202f578082015181840152602081019050612014565b50505050905090810190601f16801561205c5780820380516001836020036101000a031916815260200191505b509250505060405180910390fd5b5082840390509392505050565b6000808284019050838110156120f5576040517f08c379a000000000000000000000000000000000000000000000000000000000815260040180806020018281038252601b8152602001807f536166654d6174683a206164646974696f6e206f766572666c6f77000000000081525060200191505060405180910390fd5b8091505092915050565b61211e8473ffffffffffffffffffffffffffffffffffffffff16612bb4565b15612486578373ffffffffffffffffffffffffffffffffffffffff1663bc197c8187878686866040518663ffffffff1660e01b8152600401808673ffffffffffffffffffffffffffffffffffffffff1681526020018573ffffffffffffffffffffffffffffffffffffffff168152602001806020018060200180602001848103845287818151815260200191508051906020019060200280838360005b838110156121d65780820151818401526020810190506121bb565b50505050905001848103835286818151815260200191508051906020019060200280838360005b838110156122185780820151818401526020810190506121fd565b50505050905001848103825285818151815260200191508051906020019080838360005b8381101561225757808201518184015260208101905061223c565b50505050905090810190601f1680156122845780820380516001836020036101000a031916815260200191505b5098505050505050505050602060405180830381600087803b1580156122a957600080fd5b505af19250505080156122dd57506040513d60208110156122c957600080fd5b810190808051906020019092919050505060015b6123e7576122e9613a3f565b806122f45750612396565b806040517f08c379a00000000000000000000000000000000000000000000000000000000081526004018080602001828103825283818151815260200191508051906020019080838360005b8381101561235b578082015181840152602081019050612340565b50505050905090810190601f1680156123885780820380516001836020036101000a031916815260200191505b509250505060405180910390fd5b6040517f08c379a0000000000000000000000000000000000000000000000000000000008152600401808060200182810382526034815260200180613b696034913960400191505060405180910390fd5b63bc197c8160e01b7bffffffffffffffffffffffffffffffffffffffffffffffffffffffff1916817bffffffffffffffffffffffffffffffffffffffffffffffffffffffff191614612484576040517f08c379a0000000000000000000000000000000000000000000000000000000008152600401808060200182810382526028815260200180613bbf6028913960400191505060405180910390fd5b505b505050505050565b6124b68160336000858152602001908152602001600020600001612bc790919063ffffffff16565b1561251e576124c3611fad565b73ffffffffffffffffffffffffffffffffffffffff168173ffffffffffffffffffffffffffffffffffffffff16837f2f8788117e7eff1d82e926ec794901d17c78024a50270940304540a733656f0d60405160405180910390a45b5050565b61254a8160336000858152602001908152602001600020600001612bf790919063ffffffff16565b156125b257612557611fad565b73ffffffffffffffffffffffffffffffffffffffff168173ffffffffffffffffffffffffffffffffffffffff16837ff6391f5c32d9c69d2a47ea670b442974b53935d1edc7fd64eb21e047a839171b60405160405180910390a45b5050565b60006125c58360000183612c27565b60001c905092915050565b60006125f8836000018373ffffffffffffffffffffffffffffffffffffffff1660001b612caa565b905092915050565b600061260e82600001612ccd565b9050919050565b612620610131612cde565b61262b610131611f9f565b61013281905550565b600073ffffffffffffffffffffffffffffffffffffffff168473ffffffffffffffffffffffffffffffffffffffff1614156126ba576040517f08c379a0000000000000000000000000000000000000000000000000000000008152600401808060200182810382526021815260200180613d956021913960400191505060405180910390fd5b60006126c4611fad565b90506126e5816000876126d688612837565b6126df88612837565b87611fb5565b612748836097600087815260200190815260200160002060008873ffffffffffffffffffffffffffffffffffffffff1673ffffffffffffffffffffffffffffffffffffffff1681526020019081526020016000205461207790919063ffffffff16565b6097600086815260200190815260200160002060008773ffffffffffffffffffffffffffffffffffffffff1673ffffffffffffffffffffffffffffffffffffffff168152602001908152602001600020819055508473ffffffffffffffffffffffffffffffffffffffff16600073ffffffffffffffffffffffffffffffffffffffff168273ffffffffffffffffffffffffffffffffffffffff167fc3d58168c5ae7397731d063d5bbf3d657854427343f4c083240f7aacaa2d0f628787604051808381526020018281526020019250505060405180910390a4612830816000878787876128a7565b5050505050565b606080600167ffffffffffffffff8111801561285257600080fd5b506040519080825280602002602001820160405280156128815781602001602082028036833780820191505090505b509050828160008151811061289257fe5b60200260200101818152505080915050919050565b6128c68473ffffffffffffffffffffffffffffffffffffffff16612bb4565b15612bac578373ffffffffffffffffffffffffffffffffffffffff1663f23a6e6187878686866040518663ffffffff1660e01b8152600401808673ffffffffffffffffffffffffffffffffffffffff1681526020018573ffffffffffffffffffffffffffffffffffffffff16815260200184815260200183815260200180602001828103825283818151815260200191508051906020019080838360005b8381101561297f578082015181840152602081019050612964565b50505050905090810190601f1680156129ac5780820380516001836020036101000a031916815260200191505b509650505050505050602060405180830381600087803b1580156129cf57600080fd5b505af1925050508015612a0357506040513d60208110156129ef57600080fd5b810190808051906020019092919050505060015b612b0d57612a0f613a3f565b80612a1a5750612abc565b806040517f08c379a00000000000000000000000000000000000000000000000000000000081526004018080602001828103825283818151815260200191508051906020019080838360005b83811015612a81578082015181840152602081019050612a66565b50505050905090810190601f168015612aae5780820380516001836020036101000a031916815260200191505b509250505060405180910390fd5b6040517f08c379a0000000000000000000000000000000000000000000000000000000008152600401808060200182810382526034815260200180613b696034913960400191505060405180910390fd5b63f23a6e6160e01b7bffffffffffffffffffffffffffffffffffffffffffffffffffffffff1916817bffffffffffffffffffffffffffffffffffffffffffffffffffffffff191614612baa576040517f08c379a0000000000000000000000000000000000000000000000000000000008152600401808060200182810382526028815260200180613bbf6028913960400191505060405180910390fd5b505b505050505050565b600080823b905060008111915050919050565b6000612bef836000018373ffffffffffffffffffffffffffffffffffffffff1660001b612cf4565b905092915050565b6000612c1f836000018373ffffffffffffffffffffffffffffffffffffffff1660001b612d64565b905092915050565b600081836000018054905011612c88576040517f08c379a0000000000000000000000000000000000000000000000000000000008152600401808060200182810382526022815260200180613b9d6022913960400191505060405180910390fd5b826000018281548110612c9757fe5b9060005260206000200154905092915050565b600080836001016000848152602001908152602001600020541415905092915050565b600081600001805490509050919050565b6001816000016000828254019250508190555050565b6000612d008383612caa565b612d59578260000182908060018154018082558091505060019003906000526020600020016000909190919091505582600001805490508360010160008481526020019081526020016000208190555060019050612d5e565b600090505b92915050565b60008083600101600084815260200190815260200160002054905060008114612e405760006001820390506000600186600001805490500390506000866000018281548110612daf57fe5b9060005260206000200154905080876000018481548110612dcc57fe5b9060005260206000200181905550600183018760010160008381526020019081526020016000208190555086600001805480612e0457fe5b60019003818190600052602060002001600090559055866001016000878152602001908152602001600020600090556001945050505050612e46565b60009150505b92915050565b604051806080016040528060008152602001600073ffffffffffffffffffffffffffffffffffffffff16815260200160608152602001606081525090565b828054600181600116156101000203166002900490600052602060002090601f016020900481019282612ec05760008555612f07565b82601f10612ed957805160ff1916838001178555612f07565b82800160010185558215612f07579182015b82811115612f06578251825591602001919060010190612eeb565b5b509050612f149190612f18565b5090565b5b80821115612f31576000816000905550600101612f19565b5090565b600081359050612f4481613af5565b92915050565b600082601f830112612f5b57600080fd5b8135612f6e612f6982613840565b61380f565b91508181835260208401935060208101905083856020840282011115612f9357600080fd5b60005b83811015612fc35781612fa98882612f35565b845260208401935060208301925050600181019050612f96565b5050505092915050565b600082601f830112612fde57600080fd5b8135612ff1612fec8261386c565b61380f565b9150818183526020840193506020810190508385602084028201111561301657600080fd5b60005b83811015613046578161302c8882613137565b845260208401935060208301925050600181019050613019565b5050505092915050565b60008135905061305f81613b0c565b92915050565b60008135905061307481613b23565b92915050565b60008135905061308981613b3a565b92915050565b600082601f8301126130a057600080fd5b81356130b36130ae82613898565b61380f565b915080825260208301602083018583830111156130cf57600080fd5b6130da8382846139dd565b50505092915050565b600082601f8301126130f457600080fd5b8135613107613102826138c8565b61380f565b9150808252602083016020830185838301111561312357600080fd5b61312e8382846139dd565b50505092915050565b60008135905061314681613b51565b92915050565b6000806040838503121561315f57600080fd5b600061316d85828601612f35565b925050602061317e85828601612f35565b9150509250929050565b600080600080600060a086880312156131a057600080fd5b60006131ae88828901612f35565b95505060206131bf88828901612f35565b945050604086013567ffffffffffffffff8111156131dc57600080fd5b6131e888828901612fcd565b935050606086013567ffffffffffffffff81111561320557600080fd5b61321188828901612fcd565b925050608086013567ffffffffffffffff81111561322e57600080fd5b61323a8882890161308f565b9150509295509295909350565b600080600080600060a0868803121561325f57600080fd5b600061326d88828901612f35565b955050602061327e88828901612f35565b945050604061328f88828901613137565b93505060606132a088828901613137565b925050608086013567ffffffffffffffff8111156132bd57600080fd5b6132c98882890161308f565b9150509295509295909350565b600080604083850312156132e957600080fd5b60006132f785828601612f35565b925050602061330885828601613050565b9150509250929050565b6000806040838503121561332557600080fd5b600061333385828601612f35565b925050602061334485828601613137565b9150509250929050565b600080600080600060a0868803121561336657600080fd5b600061337488828901612f35565b955050602061338588828901613137565b945050604061339688828901613137565b935050606086013567ffffffffffffffff8111156133b357600080fd5b6133bf888289016130e3565b925050608086013567ffffffffffffffff8111156133dc57600080fd5b6133e8888289016130e3565b9150509295509295909350565b6000806040838503121561340857600080fd5b600083013567ffffffffffffffff81111561342257600080fd5b61342e85828601612f4a565b925050602083013567ffffffffffffffff81111561344b57600080fd5b61345785828601612fcd565b9150509250929050565b60006020828403121561347357600080fd5b600061348184828501613065565b91505092915050565b6000806040838503121561349d57600080fd5b60006134ab85828601613065565b92505060206134bc85828601612f35565b9150509250929050565b600080604083850312156134d957600080fd5b60006134e785828601613065565b92505060206134f885828601613137565b9150509250929050565b60006020828403121561351457600080fd5b60006135228482850161307a565b91505092915050565b60006020828403121561353d57600080fd5b600061354b84828501613137565b91505092915050565b600061356083836136b4565b60208301905092915050565b6135758161395f565b82525050565b6135848161394d565b82525050565b600061359582613908565b61359f818561392b565b93506135aa836138f8565b8060005b838110156135db5781516135c28882613554565b97506135cd8361391e565b9250506001810190506135ae565b5085935050505092915050565b6135f181613971565b82525050565b6136008161397d565b82525050565b61360f81613987565b82525050565b600061362082613913565b61362a818561393c565b935061363a8185602086016139ec565b61364381613a21565b840191505092915050565b600061365b60268361393c565b91507f4163636573732044656e6965643a2043616c6c6572206973206e6f742074686560008301527f2041646d696e00000000000000000000000000000000000000000000000000006020830152604082019050919050565b6136bd816139d3565b82525050565b6136cc816139d3565b82525050565b60006020820190506136e7600083018461357b565b92915050565b6000602082019050613702600083018461356c565b92915050565b60006020820190508181036000830152613722818461358a565b905092915050565b600060208201905061373f60008301846135e8565b92915050565b600060208201905061375a60008301846135f7565b92915050565b60006020820190506137756000830184613606565b92915050565b600060208201905081810360008301526137958184613615565b905092915050565b600060408201905081810360008301526137b78185613615565b905081810360208301526137cb8184613615565b90509392505050565b600060208201905081810360008301526137ed8161364e565b9050919050565b600060208201905061380960008301846136c3565b92915050565b6000604051905081810181811067ffffffffffffffff8211171561383657613835613a1f565b5b8060405250919050565b600067ffffffffffffffff82111561385b5761385a613a1f565b5b602082029050602081019050919050565b600067ffffffffffffffff82111561388757613886613a1f565b5b602082029050602081019050919050565b600067ffffffffffffffff8211156138b3576138b2613a1f565b5b601f19601f8301169050602081019050919050565b600067ffffffffffffffff8211156138e3576138e2613a1f565b5b601f19601f8301169050602081019050919050565b6000819050602082019050919050565b600081519050919050565b600081519050919050565b6000602082019050919050565b600082825260208201905092915050565b600082825260208201905092915050565b6000613958826139b3565b9050919050565b600061396a826139b3565b9050919050565b60008115159050919050565b6000819050919050565b60007fffffffff0000000000000000000000000000000000000000000000000000000082169050919050565b600073ffffffffffffffffffffffffffffffffffffffff82169050919050565b6000819050919050565b82818337600083830152505050565b60005b83811015613a0a5780820151818401526020810190506139ef565b83811115613a19576000848401525b50505050565bfe5b6000601f19601f8301169050919050565b60008160e01c9050919050565b600060443d1015613a4f57613af2565b60046000803e613a60600051613a32565b6308c379a08114613a715750613af2565b60405160043d036004823e80513d602482011167ffffffffffffffff82111715613a9d57505050613af2565b808201805167ffffffffffffffff811115613abc575050505050613af2565b8060208301013d8501811115613ad757505050505050613af2565b613ae082613a21565b60208401016040528296505050505050505b90565b613afe8161394d565b8114613b0957600080fd5b50565b613b1581613971565b8114613b2057600080fd5b50565b613b2c8161397d565b8114613b3757600080fd5b50565b613b4381613987565b8114613b4e57600080fd5b50565b613b5a816139d3565b8114613b6557600080fd5b5056fe455243313135353a207472616e7366657220746f206e6f6e2045524331313535526563656976657220696d706c656d656e746572456e756d657261626c655365743a20696e646578206f7574206f6620626f756e6473455243313135353a204552433131353552656365697665722072656a656374656420746f6b656e73416363657373436f6e74726f6c3a2073656e646572206d75737420626520616e2061646d696e20746f206772616e74455243313135353a2062616c616e636520717565727920666f7220746865207a65726f2061646472657373455243313135353a2063616c6c6572206973206e6f74206f776e6572206e6f7220617070726f766564416363657373436f6e74726f6c3a2073656e646572206d75737420626520616e2061646d696e20746f207265766f6b65455243313135353a207472616e7366657220746f20746865207a65726f2061646472657373455243313135353a207472616e736665722063616c6c6572206973206e6f74206f776e6572206e6f7220617070726f766564455243313135353a20696e73756666696369656e742062616c616e636520666f72207472616e73666572455243313135353a2073657474696e6720617070726f76616c2073746174757320666f722073656c66455243313135353a206163636f756e747320616e6420696473206c656e677468206d69736d61746368455243313135353a2069647320616e6420616d6f756e7473206c656e677468206d69736d61746368455243313135353a206d696e7420746f20746865207a65726f2061646472657373416363657373436f6e74726f6c3a2063616e206f6e6c792072656e6f756e636520726f6c657320666f722073656c66a2646970667358221220adae8f058575bf5a2ec234732d5146a14e0ce76f29e5c183dee71b1580117ed864736f6c63430007040033",
  "immutableReferences": {},
  "source": "// SPDX-License-Identifier: MIT\n\npragma solidity ^0.7.4;\npragma experimental ABIEncoderV2;\n\nimport \"./libraries/AccessControlUpgradeable.sol\";\nimport './RETokenStorageOne.sol';\n\n/**\n * @title RETokenBusinessLogic\n * @dev This contract provides the business logic for RETokenProxy with an authorization\n * mechanism for admin tasks.\n * \n * VERSION: 1 (Ver.1)\n * 1. Add 4 functions to retrieve created token details.\n * 2. Add mintToken() function for Admin to create new token.\n */ \n\ncontract LogicOne is AccessControlUpgradeable, RETokenStorageOne {\n    \n    /**\n     * @dev Ver.1 Throws if called by any account without ADMIN_ROLE access.\n     */\n    modifier onlyAdmin() {\n        require(hasRole(ADMIN_ROLE, msg.sender), \"Access Denied: Caller is not the Admin\");\n        _;\n    }\n\n    /**\n     * @dev Series of functions to retrieve token details from `REToken` struct, including\n     * Total Supply, Owner, Valuation Report and Legal Contract.\n     *\n     * @param tokenId - Unique token id of token\n     */\n    function getTotalSupply(uint256 tokenId) external view returns (uint256) {\n        REToken memory token = reToken[tokenId];\n        return token.totalSupply;\n    }\n\n    function getOwner(uint256 tokenId) external view returns (address) {\n        REToken memory token = reToken[tokenId];\n        return token.owner;\n    }\n\n    function getValuationRpt(uint256 tokenId) external view returns (string memory) {\n        REToken memory token = reToken[tokenId];\n        return token.valuationReport;\n    }\n\n    function getLegalContr(uint256 tokenId) external view returns (string memory) {\n        REToken memory token = reToken[tokenId];\n        return token.legalContract;\n    }\n\n    /**\n     * @dev Creates `totalAmt` tokens of token type `newTokenId`, and assigns `adminAmt` to\n     * `proxy_contract` and `ownerAmt` `assetOwner` by calling ERC1155 _mint function.\n     *\n     * Can only be called by addresses with ADMIN_ROLE access.\n     * \n     * Emits a {RETokenID} event.\n     * Emits two {TransferSingle} events via ERC1155 library.\n     *\n     * @param assetOwner - Asset Owner wallet address\n     * @param totalAmt - Total number of tokens for unique token ID\n     * @param ownerAmt - Total number of tokens for Asset Owner\n     * @param valueRpt - File Hash of Valuation Report\n     * @param legalContr - File Hash of Legal Contract\n     */\n    function mintToken(address assetOwner, uint256 totalAmt, uint256 ownerAmt, string memory valueRpt, string memory legalContr) external onlyAdmin {\n        RETokenStorageOne.incrementTokenId();\n        \n        uint256 newTokenId = _tokenID;\n        uint256 adminAmt = totalAmt - ownerAmt;\n\n        emit RETokenID(newTokenId, totalAmt, assetOwner, valueRpt, legalContr);\n\n        // Creates and updates REToken Struct of unique token ID with token details\n        REToken storage token = reToken[_tokenID];\n        token.totalSupply = totalAmt;\n        token.owner = assetOwner;\n        token.valuationReport = valueRpt;\n        token.legalContract = legalContr;\n\n        _mint(proxy_contract, newTokenId, adminAmt, \"\");\n        _mint(assetOwner, newTokenId, ownerAmt, \"\");\n    }\n\n}",
  "sourcePath": "C:/BCCode/retoken-app/client/src/contracts/LogicOne.sol",
  "compiler": {
    "name": "solc",
    "version": "0.7.4+commit.3f05b770.Emscripten.clang"
  },
  "schemaVersion": "3.3.4",
  "updatedAt": "2021-03-18T05:45:08.114Z",
  "devdoc": {
    "details": "This contract provides the business logic for RETokenProxy with an authorization mechanism for admin tasks.  VERSION: 1 (Ver.1) 1. Add 4 functions to retrieve created token details. 2. Add mintToken() function for Admin to create new token.",
    "kind": "dev",
    "methods": {
      "balanceOf(address,uint256)": {
        "details": "See {IERC1155-balanceOf}. Requirements: - `account` cannot be the zero address."
      },
      "balanceOfBatch(address[],uint256[])": {
        "details": "See {IERC1155-balanceOfBatch}. Requirements: - `accounts` and `ids` must have the same length."
      },
      "getRoleAdmin(bytes32)": {
        "details": "Returns the admin role that controls `role`. See {grantRole} and {revokeRole}. To change a role's admin, use {_setRoleAdmin}."
      },
      "getRoleMember(bytes32,uint256)": {
        "details": "Returns one of the accounts that have `role`. `index` must be a value between 0 and {getRoleMemberCount}, non-inclusive. Role bearers are not sorted in any particular way, and their ordering may change at any point. WARNING: When using {getRoleMember} and {getRoleMemberCount}, make sure you perform all queries on the same block. See the following https://forum.openzeppelin.com/t/iterating-over-elements-on-enumerableset-in-openzeppelin-contracts/2296[forum post] for more information."
      },
      "getRoleMemberCount(bytes32)": {
        "details": "Returns the number of accounts that have `role`. Can be used together with {getRoleMember} to enumerate all bearers of a role."
      },
      "getTotalSupply(uint256)": {
        "details": "Series of functions to retrieve token details from `REToken` struct, including Total Supply, Owner, Valuation Report and Legal Contract.",
        "params": {
          "tokenId": "- Unique token id of token"
        }
      },
      "grantRole(bytes32,address)": {
        "details": "Grants `role` to `account`. If `account` had not been already granted `role`, emits a {RoleGranted} event. Requirements: - the caller must have ``role``'s admin role."
      },
      "hasRole(bytes32,address)": {
        "details": "Returns `true` if `account` has been granted `role`."
      },
      "isApprovedForAll(address,address)": {
        "details": "See {IERC1155-isApprovedForAll}."
      },
      "mintToken(address,uint256,uint256,string,string)": {
        "details": "Creates `totalAmt` tokens of token type `newTokenId`, and assigns `adminAmt` to `proxy_contract` and `ownerAmt` `assetOwner` by calling ERC1155 _mint function. Can only be called by addresses with ADMIN_ROLE access.  Emits a {RETokenID} event. Emits two {TransferSingle} events via ERC1155 library.",
        "params": {
          "assetOwner": "- Asset Owner wallet address",
          "legalContr": "- File Hash of Legal Contract",
          "ownerAmt": "- Total number of tokens for Asset Owner",
          "totalAmt": "- Total number of tokens for unique token ID",
          "valueRpt": "- File Hash of Valuation Report"
        }
      },
      "renounceRole(bytes32,address)": {
        "details": "Revokes `role` from the calling account. Roles are often managed via {grantRole} and {revokeRole}: this function's purpose is to provide a mechanism for accounts to lose their privileges if they are compromised (such as when a trusted device is misplaced). If the calling account had been granted `role`, emits a {RoleRevoked} event. Requirements: - the caller must be `account`."
      },
      "revokeRole(bytes32,address)": {
        "details": "Revokes `role` from `account`. If `account` had been granted `role`, emits a {RoleRevoked} event. Requirements: - the caller must have ``role``'s admin role."
      },
      "safeBatchTransferFrom(address,address,uint256[],uint256[],bytes)": {
        "details": "See {IERC1155-safeBatchTransferFrom}."
      },
      "safeTransferFrom(address,address,uint256,uint256,bytes)": {
        "details": "See {IERC1155-safeTransferFrom}."
      },
      "setApprovalForAll(address,bool)": {
        "details": "See {IERC1155-setApprovalForAll}."
      },
      "supportsInterface(bytes4)": {
        "details": "See {IERC165-supportsInterface}. Time complexity O(1), guaranteed to always use less than 30 000 gas."
      },
      "uri(uint256)": {
        "details": "See {IERC1155MetadataURI-uri}. This implementation returns the same URI for *all* token types. It relies on the token type ID substitution mechanism https://eips.ethereum.org/EIPS/eip-1155#metadata[defined in the EIP]. Clients calling this function must replace the `\\{id\\}` substring with the actual token type ID."
      }
    },
    "title": "RETokenBusinessLogic",
    "version": 1
  },
  "userdoc": {
    "kind": "user",
    "methods": {},
    "version": 1
  }
}