{
  "contractName": "LogicOne",
  "abi": [
    {
      "anonymous": false,
      "inputs": [
        {
          "indexed": true,
          "internalType": "address",
          "name": "account",
          "type": "address"
        },
        {
          "indexed": true,
          "internalType": "address",
          "name": "operator",
          "type": "address"
        },
        {
          "indexed": false,
          "internalType": "bool",
          "name": "approved",
          "type": "bool"
        }
      ],
      "name": "ApprovalForAll",
      "type": "event"
    },
    {
      "anonymous": false,
      "inputs": [
        {
          "indexed": false,
          "internalType": "address",
          "name": "account",
          "type": "address"
        }
      ],
      "name": "Paused",
      "type": "event"
    },
    {
      "anonymous": false,
      "inputs": [
        {
          "indexed": false,
          "internalType": "uint256",
          "name": "timestamp",
          "type": "uint256"
        },
        {
          "indexed": true,
          "internalType": "uint256",
          "name": "id",
          "type": "uint256"
        },
        {
          "indexed": true,
          "internalType": "uint256",
          "name": "totalSupply",
          "type": "uint256"
        },
        {
          "indexed": true,
          "internalType": "address",
          "name": "owner",
          "type": "address"
        },
        {
          "indexed": false,
          "internalType": "string",
          "name": "valuationReport",
          "type": "string"
        },
        {
          "indexed": false,
          "internalType": "string",
          "name": "legalContract",
          "type": "string"
        }
      ],
      "name": "RETokenID",
      "type": "event"
    },
    {
      "anonymous": false,
      "inputs": [
        {
          "indexed": false,
          "internalType": "uint256",
          "name": "timestamp",
          "type": "uint256"
        },
        {
          "indexed": true,
          "internalType": "uint256",
          "name": "id",
          "type": "uint256"
        },
        {
          "indexed": false,
          "internalType": "uint256",
          "name": "tokenAmt",
          "type": "uint256"
        },
        {
          "indexed": true,
          "internalType": "address",
          "name": "buyer",
          "type": "address"
        },
        {
          "indexed": true,
          "internalType": "address",
          "name": "seller",
          "type": "address"
        },
        {
          "indexed": false,
          "internalType": "uint256",
          "name": "USDT",
          "type": "uint256"
        }
      ],
      "name": "RETokenUSDT",
      "type": "event"
    },
    {
      "anonymous": false,
      "inputs": [
        {
          "indexed": true,
          "internalType": "bytes32",
          "name": "role",
          "type": "bytes32"
        },
        {
          "indexed": true,
          "internalType": "bytes32",
          "name": "previousAdminRole",
          "type": "bytes32"
        },
        {
          "indexed": true,
          "internalType": "bytes32",
          "name": "newAdminRole",
          "type": "bytes32"
        }
      ],
      "name": "RoleAdminChanged",
      "type": "event"
    },
    {
      "anonymous": false,
      "inputs": [
        {
          "indexed": true,
          "internalType": "bytes32",
          "name": "role",
          "type": "bytes32"
        },
        {
          "indexed": true,
          "internalType": "address",
          "name": "account",
          "type": "address"
        },
        {
          "indexed": true,
          "internalType": "address",
          "name": "sender",
          "type": "address"
        }
      ],
      "name": "RoleGranted",
      "type": "event"
    },
    {
      "anonymous": false,
      "inputs": [
        {
          "indexed": true,
          "internalType": "bytes32",
          "name": "role",
          "type": "bytes32"
        },
        {
          "indexed": true,
          "internalType": "address",
          "name": "account",
          "type": "address"
        },
        {
          "indexed": true,
          "internalType": "address",
          "name": "sender",
          "type": "address"
        }
      ],
      "name": "RoleRevoked",
      "type": "event"
    },
    {
      "anonymous": false,
      "inputs": [
        {
          "indexed": true,
          "internalType": "address",
          "name": "operator",
          "type": "address"
        },
        {
          "indexed": true,
          "internalType": "address",
          "name": "from",
          "type": "address"
        },
        {
          "indexed": true,
          "internalType": "address",
          "name": "to",
          "type": "address"
        },
        {
          "indexed": false,
          "internalType": "uint256[]",
          "name": "ids",
          "type": "uint256[]"
        },
        {
          "indexed": false,
          "internalType": "uint256[]",
          "name": "values",
          "type": "uint256[]"
        }
      ],
      "name": "TransferBatch",
      "type": "event"
    },
    {
      "anonymous": false,
      "inputs": [
        {
          "indexed": true,
          "internalType": "address",
          "name": "operator",
          "type": "address"
        },
        {
          "indexed": true,
          "internalType": "address",
          "name": "from",
          "type": "address"
        },
        {
          "indexed": true,
          "internalType": "address",
          "name": "to",
          "type": "address"
        },
        {
          "indexed": false,
          "internalType": "uint256",
          "name": "id",
          "type": "uint256"
        },
        {
          "indexed": false,
          "internalType": "uint256",
          "name": "value",
          "type": "uint256"
        }
      ],
      "name": "TransferSingle",
      "type": "event"
    },
    {
      "anonymous": false,
      "inputs": [
        {
          "indexed": false,
          "internalType": "string",
          "name": "value",
          "type": "string"
        },
        {
          "indexed": true,
          "internalType": "uint256",
          "name": "id",
          "type": "uint256"
        }
      ],
      "name": "URI",
      "type": "event"
    },
    {
      "anonymous": false,
      "inputs": [
        {
          "indexed": false,
          "internalType": "address",
          "name": "account",
          "type": "address"
        }
      ],
      "name": "Unpaused",
      "type": "event"
    },
    {
      "inputs": [],
      "name": "ADMIN_ROLE",
      "outputs": [
        {
          "internalType": "bytes32",
          "name": "",
          "type": "bytes32"
        }
      ],
      "stateMutability": "view",
      "type": "function",
      "constant": true
    },
    {
      "inputs": [],
      "name": "DEFAULT_ADMIN_ROLE",
      "outputs": [
        {
          "internalType": "bytes32",
          "name": "",
          "type": "bytes32"
        }
      ],
      "stateMutability": "view",
      "type": "function",
      "constant": true
    },
    {
      "inputs": [],
      "name": "MODERATOR",
      "outputs": [
        {
          "internalType": "bytes32",
          "name": "",
          "type": "bytes32"
        }
      ],
      "stateMutability": "view",
      "type": "function",
      "constant": true
    },
    {
      "inputs": [],
      "name": "_tokenID",
      "outputs": [
        {
          "internalType": "uint256",
          "name": "",
          "type": "uint256"
        }
      ],
      "stateMutability": "view",
      "type": "function",
      "constant": true
    },
    {
      "inputs": [
        {
          "internalType": "address",
          "name": "account",
          "type": "address"
        },
        {
          "internalType": "uint256",
          "name": "id",
          "type": "uint256"
        }
      ],
      "name": "balanceOf",
      "outputs": [
        {
          "internalType": "uint256",
          "name": "",
          "type": "uint256"
        }
      ],
      "stateMutability": "view",
      "type": "function",
      "constant": true
    },
    {
      "inputs": [
        {
          "internalType": "address[]",
          "name": "accounts",
          "type": "address[]"
        },
        {
          "internalType": "uint256[]",
          "name": "ids",
          "type": "uint256[]"
        }
      ],
      "name": "balanceOfBatch",
      "outputs": [
        {
          "internalType": "uint256[]",
          "name": "",
          "type": "uint256[]"
        }
      ],
      "stateMutability": "view",
      "type": "function",
      "constant": true
    },
    {
      "inputs": [
        {
          "internalType": "bytes32",
          "name": "role",
          "type": "bytes32"
        }
      ],
      "name": "getRoleAdmin",
      "outputs": [
        {
          "internalType": "bytes32",
          "name": "",
          "type": "bytes32"
        }
      ],
      "stateMutability": "view",
      "type": "function",
      "constant": true
    },
    {
      "inputs": [
        {
          "internalType": "bytes32",
          "name": "role",
          "type": "bytes32"
        },
        {
          "internalType": "uint256",
          "name": "index",
          "type": "uint256"
        }
      ],
      "name": "getRoleMember",
      "outputs": [
        {
          "internalType": "address",
          "name": "",
          "type": "address"
        }
      ],
      "stateMutability": "view",
      "type": "function",
      "constant": true
    },
    {
      "inputs": [
        {
          "internalType": "bytes32",
          "name": "role",
          "type": "bytes32"
        }
      ],
      "name": "getRoleMemberCount",
      "outputs": [
        {
          "internalType": "uint256",
          "name": "",
          "type": "uint256"
        }
      ],
      "stateMutability": "view",
      "type": "function",
      "constant": true
    },
    {
      "inputs": [
        {
          "internalType": "bytes32",
          "name": "role",
          "type": "bytes32"
        },
        {
          "internalType": "address",
          "name": "account",
          "type": "address"
        }
      ],
      "name": "grantRole",
      "outputs": [],
      "stateMutability": "nonpayable",
      "type": "function"
    },
    {
      "inputs": [
        {
          "internalType": "bytes32",
          "name": "role",
          "type": "bytes32"
        },
        {
          "internalType": "address",
          "name": "account",
          "type": "address"
        }
      ],
      "name": "hasRole",
      "outputs": [
        {
          "internalType": "bool",
          "name": "",
          "type": "bool"
        }
      ],
      "stateMutability": "view",
      "type": "function",
      "constant": true
    },
    {
      "inputs": [
        {
          "internalType": "address",
          "name": "account",
          "type": "address"
        },
        {
          "internalType": "address",
          "name": "operator",
          "type": "address"
        }
      ],
      "name": "isApprovedForAll",
      "outputs": [
        {
          "internalType": "bool",
          "name": "",
          "type": "bool"
        }
      ],
      "stateMutability": "view",
      "type": "function",
      "constant": true
    },
    {
      "inputs": [
        {
          "internalType": "address",
          "name": "",
          "type": "address"
        },
        {
          "internalType": "address",
          "name": "",
          "type": "address"
        },
        {
          "internalType": "uint256[]",
          "name": "",
          "type": "uint256[]"
        },
        {
          "internalType": "uint256[]",
          "name": "",
          "type": "uint256[]"
        },
        {
          "internalType": "bytes",
          "name": "",
          "type": "bytes"
        }
      ],
      "name": "onERC1155BatchReceived",
      "outputs": [
        {
          "internalType": "bytes4",
          "name": "",
          "type": "bytes4"
        }
      ],
      "stateMutability": "nonpayable",
      "type": "function"
    },
    {
      "inputs": [
        {
          "internalType": "address",
          "name": "",
          "type": "address"
        },
        {
          "internalType": "address",
          "name": "",
          "type": "address"
        },
        {
          "internalType": "uint256",
          "name": "",
          "type": "uint256"
        },
        {
          "internalType": "uint256",
          "name": "",
          "type": "uint256"
        },
        {
          "internalType": "bytes",
          "name": "",
          "type": "bytes"
        }
      ],
      "name": "onERC1155Received",
      "outputs": [
        {
          "internalType": "bytes4",
          "name": "",
          "type": "bytes4"
        }
      ],
      "stateMutability": "nonpayable",
      "type": "function"
    },
    {
      "inputs": [],
      "name": "paused",
      "outputs": [
        {
          "internalType": "bool",
          "name": "",
          "type": "bool"
        }
      ],
      "stateMutability": "view",
      "type": "function",
      "constant": true
    },
    {
      "inputs": [],
      "name": "proxy_contract",
      "outputs": [
        {
          "internalType": "address payable",
          "name": "",
          "type": "address"
        }
      ],
      "stateMutability": "view",
      "type": "function",
      "constant": true
    },
    {
      "inputs": [
        {
          "internalType": "bytes32",
          "name": "role",
          "type": "bytes32"
        },
        {
          "internalType": "address",
          "name": "account",
          "type": "address"
        }
      ],
      "name": "renounceRole",
      "outputs": [],
      "stateMutability": "nonpayable",
      "type": "function"
    },
    {
      "inputs": [
        {
          "internalType": "bytes32",
          "name": "role",
          "type": "bytes32"
        },
        {
          "internalType": "address",
          "name": "account",
          "type": "address"
        }
      ],
      "name": "revokeRole",
      "outputs": [],
      "stateMutability": "nonpayable",
      "type": "function"
    },
    {
      "inputs": [
        {
          "internalType": "address",
          "name": "from",
          "type": "address"
        },
        {
          "internalType": "address",
          "name": "to",
          "type": "address"
        },
        {
          "internalType": "uint256[]",
          "name": "ids",
          "type": "uint256[]"
        },
        {
          "internalType": "uint256[]",
          "name": "amounts",
          "type": "uint256[]"
        },
        {
          "internalType": "bytes",
          "name": "data",
          "type": "bytes"
        }
      ],
      "name": "safeBatchTransferFrom",
      "outputs": [],
      "stateMutability": "nonpayable",
      "type": "function"
    },
    {
      "inputs": [
        {
          "internalType": "address",
          "name": "from",
          "type": "address"
        },
        {
          "internalType": "address",
          "name": "to",
          "type": "address"
        },
        {
          "internalType": "uint256",
          "name": "id",
          "type": "uint256"
        },
        {
          "internalType": "uint256",
          "name": "amount",
          "type": "uint256"
        },
        {
          "internalType": "bytes",
          "name": "data",
          "type": "bytes"
        }
      ],
      "name": "safeTransferFrom",
      "outputs": [],
      "stateMutability": "nonpayable",
      "type": "function"
    },
    {
      "inputs": [
        {
          "internalType": "address",
          "name": "operator",
          "type": "address"
        },
        {
          "internalType": "bool",
          "name": "approved",
          "type": "bool"
        }
      ],
      "name": "setApprovalForAll",
      "outputs": [],
      "stateMutability": "nonpayable",
      "type": "function"
    },
    {
      "inputs": [
        {
          "internalType": "bytes4",
          "name": "interfaceId",
          "type": "bytes4"
        }
      ],
      "name": "supportsInterface",
      "outputs": [
        {
          "internalType": "bool",
          "name": "",
          "type": "bool"
        }
      ],
      "stateMutability": "view",
      "type": "function",
      "constant": true
    },
    {
      "inputs": [
        {
          "internalType": "uint256",
          "name": "",
          "type": "uint256"
        }
      ],
      "name": "uri",
      "outputs": [
        {
          "internalType": "string",
          "name": "",
          "type": "string"
        }
      ],
      "stateMutability": "view",
      "type": "function",
      "constant": true
    },
    {
      "inputs": [],
      "name": "usdt_contract",
      "outputs": [
        {
          "internalType": "address",
          "name": "",
          "type": "address"
        }
      ],
      "stateMutability": "view",
      "type": "function",
      "constant": true
    },
    {
      "inputs": [
        {
          "internalType": "uint256",
          "name": "tokenId",
          "type": "uint256"
        }
      ],
      "name": "getTotalSupply",
      "outputs": [
        {
          "internalType": "uint256",
          "name": "",
          "type": "uint256"
        }
      ],
      "stateMutability": "view",
      "type": "function",
      "constant": true
    },
    {
      "inputs": [
        {
          "internalType": "uint256",
          "name": "tokenId",
          "type": "uint256"
        }
      ],
      "name": "getOwner",
      "outputs": [
        {
          "internalType": "address",
          "name": "",
          "type": "address"
        }
      ],
      "stateMutability": "view",
      "type": "function",
      "constant": true
    },
    {
      "inputs": [
        {
          "internalType": "uint256",
          "name": "tokenId",
          "type": "uint256"
        }
      ],
      "name": "getValuationRpt",
      "outputs": [
        {
          "internalType": "string",
          "name": "",
          "type": "string"
        }
      ],
      "stateMutability": "view",
      "type": "function",
      "constant": true
    },
    {
      "inputs": [
        {
          "internalType": "uint256",
          "name": "tokenId",
          "type": "uint256"
        }
      ],
      "name": "getLegalContr",
      "outputs": [
        {
          "internalType": "string",
          "name": "",
          "type": "string"
        }
      ],
      "stateMutability": "view",
      "type": "function",
      "constant": true
    },
    {
      "inputs": [
        {
          "internalType": "address",
          "name": "assetOwner",
          "type": "address"
        },
        {
          "internalType": "uint256",
          "name": "totalAmt",
          "type": "uint256"
        },
        {
          "internalType": "uint256",
          "name": "ownerAmt",
          "type": "uint256"
        },
        {
          "internalType": "string",
          "name": "valueRpt",
          "type": "string"
        },
        {
          "internalType": "string",
          "name": "legalContr",
          "type": "string"
        }
      ],
      "name": "mintToken",
      "outputs": [],
      "stateMutability": "nonpayable",
      "type": "function"
    }
  ],
  "bytecode": "0x60806040526200001c6101646200003460201b620020e51760201c565b610165553480156200002d57600080fd5b5062000042565b600081600001549050919050565b61404780620000526000396000f3fe608060405234801561001057600080fd5b50600436106101ce5760003560e01c80639010d07c11610104578063c41a360a116100a2578063e3b7b0f511610071578063e3b7b0f5146105a1578063e985e9c5146105bd578063f23a6e61146105ed578063f242432a1461061d576101ce565b8063c41a360a14610507578063ca15c87314610537578063d547741f14610567578063d84e803814610583576101ce565b8063a217fddf116100de578063a217fddf1461047f578063a22cb4651461049d578063ad0cdd89146104b9578063bc197c81146104d7576101ce565b80639010d07c146103ef57806391d148541461041f57806392ab723e1461044f576101ce565b806334b4e625116101715780634e1273f41161014b5780634e1273f4146103655780635c975abb1461039557806375b238fc146103b357806375e15838146103d1576101ce565b806334b4e625146102fb57806336568abe146103195780634aa10a8014610335576101ce565b8063248a9ca3116101ad578063248a9ca3146102635780632eb2c2d6146102935780632f2ff15d146102af578063308ff127146102cb576101ce565b8062fdd58e146101d357806301ffc9a7146102035780630e89341c14610233575b600080fd5b6101ed60048036038101906101e89190613458565b610639565b6040516101fa91906139d1565b60405180910390f35b61021d60048036038101906102189190613648565b610719565b60405161022a919061391e565b60405180910390f35b61024d60048036038101906102489190613671565b610781565b60405161025a919061396f565b60405180910390f35b61027d600480360381019061027891906135a7565b610825565b60405161028a9190613939565b60405180910390f35b6102ad60048036038101906102a891906132ce565b610845565b005b6102c960048036038101906102c491906135d0565b610cd0565b005b6102e560048036038101906102e09190613671565b610d5a565b6040516102f2919061396f565b60405180910390f35b610303610f36565b6040516103109190613939565b60405180910390f35b610333600480360381019061032e91906135d0565b610f5a565b005b61034f600480360381019061034a9190613671565b610ff3565b60405161035c919061396f565b60405180910390f35b61037f600480360381019061037a919061353b565b6111cf565b60405161038c91906138fc565b60405180910390f35b61039d6112e1565b6040516103aa919061391e565b60405180910390f35b6103bb6112f8565b6040516103c89190613939565b60405180910390f35b6103d961131c565b6040516103e691906138c6565b60405180910390f35b6104096004803603810190610404919061360c565b611343565b60405161041691906138c6565b60405180910390f35b610439600480360381019061043491906135d0565b611375565b604051610446919061391e565b60405180910390f35b61046960048036038101906104649190613671565b6113a7565b60405161047691906139d1565b60405180910390f35b610487611583565b6040516104949190613939565b60405180910390f35b6104b760048036038101906104b2919061341c565b61158a565b005b6104c1611723565b6040516104ce91906139d1565b60405180910390f35b6104f160048036038101906104ec91906132ce565b61172a565b6040516104fe9190613954565b60405180910390f35b610521600480360381019061051c9190613671565b61173f565b60405161052e91906138c6565b60405180910390f35b610551600480360381019061054c91906135a7565b61191b565b60405161055e91906139d1565b60405180910390f35b610581600480360381019061057c91906135d0565b611942565b005b61058b6119cc565b60405161059891906138e1565b60405180910390f35b6105bb60048036038101906105b69190613494565b6119f3565b005b6105d760048036038101906105d29190613292565b611cc7565b6040516105e4919061391e565b60405180910390f35b6106076004803603810190610602919061338d565b611d5b565b6040516106149190613954565b60405180910390f35b6106376004803603810190610632919061338d565b611d70565b005b60008073ffffffffffffffffffffffffffffffffffffffff168373ffffffffffffffffffffffffffffffffffffffff1614156106c0576040517f08c379a000000000000000000000000000000000000000000000000000000000815260040180806020018281038252602b815260200180613e43602b913960400191505060405180910390fd5b60c9600083815260200190815260200160002060008473ffffffffffffffffffffffffffffffffffffffff1673ffffffffffffffffffffffffffffffffffffffff16815260200190815260200160002054905092915050565b600060976000837bffffffffffffffffffffffffffffffffffffffffffffffffffffffff19167bffffffffffffffffffffffffffffffffffffffffffffffffffffffff1916815260200190815260200160002060009054906101000a900460ff169050919050565b606060cb8054600181600116156101000203166002900480601f0160208091040260200160405190810160405280929190818152602001828054600181600116156101000203166002900480156108195780601f106107ee57610100808354040283529160200191610819565b820191906000526020600020905b8154815290600101906020018083116107fc57829003601f168201915b50505050509050919050565b600060336000838152602001908152602001600020600201549050919050565b815183511461089f576040517f08c379a0000000000000000000000000000000000000000000000000000000008152600401808060200182810382526028815260200180613f9a6028913960400191505060405180910390fd5b600073ffffffffffffffffffffffffffffffffffffffff168473ffffffffffffffffffffffffffffffffffffffff161415610925576040517f08c379a0000000000000000000000000000000000000000000000000000000008152600401808060200182810382526025815260200180613ec76025913960400191505060405180910390fd5b61092d6120f3565b73ffffffffffffffffffffffffffffffffffffffff168573ffffffffffffffffffffffffffffffffffffffff16148061097357506109728561096d6120f3565b611cc7565b5b6109c8576040517f08c379a0000000000000000000000000000000000000000000000000000000008152600401808060200182810382526032815260200180613eec6032913960400191505060405180910390fd5b60006109d26120f3565b90506109e28187878787876120fb565b60005b8451811015610bb35760008582815181106109fc57fe5b602002602001015190506000858381518110610a1457fe5b60200260200101519050610a9b816040518060600160405280602a8152602001613f1e602a913960c9600086815260200190815260200160002060008d73ffffffffffffffffffffffffffffffffffffffff1673ffffffffffffffffffffffffffffffffffffffff168152602001908152602001600020546121039092919063ffffffff16565b60c9600084815260200190815260200160002060008b73ffffffffffffffffffffffffffffffffffffffff1673ffffffffffffffffffffffffffffffffffffffff16815260200190815260200160002081905550610b528160c9600085815260200190815260200160002060008b73ffffffffffffffffffffffffffffffffffffffff1673ffffffffffffffffffffffffffffffffffffffff168152602001908152602001600020546121bd90919063ffffffff16565b60c9600084815260200190815260200160002060008a73ffffffffffffffffffffffffffffffffffffffff1673ffffffffffffffffffffffffffffffffffffffff1681526020019081526020016000208190555050508060010190506109e5565b508473ffffffffffffffffffffffffffffffffffffffff168673ffffffffffffffffffffffffffffffffffffffff168273ffffffffffffffffffffffffffffffffffffffff167f4a39dc06d4c0dbc64b70af90fd698a233a518aa5d07e595d983b8c0526c8f7fb8787604051808060200180602001838103835285818151815260200191508051906020019060200280838360005b83811015610c63578082015181840152602081019050610c48565b50505050905001838103825284818151815260200191508051906020019060200280838360005b83811015610ca5578082015181840152602081019050610c8a565b5050505090500194505050505060405180910390a4610cc8818787878787612245565b505050505050565b610cf76033600084815260200190815260200160002060020154610cf26120f3565b611375565b610d4c576040517f08c379a000000000000000000000000000000000000000000000000000000000815260040180806020018281038252602f815260200180613e14602f913960400191505060405180910390fd5b610d5682826125d4565b5050565b6060610d64612f92565b6101666000848152602001908152602001600020604051806080016040529081600082015481526020016001820160009054906101000a900473ffffffffffffffffffffffffffffffffffffffff1673ffffffffffffffffffffffffffffffffffffffff1673ffffffffffffffffffffffffffffffffffffffff168152602001600282018054600181600116156101000203166002900480601f016020809104026020016040519081016040528092919081815260200182805460018160011615610100020316600290048015610e7c5780601f10610e5157610100808354040283529160200191610e7c565b820191906000526020600020905b815481529060010190602001808311610e5f57829003601f168201915b50505050508152602001600382018054600181600116156101000203166002900480601f016020809104026020016040519081016040528092919081815260200182805460018160011615610100020316600290048015610f1e5780601f10610ef357610100808354040283529160200191610f1e565b820191906000526020600020905b815481529060010190602001808311610f0157829003601f168201915b50505050508152505090508060600151915050919050565b7f58c8e11deab7910e89bf18a1168c6e6ef28748f00fd3094549459f01cec5e0aa81565b610f626120f3565b73ffffffffffffffffffffffffffffffffffffffff168173ffffffffffffffffffffffffffffffffffffffff1614610fe5576040517f08c379a000000000000000000000000000000000000000000000000000000000815260040180806020018281038252602f815260200180613fe3602f913960400191505060405180910390fd5b610fef8282612668565b5050565b6060610ffd612f92565b6101666000848152602001908152602001600020604051806080016040529081600082015481526020016001820160009054906101000a900473ffffffffffffffffffffffffffffffffffffffff1673ffffffffffffffffffffffffffffffffffffffff1673ffffffffffffffffffffffffffffffffffffffff168152602001600282018054600181600116156101000203166002900480601f0160208091040260200160405190810160405280929190818152602001828054600181600116156101000203166002900480156111155780601f106110ea57610100808354040283529160200191611115565b820191906000526020600020905b8154815290600101906020018083116110f857829003601f168201915b50505050508152602001600382018054600181600116156101000203166002900480601f0160208091040260200160405190810160405280929190818152602001828054600181600116156101000203166002900480156111b75780601f1061118c576101008083540402835291602001916111b7565b820191906000526020600020905b81548152906001019060200180831161119a57829003601f168201915b50505050508152505090508060400151915050919050565b6060815183511461122b576040517f08c379a0000000000000000000000000000000000000000000000000000000008152600401808060200182810382526029815260200180613f716029913960400191505060405180910390fd5b6060835167ffffffffffffffff8111801561124557600080fd5b506040519080825280602002602001820160405280156112745781602001602082028036833780820191505090505b50905060005b84518110156112d6576112b385828151811061129257fe5b60200260200101518583815181106112a657fe5b6020026020010151610639565b8282815181106112bf57fe5b60200260200101818152505080600101905061127a565b508091505092915050565b6000606560009054906101000a900460ff16905090565b7fa49807205ce4d355092ef5a8a18f56e8913cf4a201fbe287825b095693c2177581565b61015f60009054906101000a900473ffffffffffffffffffffffffffffffffffffffff1681565b600061136d82603360008681526020019081526020016000206000016126fc90919063ffffffff16565b905092915050565b600061139f826033600086815260200190815260200160002060000161271690919063ffffffff16565b905092915050565b60006113b1612f92565b6101666000848152602001908152602001600020604051806080016040529081600082015481526020016001820160009054906101000a900473ffffffffffffffffffffffffffffffffffffffff1673ffffffffffffffffffffffffffffffffffffffff1673ffffffffffffffffffffffffffffffffffffffff168152602001600282018054600181600116156101000203166002900480601f0160208091040260200160405190810160405280929190818152602001828054600181600116156101000203166002900480156114c95780601f1061149e576101008083540402835291602001916114c9565b820191906000526020600020905b8154815290600101906020018083116114ac57829003601f168201915b50505050508152602001600382018054600181600116156101000203166002900480601f01602080910402602001604051908101604052809291908181526020018280546001816001161561010002031660029004801561156b5780601f106115405761010080835404028352916020019161156b565b820191906000526020600020905b81548152906001019060200180831161154e57829003601f168201915b50505050508152505090508060000151915050919050565b6000801b81565b8173ffffffffffffffffffffffffffffffffffffffff166115a96120f3565b73ffffffffffffffffffffffffffffffffffffffff161415611616576040517f08c379a0000000000000000000000000000000000000000000000000000000008152600401808060200182810382526029815260200180613f486029913960400191505060405180910390fd5b8060ca60006116236120f3565b73ffffffffffffffffffffffffffffffffffffffff1673ffffffffffffffffffffffffffffffffffffffff16815260200190815260200160002060008473ffffffffffffffffffffffffffffffffffffffff1673ffffffffffffffffffffffffffffffffffffffff16815260200190815260200160002060006101000a81548160ff0219169083151502179055508173ffffffffffffffffffffffffffffffffffffffff166116d06120f3565b73ffffffffffffffffffffffffffffffffffffffff167f17307eab39ab6107e8899845ad3d59bd9653f200f220920489ca2b5937696c318360405180821515815260200191505060405180910390a35050565b6101655481565b600063bc197c8160e01b905095945050505050565b6000611749612f92565b6101666000848152602001908152602001600020604051806080016040529081600082015481526020016001820160009054906101000a900473ffffffffffffffffffffffffffffffffffffffff1673ffffffffffffffffffffffffffffffffffffffff1673ffffffffffffffffffffffffffffffffffffffff168152602001600282018054600181600116156101000203166002900480601f0160208091040260200160405190810160405280929190818152602001828054600181600116156101000203166002900480156118615780601f1061183657610100808354040283529160200191611861565b820191906000526020600020905b81548152906001019060200180831161184457829003601f168201915b50505050508152602001600382018054600181600116156101000203166002900480601f0160208091040260200160405190810160405280929190818152602001828054600181600116156101000203166002900480156119035780601f106118d857610100808354040283529160200191611903565b820191906000526020600020905b8154815290600101906020018083116118e657829003601f168201915b50505050508152505090508060200151915050919050565b600061193b60336000848152602001908152602001600020600001612746565b9050919050565b61196960336000848152602001908152602001600020600201546119646120f3565b611375565b6119be576040517f08c379a0000000000000000000000000000000000000000000000000000000008152600401808060200182810382526030815260200180613e976030913960400191505060405180910390fd5b6119c88282612668565b5050565b61016160009054906101000a900473ffffffffffffffffffffffffffffffffffffffff1681565b611a1d7fa49807205ce4d355092ef5a8a18f56e8913cf4a201fbe287825b095693c2177533611375565b611a5c576040517f08c379a0000000000000000000000000000000000000000000000000000000008152600401611a53906139b1565b60405180910390fd5b611a646112e1565b15611ad7576040517f08c379a00000000000000000000000000000000000000000000000000000000081526004018080602001828103825260108152602001807f5061757361626c653a207061757365640000000000000000000000000000000081525060200191505060405180910390fd5b600061016382604051611aea91906138af565b90815260200160405180910390205414611b39576040517f08c379a0000000000000000000000000000000000000000000000000000000008152600401611b3090613991565b60405180910390fd5b611b4161275b565b6000610165549050600084860390508673ffffffffffffffffffffffffffffffffffffffff1686837faeee3bcad317d189c3a5fdbb0251902831536f3752d0bf9d6d13c0e8a6b77c6f428888604051611b9c939291906139ec565b60405180910390a4600061016660006101655481526020019081526020016000209050868160000181905550878160010160006101000a81548173ffffffffffffffffffffffffffffffffffffffff021916908373ffffffffffffffffffffffffffffffffffffffff16021790555084816002019080519060200190611c23929190612fd0565b5083816003019080519060200190611c3c929190612fd0565b506101655461016385604051611c5291906138af565b908152602001604051809103902081905550611ca261016160009054906101000a900473ffffffffffffffffffffffffffffffffffffffff1684846040518060200160405280600081525061277a565b611cbd8884886040518060200160405280600081525061277a565b5050505050505050565b600060ca60008473ffffffffffffffffffffffffffffffffffffffff1673ffffffffffffffffffffffffffffffffffffffff16815260200190815260200160002060008373ffffffffffffffffffffffffffffffffffffffff1673ffffffffffffffffffffffffffffffffffffffff16815260200190815260200160002060009054906101000a900460ff16905092915050565b600063f23a6e6160e01b905095945050505050565b600073ffffffffffffffffffffffffffffffffffffffff168473ffffffffffffffffffffffffffffffffffffffff161415611df6576040517f08c379a0000000000000000000000000000000000000000000000000000000008152600401808060200182810382526025815260200180613ec76025913960400191505060405180910390fd5b611dfe6120f3565b73ffffffffffffffffffffffffffffffffffffffff168573ffffffffffffffffffffffffffffffffffffffff161480611e445750611e4385611e3e6120f3565b611cc7565b5b611e99576040517f08c379a0000000000000000000000000000000000000000000000000000000008152600401808060200182810382526029815260200180613e6e6029913960400191505060405180910390fd5b6000611ea36120f3565b9050611ec3818787611eb48861297d565b611ebd8861297d565b876120fb565b611f40836040518060600160405280602a8152602001613f1e602a913960c9600088815260200190815260200160002060008a73ffffffffffffffffffffffffffffffffffffffff1673ffffffffffffffffffffffffffffffffffffffff168152602001908152602001600020546121039092919063ffffffff16565b60c9600086815260200190815260200160002060008873ffffffffffffffffffffffffffffffffffffffff1673ffffffffffffffffffffffffffffffffffffffff16815260200190815260200160002081905550611ff78360c9600087815260200190815260200160002060008873ffffffffffffffffffffffffffffffffffffffff1673ffffffffffffffffffffffffffffffffffffffff168152602001908152602001600020546121bd90919063ffffffff16565b60c9600086815260200190815260200160002060008773ffffffffffffffffffffffffffffffffffffffff1673ffffffffffffffffffffffffffffffffffffffff168152602001908152602001600020819055508473ffffffffffffffffffffffffffffffffffffffff168673ffffffffffffffffffffffffffffffffffffffff168273ffffffffffffffffffffffffffffffffffffffff167fc3d58168c5ae7397731d063d5bbf3d657854427343f4c083240f7aacaa2d0f628787604051808381526020018281526020019250505060405180910390a46120dd8187878787876129ed565b505050505050565b600081600001549050919050565b600033905090565b505050505050565b60008383111582906121b0576040517f08c379a00000000000000000000000000000000000000000000000000000000081526004018080602001828103825283818151815260200191508051906020019080838360005b8381101561217557808201518184015260208101905061215a565b50505050905090810190601f1680156121a25780820380516001836020036101000a031916815260200191505b509250505060405180910390fd5b5082840390509392505050565b60008082840190508381101561223b576040517f08c379a000000000000000000000000000000000000000000000000000000000815260040180806020018281038252601b8152602001807f536166654d6174683a206164646974696f6e206f766572666c6f77000000000081525060200191505060405180910390fd5b8091505092915050565b6122648473ffffffffffffffffffffffffffffffffffffffff16612cfa565b156125cc578373ffffffffffffffffffffffffffffffffffffffff1663bc197c8187878686866040518663ffffffff1660e01b8152600401808673ffffffffffffffffffffffffffffffffffffffff1681526020018573ffffffffffffffffffffffffffffffffffffffff168152602001806020018060200180602001848103845287818151815260200191508051906020019060200280838360005b8381101561231c578082015181840152602081019050612301565b50505050905001848103835286818151815260200191508051906020019060200280838360005b8381101561235e578082015181840152602081019050612343565b50505050905001848103825285818151815260200191508051906020019080838360005b8381101561239d578082015181840152602081019050612382565b50505050905090810190601f1680156123ca5780820380516001836020036101000a031916815260200191505b5098505050505050505050602060405180830381600087803b1580156123ef57600080fd5b505af192505050801561242357506040513d602081101561240f57600080fd5b810190808051906020019092919050505060015b61252d5761242f613c6c565b8061243a57506124dc565b806040517f08c379a00000000000000000000000000000000000000000000000000000000081526004018080602001828103825283818151815260200191508051906020019080838360005b838110156124a1578082015181840152602081019050612486565b50505050905090810190601f1680156124ce5780820380516001836020036101000a031916815260200191505b509250505060405180910390fd5b6040517f08c379a0000000000000000000000000000000000000000000000000000000008152600401808060200182810382526034815260200180613d966034913960400191505060405180910390fd5b63bc197c8160e01b7bffffffffffffffffffffffffffffffffffffffffffffffffffffffff1916817bffffffffffffffffffffffffffffffffffffffffffffffffffffffff1916146125ca576040517f08c379a0000000000000000000000000000000000000000000000000000000008152600401808060200182810382526028815260200180613dec6028913960400191505060405180910390fd5b505b505050505050565b6125fc8160336000858152602001908152602001600020600001612d0d90919063ffffffff16565b15612664576126096120f3565b73ffffffffffffffffffffffffffffffffffffffff168173ffffffffffffffffffffffffffffffffffffffff16837f2f8788117e7eff1d82e926ec794901d17c78024a50270940304540a733656f0d60405160405180910390a45b5050565b6126908160336000858152602001908152602001600020600001612d3d90919063ffffffff16565b156126f85761269d6120f3565b73ffffffffffffffffffffffffffffffffffffffff168173ffffffffffffffffffffffffffffffffffffffff16837ff6391f5c32d9c69d2a47ea670b442974b53935d1edc7fd64eb21e047a839171b60405160405180910390a45b5050565b600061270b8360000183612d6d565b60001c905092915050565b600061273e836000018373ffffffffffffffffffffffffffffffffffffffff1660001b612df0565b905092915050565b600061275482600001612e13565b9050919050565b612766610164612e24565b6127716101646120e5565b61016581905550565b600073ffffffffffffffffffffffffffffffffffffffff168473ffffffffffffffffffffffffffffffffffffffff161415612800576040517f08c379a0000000000000000000000000000000000000000000000000000000008152600401808060200182810382526021815260200180613fc26021913960400191505060405180910390fd5b600061280a6120f3565b905061282b8160008761281c8861297d565b6128258861297d565b876120fb565b61288e8360c9600087815260200190815260200160002060008873ffffffffffffffffffffffffffffffffffffffff1673ffffffffffffffffffffffffffffffffffffffff168152602001908152602001600020546121bd90919063ffffffff16565b60c9600086815260200190815260200160002060008773ffffffffffffffffffffffffffffffffffffffff1673ffffffffffffffffffffffffffffffffffffffff168152602001908152602001600020819055508473ffffffffffffffffffffffffffffffffffffffff16600073ffffffffffffffffffffffffffffffffffffffff168273ffffffffffffffffffffffffffffffffffffffff167fc3d58168c5ae7397731d063d5bbf3d657854427343f4c083240f7aacaa2d0f628787604051808381526020018281526020019250505060405180910390a4612976816000878787876129ed565b5050505050565b606080600167ffffffffffffffff8111801561299857600080fd5b506040519080825280602002602001820160405280156129c75781602001602082028036833780820191505090505b50905082816000815181106129d857fe5b60200260200101818152505080915050919050565b612a0c8473ffffffffffffffffffffffffffffffffffffffff16612cfa565b15612cf2578373ffffffffffffffffffffffffffffffffffffffff1663f23a6e6187878686866040518663ffffffff1660e01b8152600401808673ffffffffffffffffffffffffffffffffffffffff1681526020018573ffffffffffffffffffffffffffffffffffffffff16815260200184815260200183815260200180602001828103825283818151815260200191508051906020019080838360005b83811015612ac5578082015181840152602081019050612aaa565b50505050905090810190601f168015612af25780820380516001836020036101000a031916815260200191505b509650505050505050602060405180830381600087803b158015612b1557600080fd5b505af1925050508015612b4957506040513d6020811015612b3557600080fd5b810190808051906020019092919050505060015b612c5357612b55613c6c565b80612b605750612c02565b806040517f08c379a00000000000000000000000000000000000000000000000000000000081526004018080602001828103825283818151815260200191508051906020019080838360005b83811015612bc7578082015181840152602081019050612bac565b50505050905090810190601f168015612bf45780820380516001836020036101000a031916815260200191505b509250505060405180910390fd5b6040517f08c379a0000000000000000000000000000000000000000000000000000000008152600401808060200182810382526034815260200180613d966034913960400191505060405180910390fd5b63f23a6e6160e01b7bffffffffffffffffffffffffffffffffffffffffffffffffffffffff1916817bffffffffffffffffffffffffffffffffffffffffffffffffffffffff191614612cf0576040517f08c379a0000000000000000000000000000000000000000000000000000000008152600401808060200182810382526028815260200180613dec6028913960400191505060405180910390fd5b505b505050505050565b600080823b905060008111915050919050565b6000612d35836000018373ffffffffffffffffffffffffffffffffffffffff1660001b612e3a565b905092915050565b6000612d65836000018373ffffffffffffffffffffffffffffffffffffffff1660001b612eaa565b905092915050565b600081836000018054905011612dce576040517f08c379a0000000000000000000000000000000000000000000000000000000008152600401808060200182810382526022815260200180613dca6022913960400191505060405180910390fd5b826000018281548110612ddd57fe5b9060005260206000200154905092915050565b600080836001016000848152602001908152602001600020541415905092915050565b600081600001805490509050919050565b6001816000016000828254019250508190555050565b6000612e468383612df0565b612e9f578260000182908060018154018082558091505060019003906000526020600020016000909190919091505582600001805490508360010160008481526020019081526020016000208190555060019050612ea4565b600090505b92915050565b60008083600101600084815260200190815260200160002054905060008114612f865760006001820390506000600186600001805490500390506000866000018281548110612ef557fe5b9060005260206000200154905080876000018481548110612f1257fe5b9060005260206000200181905550600183018760010160008381526020019081526020016000208190555086600001805480612f4a57fe5b60019003818190600052602060002001600090559055866001016000878152602001908152602001600020600090556001945050505050612f8c565b60009150505b92915050565b604051806080016040528060008152602001600073ffffffffffffffffffffffffffffffffffffffff16815260200160608152602001606081525090565b828054600181600116156101000203166002900490600052602060002090601f016020900481019282613006576000855561304d565b82601f1061301f57805160ff191683800117855561304d565b8280016001018555821561304d579182015b8281111561304c578251825591602001919060010190613031565b5b50905061305a919061305e565b5090565b5b8082111561307757600081600090555060010161305f565b5090565b60008135905061308a81613d22565b92915050565b600082601f8301126130a157600080fd5b81356130b46130af82613a62565b613a31565b915081818352602084019350602081019050838560208402820111156130d957600080fd5b60005b8381101561310957816130ef888261307b565b8452602084019350602083019250506001810190506130dc565b5050505092915050565b600082601f83011261312457600080fd5b813561313761313282613a8e565b613a31565b9150818183526020840193506020810190508385602084028201111561315c57600080fd5b60005b8381101561318c5781613172888261327d565b84526020840193506020830192505060018101905061315f565b5050505092915050565b6000813590506131a581613d39565b92915050565b6000813590506131ba81613d50565b92915050565b6000813590506131cf81613d67565b92915050565b600082601f8301126131e657600080fd5b81356131f96131f482613aba565b613a31565b9150808252602083016020830185838301111561321557600080fd5b613220838284613c0a565b50505092915050565b600082601f83011261323a57600080fd5b813561324d61324882613aea565b613a31565b9150808252602083016020830185838301111561326957600080fd5b613274838284613c0a565b50505092915050565b60008135905061328c81613d7e565b92915050565b600080604083850312156132a557600080fd5b60006132b38582860161307b565b92505060206132c48582860161307b565b9150509250929050565b600080600080600060a086880312156132e657600080fd5b60006132f48882890161307b565b95505060206133058882890161307b565b945050604086013567ffffffffffffffff81111561332257600080fd5b61332e88828901613113565b935050606086013567ffffffffffffffff81111561334b57600080fd5b61335788828901613113565b925050608086013567ffffffffffffffff81111561337457600080fd5b613380888289016131d5565b9150509295509295909350565b600080600080600060a086880312156133a557600080fd5b60006133b38882890161307b565b95505060206133c48882890161307b565b94505060406133d58882890161327d565b93505060606133e68882890161327d565b925050608086013567ffffffffffffffff81111561340357600080fd5b61340f888289016131d5565b9150509295509295909350565b6000806040838503121561342f57600080fd5b600061343d8582860161307b565b925050602061344e85828601613196565b9150509250929050565b6000806040838503121561346b57600080fd5b60006134798582860161307b565b925050602061348a8582860161327d565b9150509250929050565b600080600080600060a086880312156134ac57600080fd5b60006134ba8882890161307b565b95505060206134cb8882890161327d565b94505060406134dc8882890161327d565b935050606086013567ffffffffffffffff8111156134f957600080fd5b61350588828901613229565b925050608086013567ffffffffffffffff81111561352257600080fd5b61352e88828901613229565b9150509295509295909350565b6000806040838503121561354e57600080fd5b600083013567ffffffffffffffff81111561356857600080fd5b61357485828601613090565b925050602083013567ffffffffffffffff81111561359157600080fd5b61359d85828601613113565b9150509250929050565b6000602082840312156135b957600080fd5b60006135c7848285016131ab565b91505092915050565b600080604083850312156135e357600080fd5b60006135f1858286016131ab565b92505060206136028582860161307b565b9150509250929050565b6000806040838503121561361f57600080fd5b600061362d858286016131ab565b925050602061363e8582860161327d565b9150509250929050565b60006020828403121561365a57600080fd5b6000613668848285016131c0565b91505092915050565b60006020828403121561368357600080fd5b60006136918482850161327d565b91505092915050565b60006136a68383613891565b60208301905092915050565b6136bb81613b8c565b82525050565b6136ca81613b7a565b82525050565b60006136db82613b2a565b6136e58185613b4d565b93506136f083613b1a565b8060005b83811015613721578151613708888261369a565b975061371383613b40565b9250506001810190506136f4565b5085935050505092915050565b61373781613b9e565b82525050565b61374681613baa565b82525050565b61375581613bb4565b82525050565b600061376682613b35565b6137708185613b5e565b9350613780818560208601613c19565b61378981613c4e565b840191505092915050565b600061379f82613b35565b6137a98185613b6f565b93506137b9818560208601613c19565b80840191505092915050565b60006137d2602683613b5e565b91507f546869732061737365742068617320616c7265616479206265656e20746f6b6560008301527f6e697a65642e00000000000000000000000000000000000000000000000000006020830152604082019050919050565b6000613838602683613b5e565b91507f4163636573732044656e6965643a2043616c6c6572206973206e6f742074686560008301527f2041646d696e00000000000000000000000000000000000000000000000000006020830152604082019050919050565b61389a81613c00565b82525050565b6138a981613c00565b82525050565b60006138bb8284613794565b915081905092915050565b60006020820190506138db60008301846136c1565b92915050565b60006020820190506138f660008301846136b2565b92915050565b6000602082019050818103600083015261391681846136d0565b905092915050565b6000602082019050613933600083018461372e565b92915050565b600060208201905061394e600083018461373d565b92915050565b6000602082019050613969600083018461374c565b92915050565b60006020820190508181036000830152613989818461375b565b905092915050565b600060208201905081810360008301526139aa816137c5565b9050919050565b600060208201905081810360008301526139ca8161382b565b9050919050565b60006020820190506139e660008301846138a0565b92915050565b6000606082019050613a0160008301866138a0565b8181036020830152613a13818561375b565b90508181036040830152613a27818461375b565b9050949350505050565b6000604051905081810181811067ffffffffffffffff82111715613a5857613a57613c4c565b5b8060405250919050565b600067ffffffffffffffff821115613a7d57613a7c613c4c565b5b602082029050602081019050919050565b600067ffffffffffffffff821115613aa957613aa8613c4c565b5b602082029050602081019050919050565b600067ffffffffffffffff821115613ad557613ad4613c4c565b5b601f19601f8301169050602081019050919050565b600067ffffffffffffffff821115613b0557613b04613c4c565b5b601f19601f8301169050602081019050919050565b6000819050602082019050919050565b600081519050919050565b600081519050919050565b6000602082019050919050565b600082825260208201905092915050565b600082825260208201905092915050565b600081905092915050565b6000613b8582613be0565b9050919050565b6000613b9782613be0565b9050919050565b60008115159050919050565b6000819050919050565b60007fffffffff0000000000000000000000000000000000000000000000000000000082169050919050565b600073ffffffffffffffffffffffffffffffffffffffff82169050919050565b6000819050919050565b82818337600083830152505050565b60005b83811015613c37578082015181840152602081019050613c1c565b83811115613c46576000848401525b50505050565bfe5b6000601f19601f8301169050919050565b60008160e01c9050919050565b600060443d1015613c7c57613d1f565b60046000803e613c8d600051613c5f565b6308c379a08114613c9e5750613d1f565b60405160043d036004823e80513d602482011167ffffffffffffffff82111715613cca57505050613d1f565b808201805167ffffffffffffffff811115613ce9575050505050613d1f565b8060208301013d8501811115613d0457505050505050613d1f565b613d0d82613c4e565b60208401016040528296505050505050505b90565b613d2b81613b7a565b8114613d3657600080fd5b50565b613d4281613b9e565b8114613d4d57600080fd5b50565b613d5981613baa565b8114613d6457600080fd5b50565b613d7081613bb4565b8114613d7b57600080fd5b50565b613d8781613c00565b8114613d9257600080fd5b5056fe455243313135353a207472616e7366657220746f206e6f6e2045524331313535526563656976657220696d706c656d656e746572456e756d657261626c655365743a20696e646578206f7574206f6620626f756e6473455243313135353a204552433131353552656365697665722072656a656374656420746f6b656e73416363657373436f6e74726f6c3a2073656e646572206d75737420626520616e2061646d696e20746f206772616e74455243313135353a2062616c616e636520717565727920666f7220746865207a65726f2061646472657373455243313135353a2063616c6c6572206973206e6f74206f776e6572206e6f7220617070726f766564416363657373436f6e74726f6c3a2073656e646572206d75737420626520616e2061646d696e20746f207265766f6b65455243313135353a207472616e7366657220746f20746865207a65726f2061646472657373455243313135353a207472616e736665722063616c6c6572206973206e6f74206f776e6572206e6f7220617070726f766564455243313135353a20696e73756666696369656e742062616c616e636520666f72207472616e73666572455243313135353a2073657474696e6720617070726f76616c2073746174757320666f722073656c66455243313135353a206163636f756e747320616e6420696473206c656e677468206d69736d61746368455243313135353a2069647320616e6420616d6f756e7473206c656e677468206d69736d61746368455243313135353a206d696e7420746f20746865207a65726f2061646472657373416363657373436f6e74726f6c3a2063616e206f6e6c792072656e6f756e636520726f6c657320666f722073656c66a264697066735822122057f24298a390932f601bb963573795cf7e0a2c2c626b359ff7375a8cb0ff85bc64736f6c63430007040033",
  "immutableReferences": {},
  "source": "// SPDX-License-Identifier: MIT\n\npragma solidity ^0.7.4;\npragma experimental ABIEncoderV2;\n\nimport \"./libraries/AccessControlUpgradeable.sol\";\nimport \"./libraries/PausableUpgradeable.sol\";\nimport './RETokenStorageOne.sol';\n\n/**\n * @title RETokenBusinessLogic\n * @dev This contract provides the business logic for RETokenProxy with an authorization\n * mechanism for admin tasks.\n * \n * VERSION: 1 (Ver.1)\n * 1. Add 4 functions to retrieve created token details.\n * 2. Add mintToken() function for Admin to create new token.\n */ \n\ncontract LogicOne is AccessControlUpgradeable, PausableUpgradeable, RETokenStorageOne {\n    \n    /**\n     * @dev Ver.1 Throws if called by any account without ADMIN_ROLE access.\n     */\n    modifier onlyAdmin() {\n        require(hasRole(ADMIN_ROLE, msg.sender), \"Access Denied: Caller is not the Admin\");\n        _;\n    }\n\n    /**\n     * @dev Series of functions to retrieve token details from `REToken` struct, including\n     * Total Supply, Owner, Valuation Report and Legal Contract.\n     *\n     * @param tokenId - Unique token id of token\n     */\n    function getTotalSupply(uint256 tokenId) external view returns (uint256) {\n        REToken memory token = reToken[tokenId];\n        return token.totalSupply;\n    }\n\n    function getOwner(uint256 tokenId) external view returns (address) {\n        REToken memory token = reToken[tokenId];\n        return token.owner;\n    }\n\n    function getValuationRpt(uint256 tokenId) external view returns (string memory) {\n        REToken memory token = reToken[tokenId];\n        return token.valuationReport;\n    }\n\n    function getLegalContr(uint256 tokenId) external view returns (string memory) {\n        REToken memory token = reToken[tokenId];\n        return token.legalContract;\n    }\n\n    /**\n     * @dev Creates `totalAmt` tokens of token type `newTokenId`, and assigns `adminAmt` to\n     * `proxy_contract` and `ownerAmt` `assetOwner` by calling ERC1155 _mint function.\n     *\n     * Can only be called by addresses with ADMIN_ROLE access.\n     * \n     * Emits a {RETokenID} event.\n     * Emits two {TransferSingle} events via ERC1155 library.\n     *\n     * Requirements:\n     * - `legalContr` must not have been used for another token ID.\n     *\n     * @param assetOwner - Asset Owner wallet address\n     * @param totalAmt - Total number of tokens for unique token ID\n     * @param ownerAmt - Total number of tokens for Asset Owner\n     * @param valueRpt - File Hash of Valuation Report\n     * @param legalContr - File Hash of Legal Contract\n     */\n    function mintToken(address assetOwner, uint256 totalAmt, uint256 ownerAmt, string memory valueRpt, string memory legalContr) external onlyAdmin whenNotPaused {\n        require(_legalContracts[legalContr] == 0, \"This asset has already been tokenized.\");\n\n        RETokenStorageOne.incrementTokenId();\n        \n        uint256 newTokenId = _tokenID;\n        uint256 adminAmt = totalAmt - ownerAmt;\n\n        emit RETokenID(block.timestamp, newTokenId, totalAmt, assetOwner, valueRpt, legalContr);\n\n        // Creates and updates REToken Struct of unique token ID with token details\n        REToken storage token = reToken[_tokenID];\n        token.totalSupply = totalAmt;\n        token.owner = assetOwner;\n        token.valuationReport = valueRpt;\n        token.legalContract = legalContr;\n\n        _legalContracts[legalContr] = _tokenID;\n\n        _mint(proxy_contract, newTokenId, adminAmt, \"\");\n        _mint(assetOwner, newTokenId, ownerAmt, \"\");\n    }\n\n}",
  "sourcePath": "C:/Users/seexy/Downloads/Project/solidity/v4/contracts/LogicOne.sol",
  "compiler": {
    "name": "solc",
    "version": "0.7.4+commit.3f05b770.Emscripten.clang"
  },
  "schemaVersion": "3.3.4",
  "updatedAt": "2021-03-22T06:02:51.857Z",
  "networkType": "ethereum",
  "devdoc": {
    "details": "This contract provides the business logic for RETokenProxy with an authorization mechanism for admin tasks.  VERSION: 1 (Ver.1) 1. Add 4 functions to retrieve created token details. 2. Add mintToken() function for Admin to create new token.",
    "kind": "dev",
    "methods": {
      "balanceOf(address,uint256)": {
        "details": "See {IERC1155-balanceOf}. Requirements: - `account` cannot be the zero address."
      },
      "balanceOfBatch(address[],uint256[])": {
        "details": "See {IERC1155-balanceOfBatch}. Requirements: - `accounts` and `ids` must have the same length."
      },
      "getRoleAdmin(bytes32)": {
        "details": "Returns the admin role that controls `role`. See {grantRole} and {revokeRole}. To change a role's admin, use {_setRoleAdmin}."
      },
      "getRoleMember(bytes32,uint256)": {
        "details": "Returns one of the accounts that have `role`. `index` must be a value between 0 and {getRoleMemberCount}, non-inclusive. Role bearers are not sorted in any particular way, and their ordering may change at any point. WARNING: When using {getRoleMember} and {getRoleMemberCount}, make sure you perform all queries on the same block. See the following https://forum.openzeppelin.com/t/iterating-over-elements-on-enumerableset-in-openzeppelin-contracts/2296[forum post] for more information."
      },
      "getRoleMemberCount(bytes32)": {
        "details": "Returns the number of accounts that have `role`. Can be used together with {getRoleMember} to enumerate all bearers of a role."
      },
      "getTotalSupply(uint256)": {
        "details": "Series of functions to retrieve token details from `REToken` struct, including Total Supply, Owner, Valuation Report and Legal Contract.",
        "params": {
          "tokenId": "- Unique token id of token"
        }
      },
      "grantRole(bytes32,address)": {
        "details": "Grants `role` to `account`. If `account` had not been already granted `role`, emits a {RoleGranted} event. Requirements: - the caller must have ``role``'s admin role."
      },
      "hasRole(bytes32,address)": {
        "details": "Returns `true` if `account` has been granted `role`."
      },
      "isApprovedForAll(address,address)": {
        "details": "See {IERC1155-isApprovedForAll}."
      },
      "mintToken(address,uint256,uint256,string,string)": {
        "details": "Creates `totalAmt` tokens of token type `newTokenId`, and assigns `adminAmt` to `proxy_contract` and `ownerAmt` `assetOwner` by calling ERC1155 _mint function. Can only be called by addresses with ADMIN_ROLE access.  Emits a {RETokenID} event. Emits two {TransferSingle} events via ERC1155 library. Requirements: - `legalContr` must not have been used for another token ID.",
        "params": {
          "assetOwner": "- Asset Owner wallet address",
          "legalContr": "- File Hash of Legal Contract",
          "ownerAmt": "- Total number of tokens for Asset Owner",
          "totalAmt": "- Total number of tokens for unique token ID",
          "valueRpt": "- File Hash of Valuation Report"
        }
      },
      "paused()": {
        "details": "Returns true if the contract is paused, and false otherwise."
      },
      "renounceRole(bytes32,address)": {
        "details": "Revokes `role` from the calling account. Roles are often managed via {grantRole} and {revokeRole}: this function's purpose is to provide a mechanism for accounts to lose their privileges if they are compromised (such as when a trusted device is misplaced). If the calling account had been granted `role`, emits a {RoleRevoked} event. Requirements: - the caller must be `account`."
      },
      "revokeRole(bytes32,address)": {
        "details": "Revokes `role` from `account`. If `account` had been granted `role`, emits a {RoleRevoked} event. Requirements: - the caller must have ``role``'s admin role."
      },
      "safeBatchTransferFrom(address,address,uint256[],uint256[],bytes)": {
        "details": "See {IERC1155-safeBatchTransferFrom}."
      },
      "safeTransferFrom(address,address,uint256,uint256,bytes)": {
        "details": "See {IERC1155-safeTransferFrom}."
      },
      "setApprovalForAll(address,bool)": {
        "details": "See {IERC1155-setApprovalForAll}."
      },
      "supportsInterface(bytes4)": {
        "details": "See {IERC165-supportsInterface}. Time complexity O(1), guaranteed to always use less than 30 000 gas."
      },
      "uri(uint256)": {
        "details": "See {IERC1155MetadataURI-uri}. This implementation returns the same URI for *all* token types. It relies on the token type ID substitution mechanism https://eips.ethereum.org/EIPS/eip-1155#metadata[defined in the EIP]. Clients calling this function must replace the `\\{id\\}` substring with the actual token type ID."
      }
    },
    "title": "RETokenBusinessLogic",
    "version": 1
  },
  "userdoc": {
    "kind": "user",
    "methods": {},
    "version": 1
  }
}