{
  "contractName": "LogicTwo",
  "abi": [
    {
      "anonymous": false,
      "inputs": [
        {
          "indexed": true,
          "internalType": "address",
          "name": "account",
          "type": "address"
        },
        {
          "indexed": true,
          "internalType": "address",
          "name": "operator",
          "type": "address"
        },
        {
          "indexed": false,
          "internalType": "bool",
          "name": "approved",
          "type": "bool"
        }
      ],
      "name": "ApprovalForAll",
      "type": "event"
    },
    {
      "anonymous": false,
      "inputs": [
        {
          "indexed": false,
          "internalType": "address",
          "name": "account",
          "type": "address"
        }
      ],
      "name": "Paused",
      "type": "event"
    },
    {
      "anonymous": false,
      "inputs": [
        {
          "indexed": false,
          "internalType": "uint256",
          "name": "timestamp",
          "type": "uint256"
        },
        {
          "indexed": true,
          "internalType": "uint256",
          "name": "id",
          "type": "uint256"
        },
        {
          "indexed": true,
          "internalType": "uint256",
          "name": "totalSupply",
          "type": "uint256"
        },
        {
          "indexed": true,
          "internalType": "address",
          "name": "owner",
          "type": "address"
        },
        {
          "indexed": false,
          "internalType": "string",
          "name": "valuationReport",
          "type": "string"
        },
        {
          "indexed": false,
          "internalType": "string",
          "name": "legalContract",
          "type": "string"
        }
      ],
      "name": "RETokenID",
      "type": "event"
    },
    {
      "anonymous": false,
      "inputs": [
        {
          "indexed": false,
          "internalType": "uint256",
          "name": "timestamp",
          "type": "uint256"
        },
        {
          "indexed": true,
          "internalType": "uint256",
          "name": "id",
          "type": "uint256"
        },
        {
          "indexed": false,
          "internalType": "uint256",
          "name": "tokenAmt",
          "type": "uint256"
        },
        {
          "indexed": true,
          "internalType": "address",
          "name": "buyer",
          "type": "address"
        },
        {
          "indexed": true,
          "internalType": "address",
          "name": "seller",
          "type": "address"
        },
        {
          "indexed": false,
          "internalType": "uint256",
          "name": "USDT",
          "type": "uint256"
        }
      ],
      "name": "RETokenUSDT",
      "type": "event"
    },
    {
      "anonymous": false,
      "inputs": [
        {
          "indexed": true,
          "internalType": "bytes32",
          "name": "role",
          "type": "bytes32"
        },
        {
          "indexed": true,
          "internalType": "bytes32",
          "name": "previousAdminRole",
          "type": "bytes32"
        },
        {
          "indexed": true,
          "internalType": "bytes32",
          "name": "newAdminRole",
          "type": "bytes32"
        }
      ],
      "name": "RoleAdminChanged",
      "type": "event"
    },
    {
      "anonymous": false,
      "inputs": [
        {
          "indexed": true,
          "internalType": "bytes32",
          "name": "role",
          "type": "bytes32"
        },
        {
          "indexed": true,
          "internalType": "address",
          "name": "account",
          "type": "address"
        },
        {
          "indexed": true,
          "internalType": "address",
          "name": "sender",
          "type": "address"
        }
      ],
      "name": "RoleGranted",
      "type": "event"
    },
    {
      "anonymous": false,
      "inputs": [
        {
          "indexed": true,
          "internalType": "bytes32",
          "name": "role",
          "type": "bytes32"
        },
        {
          "indexed": true,
          "internalType": "address",
          "name": "account",
          "type": "address"
        },
        {
          "indexed": true,
          "internalType": "address",
          "name": "sender",
          "type": "address"
        }
      ],
      "name": "RoleRevoked",
      "type": "event"
    },
    {
      "anonymous": false,
      "inputs": [
        {
          "indexed": true,
          "internalType": "address",
          "name": "operator",
          "type": "address"
        },
        {
          "indexed": true,
          "internalType": "address",
          "name": "from",
          "type": "address"
        },
        {
          "indexed": true,
          "internalType": "address",
          "name": "to",
          "type": "address"
        },
        {
          "indexed": false,
          "internalType": "uint256[]",
          "name": "ids",
          "type": "uint256[]"
        },
        {
          "indexed": false,
          "internalType": "uint256[]",
          "name": "values",
          "type": "uint256[]"
        }
      ],
      "name": "TransferBatch",
      "type": "event"
    },
    {
      "anonymous": false,
      "inputs": [
        {
          "indexed": true,
          "internalType": "address",
          "name": "operator",
          "type": "address"
        },
        {
          "indexed": true,
          "internalType": "address",
          "name": "from",
          "type": "address"
        },
        {
          "indexed": true,
          "internalType": "address",
          "name": "to",
          "type": "address"
        },
        {
          "indexed": false,
          "internalType": "uint256",
          "name": "id",
          "type": "uint256"
        },
        {
          "indexed": false,
          "internalType": "uint256",
          "name": "value",
          "type": "uint256"
        }
      ],
      "name": "TransferSingle",
      "type": "event"
    },
    {
      "anonymous": false,
      "inputs": [
        {
          "indexed": false,
          "internalType": "string",
          "name": "value",
          "type": "string"
        },
        {
          "indexed": true,
          "internalType": "uint256",
          "name": "id",
          "type": "uint256"
        }
      ],
      "name": "URI",
      "type": "event"
    },
    {
      "anonymous": false,
      "inputs": [
        {
          "indexed": false,
          "internalType": "address",
          "name": "account",
          "type": "address"
        }
      ],
      "name": "Unpaused",
      "type": "event"
    },
    {
      "inputs": [],
      "name": "ADMIN_ROLE",
      "outputs": [
        {
          "internalType": "bytes32",
          "name": "",
          "type": "bytes32"
        }
      ],
      "stateMutability": "view",
      "type": "function",
      "constant": true
    },
    {
      "inputs": [],
      "name": "DEFAULT_ADMIN_ROLE",
      "outputs": [
        {
          "internalType": "bytes32",
          "name": "",
          "type": "bytes32"
        }
      ],
      "stateMutability": "view",
      "type": "function",
      "constant": true
    },
    {
      "inputs": [],
      "name": "MODERATOR",
      "outputs": [
        {
          "internalType": "bytes32",
          "name": "",
          "type": "bytes32"
        }
      ],
      "stateMutability": "view",
      "type": "function",
      "constant": true
    },
    {
      "inputs": [],
      "name": "_tokenID",
      "outputs": [
        {
          "internalType": "uint256",
          "name": "",
          "type": "uint256"
        }
      ],
      "stateMutability": "view",
      "type": "function",
      "constant": true
    },
    {
      "inputs": [
        {
          "internalType": "address",
          "name": "account",
          "type": "address"
        },
        {
          "internalType": "uint256",
          "name": "id",
          "type": "uint256"
        }
      ],
      "name": "balanceOf",
      "outputs": [
        {
          "internalType": "uint256",
          "name": "",
          "type": "uint256"
        }
      ],
      "stateMutability": "view",
      "type": "function",
      "constant": true
    },
    {
      "inputs": [
        {
          "internalType": "address[]",
          "name": "accounts",
          "type": "address[]"
        },
        {
          "internalType": "uint256[]",
          "name": "ids",
          "type": "uint256[]"
        }
      ],
      "name": "balanceOfBatch",
      "outputs": [
        {
          "internalType": "uint256[]",
          "name": "",
          "type": "uint256[]"
        }
      ],
      "stateMutability": "view",
      "type": "function",
      "constant": true
    },
    {
      "inputs": [
        {
          "internalType": "bytes32",
          "name": "role",
          "type": "bytes32"
        }
      ],
      "name": "getRoleAdmin",
      "outputs": [
        {
          "internalType": "bytes32",
          "name": "",
          "type": "bytes32"
        }
      ],
      "stateMutability": "view",
      "type": "function",
      "constant": true
    },
    {
      "inputs": [
        {
          "internalType": "bytes32",
          "name": "role",
          "type": "bytes32"
        },
        {
          "internalType": "uint256",
          "name": "index",
          "type": "uint256"
        }
      ],
      "name": "getRoleMember",
      "outputs": [
        {
          "internalType": "address",
          "name": "",
          "type": "address"
        }
      ],
      "stateMutability": "view",
      "type": "function",
      "constant": true
    },
    {
      "inputs": [
        {
          "internalType": "bytes32",
          "name": "role",
          "type": "bytes32"
        }
      ],
      "name": "getRoleMemberCount",
      "outputs": [
        {
          "internalType": "uint256",
          "name": "",
          "type": "uint256"
        }
      ],
      "stateMutability": "view",
      "type": "function",
      "constant": true
    },
    {
      "inputs": [
        {
          "internalType": "bytes32",
          "name": "role",
          "type": "bytes32"
        },
        {
          "internalType": "address",
          "name": "account",
          "type": "address"
        }
      ],
      "name": "grantRole",
      "outputs": [],
      "stateMutability": "nonpayable",
      "type": "function"
    },
    {
      "inputs": [
        {
          "internalType": "bytes32",
          "name": "role",
          "type": "bytes32"
        },
        {
          "internalType": "address",
          "name": "account",
          "type": "address"
        }
      ],
      "name": "hasRole",
      "outputs": [
        {
          "internalType": "bool",
          "name": "",
          "type": "bool"
        }
      ],
      "stateMutability": "view",
      "type": "function",
      "constant": true
    },
    {
      "inputs": [
        {
          "internalType": "address",
          "name": "account",
          "type": "address"
        },
        {
          "internalType": "address",
          "name": "operator",
          "type": "address"
        }
      ],
      "name": "isApprovedForAll",
      "outputs": [
        {
          "internalType": "bool",
          "name": "",
          "type": "bool"
        }
      ],
      "stateMutability": "view",
      "type": "function",
      "constant": true
    },
    {
      "inputs": [
        {
          "internalType": "address",
          "name": "",
          "type": "address"
        },
        {
          "internalType": "address",
          "name": "",
          "type": "address"
        },
        {
          "internalType": "uint256[]",
          "name": "",
          "type": "uint256[]"
        },
        {
          "internalType": "uint256[]",
          "name": "",
          "type": "uint256[]"
        },
        {
          "internalType": "bytes",
          "name": "",
          "type": "bytes"
        }
      ],
      "name": "onERC1155BatchReceived",
      "outputs": [
        {
          "internalType": "bytes4",
          "name": "",
          "type": "bytes4"
        }
      ],
      "stateMutability": "nonpayable",
      "type": "function"
    },
    {
      "inputs": [
        {
          "internalType": "address",
          "name": "",
          "type": "address"
        },
        {
          "internalType": "address",
          "name": "",
          "type": "address"
        },
        {
          "internalType": "uint256",
          "name": "",
          "type": "uint256"
        },
        {
          "internalType": "uint256",
          "name": "",
          "type": "uint256"
        },
        {
          "internalType": "bytes",
          "name": "",
          "type": "bytes"
        }
      ],
      "name": "onERC1155Received",
      "outputs": [
        {
          "internalType": "bytes4",
          "name": "",
          "type": "bytes4"
        }
      ],
      "stateMutability": "nonpayable",
      "type": "function"
    },
    {
      "inputs": [],
      "name": "paused",
      "outputs": [
        {
          "internalType": "bool",
          "name": "",
          "type": "bool"
        }
      ],
      "stateMutability": "view",
      "type": "function",
      "constant": true
    },
    {
      "inputs": [],
      "name": "proxy_contract",
      "outputs": [
        {
          "internalType": "address payable",
          "name": "",
          "type": "address"
        }
      ],
      "stateMutability": "view",
      "type": "function",
      "constant": true
    },
    {
      "inputs": [
        {
          "internalType": "bytes32",
          "name": "role",
          "type": "bytes32"
        },
        {
          "internalType": "address",
          "name": "account",
          "type": "address"
        }
      ],
      "name": "renounceRole",
      "outputs": [],
      "stateMutability": "nonpayable",
      "type": "function"
    },
    {
      "inputs": [
        {
          "internalType": "bytes32",
          "name": "role",
          "type": "bytes32"
        },
        {
          "internalType": "address",
          "name": "account",
          "type": "address"
        }
      ],
      "name": "revokeRole",
      "outputs": [],
      "stateMutability": "nonpayable",
      "type": "function"
    },
    {
      "inputs": [
        {
          "internalType": "address",
          "name": "from",
          "type": "address"
        },
        {
          "internalType": "address",
          "name": "to",
          "type": "address"
        },
        {
          "internalType": "uint256[]",
          "name": "ids",
          "type": "uint256[]"
        },
        {
          "internalType": "uint256[]",
          "name": "amounts",
          "type": "uint256[]"
        },
        {
          "internalType": "bytes",
          "name": "data",
          "type": "bytes"
        }
      ],
      "name": "safeBatchTransferFrom",
      "outputs": [],
      "stateMutability": "nonpayable",
      "type": "function"
    },
    {
      "inputs": [
        {
          "internalType": "address",
          "name": "from",
          "type": "address"
        },
        {
          "internalType": "address",
          "name": "to",
          "type": "address"
        },
        {
          "internalType": "uint256",
          "name": "id",
          "type": "uint256"
        },
        {
          "internalType": "uint256",
          "name": "amount",
          "type": "uint256"
        },
        {
          "internalType": "bytes",
          "name": "data",
          "type": "bytes"
        }
      ],
      "name": "safeTransferFrom",
      "outputs": [],
      "stateMutability": "nonpayable",
      "type": "function"
    },
    {
      "inputs": [
        {
          "internalType": "address",
          "name": "operator",
          "type": "address"
        },
        {
          "internalType": "bool",
          "name": "approved",
          "type": "bool"
        }
      ],
      "name": "setApprovalForAll",
      "outputs": [],
      "stateMutability": "nonpayable",
      "type": "function"
    },
    {
      "inputs": [
        {
          "internalType": "bytes4",
          "name": "interfaceId",
          "type": "bytes4"
        }
      ],
      "name": "supportsInterface",
      "outputs": [
        {
          "internalType": "bool",
          "name": "",
          "type": "bool"
        }
      ],
      "stateMutability": "view",
      "type": "function",
      "constant": true
    },
    {
      "inputs": [
        {
          "internalType": "uint256",
          "name": "",
          "type": "uint256"
        }
      ],
      "name": "uri",
      "outputs": [
        {
          "internalType": "string",
          "name": "",
          "type": "string"
        }
      ],
      "stateMutability": "view",
      "type": "function",
      "constant": true
    },
    {
      "inputs": [],
      "name": "usdt_contract",
      "outputs": [
        {
          "internalType": "address",
          "name": "",
          "type": "address"
        }
      ],
      "stateMutability": "view",
      "type": "function",
      "constant": true
    },
    {
      "inputs": [
        {
          "internalType": "uint256",
          "name": "tokenId",
          "type": "uint256"
        }
      ],
      "name": "getTotalSupply",
      "outputs": [
        {
          "internalType": "uint256",
          "name": "",
          "type": "uint256"
        }
      ],
      "stateMutability": "view",
      "type": "function",
      "constant": true
    },
    {
      "inputs": [
        {
          "internalType": "uint256",
          "name": "tokenId",
          "type": "uint256"
        }
      ],
      "name": "getOwner",
      "outputs": [
        {
          "internalType": "address",
          "name": "",
          "type": "address"
        }
      ],
      "stateMutability": "view",
      "type": "function",
      "constant": true
    },
    {
      "inputs": [
        {
          "internalType": "uint256",
          "name": "tokenId",
          "type": "uint256"
        }
      ],
      "name": "getValuationRpt",
      "outputs": [
        {
          "internalType": "string",
          "name": "",
          "type": "string"
        }
      ],
      "stateMutability": "view",
      "type": "function",
      "constant": true
    },
    {
      "inputs": [
        {
          "internalType": "uint256",
          "name": "tokenId",
          "type": "uint256"
        }
      ],
      "name": "getLegalContr",
      "outputs": [
        {
          "internalType": "string",
          "name": "",
          "type": "string"
        }
      ],
      "stateMutability": "view",
      "type": "function",
      "constant": true
    },
    {
      "inputs": [
        {
          "internalType": "address",
          "name": "assetOwner",
          "type": "address"
        },
        {
          "internalType": "uint256",
          "name": "totalAmt",
          "type": "uint256"
        },
        {
          "internalType": "uint256",
          "name": "ownerAmt",
          "type": "uint256"
        },
        {
          "internalType": "string",
          "name": "valueRpt",
          "type": "string"
        },
        {
          "internalType": "string",
          "name": "legalContr",
          "type": "string"
        }
      ],
      "name": "mintToken",
      "outputs": [],
      "stateMutability": "nonpayable",
      "type": "function"
    },
    {
      "inputs": [
        {
          "internalType": "uint256",
          "name": "id",
          "type": "uint256"
        },
        {
          "internalType": "uint256",
          "name": "tokenAmt",
          "type": "uint256"
        },
        {
          "internalType": "uint256",
          "name": "usdtAmt",
          "type": "uint256"
        }
      ],
      "name": "buyToken",
      "outputs": [],
      "stateMutability": "nonpayable",
      "type": "function"
    }
  ],
  "bytecode": "0x60806040526200001c6101646200003460201b620036881760201c565b610165553480156200002d57600080fd5b5062000042565b600081600001549050919050565b614a5280620000526000396000f3fe608060405234801561001057600080fd5b50600436106101d95760003560e01c806391d1485411610104578063ca15c873116100a2578063e3b7b0f511610071578063e3b7b0f514610f12578063e985e9c514611098578063f23a6e6114611112578063f242432a14611254576101d9565b8063ca15c87314610e0c578063d547741f14610e4e578063d84e803814610e9c578063de2d554b14610ed0576101d9565b8063a22cb465116100de578063a22cb46514610af0578063ad0cdd8914610b40578063bc197c8114610b5e578063c41a360a14610db4576101d9565b806391d1485414610a2c57806392ab723e14610a90578063a217fddf14610ad2576101d9565b806334b4e6251161017c5780635c975abb1161014b5780635c975abb1461095857806375b238fc1461097857806375e15838146109965780639010d07c146109ca576101d9565b806334b4e625146106a457806336568abe146106c25780634aa10a80146107105780634e1273f4146107b7576101d9565b8063248a9ca3116101b8578063248a9ca31461034a5780632eb2c2d61461038c5780632f2ff15d146105af578063308ff127146105fd576101d9565b8062fdd58e146101de57806301ffc9a7146102405780630e89341c146102a3575b600080fd5b61022a600480360360408110156101f457600080fd5b81019080803573ffffffffffffffffffffffffffffffffffffffff16906020019092919080359060200190929190505050611363565b6040518082815260200191505060405180910390f35b61028b6004803603602081101561025657600080fd5b8101908080357bffffffffffffffffffffffffffffffffffffffffffffffffffffffff19169060200190929190505050611443565b60405180821515815260200191505060405180910390f35b6102cf600480360360208110156102b957600080fd5b81019080803590602001909291905050506114ab565b6040518080602001828103825283818151815260200191508051906020019080838360005b8381101561030f5780820151818401526020810190506102f4565b50505050905090810190601f16801561033c5780820380516001836020036101000a031916815260200191505b509250505060405180910390f35b6103766004803603602081101561036057600080fd5b810190808035906020019092919050505061154f565b6040518082815260200191505060405180910390f35b6105ad600480360360a08110156103a257600080fd5b81019080803573ffffffffffffffffffffffffffffffffffffffff169060200190929190803573ffffffffffffffffffffffffffffffffffffffff169060200190929190803590602001906401000000008111156103ff57600080fd5b82018360208201111561041157600080fd5b8035906020019184602083028401116401000000008311171561043357600080fd5b919080806020026020016040519081016040528093929190818152602001838360200280828437600081840152601f19601f8201169050808301925050505050505091929192908035906020019064010000000081111561049357600080fd5b8201836020820111156104a557600080fd5b803590602001918460208302840111640100000000831117156104c757600080fd5b919080806020026020016040519081016040528093929190818152602001838360200280828437600081840152601f19601f8201169050808301925050505050505091929192908035906020019064010000000081111561052757600080fd5b82018360208201111561053957600080fd5b8035906020019184600183028401116401000000008311171561055b57600080fd5b91908080601f016020809104026020016040519081016040528093929190818152602001838380828437600081840152601f19601f82011690508083019250505050505050919291929050505061156f565b005b6105fb600480360360408110156105c557600080fd5b8101908080359060200190929190803573ffffffffffffffffffffffffffffffffffffffff1690602001909291905050506119fa565b005b6106296004803603602081101561061357600080fd5b8101908080359060200190929190505050611a84565b6040518080602001828103825283818151815260200191508051906020019080838360005b8381101561066957808201518184015260208101905061064e565b50505050905090810190601f1680156106965780820380516001836020036101000a031916815260200191505b509250505060405180910390f35b6106ac611c60565b6040518082815260200191505060405180910390f35b61070e600480360360408110156106d857600080fd5b8101908080359060200190929190803573ffffffffffffffffffffffffffffffffffffffff169060200190929190505050611c84565b005b61073c6004803603602081101561072657600080fd5b8101908080359060200190929190505050611d1d565b6040518080602001828103825283818151815260200191508051906020019080838360005b8381101561077c578082015181840152602081019050610761565b50505050905090810190601f1680156107a95780820380516001836020036101000a031916815260200191505b509250505060405180910390f35b610901600480360360408110156107cd57600080fd5b81019080803590602001906401000000008111156107ea57600080fd5b8201836020820111156107fc57600080fd5b8035906020019184602083028401116401000000008311171561081e57600080fd5b919080806020026020016040519081016040528093929190818152602001838360200280828437600081840152601f19601f8201169050808301925050505050505091929192908035906020019064010000000081111561087e57600080fd5b82018360208201111561089057600080fd5b803590602001918460208302840111640100000000831117156108b257600080fd5b919080806020026020016040519081016040528093929190818152602001838360200280828437600081840152601f19601f820116905080830192505050505050509192919290505050611ef9565b6040518080602001828103825283818151815260200191508051906020019060200280838360005b83811015610944578082015181840152602081019050610929565b505050509050019250505060405180910390f35b61096061200b565b60405180821515815260200191505060405180910390f35b610980612022565b6040518082815260200191505060405180910390f35b61099e612046565b604051808273ffffffffffffffffffffffffffffffffffffffff16815260200191505060405180910390f35b610a00600480360360408110156109e057600080fd5b81019080803590602001909291908035906020019092919050505061206d565b604051808273ffffffffffffffffffffffffffffffffffffffff16815260200191505060405180910390f35b610a7860048036036040811015610a4257600080fd5b8101908080359060200190929190803573ffffffffffffffffffffffffffffffffffffffff16906020019092919050505061209f565b60405180821515815260200191505060405180910390f35b610abc60048036036020811015610aa657600080fd5b81019080803590602001909291905050506120d1565b6040518082815260200191505060405180910390f35b610ada6122ad565b6040518082815260200191505060405180910390f35b610b3e60048036036040811015610b0657600080fd5b81019080803573ffffffffffffffffffffffffffffffffffffffff1690602001909291908035151590602001909291905050506122b4565b005b610b4861244d565b6040518082815260200191505060405180910390f35b610d7f600480360360a0811015610b7457600080fd5b81019080803573ffffffffffffffffffffffffffffffffffffffff169060200190929190803573ffffffffffffffffffffffffffffffffffffffff16906020019092919080359060200190640100000000811115610bd157600080fd5b820183602082011115610be357600080fd5b80359060200191846020830284011164010000000083111715610c0557600080fd5b919080806020026020016040519081016040528093929190818152602001838360200280828437600081840152601f19601f82011690508083019250505050505050919291929080359060200190640100000000811115610c6557600080fd5b820183602082011115610c7757600080fd5b80359060200191846020830284011164010000000083111715610c9957600080fd5b919080806020026020016040519081016040528093929190818152602001838360200280828437600081840152601f19601f82011690508083019250505050505050919291929080359060200190640100000000811115610cf957600080fd5b820183602082011115610d0b57600080fd5b80359060200191846001830284011164010000000083111715610d2d57600080fd5b91908080601f016020809104026020016040519081016040528093929190818152602001838380828437600081840152601f19601f820116905080830192505050505050509192919290505050612454565b60405180827bffffffffffffffffffffffffffffffffffffffffffffffffffffffff1916815260200191505060405180910390f35b610de060048036036020811015610dca57600080fd5b8101908080359060200190929190505050612469565b604051808273ffffffffffffffffffffffffffffffffffffffff16815260200191505060405180910390f35b610e3860048036036020811015610e2257600080fd5b8101908080359060200190929190505050612645565b6040518082815260200191505060405180910390f35b610e9a60048036036040811015610e6457600080fd5b8101908080359060200190929190803573ffffffffffffffffffffffffffffffffffffffff16906020019092919050505061266c565b005b610ea46126f6565b604051808273ffffffffffffffffffffffffffffffffffffffff16815260200191505060405180910390f35b610f1060048036036060811015610ee657600080fd5b8101908080359060200190929190803590602001909291908035906020019092919050505061271d565b005b611096600480360360a0811015610f2857600080fd5b81019080803573ffffffffffffffffffffffffffffffffffffffff169060200190929190803590602001909291908035906020019092919080359060200190640100000000811115610f7957600080fd5b820183602082011115610f8b57600080fd5b80359060200191846001830284011164010000000083111715610fad57600080fd5b91908080601f016020809104026020016040519081016040528093929190818152602001838380828437600081840152601f19601f8201169050808301925050505050505091929192908035906020019064010000000081111561101057600080fd5b82018360208201111561102257600080fd5b8035906020019184600183028401116401000000008311171561104457600080fd5b91908080601f016020809104026020016040519081016040528093929190818152602001838380828437600081840152601f19601f820116905080830192505050505050509192919290505050612e73565b005b6110fa600480360360408110156110ae57600080fd5b81019080803573ffffffffffffffffffffffffffffffffffffffff169060200190929190803573ffffffffffffffffffffffffffffffffffffffff16906020019092919050505061326a565b60405180821515815260200191505060405180910390f35b61121f600480360360a081101561112857600080fd5b81019080803573ffffffffffffffffffffffffffffffffffffffff169060200190929190803573ffffffffffffffffffffffffffffffffffffffff16906020019092919080359060200190929190803590602001909291908035906020019064010000000081111561119957600080fd5b8201836020820111156111ab57600080fd5b803590602001918460018302840111640100000000831117156111cd57600080fd5b91908080601f016020809104026020016040519081016040528093929190818152602001838380828437600081840152601f19601f8201169050808301925050505050505091929192905050506132fe565b60405180827bffffffffffffffffffffffffffffffffffffffffffffffffffffffff1916815260200191505060405180910390f35b611361600480360360a081101561126a57600080fd5b81019080803573ffffffffffffffffffffffffffffffffffffffff169060200190929190803573ffffffffffffffffffffffffffffffffffffffff1690602001909291908035906020019092919080359060200190929190803590602001906401000000008111156112db57600080fd5b8201836020820111156112ed57600080fd5b8035906020019184600183028401116401000000008311171561130f57600080fd5b91908080601f016020809104026020016040519081016040528093929190818152602001838380828437600081840152601f19601f820116905080830192505050505050509192919290505050613313565b005b60008073ffffffffffffffffffffffffffffffffffffffff168373ffffffffffffffffffffffffffffffffffffffff1614156113ea576040517f08c379a000000000000000000000000000000000000000000000000000000000815260040180806020018281038252602b8152602001806147f5602b913960400191505060405180910390fd5b60c9600083815260200190815260200160002060008473ffffffffffffffffffffffffffffffffffffffff1673ffffffffffffffffffffffffffffffffffffffff16815260200190815260200160002054905092915050565b600060976000837bffffffffffffffffffffffffffffffffffffffffffffffffffffffff19167bffffffffffffffffffffffffffffffffffffffffffffffffffffffff1916815260200190815260200160002060009054906101000a900460ff169050919050565b606060cb8054600181600116156101000203166002900480601f0160208091040260200160405190810160405280929190818152602001828054600181600116156101000203166002900480156115435780601f1061151857610100808354040283529160200191611543565b820191906000526020600020905b81548152906001019060200180831161152657829003601f168201915b50505050509050919050565b600060336000838152602001908152602001600020600201549050919050565b81518351146115c9576040517f08c379a00000000000000000000000000000000000000000000000000000000081526004018080602001828103825260288152602001806149a56028913960400191505060405180910390fd5b600073ffffffffffffffffffffffffffffffffffffffff168473ffffffffffffffffffffffffffffffffffffffff16141561164f576040517f08c379a00000000000000000000000000000000000000000000000000000000081526004018080602001828103825260258152602001806148ac6025913960400191505060405180910390fd5b611657613696565b73ffffffffffffffffffffffffffffffffffffffff168573ffffffffffffffffffffffffffffffffffffffff16148061169d575061169c85611697613696565b61326a565b5b6116f2576040517f08c379a00000000000000000000000000000000000000000000000000000000081526004018080602001828103825260328152602001806148d16032913960400191505060405180910390fd5b60006116fc613696565b905061170c81878787878761369e565b60005b84518110156118dd57600085828151811061172657fe5b60200260200101519050600085838151811061173e57fe5b602002602001015190506117c5816040518060600160405280602a8152602001614903602a913960c9600086815260200190815260200160002060008d73ffffffffffffffffffffffffffffffffffffffff1673ffffffffffffffffffffffffffffffffffffffff168152602001908152602001600020546136a69092919063ffffffff16565b60c9600084815260200190815260200160002060008b73ffffffffffffffffffffffffffffffffffffffff1673ffffffffffffffffffffffffffffffffffffffff1681526020019081526020016000208190555061187c8160c9600085815260200190815260200160002060008b73ffffffffffffffffffffffffffffffffffffffff1673ffffffffffffffffffffffffffffffffffffffff1681526020019081526020016000205461376090919063ffffffff16565b60c9600084815260200190815260200160002060008a73ffffffffffffffffffffffffffffffffffffffff1673ffffffffffffffffffffffffffffffffffffffff16815260200190815260200160002081905550505080600101905061170f565b508473ffffffffffffffffffffffffffffffffffffffff168673ffffffffffffffffffffffffffffffffffffffff168273ffffffffffffffffffffffffffffffffffffffff167f4a39dc06d4c0dbc64b70af90fd698a233a518aa5d07e595d983b8c0526c8f7fb8787604051808060200180602001838103835285818151815260200191508051906020019060200280838360005b8381101561198d578082015181840152602081019050611972565b50505050905001838103825284818151815260200191508051906020019060200280838360005b838110156119cf5780820151818401526020810190506119b4565b5050505090500194505050505060405180910390a46119f28187878787876137e8565b505050505050565b611a216033600084815260200190815260200160002060020154611a1c613696565b61209f565b611a76576040517f08c379a000000000000000000000000000000000000000000000000000000000815260040180806020018281038252602f8152602001806147c6602f913960400191505060405180910390fd5b611a808282613b77565b5050565b6060611a8e614535565b6101666000848152602001908152602001600020604051806080016040529081600082015481526020016001820160009054906101000a900473ffffffffffffffffffffffffffffffffffffffff1673ffffffffffffffffffffffffffffffffffffffff1673ffffffffffffffffffffffffffffffffffffffff168152602001600282018054600181600116156101000203166002900480601f016020809104026020016040519081016040528092919081815260200182805460018160011615610100020316600290048015611ba65780601f10611b7b57610100808354040283529160200191611ba6565b820191906000526020600020905b815481529060010190602001808311611b8957829003601f168201915b50505050508152602001600382018054600181600116156101000203166002900480601f016020809104026020016040519081016040528092919081815260200182805460018160011615610100020316600290048015611c485780601f10611c1d57610100808354040283529160200191611c48565b820191906000526020600020905b815481529060010190602001808311611c2b57829003601f168201915b50505050508152505090508060600151915050919050565b7f58c8e11deab7910e89bf18a1168c6e6ef28748f00fd3094549459f01cec5e0aa81565b611c8c613696565b73ffffffffffffffffffffffffffffffffffffffff168173ffffffffffffffffffffffffffffffffffffffff1614611d0f576040517f08c379a000000000000000000000000000000000000000000000000000000000815260040180806020018281038252602f8152602001806149ee602f913960400191505060405180910390fd5b611d198282613c0b565b5050565b6060611d27614535565b6101666000848152602001908152602001600020604051806080016040529081600082015481526020016001820160009054906101000a900473ffffffffffffffffffffffffffffffffffffffff1673ffffffffffffffffffffffffffffffffffffffff1673ffffffffffffffffffffffffffffffffffffffff168152602001600282018054600181600116156101000203166002900480601f016020809104026020016040519081016040528092919081815260200182805460018160011615610100020316600290048015611e3f5780601f10611e1457610100808354040283529160200191611e3f565b820191906000526020600020905b815481529060010190602001808311611e2257829003601f168201915b50505050508152602001600382018054600181600116156101000203166002900480601f016020809104026020016040519081016040528092919081815260200182805460018160011615610100020316600290048015611ee15780601f10611eb657610100808354040283529160200191611ee1565b820191906000526020600020905b815481529060010190602001808311611ec457829003601f168201915b50505050508152505090508060400151915050919050565b60608151835114611f55576040517f08c379a00000000000000000000000000000000000000000000000000000000081526004018080602001828103825260298152602001806149566029913960400191505060405180910390fd5b6060835167ffffffffffffffff81118015611f6f57600080fd5b50604051908082528060200260200182016040528015611f9e5781602001602082028036833780820191505090505b50905060005b845181101561200057611fdd858281518110611fbc57fe5b6020026020010151858381518110611fd057fe5b6020026020010151611363565b828281518110611fe957fe5b602002602001018181525050806001019050611fa4565b508091505092915050565b6000606560009054906101000a900460ff16905090565b7fa49807205ce4d355092ef5a8a18f56e8913cf4a201fbe287825b095693c2177581565b61015f60009054906101000a900473ffffffffffffffffffffffffffffffffffffffff1681565b60006120978260336000868152602001908152602001600020600001613c9f90919063ffffffff16565b905092915050565b60006120c98260336000868152602001908152602001600020600001613cb990919063ffffffff16565b905092915050565b60006120db614535565b6101666000848152602001908152602001600020604051806080016040529081600082015481526020016001820160009054906101000a900473ffffffffffffffffffffffffffffffffffffffff1673ffffffffffffffffffffffffffffffffffffffff1673ffffffffffffffffffffffffffffffffffffffff168152602001600282018054600181600116156101000203166002900480601f0160208091040260200160405190810160405280929190818152602001828054600181600116156101000203166002900480156121f35780601f106121c8576101008083540402835291602001916121f3565b820191906000526020600020905b8154815290600101906020018083116121d657829003601f168201915b50505050508152602001600382018054600181600116156101000203166002900480601f0160208091040260200160405190810160405280929190818152602001828054600181600116156101000203166002900480156122955780601f1061226a57610100808354040283529160200191612295565b820191906000526020600020905b81548152906001019060200180831161227857829003601f168201915b50505050508152505090508060000151915050919050565b6000801b81565b8173ffffffffffffffffffffffffffffffffffffffff166122d3613696565b73ffffffffffffffffffffffffffffffffffffffff161415612340576040517f08c379a000000000000000000000000000000000000000000000000000000000815260040180806020018281038252602981526020018061492d6029913960400191505060405180910390fd5b8060ca600061234d613696565b73ffffffffffffffffffffffffffffffffffffffff1673ffffffffffffffffffffffffffffffffffffffff16815260200190815260200160002060008473ffffffffffffffffffffffffffffffffffffffff1673ffffffffffffffffffffffffffffffffffffffff16815260200190815260200160002060006101000a81548160ff0219169083151502179055508173ffffffffffffffffffffffffffffffffffffffff166123fa613696565b73ffffffffffffffffffffffffffffffffffffffff167f17307eab39ab6107e8899845ad3d59bd9653f200f220920489ca2b5937696c318360405180821515815260200191505060405180910390a35050565b6101655481565b600063bc197c8160e01b905095945050505050565b6000612473614535565b6101666000848152602001908152602001600020604051806080016040529081600082015481526020016001820160009054906101000a900473ffffffffffffffffffffffffffffffffffffffff1673ffffffffffffffffffffffffffffffffffffffff1673ffffffffffffffffffffffffffffffffffffffff168152602001600282018054600181600116156101000203166002900480601f01602080910402602001604051908101604052809291908181526020018280546001816001161561010002031660029004801561258b5780601f106125605761010080835404028352916020019161258b565b820191906000526020600020905b81548152906001019060200180831161256e57829003601f168201915b50505050508152602001600382018054600181600116156101000203166002900480601f01602080910402602001604051908101604052809291908181526020018280546001816001161561010002031660029004801561262d5780601f106126025761010080835404028352916020019161262d565b820191906000526020600020905b81548152906001019060200180831161261057829003601f168201915b50505050508152505090508060200151915050919050565b600061266560336000848152602001908152602001600020600001613ce9565b9050919050565b612693603360008481526020019081526020016000206002015461268e613696565b61209f565b6126e8576040517f08c379a000000000000000000000000000000000000000000000000000000000815260040180806020018281038252603081526020018061487c6030913960400191505060405180910390fd5b6126f28282613c0b565b5050565b61016160009054906101000a900473ffffffffffffffffffffffffffffffffffffffff1681565b61272561200b565b15612798576040517f08c379a00000000000000000000000000000000000000000000000000000000081526004018080602001828103825260108152602001807f5061757361626c653a207061757365640000000000000000000000000000000081525060200191505060405180910390fd5b82610165541015612811576040517f08c379a00000000000000000000000000000000000000000000000000000000081526004018080602001828103825260178152602001807f546f6b656e20494420646f65736e27742065786973742e00000000000000000081525060200191505060405180910390fd5b8161283f61016160009054906101000a900473ffffffffffffffffffffffffffffffffffffffff1685611363565b1015612896576040517f08c379a00000000000000000000000000000000000000000000000000000000081526004018080602001828103825260338152602001806148496033913960400191505060405180910390fd5b61289e614535565b6101666000858152602001908152602001600020604051806080016040529081600082015481526020016001820160009054906101000a900473ffffffffffffffffffffffffffffffffffffffff1673ffffffffffffffffffffffffffffffffffffffff1673ffffffffffffffffffffffffffffffffffffffff168152602001600282018054600181600116156101000203166002900480601f0160208091040260200160405190810160405280929190818152602001828054600181600116156101000203166002900480156129b65780601f1061298b576101008083540402835291602001916129b6565b820191906000526020600020905b81548152906001019060200180831161299957829003601f168201915b50505050508152602001600382018054600181600116156101000203166002900480601f016020809104026020016040519081016040528092919081815260200182805460018160011615610100020316600290048015612a585780601f10612a2d57610100808354040283529160200191612a58565b820191906000526020600020905b815481529060010190602001808311612a3b57829003601f168201915b505050505081525050905060003390506000826020015190508361016060009054906101000a900473ffffffffffffffffffffffffffffffffffffffff1673ffffffffffffffffffffffffffffffffffffffff166370a08231846040518263ffffffff1660e01b8152600401808273ffffffffffffffffffffffffffffffffffffffff16815260200191505060206040518083038186803b158015612afc57600080fd5b505afa158015612b10573d6000803e3d6000fd5b505050506040513d6020811015612b2657600080fd5b81019080805190602001909291905050501015612b8e576040517f08c379a000000000000000000000000000000000000000000000000000000000815260040180806020018281038252602f815260200180614797602f913960400191505060405180910390fd5b8073ffffffffffffffffffffffffffffffffffffffff168273ffffffffffffffffffffffffffffffffffffffff16877fbeb6f1d3f6763543ec116c367e1a2e8d3d01a2bcc2e3c66f44b8f4fec52c4d5142898960405180848152602001838152602001828152602001935050505060405180910390a461016060009054906101000a900473ffffffffffffffffffffffffffffffffffffffff1673ffffffffffffffffffffffffffffffffffffffff166347ab2eb88383876040518463ffffffff1660e01b8152600401808473ffffffffffffffffffffffffffffffffffffffff1681526020018373ffffffffffffffffffffffffffffffffffffffff1681526020018281526020019350505050600060405180830381600087803b158015612cb657600080fd5b505af1158015612cca573d6000803e3d6000fd5b5050505061016260009054906101000a900473ffffffffffffffffffffffffffffffffffffffff1673ffffffffffffffffffffffffffffffffffffffff1663a22cb4658360016040518363ffffffff1660e01b8152600401808373ffffffffffffffffffffffffffffffffffffffff168152602001821515815260200192505050600060405180830381600087803b158015612d6557600080fd5b505af1158015612d79573d6000803e3d6000fd5b50505050612dbc61016160009054906101000a900473ffffffffffffffffffffffffffffffffffffffff1683888860405180602001604052806000815250613313565b61016260009054906101000a900473ffffffffffffffffffffffffffffffffffffffff1673ffffffffffffffffffffffffffffffffffffffff1663a22cb4658360006040518363ffffffff1660e01b8152600401808373ffffffffffffffffffffffffffffffffffffffff168152602001821515815260200192505050600060405180830381600087803b158015612e5357600080fd5b505af1158015612e67573d6000803e3d6000fd5b50505050505050505050565b612e9d7fa49807205ce4d355092ef5a8a18f56e8913cf4a201fbe287825b095693c217753361209f565b612ef2576040517f08c379a000000000000000000000000000000000000000000000000000000000815260040180806020018281038252602681526020018061497f6026913960400191505060405180910390fd5b612efa61200b565b15612f6d576040517f08c379a00000000000000000000000000000000000000000000000000000000081526004018080602001828103825260108152602001807f5061757361626c653a207061757365640000000000000000000000000000000081525060200191505060405180910390fd5b6000610163826040518082805190602001908083835b60208310612fa65780518252602082019150602081019050602083039250612f83565b6001836020036101000a03801982511681845116808217855250505050505090500191505090815260200160405180910390205414613030576040517f08c379a00000000000000000000000000000000000000000000000000000000081526004018080602001828103825260268152602001806147496026913960400191505060405180910390fd5b613038613cfe565b6000610165549050600084860390508673ffffffffffffffffffffffffffffffffffffffff1686837faeee3bcad317d189c3a5fdbb0251902831536f3752d0bf9d6d13c0e8a6b77c6f428888604051808481526020018060200180602001838103835285818151815260200191508051906020019080838360005b838110156130ce5780820151818401526020810190506130b3565b50505050905090810190601f1680156130fb5780820380516001836020036101000a031916815260200191505b50838103825284818151815260200191508051906020019080838360005b83811015613134578082015181840152602081019050613119565b50505050905090810190601f1680156131615780820380516001836020036101000a031916815260200191505b509550505050505060405180910390a4600061016660008481526020019081526020016000209050868160000181905550878160010160006101000a81548173ffffffffffffffffffffffffffffffffffffffff021916908373ffffffffffffffffffffffffffffffffffffffff160217905550848160020190805190602001906131ed929190614573565b5083816003019080519060200190613206929190614573565b5061324561016160009054906101000a900473ffffffffffffffffffffffffffffffffffffffff16848460405180602001604052806000815250613d1d565b61326088848860405180602001604052806000815250613d1d565b5050505050505050565b600060ca60008473ffffffffffffffffffffffffffffffffffffffff1673ffffffffffffffffffffffffffffffffffffffff16815260200190815260200160002060008373ffffffffffffffffffffffffffffffffffffffff1673ffffffffffffffffffffffffffffffffffffffff16815260200190815260200160002060009054906101000a900460ff16905092915050565b600063f23a6e6160e01b905095945050505050565b600073ffffffffffffffffffffffffffffffffffffffff168473ffffffffffffffffffffffffffffffffffffffff161415613399576040517f08c379a00000000000000000000000000000000000000000000000000000000081526004018080602001828103825260258152602001806148ac6025913960400191505060405180910390fd5b6133a1613696565b73ffffffffffffffffffffffffffffffffffffffff168573ffffffffffffffffffffffffffffffffffffffff1614806133e757506133e6856133e1613696565b61326a565b5b61343c576040517f08c379a00000000000000000000000000000000000000000000000000000000081526004018080602001828103825260298152602001806148206029913960400191505060405180910390fd5b6000613446613696565b905061346681878761345788613f20565b61346088613f20565b8761369e565b6134e3836040518060600160405280602a8152602001614903602a913960c9600088815260200190815260200160002060008a73ffffffffffffffffffffffffffffffffffffffff1673ffffffffffffffffffffffffffffffffffffffff168152602001908152602001600020546136a69092919063ffffffff16565b60c9600086815260200190815260200160002060008873ffffffffffffffffffffffffffffffffffffffff1673ffffffffffffffffffffffffffffffffffffffff1681526020019081526020016000208190555061359a8360c9600087815260200190815260200160002060008873ffffffffffffffffffffffffffffffffffffffff1673ffffffffffffffffffffffffffffffffffffffff1681526020019081526020016000205461376090919063ffffffff16565b60c9600086815260200190815260200160002060008773ffffffffffffffffffffffffffffffffffffffff1673ffffffffffffffffffffffffffffffffffffffff168152602001908152602001600020819055508473ffffffffffffffffffffffffffffffffffffffff168673ffffffffffffffffffffffffffffffffffffffff168273ffffffffffffffffffffffffffffffffffffffff167fc3d58168c5ae7397731d063d5bbf3d657854427343f4c083240f7aacaa2d0f628787604051808381526020018281526020019250505060405180910390a4613680818787878787613f90565b505050505050565b600081600001549050919050565b600033905090565b505050505050565b6000838311158290613753576040517f08c379a00000000000000000000000000000000000000000000000000000000081526004018080602001828103825283818151815260200191508051906020019080838360005b838110156137185780820151818401526020810190506136fd565b50505050905090810190601f1680156137455780820380516001836020036101000a031916815260200191505b509250505060405180910390fd5b5082840390509392505050565b6000808284019050838110156137de576040517f08c379a000000000000000000000000000000000000000000000000000000000815260040180806020018281038252601b8152602001807f536166654d6174683a206164646974696f6e206f766572666c6f77000000000081525060200191505060405180910390fd5b8091505092915050565b6138078473ffffffffffffffffffffffffffffffffffffffff1661429d565b15613b6f578373ffffffffffffffffffffffffffffffffffffffff1663bc197c8187878686866040518663ffffffff1660e01b8152600401808673ffffffffffffffffffffffffffffffffffffffff1681526020018573ffffffffffffffffffffffffffffffffffffffff168152602001806020018060200180602001848103845287818151815260200191508051906020019060200280838360005b838110156138bf5780820151818401526020810190506138a4565b50505050905001848103835286818151815260200191508051906020019060200280838360005b838110156139015780820151818401526020810190506138e6565b50505050905001848103825285818151815260200191508051906020019080838360005b83811015613940578082015181840152602081019050613925565b50505050905090810190601f16801561396d5780820380516001836020036101000a031916815260200191505b5098505050505050505050602060405180830381600087803b15801561399257600080fd5b505af19250505080156139c657506040513d60208110156139b257600080fd5b810190808051906020019092919050505060015b613ad0576139d261463c565b806139dd5750613a7f565b806040517f08c379a00000000000000000000000000000000000000000000000000000000081526004018080602001828103825283818151815260200191508051906020019080838360005b83811015613a44578082015181840152602081019050613a29565b50505050905090810190601f168015613a715780820380516001836020036101000a031916815260200191505b509250505060405180910390fd5b6040517f08c379a00000000000000000000000000000000000000000000000000000000081526004018080602001828103825260348152602001806146f36034913960400191505060405180910390fd5b63bc197c8160e01b7bffffffffffffffffffffffffffffffffffffffffffffffffffffffff1916817bffffffffffffffffffffffffffffffffffffffffffffffffffffffff191614613b6d576040517f08c379a000000000000000000000000000000000000000000000000000000000815260040180806020018281038252602881526020018061476f6028913960400191505060405180910390fd5b505b505050505050565b613b9f81603360008581526020019081526020016000206000016142b090919063ffffffff16565b15613c0757613bac613696565b73ffffffffffffffffffffffffffffffffffffffff168173ffffffffffffffffffffffffffffffffffffffff16837f2f8788117e7eff1d82e926ec794901d17c78024a50270940304540a733656f0d60405160405180910390a45b5050565b613c3381603360008581526020019081526020016000206000016142e090919063ffffffff16565b15613c9b57613c40613696565b73ffffffffffffffffffffffffffffffffffffffff168173ffffffffffffffffffffffffffffffffffffffff16837ff6391f5c32d9c69d2a47ea670b442974b53935d1edc7fd64eb21e047a839171b60405160405180910390a45b5050565b6000613cae8360000183614310565b60001c905092915050565b6000613ce1836000018373ffffffffffffffffffffffffffffffffffffffff1660001b614393565b905092915050565b6000613cf7826000016143b6565b9050919050565b613d096101646143c7565b613d14610164613688565b61016581905550565b600073ffffffffffffffffffffffffffffffffffffffff168473ffffffffffffffffffffffffffffffffffffffff161415613da3576040517f08c379a00000000000000000000000000000000000000000000000000000000081526004018080602001828103825260218152602001806149cd6021913960400191505060405180910390fd5b6000613dad613696565b9050613dce81600087613dbf88613f20565b613dc888613f20565b8761369e565b613e318360c9600087815260200190815260200160002060008873ffffffffffffffffffffffffffffffffffffffff1673ffffffffffffffffffffffffffffffffffffffff1681526020019081526020016000205461376090919063ffffffff16565b60c9600086815260200190815260200160002060008773ffffffffffffffffffffffffffffffffffffffff1673ffffffffffffffffffffffffffffffffffffffff168152602001908152602001600020819055508473ffffffffffffffffffffffffffffffffffffffff16600073ffffffffffffffffffffffffffffffffffffffff168273ffffffffffffffffffffffffffffffffffffffff167fc3d58168c5ae7397731d063d5bbf3d657854427343f4c083240f7aacaa2d0f628787604051808381526020018281526020019250505060405180910390a4613f1981600087878787613f90565b5050505050565b606080600167ffffffffffffffff81118015613f3b57600080fd5b50604051908082528060200260200182016040528015613f6a5781602001602082028036833780820191505090505b5090508281600081518110613f7b57fe5b60200260200101818152505080915050919050565b613faf8473ffffffffffffffffffffffffffffffffffffffff1661429d565b15614295578373ffffffffffffffffffffffffffffffffffffffff1663f23a6e6187878686866040518663ffffffff1660e01b8152600401808673ffffffffffffffffffffffffffffffffffffffff1681526020018573ffffffffffffffffffffffffffffffffffffffff16815260200184815260200183815260200180602001828103825283818151815260200191508051906020019080838360005b8381101561406857808201518184015260208101905061404d565b50505050905090810190601f1680156140955780820380516001836020036101000a031916815260200191505b509650505050505050602060405180830381600087803b1580156140b857600080fd5b505af19250505080156140ec57506040513d60208110156140d857600080fd5b810190808051906020019092919050505060015b6141f6576140f861463c565b8061410357506141a5565b806040517f08c379a00000000000000000000000000000000000000000000000000000000081526004018080602001828103825283818151815260200191508051906020019080838360005b8381101561416a57808201518184015260208101905061414f565b50505050905090810190601f1680156141975780820380516001836020036101000a031916815260200191505b509250505060405180910390fd5b6040517f08c379a00000000000000000000000000000000000000000000000000000000081526004018080602001828103825260348152602001806146f36034913960400191505060405180910390fd5b63f23a6e6160e01b7bffffffffffffffffffffffffffffffffffffffffffffffffffffffff1916817bffffffffffffffffffffffffffffffffffffffffffffffffffffffff191614614293576040517f08c379a000000000000000000000000000000000000000000000000000000000815260040180806020018281038252602881526020018061476f6028913960400191505060405180910390fd5b505b505050505050565b600080823b905060008111915050919050565b60006142d8836000018373ffffffffffffffffffffffffffffffffffffffff1660001b6143dd565b905092915050565b6000614308836000018373ffffffffffffffffffffffffffffffffffffffff1660001b61444d565b905092915050565b600081836000018054905011614371576040517f08c379a00000000000000000000000000000000000000000000000000000000081526004018080602001828103825260228152602001806147276022913960400191505060405180910390fd5b82600001828154811061438057fe5b9060005260206000200154905092915050565b600080836001016000848152602001908152602001600020541415905092915050565b600081600001805490509050919050565b6001816000016000828254019250508190555050565b60006143e98383614393565b614442578260000182908060018154018082558091505060019003906000526020600020016000909190919091505582600001805490508360010160008481526020019081526020016000208190555060019050614447565b600090505b92915050565b60008083600101600084815260200190815260200160002054905060008114614529576000600182039050600060018660000180549050039050600086600001828154811061449857fe5b90600052602060002001549050808760000184815481106144b557fe5b90600052602060002001819055506001830187600101600083815260200190815260200160002081905550866000018054806144ed57fe5b6001900381819060005260206000200160009055905586600101600087815260200190815260200160002060009055600194505050505061452f565b60009150505b92915050565b604051806080016040528060008152602001600073ffffffffffffffffffffffffffffffffffffffff16815260200160608152602001606081525090565b828054600181600116156101000203166002900490600052602060002090601f0160209004810192826145a957600085556145f0565b82601f106145c257805160ff19168380011785556145f0565b828001600101855582156145f0579182015b828111156145ef5782518255916020019190600101906145d4565b5b5090506145fd9190614601565b5090565b5b8082111561461a576000816000905550600101614602565b5090565b6000601f19601f8301169050919050565b60008160e01c9050919050565b600060443d101561464c576146ef565b60046000803e61465d60005161462f565b6308c379a0811461466e57506146ef565b60405160043d036004823e80513d602482011167ffffffffffffffff8211171561469a575050506146ef565b808201805167ffffffffffffffff8111156146b95750505050506146ef565b8060208301013d85018111156146d4575050505050506146ef565b6146dd8261461e565b60208401016040528296505050505050505b9056fe455243313135353a207472616e7366657220746f206e6f6e2045524331313535526563656976657220696d706c656d656e746572456e756d657261626c655365743a20696e646578206f7574206f6620626f756e6473546869732061737365742068617320616c7265616479206265656e20746f6b656e697a65642e455243313135353a204552433131353552656365697665722072656a656374656420746f6b656e73596f75206861766520696e73756666696369656e742066756e647320746f20707572636861736520746f6b656e732e416363657373436f6e74726f6c3a2073656e646572206d75737420626520616e2061646d696e20746f206772616e74455243313135353a2062616c616e636520717565727920666f7220746865207a65726f2061646472657373455243313135353a2063616c6c6572206973206e6f74206f776e6572206e6f7220617070726f7665644e756d626572206f6620746f6b656e73207075726368617365642065786365656420746f6b656e7320617661696c61626c652e416363657373436f6e74726f6c3a2073656e646572206d75737420626520616e2061646d696e20746f207265766f6b65455243313135353a207472616e7366657220746f20746865207a65726f2061646472657373455243313135353a207472616e736665722063616c6c6572206973206e6f74206f776e6572206e6f7220617070726f766564455243313135353a20696e73756666696369656e742062616c616e636520666f72207472616e73666572455243313135353a2073657474696e6720617070726f76616c2073746174757320666f722073656c66455243313135353a206163636f756e747320616e6420696473206c656e677468206d69736d617463684163636573732044656e6965643a2043616c6c6572206973206e6f74207468652041646d696e455243313135353a2069647320616e6420616d6f756e7473206c656e677468206d69736d61746368455243313135353a206d696e7420746f20746865207a65726f2061646472657373416363657373436f6e74726f6c3a2063616e206f6e6c792072656e6f756e636520726f6c657320666f722073656c66a2646970667358221220f67c3e801b6329aa2560328b313af09d9a9535955644105b5ee95d13c750102164736f6c63430007040033",
  "immutableReferences": {},
  "source": "// SPDX-License-Identifier: MIT\n\npragma solidity ^0.7.4;\n\nimport \"./libraries/AccessControlUpgradeable.sol\";\nimport \"./libraries/PausableUpgradeable.sol\";\nimport './RETokenStorageOne.sol';\n\n/**\n * @title RETokenBusinessLogic\n * @dev This contract provides the business logic for RETokenProxy with an authorization\n * mechanism for admin tasks.\n * \n * VERSION: 2 (Ver.2)\n * 1. Add buyToken() function for Investor to purchase tokens from Owner.\n */ \n\ncontract LogicTwo is AccessControlUpgradeable, PausableUpgradeable, RETokenStorageOne {\n\n    /**\n     * @dev Ver.1 Throws if called by any account without ADMIN_ROLE access.\n     */\n    modifier onlyAdmin() {\n        require(hasRole(ADMIN_ROLE, msg.sender), \"Access Denied: Caller is not the Admin\");\n        _;\n    }\n\n    /**\n     * @dev Series of functions to retrieve token details from `REToken` struct, including\n     * Total Supply, Owner, Valuation Report and Legal Contract.\n     *\n     * @param tokenId - Unique token id of token\n     */\n    function getTotalSupply(uint256 tokenId) external view returns (uint256) {\n        REToken memory token = reToken[tokenId];\n        return token.totalSupply;\n    }\n\n    function getOwner(uint256 tokenId) external view returns (address) {\n        REToken memory token = reToken[tokenId];\n        return token.owner;\n    }\n\n    function getValuationRpt(uint256 tokenId) external view returns (string memory) {\n        REToken memory token = reToken[tokenId];\n        return token.valuationReport;\n    }\n\n    function getLegalContr(uint256 tokenId) external view returns (string memory) {\n        REToken memory token = reToken[tokenId];\n        return token.legalContract;\n    }\n\n    /**\n     * @dev Creates `totalAmt` tokens of token type `newTokenId`, and assigns `adminAmt` to\n     * `proxy_contract` and `ownerAmt` `assetOwner` by calling ERC1155 _mint function.\n     *\n     * Can only be called by the current admin.\n     * \n     * Emits a {RETokenID} event.\n     * Emits two {TransferSingle} events via ERC1155 library.\n     *\n     * Requirements:\n     * - `legalContr` must not have been used for another token ID.\n     *\n     * @param assetOwner - Asset Owner wallet address\n     * @param totalAmt - Total number of tokens for unique token ID\n     * @param ownerAmt - Total number of tokens for Asset Owner\n     * @param valueRpt - File Hash of Valuation Report\n     * @param legalContr - File Hash of Legal Contract\n     */\n    function mintToken(address assetOwner, uint256 totalAmt, uint256 ownerAmt, string memory valueRpt, string memory legalContr) external onlyAdmin whenNotPaused {\n        require(_legalContracts[legalContr] == 0, \"This asset has already been tokenized.\");\n\n        RETokenStorageOne.incrementTokenId();\n        \n        uint256 newTokenId = _tokenID;\n        uint256 adminAmt = totalAmt - ownerAmt;\n\n        emit RETokenID(block.timestamp, newTokenId, totalAmt, assetOwner, valueRpt, legalContr);\n\n        // Creates and updates REToken Struct of unique token ID with token details\n        REToken storage token = reToken[newTokenId];\n        token.totalSupply = totalAmt;\n        token.owner = assetOwner;\n        token.valuationReport = valueRpt;\n        token.legalContract = legalContr;\n\n        _mint(proxy_contract, newTokenId, adminAmt, \"\");\n        _mint(assetOwner, newTokenId, ownerAmt, \"\");\n    }\n\n    /**\n     * @dev Ver.2 Transfers `tokenAmt` tokens of token type `id` from `proxy-contract` to `investor`\n     * by calling ERC1155 safeTransferFrom function.\n     * Approves `investor` to transfer tokens of `proxy-contract` and removes the approval\n     * after transferring by calling ERC1155 setApprovalForAll function.\n     * Requires usage of external call `proxyContract` to ensure msg.sender is Proxy Contract address.\n     * \n     * Emits a {RETokenUSDT} event.\n     * Emits a {TransferSingle} event and two {ApprovalForAll} events via ERC1155 library.\n     * \n     * Requirements:\n     * - `id` must be equal or less than current Token ID.\n     * - `tokenAmt` must be equal or less than balance of Proxy Contract\n     *\n     * Transfers `usdtAmt` tokens from `investor` to `owner` via USDT Contract transferUSDT function by\n     * calling ERC20 _transfer function.\n     * Requires usage of external call `usdtContract` to communicate with USDT Contract.\n     * \n     * Emits a {Transfer} event in USDT Contract via ERC20 library.\n     *\n     * Requirements:\n     * - `usdtAmt` must be equal or more than balance of investor.\n     *\n     * @param id - Token ID\n     * @param tokenAmt - Number of tokens purchased\n     * @param usdtAmt - Price of tokens purchased in USDT\n     */\n    function buyToken(uint256 id, uint256 tokenAmt, uint256 usdtAmt) external whenNotPaused {\n        require(_tokenID >= id, \"Token ID doesn't exist.\");\n        require(balanceOf(proxy_contract, id) >= tokenAmt, \"Number of tokens purchased exceed tokens available.\");\n\n        REToken memory token = reToken[id];\n        \n        address investor = msg.sender;\n        address owner = token.owner;\n        \n        require(usdtContract.balanceOf(investor) >= usdtAmt, \"You have insufficient funds to purchase tokens.\");\n\n        emit RETokenUSDT(block.timestamp, id, tokenAmt, investor, owner, usdtAmt);\n\n        usdtContract.transferUSDT(investor, owner, usdtAmt);\n\n        proxyContract.setApprovalForAll(investor, true);\n        safeTransferFrom(proxy_contract, investor, id, tokenAmt, \"\");\n        proxyContract.setApprovalForAll(investor, false);\n    }\n    \n}",
  "sourcePath": "C:/Users/seexy/Downloads/Project/solidity/v4/contracts/LogicTwo.sol",
  "compiler": {
    "name": "solc",
    "version": "0.7.4+commit.3f05b770.Emscripten.clang"
  },
  "schemaVersion": "3.3.4",
  "updatedAt": "2021-03-22T06:03:51.099Z",
  "networkType": "ethereum",
  "devdoc": {
    "details": "This contract provides the business logic for RETokenProxy with an authorization mechanism for admin tasks.  VERSION: 2 (Ver.2) 1. Add buyToken() function for Investor to purchase tokens from Owner.",
    "kind": "dev",
    "methods": {
      "balanceOf(address,uint256)": {
        "details": "See {IERC1155-balanceOf}. Requirements: - `account` cannot be the zero address."
      },
      "balanceOfBatch(address[],uint256[])": {
        "details": "See {IERC1155-balanceOfBatch}. Requirements: - `accounts` and `ids` must have the same length."
      },
      "buyToken(uint256,uint256,uint256)": {
        "details": "Ver.2 Transfers `tokenAmt` tokens of token type `id` from `proxy-contract` to `investor` by calling ERC1155 safeTransferFrom function. Approves `investor` to transfer tokens of `proxy-contract` and removes the approval after transferring by calling ERC1155 setApprovalForAll function. Requires usage of external call `proxyContract` to ensure msg.sender is Proxy Contract address.  Emits a {RETokenUSDT} event. Emits a {TransferSingle} event and two {ApprovalForAll} events via ERC1155 library.  Requirements: - `id` must be equal or less than current Token ID. - `tokenAmt` must be equal or less than balance of Proxy Contract Transfers `usdtAmt` tokens from `investor` to `owner` via USDT Contract transferUSDT function by calling ERC20 _transfer function. Requires usage of external call `usdtContract` to communicate with USDT Contract.  Emits a {Transfer} event in USDT Contract via ERC20 library. Requirements: - `usdtAmt` must be equal or more than balance of investor.",
        "params": {
          "id": "- Token ID",
          "tokenAmt": "- Number of tokens purchased",
          "usdtAmt": "- Price of tokens purchased in USDT"
        }
      },
      "getRoleAdmin(bytes32)": {
        "details": "Returns the admin role that controls `role`. See {grantRole} and {revokeRole}. To change a role's admin, use {_setRoleAdmin}."
      },
      "getRoleMember(bytes32,uint256)": {
        "details": "Returns one of the accounts that have `role`. `index` must be a value between 0 and {getRoleMemberCount}, non-inclusive. Role bearers are not sorted in any particular way, and their ordering may change at any point. WARNING: When using {getRoleMember} and {getRoleMemberCount}, make sure you perform all queries on the same block. See the following https://forum.openzeppelin.com/t/iterating-over-elements-on-enumerableset-in-openzeppelin-contracts/2296[forum post] for more information."
      },
      "getRoleMemberCount(bytes32)": {
        "details": "Returns the number of accounts that have `role`. Can be used together with {getRoleMember} to enumerate all bearers of a role."
      },
      "getTotalSupply(uint256)": {
        "details": "Series of functions to retrieve token details from `REToken` struct, including Total Supply, Owner, Valuation Report and Legal Contract.",
        "params": {
          "tokenId": "- Unique token id of token"
        }
      },
      "grantRole(bytes32,address)": {
        "details": "Grants `role` to `account`. If `account` had not been already granted `role`, emits a {RoleGranted} event. Requirements: - the caller must have ``role``'s admin role."
      },
      "hasRole(bytes32,address)": {
        "details": "Returns `true` if `account` has been granted `role`."
      },
      "isApprovedForAll(address,address)": {
        "details": "See {IERC1155-isApprovedForAll}."
      },
      "mintToken(address,uint256,uint256,string,string)": {
        "details": "Creates `totalAmt` tokens of token type `newTokenId`, and assigns `adminAmt` to `proxy_contract` and `ownerAmt` `assetOwner` by calling ERC1155 _mint function. Can only be called by the current admin.  Emits a {RETokenID} event. Emits two {TransferSingle} events via ERC1155 library. Requirements: - `legalContr` must not have been used for another token ID.",
        "params": {
          "assetOwner": "- Asset Owner wallet address",
          "legalContr": "- File Hash of Legal Contract",
          "ownerAmt": "- Total number of tokens for Asset Owner",
          "totalAmt": "- Total number of tokens for unique token ID",
          "valueRpt": "- File Hash of Valuation Report"
        }
      },
      "paused()": {
        "details": "Returns true if the contract is paused, and false otherwise."
      },
      "renounceRole(bytes32,address)": {
        "details": "Revokes `role` from the calling account. Roles are often managed via {grantRole} and {revokeRole}: this function's purpose is to provide a mechanism for accounts to lose their privileges if they are compromised (such as when a trusted device is misplaced). If the calling account had been granted `role`, emits a {RoleRevoked} event. Requirements: - the caller must be `account`."
      },
      "revokeRole(bytes32,address)": {
        "details": "Revokes `role` from `account`. If `account` had been granted `role`, emits a {RoleRevoked} event. Requirements: - the caller must have ``role``'s admin role."
      },
      "safeBatchTransferFrom(address,address,uint256[],uint256[],bytes)": {
        "details": "See {IERC1155-safeBatchTransferFrom}."
      },
      "safeTransferFrom(address,address,uint256,uint256,bytes)": {
        "details": "See {IERC1155-safeTransferFrom}."
      },
      "setApprovalForAll(address,bool)": {
        "details": "See {IERC1155-setApprovalForAll}."
      },
      "supportsInterface(bytes4)": {
        "details": "See {IERC165-supportsInterface}. Time complexity O(1), guaranteed to always use less than 30 000 gas."
      },
      "uri(uint256)": {
        "details": "See {IERC1155MetadataURI-uri}. This implementation returns the same URI for *all* token types. It relies on the token type ID substitution mechanism https://eips.ethereum.org/EIPS/eip-1155#metadata[defined in the EIP]. Clients calling this function must replace the `\\{id\\}` substring with the actual token type ID."
      }
    },
    "title": "RETokenBusinessLogic",
    "version": 1
  },
  "userdoc": {
    "kind": "user",
    "methods": {},
    "version": 1
  }
}