{
  "contractName": "LogicOne",
  "abi": [
    {
      "anonymous": false,
      "inputs": [
        {
          "indexed": true,
          "internalType": "address",
          "name": "account",
          "type": "address"
        },
        {
          "indexed": true,
          "internalType": "address",
          "name": "operator",
          "type": "address"
        },
        {
          "indexed": false,
          "internalType": "bool",
          "name": "approved",
          "type": "bool"
        }
      ],
      "name": "ApprovalForAll",
      "type": "event"
    },
    {
      "anonymous": false,
      "inputs": [
        {
          "indexed": false,
          "internalType": "address",
          "name": "account",
          "type": "address"
        }
      ],
      "name": "Paused",
      "type": "event"
    },
    {
      "anonymous": false,
      "inputs": [
        {
          "indexed": false,
          "internalType": "uint256",
          "name": "timestamp",
          "type": "uint256"
        },
        {
          "indexed": true,
          "internalType": "uint256",
          "name": "id",
          "type": "uint256"
        },
        {
          "indexed": true,
          "internalType": "uint256",
          "name": "totalSupply",
          "type": "uint256"
        },
        {
          "indexed": true,
          "internalType": "address",
          "name": "owner",
          "type": "address"
        },
        {
          "indexed": false,
          "internalType": "string",
          "name": "valuationReport",
          "type": "string"
        },
        {
          "indexed": false,
          "internalType": "string",
          "name": "legalContract",
          "type": "string"
        }
      ],
      "name": "RETokenID",
      "type": "event"
    },
    {
      "anonymous": false,
      "inputs": [
        {
          "indexed": false,
          "internalType": "uint256",
          "name": "timestamp",
          "type": "uint256"
        },
        {
          "indexed": true,
          "internalType": "uint256",
          "name": "id",
          "type": "uint256"
        },
        {
          "indexed": false,
          "internalType": "uint256",
          "name": "tokenAmt",
          "type": "uint256"
        },
        {
          "indexed": true,
          "internalType": "address",
          "name": "buyer",
          "type": "address"
        },
        {
          "indexed": true,
          "internalType": "address",
          "name": "seller",
          "type": "address"
        },
        {
          "indexed": false,
          "internalType": "uint256",
          "name": "USDT",
          "type": "uint256"
        }
      ],
      "name": "RETokenUSDT",
      "type": "event"
    },
    {
      "anonymous": false,
      "inputs": [
        {
          "indexed": true,
          "internalType": "bytes32",
          "name": "role",
          "type": "bytes32"
        },
        {
          "indexed": true,
          "internalType": "bytes32",
          "name": "previousAdminRole",
          "type": "bytes32"
        },
        {
          "indexed": true,
          "internalType": "bytes32",
          "name": "newAdminRole",
          "type": "bytes32"
        }
      ],
      "name": "RoleAdminChanged",
      "type": "event"
    },
    {
      "anonymous": false,
      "inputs": [
        {
          "indexed": true,
          "internalType": "bytes32",
          "name": "role",
          "type": "bytes32"
        },
        {
          "indexed": true,
          "internalType": "address",
          "name": "account",
          "type": "address"
        },
        {
          "indexed": true,
          "internalType": "address",
          "name": "sender",
          "type": "address"
        }
      ],
      "name": "RoleGranted",
      "type": "event"
    },
    {
      "anonymous": false,
      "inputs": [
        {
          "indexed": true,
          "internalType": "bytes32",
          "name": "role",
          "type": "bytes32"
        },
        {
          "indexed": true,
          "internalType": "address",
          "name": "account",
          "type": "address"
        },
        {
          "indexed": true,
          "internalType": "address",
          "name": "sender",
          "type": "address"
        }
      ],
      "name": "RoleRevoked",
      "type": "event"
    },
    {
      "anonymous": false,
      "inputs": [
        {
          "indexed": true,
          "internalType": "address",
          "name": "operator",
          "type": "address"
        },
        {
          "indexed": true,
          "internalType": "address",
          "name": "from",
          "type": "address"
        },
        {
          "indexed": true,
          "internalType": "address",
          "name": "to",
          "type": "address"
        },
        {
          "indexed": false,
          "internalType": "uint256[]",
          "name": "ids",
          "type": "uint256[]"
        },
        {
          "indexed": false,
          "internalType": "uint256[]",
          "name": "values",
          "type": "uint256[]"
        }
      ],
      "name": "TransferBatch",
      "type": "event"
    },
    {
      "anonymous": false,
      "inputs": [
        {
          "indexed": true,
          "internalType": "address",
          "name": "operator",
          "type": "address"
        },
        {
          "indexed": true,
          "internalType": "address",
          "name": "from",
          "type": "address"
        },
        {
          "indexed": true,
          "internalType": "address",
          "name": "to",
          "type": "address"
        },
        {
          "indexed": false,
          "internalType": "uint256",
          "name": "id",
          "type": "uint256"
        },
        {
          "indexed": false,
          "internalType": "uint256",
          "name": "value",
          "type": "uint256"
        }
      ],
      "name": "TransferSingle",
      "type": "event"
    },
    {
      "anonymous": false,
      "inputs": [
        {
          "indexed": false,
          "internalType": "string",
          "name": "value",
          "type": "string"
        },
        {
          "indexed": true,
          "internalType": "uint256",
          "name": "id",
          "type": "uint256"
        }
      ],
      "name": "URI",
      "type": "event"
    },
    {
      "anonymous": false,
      "inputs": [
        {
          "indexed": false,
          "internalType": "uint256",
          "name": "timestamp",
          "type": "uint256"
        },
        {
          "indexed": false,
          "internalType": "address",
          "name": "initiator",
          "type": "address"
        },
        {
          "indexed": false,
          "internalType": "address",
          "name": "recipient",
          "type": "address"
        },
        {
          "indexed": false,
          "internalType": "uint256",
          "name": "USDT",
          "type": "uint256"
        }
      ],
      "name": "USDTWithdrawn",
      "type": "event"
    },
    {
      "anonymous": false,
      "inputs": [
        {
          "indexed": false,
          "internalType": "address",
          "name": "account",
          "type": "address"
        }
      ],
      "name": "Unpaused",
      "type": "event"
    },
    {
      "inputs": [],
      "name": "ADMIN_ROLE",
      "outputs": [
        {
          "internalType": "bytes32",
          "name": "",
          "type": "bytes32"
        }
      ],
      "stateMutability": "view",
      "type": "function",
      "constant": true
    },
    {
      "inputs": [],
      "name": "DEFAULT_ADMIN_ROLE",
      "outputs": [
        {
          "internalType": "bytes32",
          "name": "",
          "type": "bytes32"
        }
      ],
      "stateMutability": "view",
      "type": "function",
      "constant": true
    },
    {
      "inputs": [],
      "name": "MODERATOR",
      "outputs": [
        {
          "internalType": "bytes32",
          "name": "",
          "type": "bytes32"
        }
      ],
      "stateMutability": "view",
      "type": "function",
      "constant": true
    },
    {
      "inputs": [],
      "name": "_tokenID",
      "outputs": [
        {
          "internalType": "uint256",
          "name": "",
          "type": "uint256"
        }
      ],
      "stateMutability": "view",
      "type": "function",
      "constant": true
    },
    {
      "inputs": [
        {
          "internalType": "address",
          "name": "account",
          "type": "address"
        },
        {
          "internalType": "uint256",
          "name": "id",
          "type": "uint256"
        }
      ],
      "name": "balanceOf",
      "outputs": [
        {
          "internalType": "uint256",
          "name": "",
          "type": "uint256"
        }
      ],
      "stateMutability": "view",
      "type": "function",
      "constant": true
    },
    {
      "inputs": [
        {
          "internalType": "address[]",
          "name": "accounts",
          "type": "address[]"
        },
        {
          "internalType": "uint256[]",
          "name": "ids",
          "type": "uint256[]"
        }
      ],
      "name": "balanceOfBatch",
      "outputs": [
        {
          "internalType": "uint256[]",
          "name": "",
          "type": "uint256[]"
        }
      ],
      "stateMutability": "view",
      "type": "function",
      "constant": true
    },
    {
      "inputs": [
        {
          "internalType": "bytes32",
          "name": "role",
          "type": "bytes32"
        }
      ],
      "name": "getRoleAdmin",
      "outputs": [
        {
          "internalType": "bytes32",
          "name": "",
          "type": "bytes32"
        }
      ],
      "stateMutability": "view",
      "type": "function",
      "constant": true
    },
    {
      "inputs": [
        {
          "internalType": "bytes32",
          "name": "role",
          "type": "bytes32"
        },
        {
          "internalType": "uint256",
          "name": "index",
          "type": "uint256"
        }
      ],
      "name": "getRoleMember",
      "outputs": [
        {
          "internalType": "address",
          "name": "",
          "type": "address"
        }
      ],
      "stateMutability": "view",
      "type": "function",
      "constant": true
    },
    {
      "inputs": [
        {
          "internalType": "bytes32",
          "name": "role",
          "type": "bytes32"
        }
      ],
      "name": "getRoleMemberCount",
      "outputs": [
        {
          "internalType": "uint256",
          "name": "",
          "type": "uint256"
        }
      ],
      "stateMutability": "view",
      "type": "function",
      "constant": true
    },
    {
      "inputs": [
        {
          "internalType": "bytes32",
          "name": "role",
          "type": "bytes32"
        },
        {
          "internalType": "address",
          "name": "account",
          "type": "address"
        }
      ],
      "name": "grantRole",
      "outputs": [],
      "stateMutability": "nonpayable",
      "type": "function"
    },
    {
      "inputs": [
        {
          "internalType": "bytes32",
          "name": "role",
          "type": "bytes32"
        },
        {
          "internalType": "address",
          "name": "account",
          "type": "address"
        }
      ],
      "name": "hasRole",
      "outputs": [
        {
          "internalType": "bool",
          "name": "",
          "type": "bool"
        }
      ],
      "stateMutability": "view",
      "type": "function",
      "constant": true
    },
    {
      "inputs": [
        {
          "internalType": "address",
          "name": "account",
          "type": "address"
        },
        {
          "internalType": "address",
          "name": "operator",
          "type": "address"
        }
      ],
      "name": "isApprovedForAll",
      "outputs": [
        {
          "internalType": "bool",
          "name": "",
          "type": "bool"
        }
      ],
      "stateMutability": "view",
      "type": "function",
      "constant": true
    },
    {
      "inputs": [
        {
          "internalType": "address",
          "name": "",
          "type": "address"
        },
        {
          "internalType": "address",
          "name": "",
          "type": "address"
        },
        {
          "internalType": "uint256[]",
          "name": "",
          "type": "uint256[]"
        },
        {
          "internalType": "uint256[]",
          "name": "",
          "type": "uint256[]"
        },
        {
          "internalType": "bytes",
          "name": "",
          "type": "bytes"
        }
      ],
      "name": "onERC1155BatchReceived",
      "outputs": [
        {
          "internalType": "bytes4",
          "name": "",
          "type": "bytes4"
        }
      ],
      "stateMutability": "nonpayable",
      "type": "function"
    },
    {
      "inputs": [
        {
          "internalType": "address",
          "name": "",
          "type": "address"
        },
        {
          "internalType": "address",
          "name": "",
          "type": "address"
        },
        {
          "internalType": "uint256",
          "name": "",
          "type": "uint256"
        },
        {
          "internalType": "uint256",
          "name": "",
          "type": "uint256"
        },
        {
          "internalType": "bytes",
          "name": "",
          "type": "bytes"
        }
      ],
      "name": "onERC1155Received",
      "outputs": [
        {
          "internalType": "bytes4",
          "name": "",
          "type": "bytes4"
        }
      ],
      "stateMutability": "nonpayable",
      "type": "function"
    },
    {
      "inputs": [],
      "name": "paused",
      "outputs": [
        {
          "internalType": "bool",
          "name": "",
          "type": "bool"
        }
      ],
      "stateMutability": "view",
      "type": "function",
      "constant": true
    },
    {
      "inputs": [],
      "name": "proxy_contract",
      "outputs": [
        {
          "internalType": "address payable",
          "name": "",
          "type": "address"
        }
      ],
      "stateMutability": "view",
      "type": "function",
      "constant": true
    },
    {
      "inputs": [
        {
          "internalType": "bytes32",
          "name": "role",
          "type": "bytes32"
        },
        {
          "internalType": "address",
          "name": "account",
          "type": "address"
        }
      ],
      "name": "renounceRole",
      "outputs": [],
      "stateMutability": "nonpayable",
      "type": "function"
    },
    {
      "inputs": [
        {
          "internalType": "bytes32",
          "name": "role",
          "type": "bytes32"
        },
        {
          "internalType": "address",
          "name": "account",
          "type": "address"
        }
      ],
      "name": "revokeRole",
      "outputs": [],
      "stateMutability": "nonpayable",
      "type": "function"
    },
    {
      "inputs": [
        {
          "internalType": "address",
          "name": "from",
          "type": "address"
        },
        {
          "internalType": "address",
          "name": "to",
          "type": "address"
        },
        {
          "internalType": "uint256[]",
          "name": "ids",
          "type": "uint256[]"
        },
        {
          "internalType": "uint256[]",
          "name": "amounts",
          "type": "uint256[]"
        },
        {
          "internalType": "bytes",
          "name": "data",
          "type": "bytes"
        }
      ],
      "name": "safeBatchTransferFrom",
      "outputs": [],
      "stateMutability": "nonpayable",
      "type": "function"
    },
    {
      "inputs": [
        {
          "internalType": "address",
          "name": "from",
          "type": "address"
        },
        {
          "internalType": "address",
          "name": "to",
          "type": "address"
        },
        {
          "internalType": "uint256",
          "name": "id",
          "type": "uint256"
        },
        {
          "internalType": "uint256",
          "name": "amount",
          "type": "uint256"
        },
        {
          "internalType": "bytes",
          "name": "data",
          "type": "bytes"
        }
      ],
      "name": "safeTransferFrom",
      "outputs": [],
      "stateMutability": "nonpayable",
      "type": "function"
    },
    {
      "inputs": [
        {
          "internalType": "address",
          "name": "operator",
          "type": "address"
        },
        {
          "internalType": "bool",
          "name": "approved",
          "type": "bool"
        }
      ],
      "name": "setApprovalForAll",
      "outputs": [],
      "stateMutability": "nonpayable",
      "type": "function"
    },
    {
      "inputs": [
        {
          "internalType": "bytes4",
          "name": "interfaceId",
          "type": "bytes4"
        }
      ],
      "name": "supportsInterface",
      "outputs": [
        {
          "internalType": "bool",
          "name": "",
          "type": "bool"
        }
      ],
      "stateMutability": "view",
      "type": "function",
      "constant": true
    },
    {
      "inputs": [
        {
          "internalType": "uint256",
          "name": "",
          "type": "uint256"
        }
      ],
      "name": "uri",
      "outputs": [
        {
          "internalType": "string",
          "name": "",
          "type": "string"
        }
      ],
      "stateMutability": "view",
      "type": "function",
      "constant": true
    },
    {
      "inputs": [],
      "name": "usdt_contract",
      "outputs": [
        {
          "internalType": "address",
          "name": "",
          "type": "address"
        }
      ],
      "stateMutability": "view",
      "type": "function",
      "constant": true
    },
    {
      "inputs": [
        {
          "internalType": "uint256",
          "name": "tokenId",
          "type": "uint256"
        }
      ],
      "name": "getTotalSupply",
      "outputs": [
        {
          "internalType": "uint256",
          "name": "",
          "type": "uint256"
        }
      ],
      "stateMutability": "view",
      "type": "function",
      "constant": true
    },
    {
      "inputs": [
        {
          "internalType": "uint256",
          "name": "tokenId",
          "type": "uint256"
        }
      ],
      "name": "getOwner",
      "outputs": [
        {
          "internalType": "address",
          "name": "",
          "type": "address"
        }
      ],
      "stateMutability": "view",
      "type": "function",
      "constant": true
    },
    {
      "inputs": [
        {
          "internalType": "uint256",
          "name": "tokenId",
          "type": "uint256"
        }
      ],
      "name": "getValuationRpt",
      "outputs": [
        {
          "internalType": "string",
          "name": "",
          "type": "string"
        }
      ],
      "stateMutability": "view",
      "type": "function",
      "constant": true
    },
    {
      "inputs": [
        {
          "internalType": "uint256",
          "name": "tokenId",
          "type": "uint256"
        }
      ],
      "name": "getLegalContr",
      "outputs": [
        {
          "internalType": "string",
          "name": "",
          "type": "string"
        }
      ],
      "stateMutability": "view",
      "type": "function",
      "constant": true
    },
    {
      "inputs": [
        {
          "internalType": "uint256",
          "name": "tokenId",
          "type": "uint256"
        }
      ],
      "name": "getFee",
      "outputs": [
        {
          "internalType": "uint256",
          "name": "",
          "type": "uint256"
        }
      ],
      "stateMutability": "view",
      "type": "function",
      "constant": true
    },
    {
      "inputs": [
        {
          "internalType": "address",
          "name": "assetOwner",
          "type": "address"
        },
        {
          "internalType": "uint256",
          "name": "totalAmt",
          "type": "uint256"
        },
        {
          "internalType": "uint256",
          "name": "ownerAmt",
          "type": "uint256"
        },
        {
          "internalType": "string",
          "name": "valueRpt",
          "type": "string"
        },
        {
          "internalType": "string",
          "name": "legalContr",
          "type": "string"
        },
        {
          "internalType": "uint256",
          "name": "fee",
          "type": "uint256"
        }
      ],
      "name": "mintToken",
      "outputs": [],
      "stateMutability": "nonpayable",
      "type": "function"
    },
    {
      "inputs": [
        {
          "internalType": "address",
          "name": "recipient",
          "type": "address"
        },
        {
          "internalType": "uint256",
          "name": "amt",
          "type": "uint256"
        }
      ],
      "name": "withdrawUSDT",
      "outputs": [],
      "stateMutability": "nonpayable",
      "type": "function"
    }
  ],
  "bytecode": "0x60806040526200001c6101646200003460201b620025cf1760201c565b610165553480156200002d57600080fd5b5062000042565b600081600001549050919050565b6146ea80620000526000396000f3fe608060405234801561001057600080fd5b50600436106101e45760003560e01c80639010d07c1161010f578063c41a360a116100a2578063e985e9c511610071578063e985e9c5146105ef578063f23a6e611461061f578063f242432a1461064f578063fcee45f41461066b576101e4565b8063c41a360a14610555578063ca15c87314610585578063d547741f146105b5578063d84e8038146105d1576101e4565b8063a22cb465116100de578063a22cb465146104cf578063ad0cdd89146104eb578063b06496ae14610509578063bc197c8114610525576101e4565b80639010d07c1461042157806391d148541461045157806392ab723e14610481578063a217fddf146104b1576101e4565b8063308ff127116101875780634e1273f4116101565780634e1273f4146103975780635c975abb146103c757806375b238fc146103e557806375e1583814610403576101e4565b8063308ff127146102fd57806334b4e6251461032d57806336568abe1461034b5780634aa10a8014610367576101e4565b80631481794e116101c35780631481794e14610279578063248a9ca3146102955780632eb2c2d6146102c55780632f2ff15d146102e1576101e4565b8062fdd58e146101e957806301ffc9a7146102195780630e89341c14610249575b600080fd5b61020360048036038101906101fe919061395e565b61069b565b6040516102109190613ff9565b60405180910390f35b610233600480360381019061022e9190613b60565b61077b565b6040516102409190613f26565b60405180910390f35b610263600480360381019061025e9190613b89565b6107e3565b6040516102709190613f77565b60405180910390f35b610293600480360381019061028e919061395e565b610887565b005b6102af60048036038101906102aa9190613abf565b610af7565b6040516102bc9190613f41565b60405180910390f35b6102df60048036038101906102da91906137d4565b610b17565b005b6102fb60048036038101906102f69190613ae8565b610fa2565b005b61031760048036038101906103129190613b89565b61102c565b6040516103249190613f77565b60405180910390f35b610335611212565b6040516103429190613f41565b60405180910390f35b61036560048036038101906103609190613ae8565b611236565b005b610381600480360381019061037c9190613b89565b6112cf565b60405161038e9190613f77565b60405180910390f35b6103b160048036038101906103ac9190613a53565b6114b5565b6040516103be9190613f04565b60405180910390f35b6103cf6115c7565b6040516103dc9190613f26565b60405180910390f35b6103ed6115de565b6040516103fa9190613f41565b60405180910390f35b61040b611602565b6040516104189190613e7c565b60405180910390f35b61043b60048036038101906104369190613b24565b611629565b6040516104489190613e7c565b60405180910390f35b61046b60048036038101906104669190613ae8565b61165b565b6040516104789190613f26565b60405180910390f35b61049b60048036038101906104969190613b89565b61168d565b6040516104a89190613ff9565b60405180910390f35b6104b9611873565b6040516104c69190613f41565b60405180910390f35b6104e960048036038101906104e49190613922565b61187a565b005b6104f3611a13565b6040516105009190613ff9565b60405180910390f35b610523600480360381019061051e919061399a565b611a1a565b005b61053f600480360381019061053a91906137d4565b611cf8565b60405161054c9190613f5c565b60405180910390f35b61056f600480360381019061056a9190613b89565b611d0d565b60405161057c9190613e7c565b60405180910390f35b61059f600480360381019061059a9190613abf565b611ef3565b6040516105ac9190613ff9565b60405180910390f35b6105cf60048036038101906105ca9190613ae8565b611f1a565b005b6105d9611fa4565b6040516105e69190613eb2565b60405180910390f35b61060960048036038101906106049190613798565b611fcb565b6040516106169190613f26565b60405180910390f35b61063960048036038101906106349190613893565b61205f565b6040516106469190613f5c565b60405180910390f35b61066960048036038101906106649190613893565b612074565b005b61068560048036038101906106809190613b89565b6123e9565b6040516106929190613ff9565b60405180910390f35b60008073ffffffffffffffffffffffffffffffffffffffff168373ffffffffffffffffffffffffffffffffffffffff161415610722576040517f08c379a000000000000000000000000000000000000000000000000000000000815260040180806020018281038252602b8152602001806144e6602b913960400191505060405180910390fd5b60c9600083815260200190815260200160002060008473ffffffffffffffffffffffffffffffffffffffff1673ffffffffffffffffffffffffffffffffffffffff16815260200190815260200160002054905092915050565b600060976000837bffffffffffffffffffffffffffffffffffffffffffffffffffffffff19167bffffffffffffffffffffffffffffffffffffffffffffffffffffffff1916815260200190815260200160002060009054906101000a900460ff169050919050565b606060cb8054600181600116156101000203166002900480601f01602080910402602001604051908101604052809291908181526020018280546001816001161561010002031660029004801561087b5780601f106108505761010080835404028352916020019161087b565b820191906000526020600020905b81548152906001019060200180831161085e57829003601f168201915b50505050509050919050565b6108b17fa49807205ce4d355092ef5a8a18f56e8913cf4a201fbe287825b095693c217753361165b565b6108f0576040517f08c379a00000000000000000000000000000000000000000000000000000000081526004016108e790613fb9565b60405180910390fd5b8061016060009054906101000a900473ffffffffffffffffffffffffffffffffffffffff1673ffffffffffffffffffffffffffffffffffffffff166370a0823161016160009054906101000a900473ffffffffffffffffffffffffffffffffffffffff166040518263ffffffff1660e01b81526004016109709190613e97565b60206040518083038186803b15801561098857600080fd5b505afa15801561099c573d6000803e3d6000fd5b505050506040513d601f19601f820116820180604052508101906109c09190613bb2565b1015610a01576040517f08c379a00000000000000000000000000000000000000000000000000000000081526004016109f890613fd9565b60405180910390fd5b7f8928471dcaee5e7f6fbc83c385d8800ec5de7f6bc00ab13895e972bef8c73ad642338484604051610a369493929190614014565b60405180910390a161016060009054906101000a900473ffffffffffffffffffffffffffffffffffffffff1673ffffffffffffffffffffffffffffffffffffffff166347ab2eb861016160009054906101000a900473ffffffffffffffffffffffffffffffffffffffff1684846040518463ffffffff1660e01b8152600401610ac193929190613ecd565b600060405180830381600087803b158015610adb57600080fd5b505af1158015610aef573d6000803e3d6000fd5b505050505050565b600060336000838152602001908152602001600020600201549050919050565b8151835114610b71576040517f08c379a000000000000000000000000000000000000000000000000000000000815260040180806020018281038252602881526020018061463d6028913960400191505060405180910390fd5b600073ffffffffffffffffffffffffffffffffffffffff168473ffffffffffffffffffffffffffffffffffffffff161415610bf7576040517f08c379a000000000000000000000000000000000000000000000000000000000815260040180806020018281038252602581526020018061456a6025913960400191505060405180910390fd5b610bff6125dd565b73ffffffffffffffffffffffffffffffffffffffff168573ffffffffffffffffffffffffffffffffffffffff161480610c455750610c4485610c3f6125dd565b611fcb565b5b610c9a576040517f08c379a000000000000000000000000000000000000000000000000000000000815260040180806020018281038252603281526020018061458f6032913960400191505060405180910390fd5b6000610ca46125dd565b9050610cb48187878787876125e5565b60005b8451811015610e85576000858281518110610cce57fe5b602002602001015190506000858381518110610ce657fe5b60200260200101519050610d6d816040518060600160405280602a81526020016145c1602a913960c9600086815260200190815260200160002060008d73ffffffffffffffffffffffffffffffffffffffff1673ffffffffffffffffffffffffffffffffffffffff168152602001908152602001600020546125ed9092919063ffffffff16565b60c9600084815260200190815260200160002060008b73ffffffffffffffffffffffffffffffffffffffff1673ffffffffffffffffffffffffffffffffffffffff16815260200190815260200160002081905550610e248160c9600085815260200190815260200160002060008b73ffffffffffffffffffffffffffffffffffffffff1673ffffffffffffffffffffffffffffffffffffffff168152602001908152602001600020546126a790919063ffffffff16565b60c9600084815260200190815260200160002060008a73ffffffffffffffffffffffffffffffffffffffff1673ffffffffffffffffffffffffffffffffffffffff168152602001908152602001600020819055505050806001019050610cb7565b508473ffffffffffffffffffffffffffffffffffffffff168673ffffffffffffffffffffffffffffffffffffffff168273ffffffffffffffffffffffffffffffffffffffff167f4a39dc06d4c0dbc64b70af90fd698a233a518aa5d07e595d983b8c0526c8f7fb8787604051808060200180602001838103835285818151815260200191508051906020019060200280838360005b83811015610f35578082015181840152602081019050610f1a565b50505050905001838103825284818151815260200191508051906020019060200280838360005b83811015610f77578082015181840152602081019050610f5c565b5050505090500194505050505060405180910390a4610f9a81878787878761272f565b505050505050565b610fc96033600084815260200190815260200160002060020154610fc46125dd565b61165b565b61101e576040517f08c379a000000000000000000000000000000000000000000000000000000000815260040180806020018281038252602f8152602001806144b7602f913960400191505060405180910390fd5b6110288282612abe565b5050565b606061103661347c565b61016660008481526020019081526020016000206040518060a0016040529081600082015481526020016001820160009054906101000a900473ffffffffffffffffffffffffffffffffffffffff1673ffffffffffffffffffffffffffffffffffffffff1673ffffffffffffffffffffffffffffffffffffffff168152602001600282018054600181600116156101000203166002900480601f01602080910402602001604051908101604052809291908181526020018280546001816001161561010002031660029004801561114e5780601f106111235761010080835404028352916020019161114e565b820191906000526020600020905b81548152906001019060200180831161113157829003601f168201915b50505050508152602001600382018054600181600116156101000203166002900480601f0160208091040260200160405190810160405280929190818152602001828054600181600116156101000203166002900480156111f05780601f106111c5576101008083540402835291602001916111f0565b820191906000526020600020905b8154815290600101906020018083116111d357829003601f168201915b5050505050815260200160048201548152505090508060600151915050919050565b7f58c8e11deab7910e89bf18a1168c6e6ef28748f00fd3094549459f01cec5e0aa81565b61123e6125dd565b73ffffffffffffffffffffffffffffffffffffffff168173ffffffffffffffffffffffffffffffffffffffff16146112c1576040517f08c379a000000000000000000000000000000000000000000000000000000000815260040180806020018281038252602f815260200180614686602f913960400191505060405180910390fd5b6112cb8282612b52565b5050565b60606112d961347c565b61016660008481526020019081526020016000206040518060a0016040529081600082015481526020016001820160009054906101000a900473ffffffffffffffffffffffffffffffffffffffff1673ffffffffffffffffffffffffffffffffffffffff1673ffffffffffffffffffffffffffffffffffffffff168152602001600282018054600181600116156101000203166002900480601f0160208091040260200160405190810160405280929190818152602001828054600181600116156101000203166002900480156113f15780601f106113c6576101008083540402835291602001916113f1565b820191906000526020600020905b8154815290600101906020018083116113d457829003601f168201915b50505050508152602001600382018054600181600116156101000203166002900480601f0160208091040260200160405190810160405280929190818152602001828054600181600116156101000203166002900480156114935780601f1061146857610100808354040283529160200191611493565b820191906000526020600020905b81548152906001019060200180831161147657829003601f168201915b5050505050815260200160048201548152505090508060400151915050919050565b60608151835114611511576040517f08c379a00000000000000000000000000000000000000000000000000000000081526004018080602001828103825260298152602001806146146029913960400191505060405180910390fd5b6060835167ffffffffffffffff8111801561152b57600080fd5b5060405190808252806020026020018201604052801561155a5781602001602082028036833780820191505090505b50905060005b84518110156115bc5761159985828151811061157857fe5b602002602001015185838151811061158c57fe5b602002602001015161069b565b8282815181106115a557fe5b602002602001018181525050806001019050611560565b508091505092915050565b6000606560009054906101000a900460ff16905090565b7fa49807205ce4d355092ef5a8a18f56e8913cf4a201fbe287825b095693c2177581565b61015f60009054906101000a900473ffffffffffffffffffffffffffffffffffffffff1681565b60006116538260336000868152602001908152602001600020600001612be690919063ffffffff16565b905092915050565b60006116858260336000868152602001908152602001600020600001612c0090919063ffffffff16565b905092915050565b600061169761347c565b61016660008481526020019081526020016000206040518060a0016040529081600082015481526020016001820160009054906101000a900473ffffffffffffffffffffffffffffffffffffffff1673ffffffffffffffffffffffffffffffffffffffff1673ffffffffffffffffffffffffffffffffffffffff168152602001600282018054600181600116156101000203166002900480601f0160208091040260200160405190810160405280929190818152602001828054600181600116156101000203166002900480156117af5780601f10611784576101008083540402835291602001916117af565b820191906000526020600020905b81548152906001019060200180831161179257829003601f168201915b50505050508152602001600382018054600181600116156101000203166002900480601f0160208091040260200160405190810160405280929190818152602001828054600181600116156101000203166002900480156118515780601f1061182657610100808354040283529160200191611851565b820191906000526020600020905b81548152906001019060200180831161183457829003601f168201915b5050505050815260200160048201548152505090508060000151915050919050565b6000801b81565b8173ffffffffffffffffffffffffffffffffffffffff166118996125dd565b73ffffffffffffffffffffffffffffffffffffffff161415611906576040517f08c379a00000000000000000000000000000000000000000000000000000000081526004018080602001828103825260298152602001806145eb6029913960400191505060405180910390fd5b8060ca60006119136125dd565b73ffffffffffffffffffffffffffffffffffffffff1673ffffffffffffffffffffffffffffffffffffffff16815260200190815260200160002060008473ffffffffffffffffffffffffffffffffffffffff1673ffffffffffffffffffffffffffffffffffffffff16815260200190815260200160002060006101000a81548160ff0219169083151502179055508173ffffffffffffffffffffffffffffffffffffffff166119c06125dd565b73ffffffffffffffffffffffffffffffffffffffff167f17307eab39ab6107e8899845ad3d59bd9653f200f220920489ca2b5937696c318360405180821515815260200191505060405180910390a35050565b6101655481565b611a447fa49807205ce4d355092ef5a8a18f56e8913cf4a201fbe287825b095693c217753361165b565b611a83576040517f08c379a0000000000000000000000000000000000000000000000000000000008152600401611a7a90613fb9565b60405180910390fd5b611a8b6115c7565b15611afe576040517f08c379a00000000000000000000000000000000000000000000000000000000081526004018080602001828103825260108152602001807f5061757361626c653a207061757365640000000000000000000000000000000081525060200191505060405180910390fd5b600061016383604051611b119190613e65565b90815260200160405180910390205414611b60576040517f08c379a0000000000000000000000000000000000000000000000000000000008152600401611b5790613f99565b60405180910390fd5b611b68612c30565b6000610165549050600085870390508773ffffffffffffffffffffffffffffffffffffffff1687837faeee3bcad317d189c3a5fdbb0251902831536f3752d0bf9d6d13c0e8a6b77c6f428989604051611bc393929190614059565b60405180910390a4600061016660006101655481526020019081526020016000209050878160000181905550888160010160006101000a81548173ffffffffffffffffffffffffffffffffffffffff021916908373ffffffffffffffffffffffffffffffffffffffff16021790555085816002019080519060200190611c4a9291906134c1565b5084816003019080519060200190611c639291906134c1565b508381600401819055506101655461016386604051611c829190613e65565b908152602001604051809103902081905550611cd261016160009054906101000a900473ffffffffffffffffffffffffffffffffffffffff16848460405180602001604052806000815250612c4f565b611ced89848960405180602001604052806000815250612c4f565b505050505050505050565b600063bc197c8160e01b905095945050505050565b6000611d1761347c565b61016660008481526020019081526020016000206040518060a0016040529081600082015481526020016001820160009054906101000a900473ffffffffffffffffffffffffffffffffffffffff1673ffffffffffffffffffffffffffffffffffffffff1673ffffffffffffffffffffffffffffffffffffffff168152602001600282018054600181600116156101000203166002900480601f016020809104026020016040519081016040528092919081815260200182805460018160011615610100020316600290048015611e2f5780601f10611e0457610100808354040283529160200191611e2f565b820191906000526020600020905b815481529060010190602001808311611e1257829003601f168201915b50505050508152602001600382018054600181600116156101000203166002900480601f016020809104026020016040519081016040528092919081815260200182805460018160011615610100020316600290048015611ed15780601f10611ea657610100808354040283529160200191611ed1565b820191906000526020600020905b815481529060010190602001808311611eb457829003601f168201915b5050505050815260200160048201548152505090508060200151915050919050565b6000611f1360336000848152602001908152602001600020600001612e52565b9050919050565b611f416033600084815260200190815260200160002060020154611f3c6125dd565b61165b565b611f96576040517f08c379a000000000000000000000000000000000000000000000000000000000815260040180806020018281038252603081526020018061453a6030913960400191505060405180910390fd5b611fa08282612b52565b5050565b61016160009054906101000a900473ffffffffffffffffffffffffffffffffffffffff1681565b600060ca60008473ffffffffffffffffffffffffffffffffffffffff1673ffffffffffffffffffffffffffffffffffffffff16815260200190815260200160002060008373ffffffffffffffffffffffffffffffffffffffff1673ffffffffffffffffffffffffffffffffffffffff16815260200190815260200160002060009054906101000a900460ff16905092915050565b600063f23a6e6160e01b905095945050505050565b600073ffffffffffffffffffffffffffffffffffffffff168473ffffffffffffffffffffffffffffffffffffffff1614156120fa576040517f08c379a000000000000000000000000000000000000000000000000000000000815260040180806020018281038252602581526020018061456a6025913960400191505060405180910390fd5b6121026125dd565b73ffffffffffffffffffffffffffffffffffffffff168573ffffffffffffffffffffffffffffffffffffffff1614806121485750612147856121426125dd565b611fcb565b5b61219d576040517f08c379a00000000000000000000000000000000000000000000000000000000081526004018080602001828103825260298152602001806145116029913960400191505060405180910390fd5b60006121a76125dd565b90506121c78187876121b888612e67565b6121c188612e67565b876125e5565b612244836040518060600160405280602a81526020016145c1602a913960c9600088815260200190815260200160002060008a73ffffffffffffffffffffffffffffffffffffffff1673ffffffffffffffffffffffffffffffffffffffff168152602001908152602001600020546125ed9092919063ffffffff16565b60c9600086815260200190815260200160002060008873ffffffffffffffffffffffffffffffffffffffff1673ffffffffffffffffffffffffffffffffffffffff168152602001908152602001600020819055506122fb8360c9600087815260200190815260200160002060008873ffffffffffffffffffffffffffffffffffffffff1673ffffffffffffffffffffffffffffffffffffffff168152602001908152602001600020546126a790919063ffffffff16565b60c9600086815260200190815260200160002060008773ffffffffffffffffffffffffffffffffffffffff1673ffffffffffffffffffffffffffffffffffffffff168152602001908152602001600020819055508473ffffffffffffffffffffffffffffffffffffffff168673ffffffffffffffffffffffffffffffffffffffff168273ffffffffffffffffffffffffffffffffffffffff167fc3d58168c5ae7397731d063d5bbf3d657854427343f4c083240f7aacaa2d0f628787604051808381526020018281526020019250505060405180910390a46123e1818787878787612ed7565b505050505050565b60006123f361347c565b61016660008481526020019081526020016000206040518060a0016040529081600082015481526020016001820160009054906101000a900473ffffffffffffffffffffffffffffffffffffffff1673ffffffffffffffffffffffffffffffffffffffff1673ffffffffffffffffffffffffffffffffffffffff168152602001600282018054600181600116156101000203166002900480601f01602080910402602001604051908101604052809291908181526020018280546001816001161561010002031660029004801561250b5780601f106124e05761010080835404028352916020019161250b565b820191906000526020600020905b8154815290600101906020018083116124ee57829003601f168201915b50505050508152602001600382018054600181600116156101000203166002900480601f0160208091040260200160405190810160405280929190818152602001828054600181600116156101000203166002900480156125ad5780601f10612582576101008083540402835291602001916125ad565b820191906000526020600020905b81548152906001019060200180831161259057829003601f168201915b5050505050815260200160048201548152505090508060800151915050919050565b600081600001549050919050565b600033905090565b505050505050565b600083831115829061269a576040517f08c379a00000000000000000000000000000000000000000000000000000000081526004018080602001828103825283818151815260200191508051906020019080838360005b8381101561265f578082015181840152602081019050612644565b50505050905090810190601f16801561268c5780820380516001836020036101000a031916815260200191505b509250505060405180910390fd5b5082840390509392505050565b600080828401905083811015612725576040517f08c379a000000000000000000000000000000000000000000000000000000000815260040180806020018281038252601b8152602001807f536166654d6174683a206164646974696f6e206f766572666c6f77000000000081525060200191505060405180910390fd5b8091505092915050565b61274e8473ffffffffffffffffffffffffffffffffffffffff166131e4565b15612ab6578373ffffffffffffffffffffffffffffffffffffffff1663bc197c8187878686866040518663ffffffff1660e01b8152600401808673ffffffffffffffffffffffffffffffffffffffff1681526020018573ffffffffffffffffffffffffffffffffffffffff168152602001806020018060200180602001848103845287818151815260200191508051906020019060200280838360005b838110156128065780820151818401526020810190506127eb565b50505050905001848103835286818151815260200191508051906020019060200280838360005b8381101561284857808201518184015260208101905061282d565b50505050905001848103825285818151815260200191508051906020019080838360005b8381101561288757808201518184015260208101905061286c565b50505050905090810190601f1680156128b45780820380516001836020036101000a031916815260200191505b5098505050505050505050602060405180830381600087803b1580156128d957600080fd5b505af192505050801561290d57506040513d60208110156128f957600080fd5b810190808051906020019092919050505060015b612a175761291961430f565b8061292457506129c6565b806040517f08c379a00000000000000000000000000000000000000000000000000000000081526004018080602001828103825283818151815260200191508051906020019080838360005b8381101561298b578082015181840152602081019050612970565b50505050905090810190601f1680156129b85780820380516001836020036101000a031916815260200191505b509250505060405180910390fd5b6040517f08c379a00000000000000000000000000000000000000000000000000000000081526004018080602001828103825260348152602001806144396034913960400191505060405180910390fd5b63bc197c8160e01b7bffffffffffffffffffffffffffffffffffffffffffffffffffffffff1916817bffffffffffffffffffffffffffffffffffffffffffffffffffffffff191614612ab4576040517f08c379a000000000000000000000000000000000000000000000000000000000815260040180806020018281038252602881526020018061448f6028913960400191505060405180910390fd5b505b505050505050565b612ae681603360008581526020019081526020016000206000016131f790919063ffffffff16565b15612b4e57612af36125dd565b73ffffffffffffffffffffffffffffffffffffffff168173ffffffffffffffffffffffffffffffffffffffff16837f2f8788117e7eff1d82e926ec794901d17c78024a50270940304540a733656f0d60405160405180910390a45b5050565b612b7a816033600085815260200190815260200160002060000161322790919063ffffffff16565b15612be257612b876125dd565b73ffffffffffffffffffffffffffffffffffffffff168173ffffffffffffffffffffffffffffffffffffffff16837ff6391f5c32d9c69d2a47ea670b442974b53935d1edc7fd64eb21e047a839171b60405160405180910390a45b5050565b6000612bf58360000183613257565b60001c905092915050565b6000612c28836000018373ffffffffffffffffffffffffffffffffffffffff1660001b6132da565b905092915050565b612c3b6101646132fd565b612c466101646125cf565b61016581905550565b600073ffffffffffffffffffffffffffffffffffffffff168473ffffffffffffffffffffffffffffffffffffffff161415612cd5576040517f08c379a00000000000000000000000000000000000000000000000000000000081526004018080602001828103825260218152602001806146656021913960400191505060405180910390fd5b6000612cdf6125dd565b9050612d0081600087612cf188612e67565b612cfa88612e67565b876125e5565b612d638360c9600087815260200190815260200160002060008873ffffffffffffffffffffffffffffffffffffffff1673ffffffffffffffffffffffffffffffffffffffff168152602001908152602001600020546126a790919063ffffffff16565b60c9600086815260200190815260200160002060008773ffffffffffffffffffffffffffffffffffffffff1673ffffffffffffffffffffffffffffffffffffffff168152602001908152602001600020819055508473ffffffffffffffffffffffffffffffffffffffff16600073ffffffffffffffffffffffffffffffffffffffff168273ffffffffffffffffffffffffffffffffffffffff167fc3d58168c5ae7397731d063d5bbf3d657854427343f4c083240f7aacaa2d0f628787604051808381526020018281526020019250505060405180910390a4612e4b81600087878787612ed7565b5050505050565b6000612e6082600001613313565b9050919050565b606080600167ffffffffffffffff81118015612e8257600080fd5b50604051908082528060200260200182016040528015612eb15781602001602082028036833780820191505090505b5090508281600081518110612ec257fe5b60200260200101818152505080915050919050565b612ef68473ffffffffffffffffffffffffffffffffffffffff166131e4565b156131dc578373ffffffffffffffffffffffffffffffffffffffff1663f23a6e6187878686866040518663ffffffff1660e01b8152600401808673ffffffffffffffffffffffffffffffffffffffff1681526020018573ffffffffffffffffffffffffffffffffffffffff16815260200184815260200183815260200180602001828103825283818151815260200191508051906020019080838360005b83811015612faf578082015181840152602081019050612f94565b50505050905090810190601f168015612fdc5780820380516001836020036101000a031916815260200191505b509650505050505050602060405180830381600087803b158015612fff57600080fd5b505af192505050801561303357506040513d602081101561301f57600080fd5b810190808051906020019092919050505060015b61313d5761303f61430f565b8061304a57506130ec565b806040517f08c379a00000000000000000000000000000000000000000000000000000000081526004018080602001828103825283818151815260200191508051906020019080838360005b838110156130b1578082015181840152602081019050613096565b50505050905090810190601f1680156130de5780820380516001836020036101000a031916815260200191505b509250505060405180910390fd5b6040517f08c379a00000000000000000000000000000000000000000000000000000000081526004018080602001828103825260348152602001806144396034913960400191505060405180910390fd5b63f23a6e6160e01b7bffffffffffffffffffffffffffffffffffffffffffffffffffffffff1916817bffffffffffffffffffffffffffffffffffffffffffffffffffffffff1916146131da576040517f08c379a000000000000000000000000000000000000000000000000000000000815260040180806020018281038252602881526020018061448f6028913960400191505060405180910390fd5b505b505050505050565b600080823b905060008111915050919050565b600061321f836000018373ffffffffffffffffffffffffffffffffffffffff1660001b613324565b905092915050565b600061324f836000018373ffffffffffffffffffffffffffffffffffffffff1660001b613394565b905092915050565b6000818360000180549050116132b8576040517f08c379a000000000000000000000000000000000000000000000000000000000815260040180806020018281038252602281526020018061446d6022913960400191505060405180910390fd5b8260000182815481106132c757fe5b9060005260206000200154905092915050565b600080836001016000848152602001908152602001600020541415905092915050565b6001816000016000828254019250508190555050565b600081600001805490509050919050565b600061333083836132da565b61338957826000018290806001815401808255809150506001900390600052602060002001600090919091909150558260000180549050836001016000848152602001908152602001600020819055506001905061338e565b600090505b92915050565b6000808360010160008481526020019081526020016000205490506000811461347057600060018203905060006001866000018054905003905060008660000182815481106133df57fe5b90600052602060002001549050808760000184815481106133fc57fe5b906000526020600020018190555060018301876001016000838152602001908152602001600020819055508660000180548061343457fe5b60019003818190600052602060002001600090559055866001016000878152602001908152602001600020600090556001945050505050613476565b60009150505b92915050565b6040518060a0016040528060008152602001600073ffffffffffffffffffffffffffffffffffffffff1681526020016060815260200160608152602001600081525090565b828054600181600116156101000203166002900490600052602060002090601f0160209004810192826134f7576000855561353e565b82601f1061351057805160ff191683800117855561353e565b8280016001018555821561353e579182015b8281111561353d578251825591602001919060010190613522565b5b50905061354b919061354f565b5090565b5b80821115613568576000816000905550600101613550565b5090565b60008135905061357b816143c5565b92915050565b600082601f83011261359257600080fd5b81356135a56135a0826140cf565b61409e565b915081818352602084019350602081019050838560208402820111156135ca57600080fd5b60005b838110156135fa57816135e0888261356c565b8452602084019350602083019250506001810190506135cd565b5050505092915050565b600082601f83011261361557600080fd5b8135613628613623826140fb565b61409e565b9150818183526020840193506020810190508385602084028201111561364d57600080fd5b60005b8381101561367d5781613663888261376e565b845260208401935060208301925050600181019050613650565b5050505092915050565b600081359050613696816143dc565b92915050565b6000813590506136ab816143f3565b92915050565b6000813590506136c08161440a565b92915050565b600082601f8301126136d757600080fd5b81356136ea6136e582614127565b61409e565b9150808252602083016020830185838301111561370657600080fd5b6137118382846142ad565b50505092915050565b600082601f83011261372b57600080fd5b813561373e61373982614157565b61409e565b9150808252602083016020830185838301111561375a57600080fd5b6137658382846142ad565b50505092915050565b60008135905061377d81614421565b92915050565b60008151905061379281614421565b92915050565b600080604083850312156137ab57600080fd5b60006137b98582860161356c565b92505060206137ca8582860161356c565b9150509250929050565b600080600080600060a086880312156137ec57600080fd5b60006137fa8882890161356c565b955050602061380b8882890161356c565b945050604086013567ffffffffffffffff81111561382857600080fd5b61383488828901613604565b935050606086013567ffffffffffffffff81111561385157600080fd5b61385d88828901613604565b925050608086013567ffffffffffffffff81111561387a57600080fd5b613886888289016136c6565b9150509295509295909350565b600080600080600060a086880312156138ab57600080fd5b60006138b98882890161356c565b95505060206138ca8882890161356c565b94505060406138db8882890161376e565b93505060606138ec8882890161376e565b925050608086013567ffffffffffffffff81111561390957600080fd5b613915888289016136c6565b9150509295509295909350565b6000806040838503121561393557600080fd5b60006139438582860161356c565b925050602061395485828601613687565b9150509250929050565b6000806040838503121561397157600080fd5b600061397f8582860161356c565b92505060206139908582860161376e565b9150509250929050565b60008060008060008060c087890312156139b357600080fd5b60006139c189828a0161356c565b96505060206139d289828a0161376e565b95505060406139e389828a0161376e565b945050606087013567ffffffffffffffff811115613a0057600080fd5b613a0c89828a0161371a565b935050608087013567ffffffffffffffff811115613a2957600080fd5b613a3589828a0161371a565b92505060a0613a4689828a0161376e565b9150509295509295509295565b60008060408385031215613a6657600080fd5b600083013567ffffffffffffffff811115613a8057600080fd5b613a8c85828601613581565b925050602083013567ffffffffffffffff811115613aa957600080fd5b613ab585828601613604565b9150509250929050565b600060208284031215613ad157600080fd5b6000613adf8482850161369c565b91505092915050565b60008060408385031215613afb57600080fd5b6000613b098582860161369c565b9250506020613b1a8582860161356c565b9150509250929050565b60008060408385031215613b3757600080fd5b6000613b458582860161369c565b9250506020613b568582860161376e565b9150509250929050565b600060208284031215613b7257600080fd5b6000613b80848285016136b1565b91505092915050565b600060208284031215613b9b57600080fd5b6000613ba98482850161376e565b91505092915050565b600060208284031215613bc457600080fd5b6000613bd284828501613783565b91505092915050565b6000613be78383613e47565b60208301905092915050565b613bfc81614277565b82525050565b613c0b816141f9565b82525050565b613c1a816141e7565b82525050565b6000613c2b82614197565b613c3581856141ba565b9350613c4083614187565b8060005b83811015613c71578151613c588882613bdb565b9750613c63836141ad565b925050600181019050613c44565b5085935050505092915050565b613c878161420b565b82525050565b613c9681614217565b82525050565b613ca581614221565b82525050565b6000613cb6826141a2565b613cc081856141cb565b9350613cd08185602086016142bc565b613cd9816142f1565b840191505092915050565b6000613cef826141a2565b613cf981856141dc565b9350613d098185602086016142bc565b80840191505092915050565b6000613d226026836141cb565b91507f546869732061737365742068617320616c7265616479206265656e20746f6b6560008301527f6e697a65642e00000000000000000000000000000000000000000000000000006020830152604082019050919050565b6000613d886026836141cb565b91507f4163636573732044656e6965643a2043616c6c6572206973206e6f742074686560008301527f2041646d696e00000000000000000000000000000000000000000000000000006020830152604082019050919050565b6000613dee6028836141cb565b91507f4e756d626572206f6620555344542077697468647261776e206578636565642060008301527f62616c616e63652e0000000000000000000000000000000000000000000000006020830152604082019050919050565b613e508161426d565b82525050565b613e5f8161426d565b82525050565b6000613e718284613ce4565b915081905092915050565b6000602082019050613e916000830184613c11565b92915050565b6000602082019050613eac6000830184613bf3565b92915050565b6000602082019050613ec76000830184613c02565b92915050565b6000606082019050613ee26000830186613bf3565b613eef6020830185613c11565b613efc6040830184613e56565b949350505050565b60006020820190508181036000830152613f1e8184613c20565b905092915050565b6000602082019050613f3b6000830184613c7e565b92915050565b6000602082019050613f566000830184613c8d565b92915050565b6000602082019050613f716000830184613c9c565b92915050565b60006020820190508181036000830152613f918184613cab565b905092915050565b60006020820190508181036000830152613fb281613d15565b9050919050565b60006020820190508181036000830152613fd281613d7b565b9050919050565b60006020820190508181036000830152613ff281613de1565b9050919050565b600060208201905061400e6000830184613e56565b92915050565b60006080820190506140296000830187613e56565b6140366020830186613bf3565b6140436040830185613c11565b6140506060830184613e56565b95945050505050565b600060608201905061406e6000830186613e56565b81810360208301526140808185613cab565b905081810360408301526140948184613cab565b9050949350505050565b6000604051905081810181811067ffffffffffffffff821117156140c5576140c46142ef565b5b8060405250919050565b600067ffffffffffffffff8211156140ea576140e96142ef565b5b602082029050602081019050919050565b600067ffffffffffffffff821115614116576141156142ef565b5b602082029050602081019050919050565b600067ffffffffffffffff821115614142576141416142ef565b5b601f19601f8301169050602081019050919050565b600067ffffffffffffffff821115614172576141716142ef565b5b601f19601f8301169050602081019050919050565b6000819050602082019050919050565b600081519050919050565b600081519050919050565b6000602082019050919050565b600082825260208201905092915050565b600082825260208201905092915050565b600081905092915050565b60006141f28261424d565b9050919050565b60006142048261424d565b9050919050565b60008115159050919050565b6000819050919050565b60007fffffffff0000000000000000000000000000000000000000000000000000000082169050919050565b600073ffffffffffffffffffffffffffffffffffffffff82169050919050565b6000819050919050565b600061428282614289565b9050919050565b60006142948261429b565b9050919050565b60006142a68261424d565b9050919050565b82818337600083830152505050565b60005b838110156142da5780820151818401526020810190506142bf565b838111156142e9576000848401525b50505050565bfe5b6000601f19601f8301169050919050565b60008160e01c9050919050565b600060443d101561431f576143c2565b60046000803e614330600051614302565b6308c379a0811461434157506143c2565b60405160043d036004823e80513d602482011167ffffffffffffffff8211171561436d575050506143c2565b808201805167ffffffffffffffff81111561438c5750505050506143c2565b8060208301013d85018111156143a7575050505050506143c2565b6143b0826142f1565b60208401016040528296505050505050505b90565b6143ce816141e7565b81146143d957600080fd5b50565b6143e58161420b565b81146143f057600080fd5b50565b6143fc81614217565b811461440757600080fd5b50565b61441381614221565b811461441e57600080fd5b50565b61442a8161426d565b811461443557600080fd5b5056fe455243313135353a207472616e7366657220746f206e6f6e2045524331313535526563656976657220696d706c656d656e746572456e756d657261626c655365743a20696e646578206f7574206f6620626f756e6473455243313135353a204552433131353552656365697665722072656a656374656420746f6b656e73416363657373436f6e74726f6c3a2073656e646572206d75737420626520616e2061646d696e20746f206772616e74455243313135353a2062616c616e636520717565727920666f7220746865207a65726f2061646472657373455243313135353a2063616c6c6572206973206e6f74206f776e6572206e6f7220617070726f766564416363657373436f6e74726f6c3a2073656e646572206d75737420626520616e2061646d696e20746f207265766f6b65455243313135353a207472616e7366657220746f20746865207a65726f2061646472657373455243313135353a207472616e736665722063616c6c6572206973206e6f74206f776e6572206e6f7220617070726f766564455243313135353a20696e73756666696369656e742062616c616e636520666f72207472616e73666572455243313135353a2073657474696e6720617070726f76616c2073746174757320666f722073656c66455243313135353a206163636f756e747320616e6420696473206c656e677468206d69736d61746368455243313135353a2069647320616e6420616d6f756e7473206c656e677468206d69736d61746368455243313135353a206d696e7420746f20746865207a65726f2061646472657373416363657373436f6e74726f6c3a2063616e206f6e6c792072656e6f756e636520726f6c657320666f722073656c66a26469706673582212200d0121742a612ab0f202fa920f557a9d5baf122ebab8748af2dadc3f72ab36f964736f6c63430007040033",
  "immutableReferences": {},
  "source": "// SPDX-License-Identifier: MIT\n\npragma solidity ^0.7.4;\npragma experimental ABIEncoderV2;\n\nimport \"./libraries/AccessControlUpgradeable.sol\";\nimport \"./libraries/PausableUpgradeable.sol\";\nimport './RETokenStorageOne.sol';\n\n/**\n * @title RETokenBusinessLogic\n * @dev This contract provides the business logic for RETokenProxy with an authorization\n * mechanism for admin tasks.\n * \n * VERSION: 1 (Ver.1)\n * 1. Add 4 functions to retrieve created token details.\n * 2. Add mintToken() function for Admin to create new token.\n */ \n\ncontract LogicOne is AccessControlUpgradeable, PausableUpgradeable, RETokenStorageOne {\n    \n    /**\n     * @dev Ver.1 Throws if called by any account without ADMIN_ROLE access.\n     */\n    modifier onlyAdmin() {\n        require(hasRole(ADMIN_ROLE, msg.sender), \"Access Denied: Caller is not the Admin\");\n        _;\n    }\n\n    /**\n     * @dev Series of functions to retrieve token details from `REToken` struct, including\n     * Total Supply, Owner, Valuation Report, Legal Contract and Service Fee.\n     *\n     * @param tokenId - Unique token id of token\n     */\n    function getTotalSupply(uint256 tokenId) external view returns (uint256) {\n        REToken memory token = reToken[tokenId];\n        return token.totalSupply;\n    }\n\n    function getOwner(uint256 tokenId) external view returns (address) {\n        REToken memory token = reToken[tokenId];\n        return token.owner;\n    }\n\n    function getValuationRpt(uint256 tokenId) external view returns (string memory) {\n        REToken memory token = reToken[tokenId];\n        return token.valuationReport;\n    }\n\n    function getLegalContr(uint256 tokenId) external view returns (string memory) {\n        REToken memory token = reToken[tokenId];\n        return token.legalContract;\n    }\n\n    function getFee(uint256 tokenId) public view returns (uint256) {\n        REToken memory token = reToken[tokenId];\n        return token.fee;\n    }\n\n    /**\n     * @dev Creates `totalAmt` tokens of token type `newTokenId`, and assigns `adminAmt` to\n     * `proxy_contract` and `ownerAmt` `assetOwner` by calling ERC1155 _mint function.\n     *\n     * Can only be called by the current admin.\n     * \n     * Emits a {RETokenID} event.\n     * Emits two {TransferSingle} events via ERC1155 library.\n     *\n     * Requirements:\n     * - `legalContr` must not have been used for another token ID.\n     *\n     * @param assetOwner - Asset Owner wallet address\n     * @param totalAmt - Total number of tokens for unique token ID\n     * @param ownerAmt - Total number of tokens for Asset Owner\n     * @param valueRpt - File Hash of Valuation Report\n     * @param legalContr - File Hash of Legal Contract\n     */\n    function mintToken(address assetOwner, uint256 totalAmt, uint256 ownerAmt, string memory valueRpt, string memory legalContr, uint256 fee) external onlyAdmin whenNotPaused {\n        require(_legalContracts[legalContr] == 0, \"This asset has already been tokenized.\");\n\n        RETokenStorageOne.incrementTokenId();\n        \n        uint256 newTokenId = _tokenID;\n        uint256 adminAmt = totalAmt - ownerAmt;\n\n        emit RETokenID(block.timestamp, newTokenId, totalAmt, assetOwner, valueRpt, legalContr);\n\n        // Creates and updates REToken Struct of unique token ID with token details\n        REToken storage token = reToken[_tokenID];\n        token.totalSupply = totalAmt;\n        token.owner = assetOwner;\n        token.valuationReport = valueRpt;\n        token.legalContract = legalContr;\n        token.fee = fee;\n\n        _legalContracts[legalContr] = _tokenID;\n\n        _mint(proxy_contract, newTokenId, adminAmt, \"\");\n        _mint(assetOwner, newTokenId, ownerAmt, \"\");\n    }\n    \n    /**\n     * @dev Withdraws USDT from Proxy Contract\n     *\n     * Can only be called by the current admin.\n     * \n     * Emits a {USDTWithdrawn} event.\n     *\n     * @param recipient - Wallet address to withdraw USDT to\n     * @param amt - Amount of USDT to withdraw\n     */\n    function withdrawUSDT(address recipient, uint256 amt) external onlyAdmin {\n        require(usdtContract.balanceOf(proxy_contract) >= amt, \"Number of USDT withdrawn exceed balance.\");\n        \n        emit USDTWithdrawn(block.timestamp, msg.sender, recipient, amt);\n        \n        usdtContract.transferUSDT(proxy_contract, recipient, amt);\n    }\n\n}",
  "sourcePath": "C:/Users/seexy/Downloads/Project/solidity/v4/contracts/LogicOne.sol",
  "compiler": {
    "name": "solc",
    "version": "0.7.4+commit.3f05b770.Emscripten.clang"
  },
  "schemaVersion": "3.3.4",
  "updatedAt": "2021-03-23T03:46:27.126Z",
  "networkType": "ethereum",
  "devdoc": {
    "details": "This contract provides the business logic for RETokenProxy with an authorization mechanism for admin tasks.  VERSION: 1 (Ver.1) 1. Add 4 functions to retrieve created token details. 2. Add mintToken() function for Admin to create new token.",
    "kind": "dev",
    "methods": {
      "balanceOf(address,uint256)": {
        "details": "See {IERC1155-balanceOf}. Requirements: - `account` cannot be the zero address."
      },
      "balanceOfBatch(address[],uint256[])": {
        "details": "See {IERC1155-balanceOfBatch}. Requirements: - `accounts` and `ids` must have the same length."
      },
      "getRoleAdmin(bytes32)": {
        "details": "Returns the admin role that controls `role`. See {grantRole} and {revokeRole}. To change a role's admin, use {_setRoleAdmin}."
      },
      "getRoleMember(bytes32,uint256)": {
        "details": "Returns one of the accounts that have `role`. `index` must be a value between 0 and {getRoleMemberCount}, non-inclusive. Role bearers are not sorted in any particular way, and their ordering may change at any point. WARNING: When using {getRoleMember} and {getRoleMemberCount}, make sure you perform all queries on the same block. See the following https://forum.openzeppelin.com/t/iterating-over-elements-on-enumerableset-in-openzeppelin-contracts/2296[forum post] for more information."
      },
      "getRoleMemberCount(bytes32)": {
        "details": "Returns the number of accounts that have `role`. Can be used together with {getRoleMember} to enumerate all bearers of a role."
      },
      "getTotalSupply(uint256)": {
        "details": "Series of functions to retrieve token details from `REToken` struct, including Total Supply, Owner, Valuation Report, Legal Contract and Service Fee.",
        "params": {
          "tokenId": "- Unique token id of token"
        }
      },
      "grantRole(bytes32,address)": {
        "details": "Grants `role` to `account`. If `account` had not been already granted `role`, emits a {RoleGranted} event. Requirements: - the caller must have ``role``'s admin role."
      },
      "hasRole(bytes32,address)": {
        "details": "Returns `true` if `account` has been granted `role`."
      },
      "isApprovedForAll(address,address)": {
        "details": "See {IERC1155-isApprovedForAll}."
      },
      "mintToken(address,uint256,uint256,string,string,uint256)": {
        "details": "Creates `totalAmt` tokens of token type `newTokenId`, and assigns `adminAmt` to `proxy_contract` and `ownerAmt` `assetOwner` by calling ERC1155 _mint function. Can only be called by the current admin.  Emits a {RETokenID} event. Emits two {TransferSingle} events via ERC1155 library. Requirements: - `legalContr` must not have been used for another token ID.",
        "params": {
          "assetOwner": "- Asset Owner wallet address",
          "legalContr": "- File Hash of Legal Contract",
          "ownerAmt": "- Total number of tokens for Asset Owner",
          "totalAmt": "- Total number of tokens for unique token ID",
          "valueRpt": "- File Hash of Valuation Report"
        }
      },
      "paused()": {
        "details": "Returns true if the contract is paused, and false otherwise."
      },
      "renounceRole(bytes32,address)": {
        "details": "Revokes `role` from the calling account. Roles are often managed via {grantRole} and {revokeRole}: this function's purpose is to provide a mechanism for accounts to lose their privileges if they are compromised (such as when a trusted device is misplaced). If the calling account had been granted `role`, emits a {RoleRevoked} event. Requirements: - the caller must be `account`."
      },
      "revokeRole(bytes32,address)": {
        "details": "Revokes `role` from `account`. If `account` had been granted `role`, emits a {RoleRevoked} event. Requirements: - the caller must have ``role``'s admin role."
      },
      "safeBatchTransferFrom(address,address,uint256[],uint256[],bytes)": {
        "details": "See {IERC1155-safeBatchTransferFrom}."
      },
      "safeTransferFrom(address,address,uint256,uint256,bytes)": {
        "details": "See {IERC1155-safeTransferFrom}."
      },
      "setApprovalForAll(address,bool)": {
        "details": "See {IERC1155-setApprovalForAll}."
      },
      "supportsInterface(bytes4)": {
        "details": "See {IERC165-supportsInterface}. Time complexity O(1), guaranteed to always use less than 30 000 gas."
      },
      "uri(uint256)": {
        "details": "See {IERC1155MetadataURI-uri}. This implementation returns the same URI for *all* token types. It relies on the token type ID substitution mechanism https://eips.ethereum.org/EIPS/eip-1155#metadata[defined in the EIP]. Clients calling this function must replace the `\\{id\\}` substring with the actual token type ID."
      },
      "withdrawUSDT(address,uint256)": {
        "details": "Withdraws USDT from Proxy Contract Can only be called by the current admin.  Emits a {USDTWithdrawn} event.",
        "params": {
          "amt": "- Amount of USDT to withdraw",
          "recipient": "- Wallet address to withdraw USDT to"
        }
      }
    },
    "title": "RETokenBusinessLogic",
    "version": 1
  },
  "userdoc": {
    "kind": "user",
    "methods": {},
    "version": 1
  }
}