{
  "contractName": "ReTokenApp",
  "abi": [
    {
      "inputs": [],
      "stateMutability": "nonpayable",
      "type": "constructor"
    },
    {
      "anonymous": false,
      "inputs": [
        {
          "indexed": false,
          "internalType": "uint256",
          "name": "bcid",
          "type": "uint256"
        },
        {
          "indexed": false,
          "internalType": "uint256",
          "name": "id",
          "type": "uint256"
        },
        {
          "indexed": false,
          "internalType": "string",
          "name": "title",
          "type": "string"
        },
        {
          "indexed": false,
          "internalType": "address",
          "name": "seller",
          "type": "address"
        },
        {
          "indexed": false,
          "internalType": "string",
          "name": "imgFile",
          "type": "string"
        },
        {
          "indexed": false,
          "internalType": "uint256",
          "name": "timstamp",
          "type": "uint256"
        },
        {
          "indexed": false,
          "internalType": "uint256",
          "name": "duration",
          "type": "uint256"
        },
        {
          "indexed": false,
          "internalType": "uint256",
          "name": "startPrice",
          "type": "uint256"
        },
        {
          "indexed": false,
          "internalType": "uint256",
          "name": "reservePrice",
          "type": "uint256"
        }
      ],
      "name": "AuctionCreated",
      "type": "event"
    },
    {
      "anonymous": false,
      "inputs": [
        {
          "indexed": false,
          "internalType": "uint256",
          "name": "auctionId",
          "type": "uint256"
        },
        {
          "indexed": false,
          "internalType": "uint256",
          "name": "bidId",
          "type": "uint256"
        },
        {
          "indexed": false,
          "internalType": "address payable",
          "name": "bidder",
          "type": "address"
        },
        {
          "indexed": false,
          "internalType": "uint256",
          "name": "bidAmount",
          "type": "uint256"
        },
        {
          "indexed": false,
          "internalType": "uint256",
          "name": "timstamp",
          "type": "uint256"
        }
      ],
      "name": "BidPlaced",
      "type": "event"
    },
    {
      "anonymous": false,
      "inputs": [
        {
          "indexed": false,
          "internalType": "uint256",
          "name": "auctionId",
          "type": "uint256"
        },
        {
          "indexed": false,
          "internalType": "uint256",
          "name": "bidId",
          "type": "uint256"
        },
        {
          "indexed": false,
          "internalType": "address payable",
          "name": "bidder",
          "type": "address"
        },
        {
          "indexed": false,
          "internalType": "uint256",
          "name": "refundAmount",
          "type": "uint256"
        },
        {
          "indexed": false,
          "internalType": "uint256",
          "name": "timstamp",
          "type": "uint256"
        }
      ],
      "name": "BidRefunded",
      "type": "event"
    },
    {
      "anonymous": false,
      "inputs": [
        {
          "indexed": false,
          "internalType": "uint256",
          "name": "auctionId",
          "type": "uint256"
        },
        {
          "indexed": false,
          "internalType": "address payable",
          "name": "seller",
          "type": "address"
        },
        {
          "indexed": false,
          "internalType": "int8",
          "name": "status",
          "type": "int8"
        },
        {
          "indexed": false,
          "internalType": "address",
          "name": "winner",
          "type": "address"
        },
        {
          "indexed": false,
          "internalType": "uint256",
          "name": "releaseAmount",
          "type": "uint256"
        }
      ],
      "name": "PaySeller",
      "type": "event"
    },
    {
      "stateMutability": "payable",
      "type": "fallback",
      "payable": true
    },
    {
      "inputs": [
        {
          "internalType": "uint256",
          "name": "",
          "type": "uint256"
        }
      ],
      "name": "auctions",
      "outputs": [
        {
          "internalType": "uint256",
          "name": "id",
          "type": "uint256"
        },
        {
          "internalType": "string",
          "name": "title",
          "type": "string"
        },
        {
          "internalType": "address payable",
          "name": "seller",
          "type": "address"
        },
        {
          "internalType": "string",
          "name": "imgFile",
          "type": "string"
        },
        {
          "internalType": "uint256",
          "name": "timestamp",
          "type": "uint256"
        },
        {
          "internalType": "uint256",
          "name": "duration",
          "type": "uint256"
        },
        {
          "internalType": "uint256",
          "name": "startPrice",
          "type": "uint256"
        },
        {
          "internalType": "uint256",
          "name": "reservePrice",
          "type": "uint256"
        },
        {
          "internalType": "uint256",
          "name": "currentBid",
          "type": "uint256"
        },
        {
          "internalType": "uint256",
          "name": "numBid",
          "type": "uint256"
        },
        {
          "internalType": "int8",
          "name": "status",
          "type": "int8"
        }
      ],
      "stateMutability": "view",
      "type": "function",
      "constant": true
    },
    {
      "inputs": [],
      "name": "contractName",
      "outputs": [
        {
          "internalType": "string",
          "name": "",
          "type": "string"
        }
      ],
      "stateMutability": "view",
      "type": "function",
      "constant": true
    },
    {
      "stateMutability": "payable",
      "type": "receive",
      "payable": true
    },
    {
      "inputs": [
        {
          "internalType": "uint256",
          "name": "_id",
          "type": "uint256"
        },
        {
          "internalType": "string",
          "name": "_title",
          "type": "string"
        },
        {
          "internalType": "string",
          "name": "_imgFile",
          "type": "string"
        },
        {
          "internalType": "uint256",
          "name": "_timestamp",
          "type": "uint256"
        },
        {
          "internalType": "uint256",
          "name": "_duration",
          "type": "uint256"
        },
        {
          "internalType": "uint256",
          "name": "_startPrice",
          "type": "uint256"
        },
        {
          "internalType": "uint256",
          "name": "_reservePrice",
          "type": "uint256"
        }
      ],
      "name": "createAuction",
      "outputs": [
        {
          "internalType": "uint256",
          "name": "",
          "type": "uint256"
        }
      ],
      "stateMutability": "nonpayable",
      "type": "function"
    },
    {
      "inputs": [
        {
          "internalType": "uint256",
          "name": "_bcAuctionId",
          "type": "uint256"
        },
        {
          "internalType": "uint256",
          "name": "_timestamp",
          "type": "uint256"
        }
      ],
      "name": "placeBid",
      "outputs": [
        {
          "internalType": "bool",
          "name": "",
          "type": "bool"
        }
      ],
      "stateMutability": "payable",
      "type": "function",
      "payable": true
    },
    {
      "inputs": [
        {
          "internalType": "uint256",
          "name": "_bcAuctionId",
          "type": "uint256"
        },
        {
          "internalType": "address",
          "name": "_winner",
          "type": "address"
        },
        {
          "internalType": "uint256",
          "name": "_winningAmount",
          "type": "uint256"
        }
      ],
      "name": "paySeller",
      "outputs": [
        {
          "internalType": "bool",
          "name": "",
          "type": "bool"
        }
      ],
      "stateMutability": "payable",
      "type": "function",
      "payable": true
    },
    {
      "inputs": [
        {
          "internalType": "uint256",
          "name": "_bcAuctionId",
          "type": "uint256"
        }
      ],
      "name": "getBids",
      "outputs": [
        {
          "components": [
            {
              "internalType": "uint256",
              "name": "id",
              "type": "uint256"
            },
            {
              "internalType": "uint256",
              "name": "bidAmount",
              "type": "uint256"
            },
            {
              "internalType": "address payable",
              "name": "bidder",
              "type": "address"
            },
            {
              "internalType": "uint256",
              "name": "timestamp",
              "type": "uint256"
            },
            {
              "internalType": "bool",
              "name": "refunded",
              "type": "bool"
            },
            {
              "internalType": "string",
              "name": "refundTxHash",
              "type": "string"
            },
            {
              "internalType": "string",
              "name": "txHash",
              "type": "string"
            }
          ],
          "internalType": "struct AuctionApp.Bid[]",
          "name": "",
          "type": "tuple[]"
        }
      ],
      "stateMutability": "view",
      "type": "function",
      "constant": true
    },
    {
      "inputs": [],
      "name": "contractBalance",
      "outputs": [
        {
          "internalType": "uint256",
          "name": "",
          "type": "uint256"
        }
      ],
      "stateMutability": "view",
      "type": "function",
      "constant": true
    }
  ],
  "bytecode": "0x60806040523480156200001157600080fd5b506040518060400160405280600e81526020017f4d792041756374696f6e20417070000000000000000000000000000000000000815250600190805190602001906200005f929190620000a7565b5033600260006101000a81548173ffffffffffffffffffffffffffffffffffffffff021916908373ffffffffffffffffffffffffffffffffffffffff1602179055506200015d565b828054600181600116156101000203166002900490600052602060002090601f016020900481019282620000df57600085556200012b565b82601f10620000fa57805160ff19168380011785556200012b565b828001600101855582156200012b579182015b828111156200012a5782518255916020019190600101906200010d565b5b5090506200013a91906200013e565b5090565b5b80821115620001595760008160009055506001016200013f565b5090565b611a49806200016d6000396000f3fe6080604052600436106100745760003560e01c806357c90de51161004e57806357c90de51461013157806375d0c0dc146101615780638b7afe2e1461018c578063e0120ff4146101b75761007b565b8063131d9a271461007d5780633acdb464146100ba578063571a26a0146100ea5761007b565b3661007b57005b005b34801561008957600080fd5b506100a4600480360381019061009f9190611151565b6101f4565b6040516100b19190611578565b60405180910390f35b6100d460048036038101906100cf919061117a565b610444565b6040516100e1919061159a565b60405180910390f35b3480156100f657600080fd5b50610111600480360381019061010c9190611151565b610648565b6040516101289b9a99989796959493929190611685565b60405180910390f35b61014b60048036038101906101469190611297565b61080f565b604051610158919061159a565b60405180910390f35b34801561016d57600080fd5b50610176610b53565b60405161018391906115b5565b60405180910390f35b34801561019857600080fd5b506101a1610bf1565b6040516101ae9190611617565b60405180910390f35b3480156101c357600080fd5b506101de60048036038101906101d991906111c9565b610bf9565b6040516101eb9190611617565b60405180910390f35b60606000828154811061020357fe5b90600052602060002090600c0201600401805480602002602001604051908101604052809291908181526020016000905b8282101561043957838290600052602060002090600702016040518060e001604052908160008201548152602001600182015481526020016002820160009054906101000a900473ffffffffffffffffffffffffffffffffffffffff1673ffffffffffffffffffffffffffffffffffffffff1673ffffffffffffffffffffffffffffffffffffffff168152602001600382015481526020016004820160009054906101000a900460ff16151515158152602001600582018054600181600116156101000203166002900480601f01602080910402602001604051908101604052809291908181526020018280546001816001161561010002031660029004801561037f5780601f106103545761010080835404028352916020019161037f565b820191906000526020600020905b81548152906001019060200180831161036257829003601f168201915b50505050508152602001600682018054600181600116156101000203166002900480601f0160208091040260200160405190810160405280929190818152602001828054600181600116156101000203166002900480156104215780601f106103f657610100808354040283529160200191610421565b820191906000526020600020905b81548152906001019060200180831161040457829003601f168201915b50505050508152505081526020019060010190610234565b505050509050919050565b6000828073ffffffffffffffffffffffffffffffffffffffff163373ffffffffffffffffffffffffffffffffffffffff16146104b5576040517f08c379a00000000000000000000000000000000000000000000000000000000081526004016104ac906115d7565b60405180910390fd5b600085815481106104c257fe5b90600052602060002090600c020160020160009054906101000a900473ffffffffffffffffffffffffffffffffffffffff1673ffffffffffffffffffffffffffffffffffffffff166108fc849081150290604051600060405180830381858888f19350505050158015610539573d6000803e3d6000fd5b507fffffffffffffffffffffffffffffffffffffffffffffffffffffffffffffffff6000868154811061056857fe5b90600052602060002090600c0201600b0160006101000a81548160ff021916908360000b60ff1602179055507feb59ad2a1d1e264f07be3d58a76e016c2cc170bbdc19cc49cf0ceb2e2a7757d885600087815481106105c357fe5b90600052602060002090600c020160020160009054906101000a900473ffffffffffffffffffffffffffffffffffffffff166000888154811061060257fe5b90600052602060002090600c0201600b0160009054906101000a900460000b8787604051610634959493929190611632565b60405180910390a160019150509392505050565b6000818154811061065857600080fd5b90600052602060002090600c0201600091509050806000015490806001018054600181600116156101000203166002900480601f01602080910402602001604051908101604052809291908181526020018280546001816001161561010002031660029004801561070a5780601f106106df5761010080835404028352916020019161070a565b820191906000526020600020905b8154815290600101906020018083116106ed57829003601f168201915b5050505050908060020160009054906101000a900473ffffffffffffffffffffffffffffffffffffffff1690806003018054600181600116156101000203166002900480601f0160208091040260200160405190810160405280929190818152602001828054600181600116156101000203166002900480156107ce5780601f106107a3576101008083540402835291602001916107ce565b820191906000526020600020905b8154815290600101906020018083116107b157829003601f168201915b50505050509080600501549080600601549080600701549080600801549080600901549080600a01549080600b0160009054906101000a900460000b90508b565b6000826000818154811061081f57fe5b90600052602060002090600c020160020160009054906101000a900473ffffffffffffffffffffffffffffffffffffffff1673ffffffffffffffffffffffffffffffffffffffff163373ffffffffffffffffffffffffffffffffffffffff1614156108bf576040517f08c379a00000000000000000000000000000000000000000000000000000000081526004016108b6906115f7565b60405180910390fd5b600084815481106108cc57fe5b90600052602060002090600c020160040160018160018154018082558091505003906000526020600020905050600060016000868154811061090a57fe5b90600052602060002090600c020160040180549050039050806000868154811061093057fe5b90600052602060002090600c0201600401828154811061094c57fe5b906000526020600020906007020160000181905550336000868154811061096f57fe5b90600052602060002090600c0201600401828154811061098b57fe5b906000526020600020906007020160020160006101000a81548173ffffffffffffffffffffffffffffffffffffffff021916908373ffffffffffffffffffffffffffffffffffffffff16021790555034600086815481106109e857fe5b90600052602060002090600c02016004018281548110610a0457fe5b9060005260206000209060070201600101819055508360008681548110610a2757fe5b90600052602060002090600c02016004018281548110610a4357fe5b9060005260206000209060070201600301819055506000808681548110610a6657fe5b90600052602060002090600c02016004018281548110610a8257fe5b906000526020600020906007020160040160006101000a81548160ff0219169083151502179055503460008681548110610ab857fe5b90600052602060002090600c0201600901819055506001810160008681548110610ade57fe5b90600052602060002090600c0201600a01819055507f34a9aee5f476df7f218e672a92a2cb667ee9908bc59d1b2fa2b2a882f715775d8582333488604051610b2a95949392919061173e565b60405180910390a16000811115610b4757610b46858286610e10565b5b60019250505092915050565b60018054600181600116156101000203166002900480601f016020809104026020016040519081016040528092919081815260200182805460018160011615610100020316600290048015610be95780601f10610bbe57610100808354040283529160200191610be9565b820191906000526020600020905b815481529060010190602001808311610bcc57829003601f168201915b505050505081565b600047905090565b60008060018160018154018082558091505003906000526020600020905050600060016000805490500390508860008281548110610c3357fe5b90600052602060002090600c0201600001819055508760008281548110610c5657fe5b90600052602060002090600c02016001019080519060200190610c7a929190611028565b503360008281548110610c8957fe5b90600052602060002090600c020160020160006101000a81548173ffffffffffffffffffffffffffffffffffffffff021916908373ffffffffffffffffffffffffffffffffffffffff1602179055508660008281548110610ce657fe5b90600052602060002090600c02016003019080519060200190610d0a929190611028565b508560008281548110610d1957fe5b90600052602060002090600c0201600501819055508460008281548110610d3c57fe5b90600052602060002090600c0201600601819055508360008281548110610d5f57fe5b90600052602060002090600c0201600701819055508260008281548110610d8257fe5b90600052602060002090600c0201600801819055508360008281548110610da557fe5b90600052602060002090600c0201600901819055507fd0bb359fabd3bf7d1560cea5f464817a7fc38e3ae91fed388f74e3b4b0fc4905818a8a338b8b8b8b8b604051610df999989796959493929190611791565b60405180910390a180915050979650505050505050565b60008381548110610e1d57fe5b90600052602060002090600c02016004016001830381548110610e3c57fe5b906000526020600020906007020160020160009054906101000a900473ffffffffffffffffffffffffffffffffffffffff1673ffffffffffffffffffffffffffffffffffffffff166108fc60008581548110610e9457fe5b90600052602060002090600c02016004016001850381548110610eb357fe5b9060005260206000209060070201600101549081150290604051600060405180830381858888f19350505050158015610ef0573d6000803e3d6000fd5b50600160008481548110610f0057fe5b90600052602060002090600c02016004016001840381548110610f1f57fe5b906000526020600020906007020160040160006101000a81548160ff0219169083151502179055507f133dcd8a7e7fd3d343a7606db0ec63e575540d73a1265b3c2d858c74b2ac5fb9836001840360008681548110610f7a57fe5b90600052602060002090600c02016004016001860381548110610f9957fe5b906000526020600020906007020160020160009054906101000a900473ffffffffffffffffffffffffffffffffffffffff1660008781548110610fd857fe5b90600052602060002090600c02016004016001870381548110610ff757fe5b9060005260206000209060070201600101548560405161101b95949392919061173e565b60405180910390a1505050565b828054600181600116156101000203166002900490600052602060002090601f01602090048101928261105e57600085556110a5565b82601f1061107757805160ff19168380011785556110a5565b828001600101855582156110a5579182015b828111156110a4578251825591602001919060010190611089565b5b5090506110b291906110b6565b5090565b5b808211156110cf5760008160009055506001016110b7565b5090565b6000813590506110e2816119e5565b92915050565b600082601f8301126110f957600080fd5b813561110c6111078261185d565b61182c565b9150808252602083016020830185838301111561112857600080fd5b611133838284611990565b50505092915050565b60008135905061114b816119fc565b92915050565b60006020828403121561116357600080fd5b60006111718482850161113c565b91505092915050565b60008060006060848603121561118f57600080fd5b600061119d8682870161113c565b93505060206111ae868287016110d3565b92505060406111bf8682870161113c565b9150509250925092565b600080600080600080600060e0888a0312156111e457600080fd5b60006111f28a828b0161113c565b975050602088013567ffffffffffffffff81111561120f57600080fd5b61121b8a828b016110e8565b965050604088013567ffffffffffffffff81111561123857600080fd5b6112448a828b016110e8565b95505060606112558a828b0161113c565b94505060806112668a828b0161113c565b93505060a06112778a828b0161113c565b92505060c06112888a828b0161113c565b91505092959891949750929550565b600080604083850312156112aa57600080fd5b60006112b88582860161113c565b92505060206112c98582860161113c565b9150509250929050565b60006112df83836114b7565b905092915050565b6112f08161195a565b82525050565b6112ff81611905565b82525050565b61130e81611905565b82525050565b61131d816118f3565b82525050565b600061132e8261189d565b61133881856118c0565b93508360208202850161134a8561188d565b8060005b85811015611386578484038952815161136785826112d3565b9450611372836118b3565b925060208a0199505060018101905061134e565b50829750879550505050505092915050565b6113a181611917565b82525050565b6113b081611917565b82525050565b6113bf81611923565b82525050565b60006113d0826118a8565b6113da81856118d1565b93506113ea81856020860161199f565b6113f3816119d4565b840191505092915050565b6000611409826118a8565b61141381856118e2565b935061142381856020860161199f565b61142c816119d4565b840191505092915050565b6000611444601c836118e2565b91507f4f6e6c792077696e6e65722063616e2072656c656173652066756e64000000006000830152602082019050919050565b60006114846017836118e2565b91507f53656c6c6572206e6f7420616c6c6f7720746f206269640000000000000000006000830152602082019050919050565b600060e0830160008301516114cf600086018261155a565b5060208301516114e2602086018261155a565b5060408301516114f560408601826112f6565b506060830151611508606086018261155a565b50608083015161151b6080860182611398565b5060a083015184820360a086015261153382826113c5565b91505060c083015184820360c086015261154d82826113c5565b9150508091505092915050565b61156381611950565b82525050565b61157281611950565b82525050565b600060208201905081810360008301526115928184611323565b905092915050565b60006020820190506115af60008301846113a7565b92915050565b600060208201905081810360008301526115cf81846113fe565b905092915050565b600060208201905081810360008301526115f081611437565b9050919050565b6000602082019050818103600083015261161081611477565b9050919050565b600060208201905061162c6000830184611569565b92915050565b600060a0820190506116476000830188611569565b6116546020830187611305565b61166160408301866113b6565b61166e6060830185611314565b61167b6080830184611569565b9695505050505050565b60006101608201905061169b600083018e611569565b81810360208301526116ad818d6113fe565b90506116bc604083018c611305565b81810360608301526116ce818b6113fe565b90506116dd608083018a611569565b6116ea60a0830189611569565b6116f760c0830188611569565b61170460e0830187611569565b611712610100830186611569565b611720610120830185611569565b61172e6101408301846113b6565b9c9b505050505050505050505050565b600060a0820190506117536000830188611569565b6117606020830187611569565b61176d6040830186611305565b61177a6060830185611569565b6117876080830184611569565b9695505050505050565b6000610120820190506117a7600083018c611569565b6117b4602083018b611569565b81810360408301526117c6818a6113fe565b90506117d560608301896112e7565b81810360808301526117e781886113fe565b90506117f660a0830187611569565b61180360c0830186611569565b61181060e0830185611569565b61181e610100830184611569565b9a9950505050505050505050565b6000604051905081810181811067ffffffffffffffff82111715611853576118526119d2565b5b8060405250919050565b600067ffffffffffffffff821115611878576118776119d2565b5b601f19601f8301169050602081019050919050565b6000819050602082019050919050565b600081519050919050565b600081519050919050565b6000602082019050919050565b600082825260208201905092915050565b600082825260208201905092915050565b600082825260208201905092915050565b60006118fe82611930565b9050919050565b600061191082611930565b9050919050565b60008115159050919050565b60008160000b9050919050565b600073ffffffffffffffffffffffffffffffffffffffff82169050919050565b6000819050919050565b60006119658261196c565b9050919050565b60006119778261197e565b9050919050565b600061198982611930565b9050919050565b82818337600083830152505050565b60005b838110156119bd5780820151818401526020810190506119a2565b838111156119cc576000848401525b50505050565bfe5b6000601f19601f8301169050919050565b6119ee816118f3565b81146119f957600080fd5b50565b611a0581611950565b8114611a1057600080fd5b5056fea2646970667358221220baff7ed6f790eba05163adacb97f0bf8ffb1709792bf56d75ae5b02f51ee7f3964736f6c63430007050033",
  "immutableReferences": {},
  "source": "//SPDX-License-Identifier: UNLICENSED\r\npragma solidity ^0.7.5;\r\npragma experimental ABIEncoderV2;\r\n\r\ncontract AuctionApp {\r\n    // data structure in BC\r\n    struct Bid {\r\n        uint256 id;\r\n        uint256 bidAmount;\r\n        address payable bidder;\r\n        uint256 timestamp;\r\n        bool refunded;\r\n        string refundTxHash;\r\n        string txHash;\r\n    }\r\n    struct Auction {\r\n        uint256 id; // id of auction record in db\r\n        string title; // auction title\r\n        address payable seller;\r\n        string imgFile; // item image file\r\n        Bid[] bids;\r\n        uint256 timestamp;\r\n        uint256 duration;\r\n        uint256 startPrice; // In wei\r\n        uint256 reservePrice;\r\n        uint256 currentBid;\r\n        uint256 numBid;\r\n        int8 status;\r\n    }\r\n    Auction[] public auctions; // auction array - all auctions\r\n    string public contractName;\r\n    address admin;\r\n\r\n    event AuctionCreated(\r\n        uint256 bcid,\r\n        uint256 id,\r\n        string title,\r\n        address seller,\r\n        string imgFile,\r\n        uint256 timstamp,\r\n        uint256 duration,\r\n        uint256 startPrice,\r\n        uint256 reservePrice\r\n    );\r\n    event BidPlaced(\r\n        uint256 auctionId,\r\n        uint256 bidId,\r\n        address payable bidder,\r\n        uint256 bidAmount,\r\n        uint256 timstamp\r\n    );\r\n    event BidRefunded(\r\n        uint256 auctionId,\r\n        uint256 bidId,\r\n        address payable bidder,\r\n        uint256 refundAmount,\r\n        uint256 timstamp\r\n    );\r\n    event PaySeller(\r\n        uint256 auctionId,\r\n        address payable seller,\r\n        int8 status,\r\n        address winner,\r\n        uint256 releaseAmount\r\n    );\r\n\r\n    constructor() {\r\n        contractName = \"My Auction App\";\r\n        admin = msg.sender;\r\n    }\r\n\r\n    // Create an auction\r\n    function createAuction(\r\n        uint256 _id,\r\n        string memory _title,\r\n        string memory _imgFile,\r\n        uint256 _timestamp,\r\n        uint256 _duration,\r\n        uint256 _startPrice,\r\n        uint256 _reservePrice\r\n    ) public returns (uint256) {\r\n        auctions.push();\r\n        uint256 _bcAuctionId = auctions.length - 1;\r\n        auctions[_bcAuctionId].id = _id; // id in DB\r\n        auctions[_bcAuctionId].title = _title;\r\n        auctions[_bcAuctionId].seller = msg.sender;\r\n        auctions[_bcAuctionId].imgFile = _imgFile;\r\n        auctions[_bcAuctionId].timestamp = _timestamp;\r\n        auctions[_bcAuctionId].duration = _duration;\r\n        auctions[_bcAuctionId].startPrice = _startPrice;\r\n        auctions[_bcAuctionId].reservePrice = _reservePrice;\r\n        auctions[_bcAuctionId].currentBid = _startPrice;\r\n        emit AuctionCreated(\r\n            _bcAuctionId,\r\n            _id,\r\n            _title,\r\n            msg.sender,\r\n            _imgFile,\r\n            _timestamp,\r\n            _duration,\r\n            _startPrice,\r\n            _reservePrice\r\n        );\r\n        return _bcAuctionId;\r\n    }\r\n\r\n    modifier notSeller(uint256 _id) {\r\n        require(msg.sender != auctions[_id].seller, \"Seller not allow to bid\");\r\n        _;\r\n    }\r\n\r\n    // Place a bid with modifier\r\n    function placeBid(uint256 _bcAuctionId, uint256 _timestamp)\r\n        public\r\n        payable\r\n        notSeller(_bcAuctionId)\r\n        returns (bool)\r\n    {\r\n        auctions[_bcAuctionId].bids.push();\r\n        uint256 _bidId = auctions[_bcAuctionId].bids.length - 1;\r\n        auctions[_bcAuctionId].bids[_bidId].id = _bidId;\r\n        auctions[_bcAuctionId].bids[_bidId].bidder = msg.sender;\r\n        auctions[_bcAuctionId].bids[_bidId].bidAmount = msg.value;\r\n        auctions[_bcAuctionId].bids[_bidId].timestamp = _timestamp;\r\n        auctions[_bcAuctionId].bids[_bidId].refunded = false;\r\n        auctions[_bcAuctionId].currentBid = msg.value;\r\n        auctions[_bcAuctionId].numBid = _bidId + 1;\r\n        emit BidPlaced(_bcAuctionId, _bidId, msg.sender, msg.value, _timestamp);\r\n\r\n        // Call RefundBid function to refund the previous bidder\r\n        if (_bidId > 0) refundBid(_bcAuctionId, _bidId, _timestamp);\r\n        return true;\r\n    }\r\n\r\n    // Refund bid to the previous bidder\r\n    function refundBid(\r\n        uint256 _bcAuctionId,\r\n        uint256 _bidId,\r\n        uint256 _timestamp\r\n    ) internal {\r\n        auctions[_bcAuctionId].bids[_bidId - 1].bidder.transfer(\r\n            auctions[_bcAuctionId].bids[_bidId - 1].bidAmount\r\n        );\r\n        auctions[_bcAuctionId].bids[_bidId - 1].refunded = true;\r\n        emit BidRefunded(\r\n            _bcAuctionId,\r\n            _bidId - 1,\r\n            auctions[_bcAuctionId].bids[_bidId - 1].bidder,\r\n            auctions[_bcAuctionId].bids[_bidId - 1].bidAmount,\r\n            _timestamp\r\n        );\r\n    }\r\n\r\n    modifier isWinner(address winner) {\r\n        require(msg.sender == winner, \"Only winner can release fund\");\r\n        _;\r\n    }\r\n\r\n    // Pay seller of the auction\r\n    function paySeller(\r\n        uint256 _bcAuctionId,\r\n        address _winner,\r\n        uint256 _winningAmount\r\n    ) public payable isWinner(_winner) returns (bool) {\r\n        auctions[_bcAuctionId].seller.transfer(_winningAmount);\r\n        auctions[_bcAuctionId].status = -1;\r\n        emit PaySeller(\r\n            _bcAuctionId,\r\n            auctions[_bcAuctionId].seller,\r\n            auctions[_bcAuctionId].status,\r\n            _winner,\r\n            _winningAmount\r\n        );\r\n        return true;\r\n    }\r\n\r\n    // GET all bids of an auction\r\n    function getBids(uint256 _bcAuctionId) public view returns (Bid[] memory) {\r\n        return (auctions[_bcAuctionId].bids);\r\n    }\r\n\r\n    function contractBalance() external view returns(uint) {\r\n        return address(this).balance;\r\n    }\r\n\r\n    // fallback to receive fund\r\n    fallback() external payable {\r\n        // Receiving ether\r\n    }\r\n\r\n    receive() external payable {\r\n        // React to receiving ether\r\n    }\r\n}\r\n",
  "sourcePath": "C:/BCCode/auction/src/contracts/AuctionApp.sol",
  "compiler": {
    "name": "solc",
    "version": "0.7.5+commit.eb77ed08.Emscripten.clang"
  },
  "schemaVersion": "3.3.3",
  "updatedAt": "2021-02-19T14:21:06.152Z",
  "networkType": "ethereum",
  "devdoc": {
    "kind": "dev",
    "methods": {},
    "version": 1
  },
  "userdoc": {
    "kind": "user",
    "methods": {},
    "version": 1
  }
}