{
  "contractName": "RETokenProxy",
  "abi": [
    {
      "anonymous": false,
      "inputs": [
        {
          "indexed": true,
          "internalType": "address",
          "name": "account",
          "type": "address"
        },
        {
          "indexed": true,
          "internalType": "address",
          "name": "operator",
          "type": "address"
        },
        {
          "indexed": false,
          "internalType": "bool",
          "name": "approved",
          "type": "bool"
        }
      ],
      "name": "ApprovalForAll",
      "type": "event"
    },
    {
      "anonymous": false,
      "inputs": [
        {
          "indexed": false,
          "internalType": "uint256",
          "name": "timestamp",
          "type": "uint256"
        },
        {
          "indexed": true,
          "internalType": "uint256",
          "name": "id",
          "type": "uint256"
        },
        {
          "indexed": true,
          "internalType": "uint256",
          "name": "totalSupply",
          "type": "uint256"
        },
        {
          "indexed": true,
          "internalType": "address",
          "name": "owner",
          "type": "address"
        },
        {
          "indexed": false,
          "internalType": "string",
          "name": "valuationReport",
          "type": "string"
        },
        {
          "indexed": false,
          "internalType": "string",
          "name": "legalContract",
          "type": "string"
        }
      ],
      "name": "RETokenID",
      "type": "event"
    },
    {
      "anonymous": false,
      "inputs": [
        {
          "indexed": true,
          "internalType": "bytes32",
          "name": "role",
          "type": "bytes32"
        },
        {
          "indexed": true,
          "internalType": "bytes32",
          "name": "previousAdminRole",
          "type": "bytes32"
        },
        {
          "indexed": true,
          "internalType": "bytes32",
          "name": "newAdminRole",
          "type": "bytes32"
        }
      ],
      "name": "RoleAdminChanged",
      "type": "event"
    },
    {
      "anonymous": false,
      "inputs": [
        {
          "indexed": true,
          "internalType": "bytes32",
          "name": "role",
          "type": "bytes32"
        },
        {
          "indexed": true,
          "internalType": "address",
          "name": "account",
          "type": "address"
        },
        {
          "indexed": true,
          "internalType": "address",
          "name": "sender",
          "type": "address"
        }
      ],
      "name": "RoleGranted",
      "type": "event"
    },
    {
      "anonymous": false,
      "inputs": [
        {
          "indexed": true,
          "internalType": "bytes32",
          "name": "role",
          "type": "bytes32"
        },
        {
          "indexed": true,
          "internalType": "address",
          "name": "account",
          "type": "address"
        },
        {
          "indexed": true,
          "internalType": "address",
          "name": "sender",
          "type": "address"
        }
      ],
      "name": "RoleRevoked",
      "type": "event"
    },
    {
      "anonymous": false,
      "inputs": [
        {
          "indexed": true,
          "internalType": "address",
          "name": "operator",
          "type": "address"
        },
        {
          "indexed": true,
          "internalType": "address",
          "name": "from",
          "type": "address"
        },
        {
          "indexed": true,
          "internalType": "address",
          "name": "to",
          "type": "address"
        },
        {
          "indexed": false,
          "internalType": "uint256[]",
          "name": "ids",
          "type": "uint256[]"
        },
        {
          "indexed": false,
          "internalType": "uint256[]",
          "name": "values",
          "type": "uint256[]"
        }
      ],
      "name": "TransferBatch",
      "type": "event"
    },
    {
      "anonymous": false,
      "inputs": [
        {
          "indexed": true,
          "internalType": "address",
          "name": "operator",
          "type": "address"
        },
        {
          "indexed": true,
          "internalType": "address",
          "name": "from",
          "type": "address"
        },
        {
          "indexed": true,
          "internalType": "address",
          "name": "to",
          "type": "address"
        },
        {
          "indexed": false,
          "internalType": "uint256",
          "name": "id",
          "type": "uint256"
        },
        {
          "indexed": false,
          "internalType": "uint256",
          "name": "value",
          "type": "uint256"
        }
      ],
      "name": "TransferSingle",
      "type": "event"
    },
    {
      "anonymous": false,
      "inputs": [
        {
          "indexed": false,
          "internalType": "string",
          "name": "value",
          "type": "string"
        },
        {
          "indexed": true,
          "internalType": "uint256",
          "name": "id",
          "type": "uint256"
        }
      ],
      "name": "URI",
      "type": "event"
    },
    {
      "anonymous": false,
      "inputs": [
        {
          "indexed": true,
          "internalType": "address",
          "name": "newImplementation",
          "type": "address"
        }
      ],
      "name": "Upgraded",
      "type": "event"
    },
    {
      "stateMutability": "payable",
      "type": "fallback",
      "payable": true
    },
    {
      "inputs": [],
      "name": "ADMIN_ROLE",
      "outputs": [
        {
          "internalType": "bytes32",
          "name": "",
          "type": "bytes32"
        }
      ],
      "stateMutability": "view",
      "type": "function",
      "constant": true
    },
    {
      "inputs": [],
      "name": "DEFAULT_ADMIN_ROLE",
      "outputs": [
        {
          "internalType": "bytes32",
          "name": "",
          "type": "bytes32"
        }
      ],
      "stateMutability": "view",
      "type": "function",
      "constant": true
    },
    {
      "inputs": [],
      "name": "MODERATOR",
      "outputs": [
        {
          "internalType": "bytes32",
          "name": "",
          "type": "bytes32"
        }
      ],
      "stateMutability": "view",
      "type": "function",
      "constant": true
    },
    {
      "inputs": [],
      "name": "_implementation",
      "outputs": [
        {
          "internalType": "address",
          "name": "impl",
          "type": "address"
        }
      ],
      "stateMutability": "view",
      "type": "function",
      "constant": true
    },
    {
      "inputs": [],
      "name": "_tokenID",
      "outputs": [
        {
          "internalType": "uint256",
          "name": "",
          "type": "uint256"
        }
      ],
      "stateMutability": "view",
      "type": "function",
      "constant": true
    },
    {
      "inputs": [
        {
          "internalType": "address",
          "name": "account",
          "type": "address"
        },
        {
          "internalType": "uint256",
          "name": "id",
          "type": "uint256"
        }
      ],
      "name": "balanceOf",
      "outputs": [
        {
          "internalType": "uint256",
          "name": "",
          "type": "uint256"
        }
      ],
      "stateMutability": "view",
      "type": "function",
      "constant": true
    },
    {
      "inputs": [
        {
          "internalType": "address[]",
          "name": "accounts",
          "type": "address[]"
        },
        {
          "internalType": "uint256[]",
          "name": "ids",
          "type": "uint256[]"
        }
      ],
      "name": "balanceOfBatch",
      "outputs": [
        {
          "internalType": "uint256[]",
          "name": "",
          "type": "uint256[]"
        }
      ],
      "stateMutability": "view",
      "type": "function",
      "constant": true
    },
    {
      "inputs": [
        {
          "internalType": "bytes32",
          "name": "role",
          "type": "bytes32"
        }
      ],
      "name": "getRoleAdmin",
      "outputs": [
        {
          "internalType": "bytes32",
          "name": "",
          "type": "bytes32"
        }
      ],
      "stateMutability": "view",
      "type": "function",
      "constant": true
    },
    {
      "inputs": [
        {
          "internalType": "bytes32",
          "name": "role",
          "type": "bytes32"
        },
        {
          "internalType": "uint256",
          "name": "index",
          "type": "uint256"
        }
      ],
      "name": "getRoleMember",
      "outputs": [
        {
          "internalType": "address",
          "name": "",
          "type": "address"
        }
      ],
      "stateMutability": "view",
      "type": "function",
      "constant": true
    },
    {
      "inputs": [
        {
          "internalType": "bytes32",
          "name": "role",
          "type": "bytes32"
        }
      ],
      "name": "getRoleMemberCount",
      "outputs": [
        {
          "internalType": "uint256",
          "name": "",
          "type": "uint256"
        }
      ],
      "stateMutability": "view",
      "type": "function",
      "constant": true
    },
    {
      "inputs": [
        {
          "internalType": "bytes32",
          "name": "role",
          "type": "bytes32"
        },
        {
          "internalType": "address",
          "name": "account",
          "type": "address"
        }
      ],
      "name": "grantRole",
      "outputs": [],
      "stateMutability": "nonpayable",
      "type": "function"
    },
    {
      "inputs": [
        {
          "internalType": "bytes32",
          "name": "role",
          "type": "bytes32"
        },
        {
          "internalType": "address",
          "name": "account",
          "type": "address"
        }
      ],
      "name": "hasRole",
      "outputs": [
        {
          "internalType": "bool",
          "name": "",
          "type": "bool"
        }
      ],
      "stateMutability": "view",
      "type": "function",
      "constant": true
    },
    {
      "inputs": [
        {
          "internalType": "address",
          "name": "account",
          "type": "address"
        },
        {
          "internalType": "address",
          "name": "operator",
          "type": "address"
        }
      ],
      "name": "isApprovedForAll",
      "outputs": [
        {
          "internalType": "bool",
          "name": "",
          "type": "bool"
        }
      ],
      "stateMutability": "view",
      "type": "function",
      "constant": true
    },
    {
      "inputs": [
        {
          "internalType": "address",
          "name": "",
          "type": "address"
        },
        {
          "internalType": "address",
          "name": "",
          "type": "address"
        },
        {
          "internalType": "uint256[]",
          "name": "",
          "type": "uint256[]"
        },
        {
          "internalType": "uint256[]",
          "name": "",
          "type": "uint256[]"
        },
        {
          "internalType": "bytes",
          "name": "",
          "type": "bytes"
        }
      ],
      "name": "onERC1155BatchReceived",
      "outputs": [
        {
          "internalType": "bytes4",
          "name": "",
          "type": "bytes4"
        }
      ],
      "stateMutability": "nonpayable",
      "type": "function"
    },
    {
      "inputs": [
        {
          "internalType": "address",
          "name": "",
          "type": "address"
        },
        {
          "internalType": "address",
          "name": "",
          "type": "address"
        },
        {
          "internalType": "uint256",
          "name": "",
          "type": "uint256"
        },
        {
          "internalType": "uint256",
          "name": "",
          "type": "uint256"
        },
        {
          "internalType": "bytes",
          "name": "",
          "type": "bytes"
        }
      ],
      "name": "onERC1155Received",
      "outputs": [
        {
          "internalType": "bytes4",
          "name": "",
          "type": "bytes4"
        }
      ],
      "stateMutability": "nonpayable",
      "type": "function"
    },
    {
      "inputs": [],
      "name": "proxy_contract",
      "outputs": [
        {
          "internalType": "address payable",
          "name": "",
          "type": "address"
        }
      ],
      "stateMutability": "view",
      "type": "function",
      "constant": true
    },
    {
      "inputs": [
        {
          "internalType": "bytes32",
          "name": "role",
          "type": "bytes32"
        },
        {
          "internalType": "address",
          "name": "account",
          "type": "address"
        }
      ],
      "name": "renounceRole",
      "outputs": [],
      "stateMutability": "nonpayable",
      "type": "function"
    },
    {
      "inputs": [
        {
          "internalType": "bytes32",
          "name": "role",
          "type": "bytes32"
        },
        {
          "internalType": "address",
          "name": "account",
          "type": "address"
        }
      ],
      "name": "revokeRole",
      "outputs": [],
      "stateMutability": "nonpayable",
      "type": "function"
    },
    {
      "inputs": [
        {
          "internalType": "address",
          "name": "from",
          "type": "address"
        },
        {
          "internalType": "address",
          "name": "to",
          "type": "address"
        },
        {
          "internalType": "uint256[]",
          "name": "ids",
          "type": "uint256[]"
        },
        {
          "internalType": "uint256[]",
          "name": "amounts",
          "type": "uint256[]"
        },
        {
          "internalType": "bytes",
          "name": "data",
          "type": "bytes"
        }
      ],
      "name": "safeBatchTransferFrom",
      "outputs": [],
      "stateMutability": "nonpayable",
      "type": "function"
    },
    {
      "inputs": [
        {
          "internalType": "address",
          "name": "from",
          "type": "address"
        },
        {
          "internalType": "address",
          "name": "to",
          "type": "address"
        },
        {
          "internalType": "uint256",
          "name": "id",
          "type": "uint256"
        },
        {
          "internalType": "uint256",
          "name": "amount",
          "type": "uint256"
        },
        {
          "internalType": "bytes",
          "name": "data",
          "type": "bytes"
        }
      ],
      "name": "safeTransferFrom",
      "outputs": [],
      "stateMutability": "nonpayable",
      "type": "function"
    },
    {
      "inputs": [
        {
          "internalType": "address",
          "name": "operator",
          "type": "address"
        },
        {
          "internalType": "bool",
          "name": "approved",
          "type": "bool"
        }
      ],
      "name": "setApprovalForAll",
      "outputs": [],
      "stateMutability": "nonpayable",
      "type": "function"
    },
    {
      "inputs": [
        {
          "internalType": "bytes4",
          "name": "interfaceId",
          "type": "bytes4"
        }
      ],
      "name": "supportsInterface",
      "outputs": [
        {
          "internalType": "bool",
          "name": "",
          "type": "bool"
        }
      ],
      "stateMutability": "view",
      "type": "function",
      "constant": true
    },
    {
      "inputs": [
        {
          "internalType": "uint256",
          "name": "",
          "type": "uint256"
        }
      ],
      "name": "uri",
      "outputs": [
        {
          "internalType": "string",
          "name": "",
          "type": "string"
        }
      ],
      "stateMutability": "view",
      "type": "function",
      "constant": true
    },
    {
      "inputs": [],
      "name": "usdt_contract",
      "outputs": [
        {
          "internalType": "address",
          "name": "",
          "type": "address"
        }
      ],
      "stateMutability": "view",
      "type": "function",
      "constant": true
    },
    {
      "stateMutability": "payable",
      "type": "receive",
      "payable": true
    },
    {
      "inputs": [
        {
          "internalType": "address",
          "name": "_c",
          "type": "address"
        }
      ],
      "name": "setUSDTContract",
      "outputs": [],
      "stateMutability": "nonpayable",
      "type": "function"
    },
    {
      "inputs": [
        {
          "internalType": "address",
          "name": "_c",
          "type": "address"
        }
      ],
      "name": "upgradeTo",
      "outputs": [],
      "stateMutability": "nonpayable",
      "type": "function"
    },
    {
      "inputs": [],
      "name": "__Proxy_init",
      "outputs": [],
      "stateMutability": "nonpayable",
      "type": "function"
    }
  ],
  "bytecode": "0x60806040526200001c6101316200003460201b620026351760201c565b610132553480156200002d57600080fd5b5062000042565b600081600001549050919050565b61419f80620000526000396000f3fe60806040526004361061019f5760003560e01c806375e15838116100ec578063ca15c8731161008a578063e985e9c511610064578063e985e9c514610e4f578063eaac40f314610ed6578063f23a6e6114610f27578063f242432a14611076576101ae565b8063ca15c87314610d64578063d547741f14610db3578063d84e803814610e0e576101ae565b8063a217fddf116100c6578063a217fddf14610a4e578063a22cb46514610a79578063ad0cdd8914610ad6578063bc197c8114610b01576101ae565b806375e158381461092d5780639010d07c1461096e57806391d14854146109dd576101ae565b806334b4e625116101595780634e1273f4116101335780634e1273f4146106fc5780634e39b9e1146108aa57806359679b0f146108c157806375b238fc14610902576101ae565b806334b4e6251461062557806336568abe146106505780633659cfe6146106ab576101ae565b8062fdd58e146101b857806301ffc9a7146102275780630e89341c14610297578063248a9ca31461034b5780632eb2c2d61461039a5780632f2ff15d146105ca576101ae565b366101ae576101ac611192565b005b6101b6611192565b005b3480156101c457600080fd5b50610211600480360360408110156101db57600080fd5b81019080803573ffffffffffffffffffffffffffffffffffffffff169060200190929190803590602001909291905050506111ac565b6040518082815260200191505060405180910390f35b34801561023357600080fd5b5061027f6004803603602081101561024a57600080fd5b8101908080357bffffffffffffffffffffffffffffffffffffffffffffffffffffffff1916906020019092919050505061128c565b60405180821515815260200191505060405180910390f35b3480156102a357600080fd5b506102d0600480360360208110156102ba57600080fd5b81019080803590602001909291905050506112f4565b6040518080602001828103825283818151815260200191508051906020019080838360005b838110156103105780820151818401526020810190506102f5565b50505050905090810190601f16801561033d5780820380516001836020036101000a031916815260200191505b509250505060405180910390f35b34801561035757600080fd5b506103846004803603602081101561036e57600080fd5b8101908080359060200190929190505050611398565b6040518082815260200191505060405180910390f35b3480156103a657600080fd5b506105c8600480360360a08110156103bd57600080fd5b81019080803573ffffffffffffffffffffffffffffffffffffffff169060200190929190803573ffffffffffffffffffffffffffffffffffffffff1690602001909291908035906020019064010000000081111561041a57600080fd5b82018360208201111561042c57600080fd5b8035906020019184602083028401116401000000008311171561044e57600080fd5b919080806020026020016040519081016040528093929190818152602001838360200280828437600081840152601f19601f820116905080830192505050505050509192919290803590602001906401000000008111156104ae57600080fd5b8201836020820111156104c057600080fd5b803590602001918460208302840111640100000000831117156104e257600080fd5b919080806020026020016040519081016040528093929190818152602001838360200280828437600081840152601f19601f8201169050808301925050505050505091929192908035906020019064010000000081111561054257600080fd5b82018360208201111561055457600080fd5b8035906020019184600183028401116401000000008311171561057657600080fd5b91908080601f016020809104026020016040519081016040528093929190818152602001838380828437600081840152601f19601f8201169050808301925050505050505091929192905050506113b8565b005b3480156105d657600080fd5b50610623600480360360408110156105ed57600080fd5b8101908080359060200190929190803573ffffffffffffffffffffffffffffffffffffffff169060200190929190505050611843565b005b34801561063157600080fd5b5061063a6118cd565b6040518082815260200191505060405180910390f35b34801561065c57600080fd5b506106a96004803603604081101561067357600080fd5b8101908080359060200190929190803573ffffffffffffffffffffffffffffffffffffffff1690602001909291905050506118f1565b005b3480156106b757600080fd5b506106fa600480360360208110156106ce57600080fd5b81019080803573ffffffffffffffffffffffffffffffffffffffff16906020019092919050505061198a565b005b34801561070857600080fd5b506108536004803603604081101561071f57600080fd5b810190808035906020019064010000000081111561073c57600080fd5b82018360208201111561074e57600080fd5b8035906020019184602083028401116401000000008311171561077057600080fd5b919080806020026020016040519081016040528093929190818152602001838360200280828437600081840152601f19601f820116905080830192505050505050509192919290803590602001906401000000008111156107d057600080fd5b8201836020820111156107e257600080fd5b8035906020019184602083028401116401000000008311171561080457600080fd5b919080806020026020016040519081016040528093929190818152602001838360200280828437600081840152601f19601f820116905080830192505050505050509192919290505050611a15565b6040518080602001828103825283818151815260200191508051906020019060200280838360005b8381101561089657808201518184015260208101905061087b565b505050509050019250505060405180910390f35b3480156108b657600080fd5b506108bf611b27565b005b3480156108cd57600080fd5b506108d6611d7a565b604051808273ffffffffffffffffffffffffffffffffffffffff16815260200191505060405180910390f35b34801561090e57600080fd5b50610917611dab565b6040518082815260200191505060405180910390f35b34801561093957600080fd5b50610942611dcf565b604051808273ffffffffffffffffffffffffffffffffffffffff16815260200191505060405180910390f35b34801561097a57600080fd5b506109b16004803603604081101561099157600080fd5b810190808035906020019092919080359060200190929190505050611df6565b604051808273ffffffffffffffffffffffffffffffffffffffff16815260200191505060405180910390f35b3480156109e957600080fd5b50610a3660048036036040811015610a0057600080fd5b8101908080359060200190929190803573ffffffffffffffffffffffffffffffffffffffff169060200190929190505050611e28565b60405180821515815260200191505060405180910390f35b348015610a5a57600080fd5b50610a63611e5a565b6040518082815260200191505060405180910390f35b348015610a8557600080fd5b50610ad460048036036040811015610a9c57600080fd5b81019080803573ffffffffffffffffffffffffffffffffffffffff169060200190929190803515159060200190929190505050611e61565b005b348015610ae257600080fd5b50610aeb611ffa565b6040518082815260200191505060405180910390f35b348015610b0d57600080fd5b50610d2f600480360360a0811015610b2457600080fd5b81019080803573ffffffffffffffffffffffffffffffffffffffff169060200190929190803573ffffffffffffffffffffffffffffffffffffffff16906020019092919080359060200190640100000000811115610b8157600080fd5b820183602082011115610b9357600080fd5b80359060200191846020830284011164010000000083111715610bb557600080fd5b919080806020026020016040519081016040528093929190818152602001838360200280828437600081840152601f19601f82011690508083019250505050505050919291929080359060200190640100000000811115610c1557600080fd5b820183602082011115610c2757600080fd5b80359060200191846020830284011164010000000083111715610c4957600080fd5b919080806020026020016040519081016040528093929190818152602001838360200280828437600081840152601f19601f82011690508083019250505050505050919291929080359060200190640100000000811115610ca957600080fd5b820183602082011115610cbb57600080fd5b80359060200191846001830284011164010000000083111715610cdd57600080fd5b91908080601f016020809104026020016040519081016040528093929190818152602001838380828437600081840152601f19601f820116905080830192505050505050509192919290505050612001565b60405180827bffffffffffffffffffffffffffffffffffffffffffffffffffffffff1916815260200191505060405180910390f35b348015610d7057600080fd5b50610d9d60048036036020811015610d8757600080fd5b8101908080359060200190929190505050612016565b6040518082815260200191505060405180910390f35b348015610dbf57600080fd5b50610e0c60048036036040811015610dd657600080fd5b8101908080359060200190929190803573ffffffffffffffffffffffffffffffffffffffff16906020019092919050505061203d565b005b348015610e1a57600080fd5b50610e236120c7565b604051808273ffffffffffffffffffffffffffffffffffffffff16815260200191505060405180910390f35b348015610e5b57600080fd5b50610ebe60048036036040811015610e7257600080fd5b81019080803573ffffffffffffffffffffffffffffffffffffffff169060200190929190803573ffffffffffffffffffffffffffffffffffffffff1690602001909291905050506120ee565b60405180821515815260200191505060405180910390f35b348015610ee257600080fd5b50610f2560048036036020811015610ef957600080fd5b81019080803573ffffffffffffffffffffffffffffffffffffffff169060200190929190505050612182565b005b348015610f3357600080fd5b50611041600480360360a0811015610f4a57600080fd5b81019080803573ffffffffffffffffffffffffffffffffffffffff169060200190929190803573ffffffffffffffffffffffffffffffffffffffff169060200190929190803590602001909291908035906020019092919080359060200190640100000000811115610fbb57600080fd5b820183602082011115610fcd57600080fd5b80359060200191846001830284011164010000000083111715610fef57600080fd5b91908080601f016020809104026020016040519081016040528093929190818152602001838380828437600081840152601f19601f8201169050808301925050505050505091929192905050506122ab565b60405180827bffffffffffffffffffffffffffffffffffffffffffffffffffffffff1916815260200191505060405180910390f35b34801561108257600080fd5b50611190600480360360a081101561109957600080fd5b81019080803573ffffffffffffffffffffffffffffffffffffffff169060200190929190803573ffffffffffffffffffffffffffffffffffffffff16906020019092919080359060200190929190803590602001909291908035906020019064010000000081111561110a57600080fd5b82018360208201111561111c57600080fd5b8035906020019184600183028401116401000000008311171561113e57600080fd5b91908080601f016020809104026020016040519081016040528093929190818152602001838380828437600081840152601f19601f8201169050808301925050505050505091929192905050506122c0565b005b61119a612643565b6111aa6111a5611d7a565b612645565b565b60008073ffffffffffffffffffffffffffffffffffffffff168373ffffffffffffffffffffffffffffffffffffffff161415611233576040517f08c379a000000000000000000000000000000000000000000000000000000000815260040180806020018281038252602b815260200180613f0b602b913960400191505060405180910390fd5b6097600083815260200190815260200160002060008473ffffffffffffffffffffffffffffffffffffffff1673ffffffffffffffffffffffffffffffffffffffff16815260200190815260200160002054905092915050565b600060656000837bffffffffffffffffffffffffffffffffffffffffffffffffffffffff19167bffffffffffffffffffffffffffffffffffffffffffffffffffffffff1916815260200190815260200160002060009054906101000a900460ff169050919050565b606060998054600181600116156101000203166002900480601f01602080910402602001604051908101604052809291908181526020018280546001816001161561010002031660029004801561138c5780601f106113615761010080835404028352916020019161138c565b820191906000526020600020905b81548152906001019060200180831161136f57829003601f168201915b50505050509050919050565b600060336000838152602001908152602001600020600201549050919050565b8151835114611412576040517f08c379a00000000000000000000000000000000000000000000000000000000081526004018080602001828103825260288152602001806141136028913960400191505060405180910390fd5b600073ffffffffffffffffffffffffffffffffffffffff168473ffffffffffffffffffffffffffffffffffffffff161415611498576040517f08c379a0000000000000000000000000000000000000000000000000000000008152600401808060200182810382526025815260200180613f8f6025913960400191505060405180910390fd5b6114a061266b565b73ffffffffffffffffffffffffffffffffffffffff168573ffffffffffffffffffffffffffffffffffffffff1614806114e657506114e5856114e061266b565b6120ee565b5b61153b576040517f08c379a0000000000000000000000000000000000000000000000000000000008152600401808060200182810382526032815260200180613fb46032913960400191505060405180910390fd5b600061154561266b565b9050611555818787878787612673565b60005b845181101561172657600085828151811061156f57fe5b60200260200101519050600085838151811061158757fe5b6020026020010151905061160e816040518060600160405280602a8152602001614036602a91396097600086815260200190815260200160002060008d73ffffffffffffffffffffffffffffffffffffffff1673ffffffffffffffffffffffffffffffffffffffff1681526020019081526020016000205461267b9092919063ffffffff16565b6097600084815260200190815260200160002060008b73ffffffffffffffffffffffffffffffffffffffff1673ffffffffffffffffffffffffffffffffffffffff168152602001908152602001600020819055506116c5816097600085815260200190815260200160002060008b73ffffffffffffffffffffffffffffffffffffffff1673ffffffffffffffffffffffffffffffffffffffff1681526020019081526020016000205461273590919063ffffffff16565b6097600084815260200190815260200160002060008a73ffffffffffffffffffffffffffffffffffffffff1673ffffffffffffffffffffffffffffffffffffffff168152602001908152602001600020819055505050806001019050611558565b508473ffffffffffffffffffffffffffffffffffffffff168673ffffffffffffffffffffffffffffffffffffffff168273ffffffffffffffffffffffffffffffffffffffff167f4a39dc06d4c0dbc64b70af90fd698a233a518aa5d07e595d983b8c0526c8f7fb8787604051808060200180602001838103835285818151815260200191508051906020019060200280838360005b838110156117d65780820151818401526020810190506117bb565b50505050905001838103825284818151815260200191508051906020019060200280838360005b838110156118185780820151818401526020810190506117fd565b5050505090500194505050505060405180910390a461183b8187878787876127bd565b505050505050565b61186a603360008481526020019081526020016000206002015461186561266b565b611e28565b6118bf576040517f08c379a000000000000000000000000000000000000000000000000000000000815260040180806020018281038252602f815260200180613edc602f913960400191505060405180910390fd5b6118c98282612b4c565b5050565b7f58c8e11deab7910e89bf18a1168c6e6ef28748f00fd3094549459f01cec5e0aa81565b6118f961266b565b73ffffffffffffffffffffffffffffffffffffffff168173ffffffffffffffffffffffffffffffffffffffff161461197c576040517f08c379a000000000000000000000000000000000000000000000000000000000815260040180806020018281038252602f81526020018061413b602f913960400191505060405180910390fd5b6119868282612be0565b5050565b6119b47fa49807205ce4d355092ef5a8a18f56e8913cf4a201fbe287825b095693c2177533611e28565b611a09576040517f08c379a00000000000000000000000000000000000000000000000000000000081526004018080602001828103825260268152602001806140ed6026913960400191505060405180910390fd5b611a1281612c74565b50565b60608151835114611a71576040517f08c379a00000000000000000000000000000000000000000000000000000000081526004018080602001828103825260298152602001806140c46029913960400191505060405180910390fd5b6060835167ffffffffffffffff81118015611a8b57600080fd5b50604051908082528060200260200182016040528015611aba5781602001602082028036833780820191505090505b50905060005b8451811015611b1c57611af9858281518110611ad857fe5b6020026020010151858381518110611aec57fe5b60200260200101516111ac565b828281518110611b0557fe5b602002602001018181525050806001019050611ac0565b508091505092915050565b600060019054906101000a900460ff1680611b465750611b45612cc3565b5b80611b5c575060008054906101000a900460ff16155b611bb1576040517f08c379a000000000000000000000000000000000000000000000000000000000815260040180806020018281038252602e815260200180613fe6602e913960400191505060405180910390fd5b60008060019054906101000a900460ff161590508015611c01576001600060016101000a81548160ff02191690831515021790555060016000806101000a81548160ff0219169083151502179055505b3061012f60006101000a81548173ffffffffffffffffffffffffffffffffffffffff021916908373ffffffffffffffffffffffffffffffffffffffff16021790555061012f60009054906101000a900473ffffffffffffffffffffffffffffffffffffffff1661013060006101000a81548173ffffffffffffffffffffffffffffffffffffffff021916908373ffffffffffffffffffffffffffffffffffffffff160217905550611cb0612cd4565b611cfa7fa49807205ce4d355092ef5a8a18f56e8913cf4a201fbe287825b095693c217757f58c8e11deab7910e89bf18a1168c6e6ef28748f00fd3094549459f01cec5e0aa612de2565b611d247f58c8e11deab7910e89bf18a1168c6e6ef28748f00fd3094549459f01cec5e0aa33612e46565b611d4e7fa49807205ce4d355092ef5a8a18f56e8913cf4a201fbe287825b095693c2177533612e46565b611d56612e54565b8015611d775760008060016101000a81548160ff0219169083151502179055505b50565b6000807f360894a13ba1a3210667c828492db98dca3e2076cc3735a920a3ca505d382bbc60001b9050805491505090565b7fa49807205ce4d355092ef5a8a18f56e8913cf4a201fbe287825b095693c2177581565b61012d60009054906101000a900473ffffffffffffffffffffffffffffffffffffffff1681565b6000611e208260336000868152602001908152602001600020600001612f7390919063ffffffff16565b905092915050565b6000611e528260336000868152602001908152602001600020600001612f8d90919063ffffffff16565b905092915050565b6000801b81565b8173ffffffffffffffffffffffffffffffffffffffff16611e8061266b565b73ffffffffffffffffffffffffffffffffffffffff161415611eed576040517f08c379a000000000000000000000000000000000000000000000000000000000815260040180806020018281038252602981526020018061409b6029913960400191505060405180910390fd5b8060986000611efa61266b565b73ffffffffffffffffffffffffffffffffffffffff1673ffffffffffffffffffffffffffffffffffffffff16815260200190815260200160002060008473ffffffffffffffffffffffffffffffffffffffff1673ffffffffffffffffffffffffffffffffffffffff16815260200190815260200160002060006101000a81548160ff0219169083151502179055508173ffffffffffffffffffffffffffffffffffffffff16611fa761266b565b73ffffffffffffffffffffffffffffffffffffffff167f17307eab39ab6107e8899845ad3d59bd9653f200f220920489ca2b5937696c318360405180821515815260200191505060405180910390a35050565b6101325481565b600063bc197c8160e01b905095945050505050565b600061203660336000848152602001908152602001600020600001612fbd565b9050919050565b612064603360008481526020019081526020016000206002015461205f61266b565b611e28565b6120b9576040517f08c379a0000000000000000000000000000000000000000000000000000000008152600401808060200182810382526030815260200180613f5f6030913960400191505060405180910390fd5b6120c38282612be0565b5050565b61012f60009054906101000a900473ffffffffffffffffffffffffffffffffffffffff1681565b6000609860008473ffffffffffffffffffffffffffffffffffffffff1673ffffffffffffffffffffffffffffffffffffffff16815260200190815260200160002060008373ffffffffffffffffffffffffffffffffffffffff1673ffffffffffffffffffffffffffffffffffffffff16815260200190815260200160002060009054906101000a900460ff16905092915050565b6121ac7fa49807205ce4d355092ef5a8a18f56e8913cf4a201fbe287825b095693c2177533611e28565b612201576040517f08c379a00000000000000000000000000000000000000000000000000000000081526004018080602001828103825260268152602001806140ed6026913960400191505060405180910390fd5b8061012d60006101000a81548173ffffffffffffffffffffffffffffffffffffffff021916908373ffffffffffffffffffffffffffffffffffffffff16021790555061012d60009054906101000a900473ffffffffffffffffffffffffffffffffffffffff1661012e60006101000a81548173ffffffffffffffffffffffffffffffffffffffff021916908373ffffffffffffffffffffffffffffffffffffffff16021790555050565b600063f23a6e6160e01b905095945050505050565b600073ffffffffffffffffffffffffffffffffffffffff168473ffffffffffffffffffffffffffffffffffffffff161415612346576040517f08c379a0000000000000000000000000000000000000000000000000000000008152600401808060200182810382526025815260200180613f8f6025913960400191505060405180910390fd5b61234e61266b565b73ffffffffffffffffffffffffffffffffffffffff168573ffffffffffffffffffffffffffffffffffffffff16148061239457506123938561238e61266b565b6120ee565b5b6123e9576040517f08c379a0000000000000000000000000000000000000000000000000000000008152600401808060200182810382526029815260200180613f366029913960400191505060405180910390fd5b60006123f361266b565b905061241381878761240488612fd2565b61240d88612fd2565b87612673565b612490836040518060600160405280602a8152602001614036602a91396097600088815260200190815260200160002060008a73ffffffffffffffffffffffffffffffffffffffff1673ffffffffffffffffffffffffffffffffffffffff1681526020019081526020016000205461267b9092919063ffffffff16565b6097600086815260200190815260200160002060008873ffffffffffffffffffffffffffffffffffffffff1673ffffffffffffffffffffffffffffffffffffffff16815260200190815260200160002081905550612547836097600087815260200190815260200160002060008873ffffffffffffffffffffffffffffffffffffffff1673ffffffffffffffffffffffffffffffffffffffff1681526020019081526020016000205461273590919063ffffffff16565b6097600086815260200190815260200160002060008773ffffffffffffffffffffffffffffffffffffffff1673ffffffffffffffffffffffffffffffffffffffff168152602001908152602001600020819055508473ffffffffffffffffffffffffffffffffffffffff168673ffffffffffffffffffffffffffffffffffffffff168273ffffffffffffffffffffffffffffffffffffffff167fc3d58168c5ae7397731d063d5bbf3d657854427343f4c083240f7aacaa2d0f628787604051808381526020018281526020019250505060405180910390a461262d818787878787613042565b505050505050565b600081600001549050919050565b565b3660008037600080366000845af43d6000803e8060008114612666573d6000f35b3d6000fd5b600033905090565b505050505050565b6000838311158290612728576040517f08c379a00000000000000000000000000000000000000000000000000000000081526004018080602001828103825283818151815260200191508051906020019080838360005b838110156126ed5780820151818401526020810190506126d2565b50505050905090810190601f16801561271a5780820380516001836020036101000a031916815260200191505b509250505060405180910390fd5b5082840390509392505050565b6000808284019050838110156127b3576040517f08c379a000000000000000000000000000000000000000000000000000000000815260040180806020018281038252601b8152602001807f536166654d6174683a206164646974696f6e206f766572666c6f77000000000081525060200191505060405180910390fd5b8091505092915050565b6127dc8473ffffffffffffffffffffffffffffffffffffffff1661334f565b15612b44578373ffffffffffffffffffffffffffffffffffffffff1663bc197c8187878686866040518663ffffffff1660e01b8152600401808673ffffffffffffffffffffffffffffffffffffffff1681526020018573ffffffffffffffffffffffffffffffffffffffff168152602001806020018060200180602001848103845287818151815260200191508051906020019060200280838360005b83811015612894578082015181840152602081019050612879565b50505050905001848103835286818151815260200191508051906020019060200280838360005b838110156128d65780820151818401526020810190506128bb565b50505050905001848103825285818151815260200191508051906020019080838360005b838110156129155780820151818401526020810190506128fa565b50505050905090810190601f1680156129425780820380516001836020036101000a031916815260200191505b5098505050505050505050602060405180830381600087803b15801561296757600080fd5b505af192505050801561299b57506040513d602081101561298757600080fd5b810190808051906020019092919050505060015b612aa5576129a7613da7565b806129b25750612a54565b806040517f08c379a00000000000000000000000000000000000000000000000000000000081526004018080602001828103825283818151815260200191508051906020019080838360005b83811015612a195780820151818401526020810190506129fe565b50505050905090810190601f168015612a465780820380516001836020036101000a031916815260200191505b509250505060405180910390fd5b6040517f08c379a0000000000000000000000000000000000000000000000000000000008152600401808060200182810382526034815260200180613e5e6034913960400191505060405180910390fd5b63bc197c8160e01b7bffffffffffffffffffffffffffffffffffffffffffffffffffffffff1916817bffffffffffffffffffffffffffffffffffffffffffffffffffffffff191614612b42576040517f08c379a0000000000000000000000000000000000000000000000000000000008152600401808060200182810382526028815260200180613eb46028913960400191505060405180910390fd5b505b505050505050565b612b74816033600085815260200190815260200160002060000161336290919063ffffffff16565b15612bdc57612b8161266b565b73ffffffffffffffffffffffffffffffffffffffff168173ffffffffffffffffffffffffffffffffffffffff16837f2f8788117e7eff1d82e926ec794901d17c78024a50270940304540a733656f0d60405160405180910390a45b5050565b612c08816033600085815260200190815260200160002060000161339290919063ffffffff16565b15612c7057612c1561266b565b73ffffffffffffffffffffffffffffffffffffffff168173ffffffffffffffffffffffffffffffffffffffff16837ff6391f5c32d9c69d2a47ea670b442974b53935d1edc7fd64eb21e047a839171b60405160405180910390a45b5050565b612c7d816133c2565b8073ffffffffffffffffffffffffffffffffffffffff167fbc7cd75a20ee27fd9adebab32041f755214dbc6bffa90cc0225b39da2e5c2d3b60405160405180910390a250565b6000612cce3061334f565b15905090565b600060019054906101000a900460ff1680612cf35750612cf2612cc3565b5b80612d09575060008054906101000a900460ff16155b612d5e576040517f08c379a000000000000000000000000000000000000000000000000000000000815260040180806020018281038252602e815260200180613fe6602e913960400191505060405180910390fd5b60008060019054906101000a900460ff161590508015612dae576001600060016101000a81548160ff02191690831515021790555060016000806101000a81548160ff0219169083151502179055505b612db661344f565b612dbe61354d565b8015612ddf5760008060016101000a81548160ff0219169083151502179055505b50565b806033600084815260200190815260200160002060020154837fbd79b86ffe0ab8e8776151514217cd7cacd52c909f66475c3af44e129f0b00ff60405160405180910390a48060336000848152602001908152602001600020600201819055505050565b612e508282612b4c565b5050565b600060019054906101000a900460ff1680612e735750612e72612cc3565b5b80612e89575060008054906101000a900460ff16155b612ede576040517f08c379a000000000000000000000000000000000000000000000000000000000815260040180806020018281038252602e815260200180613fe6602e913960400191505060405180910390fd5b60008060019054906101000a900460ff161590508015612f2e576001600060016101000a81548160ff02191690831515021790555060016000806101000a81548160ff0219169083151502179055505b612f4f6040518060600160405280602281526020016140146022913961364b565b8015612f705760008060016101000a81548160ff0219169083151502179055505b50565b6000612f828360000183613763565b60001c905092915050565b6000612fb5836000018373ffffffffffffffffffffffffffffffffffffffff1660001b6137e6565b905092915050565b6000612fcb82600001613809565b9050919050565b606080600167ffffffffffffffff81118015612fed57600080fd5b5060405190808252806020026020018201604052801561301c5781602001602082028036833780820191505090505b509050828160008151811061302d57fe5b60200260200101818152505080915050919050565b6130618473ffffffffffffffffffffffffffffffffffffffff1661334f565b15613347578373ffffffffffffffffffffffffffffffffffffffff1663f23a6e6187878686866040518663ffffffff1660e01b8152600401808673ffffffffffffffffffffffffffffffffffffffff1681526020018573ffffffffffffffffffffffffffffffffffffffff16815260200184815260200183815260200180602001828103825283818151815260200191508051906020019080838360005b8381101561311a5780820151818401526020810190506130ff565b50505050905090810190601f1680156131475780820380516001836020036101000a031916815260200191505b509650505050505050602060405180830381600087803b15801561316a57600080fd5b505af192505050801561319e57506040513d602081101561318a57600080fd5b810190808051906020019092919050505060015b6132a8576131aa613da7565b806131b55750613257565b806040517f08c379a00000000000000000000000000000000000000000000000000000000081526004018080602001828103825283818151815260200191508051906020019080838360005b8381101561321c578082015181840152602081019050613201565b50505050905090810190601f1680156132495780820380516001836020036101000a031916815260200191505b509250505060405180910390fd5b6040517f08c379a0000000000000000000000000000000000000000000000000000000008152600401808060200182810382526034815260200180613e5e6034913960400191505060405180910390fd5b63f23a6e6160e01b7bffffffffffffffffffffffffffffffffffffffffffffffffffffffff1916817bffffffffffffffffffffffffffffffffffffffffffffffffffffffff191614613345576040517f08c379a0000000000000000000000000000000000000000000000000000000008152600401808060200182810382526028815260200180613eb46028913960400191505060405180910390fd5b505b505050505050565b600080823b905060008111915050919050565b600061338a836000018373ffffffffffffffffffffffffffffffffffffffff1660001b61381a565b905092915050565b60006133ba836000018373ffffffffffffffffffffffffffffffffffffffff1660001b61388a565b905092915050565b6133cb81613972565b613420576040517f08c379a000000000000000000000000000000000000000000000000000000000815260040180806020018281038252603b815260200180614060603b913960400191505060405180910390fd5b60007f360894a13ba1a3210667c828492db98dca3e2076cc3735a920a3ca505d382bbc60001b90508181555050565b600060019054906101000a900460ff168061346e575061346d612cc3565b5b80613484575060008054906101000a900460ff16155b6134d9576040517f08c379a000000000000000000000000000000000000000000000000000000000815260040180806020018281038252602e815260200180613fe6602e913960400191505060405180910390fd5b60008060019054906101000a900460ff161590508015613529576001600060016101000a81548160ff02191690831515021790555060016000806101000a81548160ff0219169083151502179055505b801561354a5760008060016101000a81548160ff0219169083151502179055505b50565b600060019054906101000a900460ff168061356c575061356b612cc3565b5b80613582575060008054906101000a900460ff16155b6135d7576040517f08c379a000000000000000000000000000000000000000000000000000000000815260040180806020018281038252602e815260200180613fe6602e913960400191505060405180910390fd5b60008060019054906101000a900460ff161590508015613627576001600060016101000a81548160ff02191690831515021790555060016000806101000a81548160ff0219169083151502179055505b80156136485760008060016101000a81548160ff0219169083151502179055505b50565b600060019054906101000a900460ff168061366a5750613669612cc3565b5b80613680575060008054906101000a900460ff16155b6136d5576040517f08c379a000000000000000000000000000000000000000000000000000000000815260040180806020018281038252602e815260200180613fe6602e913960400191505060405180910390fd5b60008060019054906101000a900460ff161590508015613725576001600060016101000a81548160ff02191690831515021790555060016000806101000a81548160ff0219169083151502179055505b61372d61344f565b613735613985565b61373e82613a93565b801561375f5760008060016101000a81548160ff0219169083151502179055505b5050565b6000818360000180549050116137c4576040517f08c379a0000000000000000000000000000000000000000000000000000000008152600401808060200182810382526022815260200180613e926022913960400191505060405180910390fd5b8260000182815481106137d357fe5b9060005260206000200154905092915050565b600080836001016000848152602001908152602001600020541415905092915050565b600081600001805490509050919050565b600061382683836137e6565b61387f578260000182908060018154018082558091505060019003906000526020600020016000909190919091505582600001805490508360010160008481526020019081526020016000208190555060019050613884565b600090505b92915050565b6000808360010160008481526020019081526020016000205490506000811461396657600060018203905060006001866000018054905003905060008660000182815481106138d557fe5b90600052602060002001549050808760000184815481106138f257fe5b906000526020600020018190555060018301876001016000838152602001908152602001600020819055508660000180548061392a57fe5b6001900381819060005260206000200160009055905586600101600087815260200190815260200160002060009055600194505050505061396c565b60009150505b92915050565b600080823b905060008111915050919050565b600060019054906101000a900460ff16806139a457506139a3612cc3565b5b806139ba575060008054906101000a900460ff16155b613a0f576040517f08c379a000000000000000000000000000000000000000000000000000000000815260040180806020018281038252602e815260200180613fe6602e913960400191505060405180910390fd5b60008060019054906101000a900460ff161590508015613a5f576001600060016101000a81548160ff02191690831515021790555060016000806101000a81548160ff0219169083151502179055505b613a6f6301ffc9a760e01b613bbb565b8015613a905760008060016101000a81548160ff0219169083151502179055505b50565b600060019054906101000a900460ff1680613ab25750613ab1612cc3565b5b80613ac8575060008054906101000a900460ff16155b613b1d576040517f08c379a000000000000000000000000000000000000000000000000000000000815260040180806020018281038252602e815260200180613fe6602e913960400191505060405180910390fd5b60008060019054906101000a900460ff161590508015613b6d576001600060016101000a81548160ff02191690831515021790555060016000806101000a81548160ff0219169083151502179055505b613b7682613cc4565b613b8663d9b67a2660e01b613bbb565b613b96630e89341c60e01b613bbb565b8015613bb75760008060016101000a81548160ff0219169083151502179055505b5050565b63ffffffff60e01b817bffffffffffffffffffffffffffffffffffffffffffffffffffffffff19161415613c57576040517f08c379a000000000000000000000000000000000000000000000000000000000815260040180806020018281038252601c8152602001807f4552433136353a20696e76616c696420696e746572666163652069640000000081525060200191505060405180910390fd5b600160656000837bffffffffffffffffffffffffffffffffffffffffffffffffffffffff19167bffffffffffffffffffffffffffffffffffffffffffffffffffffffff1916815260200190815260200160002060006101000a81548160ff02191690831515021790555050565b8060999080519060200190613cda929190613cde565b5050565b828054600181600116156101000203166002900490600052602060002090601f016020900481019282613d145760008555613d5b565b82601f10613d2d57805160ff1916838001178555613d5b565b82800160010185558215613d5b579182015b82811115613d5a578251825591602001919060010190613d3f565b5b509050613d689190613d6c565b5090565b5b80821115613d85576000816000905550600101613d6d565b5090565b6000601f19601f8301169050919050565b60008160e01c9050919050565b600060443d1015613db757613e5a565b60046000803e613dc8600051613d9a565b6308c379a08114613dd95750613e5a565b60405160043d036004823e80513d602482011167ffffffffffffffff82111715613e0557505050613e5a565b808201805167ffffffffffffffff811115613e24575050505050613e5a565b8060208301013d8501811115613e3f57505050505050613e5a565b613e4882613d89565b60208401016040528296505050505050505b9056fe455243313135353a207472616e7366657220746f206e6f6e2045524331313535526563656976657220696d706c656d656e746572456e756d657261626c655365743a20696e646578206f7574206f6620626f756e6473455243313135353a204552433131353552656365697665722072656a656374656420746f6b656e73416363657373436f6e74726f6c3a2073656e646572206d75737420626520616e2061646d696e20746f206772616e74455243313135353a2062616c616e636520717565727920666f7220746865207a65726f2061646472657373455243313135353a2063616c6c6572206973206e6f74206f776e6572206e6f7220617070726f766564416363657373436f6e74726f6c3a2073656e646572206d75737420626520616e2061646d696e20746f207265766f6b65455243313135353a207472616e7366657220746f20746865207a65726f2061646472657373455243313135353a207472616e736665722063616c6c6572206973206e6f74206f776e6572206e6f7220617070726f766564496e697469616c697a61626c653a20636f6e747261637420697320616c726561647920696e697469616c697a656468747470733a2f2f746f6b656e2d63646e2d646f6d61696e2f7b69647d2e6a736f6e455243313135353a20696e73756666696369656e742062616c616e636520666f72207472616e7366657243616e6e6f742073657420612070726f787920696d706c656d656e746174696f6e20746f2061206e6f6e2d636f6e74726163742061646472657373455243313135353a2073657474696e6720617070726f76616c2073746174757320666f722073656c66455243313135353a206163636f756e747320616e6420696473206c656e677468206d69736d617463684163636573732044656e6965643a2043616c6c6572206973206e6f74207468652041646d696e455243313135353a2069647320616e6420616d6f756e7473206c656e677468206d69736d61746368416363657373436f6e74726f6c3a2063616e206f6e6c792072656e6f756e636520726f6c657320666f722073656c66a2646970667358221220d5df162a23f9aecb47cbab2db8c8ea3c93d692f7121843c8db219e25501e681b64736f6c63430007040033",
  "immutableReferences": {},
  "source": "// SPDX-License-Identifier: MIT\r\n\r\npragma solidity ^0.7.4;\r\n\r\nimport \"./libraries/BaseUpgradeabilityProxy.sol\";\r\nimport \"./libraries/AccessControlUpgradeable.sol\";\r\nimport './RETokenStorage.sol';\r\n\r\n/**\r\n * @title RETokenProxy\r\n * @dev This contract builds on the BaseUpgradeabilityProxy contract with an authorization\r\n * mechanism for admin tasks and customized features.\r\n */\r\ncontract RETokenProxy is BaseUpgradeabilityProxy, AccessControlUpgradeable, RETokenStorage {\r\n    \r\n    /**\r\n     * @dev Set `_c` as `usdt_contract` and set external call instance `usdtContract`.\r\n     *\r\n     * Can only be called by addresses with ADMIN_ROLE access.\r\n     *\r\n     * @param _c - USDT Contract address\r\n     */  \r\n    function setUSDTContract(address _c) external onlyAdmin {\r\n        usdt_contract = _c;\r\n        usdtContract = USDT(usdt_contract);\r\n    }\r\n\r\n    /**\r\n     * @dev Set `_c` to `IMPLEMENTATION_SLOT` by calling BaseUpgradeabilityProxy _upgradeTo function.\r\n     *\r\n     * Can only be called by addresses with ADMIN_ROLE access.\r\n     *\r\n     * @param _c - USDT Contract address\r\n     */  \r\n    function upgradeTo(address _c) external onlyAdmin {\r\n        _upgradeTo(_c);\r\n    }\r\n\r\n    /**\r\n     * @dev Set current contract address as `proxy_contract`, external call instance `proxyContract`.\r\n     * \r\n     * Set MODERATOR as admin of ADMIN_ROLE access by calling AccessControlUpgradeable _setRoleAdmin function.\r\n     * Give deployer access for MODERATOR and ADMIN_ROLE by calling AccessControlUpgradeable _setRole function.\r\n     * \r\n     * Construct ERC1155 token with URI by calling ERC1155 __ERC1155_init function.\r\n     */    \r\n    function __Proxy_init() public initializer {\r\n        proxy_contract = address(this);\r\n        proxyContract = RETokenProxy(proxy_contract);\r\n        __AccessControl_init();\r\n        _setRoleAdmin(ADMIN_ROLE, MODERATOR);\r\n        _setupRole(MODERATOR, msg.sender);\r\n        _setupRole(ADMIN_ROLE, msg.sender);\r\n        __ERC1155_init();\r\n    }\r\n    \r\n    /**\r\n     * @dev Throws if called by any account without ADMIN_ROLE access.\r\n     */\r\n    modifier onlyAdmin() {\r\n        require(hasRole(ADMIN_ROLE, msg.sender), \"Access Denied: Caller is not the Admin\");\r\n        _;\r\n    }\r\n\r\n}",
  "sourcePath": "C:\\Users\\seexy\\Downloads\\Project\\solidity\\v4\\contracts\\RETokenProxy.sol",
  "compiler": {
    "name": "solc",
    "version": "0.7.4+commit.3f05b770.Emscripten.clang"
  },
  "schemaVersion": "3.3.4",
  "updatedAt": "2021-03-18T07:37:52.439Z",
  "networkType": "ethereum",
  "devdoc": {
    "details": "This contract builds on the BaseUpgradeabilityProxy contract with an authorization mechanism for admin tasks and customized features.",
    "kind": "dev",
    "methods": {
      "__Proxy_init()": {
        "details": "Set current contract address as `proxy_contract`, external call instance `proxyContract`.  Set MODERATOR as admin of ADMIN_ROLE access by calling AccessControlUpgradeable _setRoleAdmin function. Give deployer access for MODERATOR and ADMIN_ROLE by calling AccessControlUpgradeable _setRole function.  Construct ERC1155 token with URI by calling ERC1155 __ERC1155_init function."
      },
      "_implementation()": {
        "details": "Returns the current implementation.",
        "returns": {
          "impl": "Address of the current implementation"
        }
      },
      "balanceOf(address,uint256)": {
        "details": "See {IERC1155-balanceOf}. Requirements: - `account` cannot be the zero address."
      },
      "balanceOfBatch(address[],uint256[])": {
        "details": "See {IERC1155-balanceOfBatch}. Requirements: - `accounts` and `ids` must have the same length."
      },
      "getRoleAdmin(bytes32)": {
        "details": "Returns the admin role that controls `role`. See {grantRole} and {revokeRole}. To change a role's admin, use {_setRoleAdmin}."
      },
      "getRoleMember(bytes32,uint256)": {
        "details": "Returns one of the accounts that have `role`. `index` must be a value between 0 and {getRoleMemberCount}, non-inclusive. Role bearers are not sorted in any particular way, and their ordering may change at any point. WARNING: When using {getRoleMember} and {getRoleMemberCount}, make sure you perform all queries on the same block. See the following https://forum.openzeppelin.com/t/iterating-over-elements-on-enumerableset-in-openzeppelin-contracts/2296[forum post] for more information."
      },
      "getRoleMemberCount(bytes32)": {
        "details": "Returns the number of accounts that have `role`. Can be used together with {getRoleMember} to enumerate all bearers of a role."
      },
      "grantRole(bytes32,address)": {
        "details": "Grants `role` to `account`. If `account` had not been already granted `role`, emits a {RoleGranted} event. Requirements: - the caller must have ``role``'s admin role."
      },
      "hasRole(bytes32,address)": {
        "details": "Returns `true` if `account` has been granted `role`."
      },
      "isApprovedForAll(address,address)": {
        "details": "See {IERC1155-isApprovedForAll}."
      },
      "renounceRole(bytes32,address)": {
        "details": "Revokes `role` from the calling account. Roles are often managed via {grantRole} and {revokeRole}: this function's purpose is to provide a mechanism for accounts to lose their privileges if they are compromised (such as when a trusted device is misplaced). If the calling account had been granted `role`, emits a {RoleRevoked} event. Requirements: - the caller must be `account`."
      },
      "revokeRole(bytes32,address)": {
        "details": "Revokes `role` from `account`. If `account` had been granted `role`, emits a {RoleRevoked} event. Requirements: - the caller must have ``role``'s admin role."
      },
      "safeBatchTransferFrom(address,address,uint256[],uint256[],bytes)": {
        "details": "See {IERC1155-safeBatchTransferFrom}."
      },
      "safeTransferFrom(address,address,uint256,uint256,bytes)": {
        "details": "See {IERC1155-safeTransferFrom}."
      },
      "setApprovalForAll(address,bool)": {
        "details": "See {IERC1155-setApprovalForAll}."
      },
      "setUSDTContract(address)": {
        "details": "Set `_c` as `usdt_contract` and set external call instance `usdtContract`. Can only be called by addresses with ADMIN_ROLE access.",
        "params": {
          "_c": "- USDT Contract address"
        }
      },
      "supportsInterface(bytes4)": {
        "details": "See {IERC165-supportsInterface}. Time complexity O(1), guaranteed to always use less than 30 000 gas."
      },
      "upgradeTo(address)": {
        "details": "Set `_c` to `IMPLEMENTATION_SLOT` by calling BaseUpgradeabilityProxy _upgradeTo function. Can only be called by addresses with ADMIN_ROLE access.",
        "params": {
          "_c": "- USDT Contract address"
        }
      },
      "uri(uint256)": {
        "details": "See {IERC1155MetadataURI-uri}. This implementation returns the same URI for *all* token types. It relies on the token type ID substitution mechanism https://eips.ethereum.org/EIPS/eip-1155#metadata[defined in the EIP]. Clients calling this function must replace the `\\{id\\}` substring with the actual token type ID."
      }
    },
    "title": "RETokenProxy",
    "version": 1
  },
  "userdoc": {
    "kind": "user",
    "methods": {},
    "version": 1
  }
}