{
  "contractName": "RETokenStorageOne",
  "abi": [
    {
      "anonymous": false,
      "inputs": [
        {
          "indexed": true,
          "internalType": "address",
          "name": "account",
          "type": "address"
        },
        {
          "indexed": true,
          "internalType": "address",
          "name": "operator",
          "type": "address"
        },
        {
          "indexed": false,
          "internalType": "bool",
          "name": "approved",
          "type": "bool"
        }
      ],
      "name": "ApprovalForAll",
      "type": "event"
    },
    {
      "anonymous": false,
      "inputs": [
        {
          "indexed": true,
          "internalType": "uint256",
          "name": "id",
          "type": "uint256"
        },
        {
          "indexed": true,
          "internalType": "uint256",
          "name": "totalSupply",
          "type": "uint256"
        },
        {
          "indexed": true,
          "internalType": "address",
          "name": "owner",
          "type": "address"
        },
        {
          "indexed": false,
          "internalType": "string",
          "name": "valuationReport",
          "type": "string"
        },
        {
          "indexed": false,
          "internalType": "string",
          "name": "legalContract",
          "type": "string"
        }
      ],
      "name": "RETokenID",
      "type": "event"
    },
    {
      "anonymous": false,
      "inputs": [
        {
          "indexed": true,
          "internalType": "uint256",
          "name": "id",
          "type": "uint256"
        },
        {
          "indexed": false,
          "internalType": "uint256",
          "name": "tokenAmt",
          "type": "uint256"
        },
        {
          "indexed": true,
          "internalType": "address",
          "name": "buyer",
          "type": "address"
        },
        {
          "indexed": true,
          "internalType": "address",
          "name": "seller",
          "type": "address"
        },
        {
          "indexed": false,
          "internalType": "uint256",
          "name": "USDT",
          "type": "uint256"
        }
      ],
      "name": "RETokenUSDT",
      "type": "event"
    },
    {
      "anonymous": false,
      "inputs": [
        {
          "indexed": true,
          "internalType": "address",
          "name": "operator",
          "type": "address"
        },
        {
          "indexed": true,
          "internalType": "address",
          "name": "from",
          "type": "address"
        },
        {
          "indexed": true,
          "internalType": "address",
          "name": "to",
          "type": "address"
        },
        {
          "indexed": false,
          "internalType": "uint256[]",
          "name": "ids",
          "type": "uint256[]"
        },
        {
          "indexed": false,
          "internalType": "uint256[]",
          "name": "values",
          "type": "uint256[]"
        }
      ],
      "name": "TransferBatch",
      "type": "event"
    },
    {
      "anonymous": false,
      "inputs": [
        {
          "indexed": true,
          "internalType": "address",
          "name": "operator",
          "type": "address"
        },
        {
          "indexed": true,
          "internalType": "address",
          "name": "from",
          "type": "address"
        },
        {
          "indexed": true,
          "internalType": "address",
          "name": "to",
          "type": "address"
        },
        {
          "indexed": false,
          "internalType": "uint256",
          "name": "id",
          "type": "uint256"
        },
        {
          "indexed": false,
          "internalType": "uint256",
          "name": "value",
          "type": "uint256"
        }
      ],
      "name": "TransferSingle",
      "type": "event"
    },
    {
      "anonymous": false,
      "inputs": [
        {
          "indexed": false,
          "internalType": "string",
          "name": "value",
          "type": "string"
        },
        {
          "indexed": true,
          "internalType": "uint256",
          "name": "id",
          "type": "uint256"
        }
      ],
      "name": "URI",
      "type": "event"
    },
    {
      "inputs": [],
      "name": "ADMIN_ROLE",
      "outputs": [
        {
          "internalType": "bytes32",
          "name": "",
          "type": "bytes32"
        }
      ],
      "stateMutability": "view",
      "type": "function"
    },
    {
      "inputs": [],
      "name": "MODERATOR",
      "outputs": [
        {
          "internalType": "bytes32",
          "name": "",
          "type": "bytes32"
        }
      ],
      "stateMutability": "view",
      "type": "function"
    },
    {
      "inputs": [],
      "name": "_tokenID",
      "outputs": [
        {
          "internalType": "uint256",
          "name": "",
          "type": "uint256"
        }
      ],
      "stateMutability": "view",
      "type": "function"
    },
    {
      "inputs": [
        {
          "internalType": "address",
          "name": "account",
          "type": "address"
        },
        {
          "internalType": "uint256",
          "name": "id",
          "type": "uint256"
        }
      ],
      "name": "balanceOf",
      "outputs": [
        {
          "internalType": "uint256",
          "name": "",
          "type": "uint256"
        }
      ],
      "stateMutability": "view",
      "type": "function"
    },
    {
      "inputs": [
        {
          "internalType": "address[]",
          "name": "accounts",
          "type": "address[]"
        },
        {
          "internalType": "uint256[]",
          "name": "ids",
          "type": "uint256[]"
        }
      ],
      "name": "balanceOfBatch",
      "outputs": [
        {
          "internalType": "uint256[]",
          "name": "",
          "type": "uint256[]"
        }
      ],
      "stateMutability": "view",
      "type": "function"
    },
    {
      "inputs": [
        {
          "internalType": "address",
          "name": "account",
          "type": "address"
        },
        {
          "internalType": "address",
          "name": "operator",
          "type": "address"
        }
      ],
      "name": "isApprovedForAll",
      "outputs": [
        {
          "internalType": "bool",
          "name": "",
          "type": "bool"
        }
      ],
      "stateMutability": "view",
      "type": "function"
    },
    {
      "inputs": [
        {
          "internalType": "address",
          "name": "",
          "type": "address"
        },
        {
          "internalType": "address",
          "name": "",
          "type": "address"
        },
        {
          "internalType": "uint256[]",
          "name": "",
          "type": "uint256[]"
        },
        {
          "internalType": "uint256[]",
          "name": "",
          "type": "uint256[]"
        },
        {
          "internalType": "bytes",
          "name": "",
          "type": "bytes"
        }
      ],
      "name": "onERC1155BatchReceived",
      "outputs": [
        {
          "internalType": "bytes4",
          "name": "",
          "type": "bytes4"
        }
      ],
      "stateMutability": "nonpayable",
      "type": "function"
    },
    {
      "inputs": [
        {
          "internalType": "address",
          "name": "",
          "type": "address"
        },
        {
          "internalType": "address",
          "name": "",
          "type": "address"
        },
        {
          "internalType": "uint256",
          "name": "",
          "type": "uint256"
        },
        {
          "internalType": "uint256",
          "name": "",
          "type": "uint256"
        },
        {
          "internalType": "bytes",
          "name": "",
          "type": "bytes"
        }
      ],
      "name": "onERC1155Received",
      "outputs": [
        {
          "internalType": "bytes4",
          "name": "",
          "type": "bytes4"
        }
      ],
      "stateMutability": "nonpayable",
      "type": "function"
    },
    {
      "inputs": [],
      "name": "proxy_contract",
      "outputs": [
        {
          "internalType": "address payable",
          "name": "",
          "type": "address"
        }
      ],
      "stateMutability": "view",
      "type": "function"
    },
    {
      "inputs": [
        {
          "internalType": "address",
          "name": "from",
          "type": "address"
        },
        {
          "internalType": "address",
          "name": "to",
          "type": "address"
        },
        {
          "internalType": "uint256[]",
          "name": "ids",
          "type": "uint256[]"
        },
        {
          "internalType": "uint256[]",
          "name": "amounts",
          "type": "uint256[]"
        },
        {
          "internalType": "bytes",
          "name": "data",
          "type": "bytes"
        }
      ],
      "name": "safeBatchTransferFrom",
      "outputs": [],
      "stateMutability": "nonpayable",
      "type": "function"
    },
    {
      "inputs": [
        {
          "internalType": "address",
          "name": "from",
          "type": "address"
        },
        {
          "internalType": "address",
          "name": "to",
          "type": "address"
        },
        {
          "internalType": "uint256",
          "name": "id",
          "type": "uint256"
        },
        {
          "internalType": "uint256",
          "name": "amount",
          "type": "uint256"
        },
        {
          "internalType": "bytes",
          "name": "data",
          "type": "bytes"
        }
      ],
      "name": "safeTransferFrom",
      "outputs": [],
      "stateMutability": "nonpayable",
      "type": "function"
    },
    {
      "inputs": [
        {
          "internalType": "address",
          "name": "operator",
          "type": "address"
        },
        {
          "internalType": "bool",
          "name": "approved",
          "type": "bool"
        }
      ],
      "name": "setApprovalForAll",
      "outputs": [],
      "stateMutability": "nonpayable",
      "type": "function"
    },
    {
      "inputs": [
        {
          "internalType": "bytes4",
          "name": "interfaceId",
          "type": "bytes4"
        }
      ],
      "name": "supportsInterface",
      "outputs": [
        {
          "internalType": "bool",
          "name": "",
          "type": "bool"
        }
      ],
      "stateMutability": "view",
      "type": "function"
    },
    {
      "inputs": [
        {
          "internalType": "uint256",
          "name": "",
          "type": "uint256"
        }
      ],
      "name": "uri",
      "outputs": [
        {
          "internalType": "string",
          "name": "",
          "type": "string"
        }
      ],
      "stateMutability": "view",
      "type": "function"
    },
    {
      "inputs": [],
      "name": "usdt_contract",
      "outputs": [
        {
          "internalType": "address",
          "name": "",
          "type": "address"
        }
      ],
      "stateMutability": "view",
      "type": "function"
    }
  ],
  "bytecode": "0x608060405261001860ff61002e60201b611a4c1760201c565b6101005534801561002857600080fd5b5061003c565b600081600001549050919050565b6125808061004b6000396000f3fe608060405234801561001057600080fd5b50600436106100f45760003560e01c806375e1583811610097578063d84e803811610066578063d84e80381461095d578063e985e9c514610991578063f23a6e6114610a0b578063f242432a14610b4d576100f4565b806375e1583814610665578063a22cb46514610699578063ad0cdd89146106e9578063bc197c8114610707576100f4565b80632eb2c2d6116100d35780632eb2c2d61461026557806334b4e625146104885780634e1273f4146104a657806375b238fc14610647576100f4565b8062fdd58e146100f957806301ffc9a71461015b5780630e89341c146101be575b600080fd5b6101456004803603604081101561010f57600080fd5b81019080803573ffffffffffffffffffffffffffffffffffffffff16906020019092919080359060200190929190505050610c5c565b6040518082815260200191505060405180910390f35b6101a66004803603602081101561017157600080fd5b8101908080357bffffffffffffffffffffffffffffffffffffffffffffffffffffffff19169060200190929190505050610d3c565b60405180821515815260200191505060405180910390f35b6101ea600480360360208110156101d457600080fd5b8101908080359060200190929190505050610da4565b6040518080602001828103825283818151815260200191508051906020019080838360005b8381101561022a57808201518184015260208101905061020f565b50505050905090810190601f1680156102575780820380516001836020036101000a031916815260200191505b509250505060405180910390f35b610486600480360360a081101561027b57600080fd5b81019080803573ffffffffffffffffffffffffffffffffffffffff169060200190929190803573ffffffffffffffffffffffffffffffffffffffff169060200190929190803590602001906401000000008111156102d857600080fd5b8201836020820111156102ea57600080fd5b8035906020019184602083028401116401000000008311171561030c57600080fd5b919080806020026020016040519081016040528093929190818152602001838360200280828437600081840152601f19601f8201169050808301925050505050505091929192908035906020019064010000000081111561036c57600080fd5b82018360208201111561037e57600080fd5b803590602001918460208302840111640100000000831117156103a057600080fd5b919080806020026020016040519081016040528093929190818152602001838360200280828437600081840152601f19601f8201169050808301925050505050505091929192908035906020019064010000000081111561040057600080fd5b82018360208201111561041257600080fd5b8035906020019184600183028401116401000000008311171561043457600080fd5b91908080601f016020809104026020016040519081016040528093929190818152602001838380828437600081840152601f19601f820116905080830192505050505050509192919290505050610e48565b005b6104906112d3565b6040518082815260200191505060405180910390f35b6105f0600480360360408110156104bc57600080fd5b81019080803590602001906401000000008111156104d957600080fd5b8201836020820111156104eb57600080fd5b8035906020019184602083028401116401000000008311171561050d57600080fd5b919080806020026020016040519081016040528093929190818152602001838360200280828437600081840152601f19601f8201169050808301925050505050505091929192908035906020019064010000000081111561056d57600080fd5b82018360208201111561057f57600080fd5b803590602001918460208302840111640100000000831117156105a157600080fd5b919080806020026020016040519081016040528093929190818152602001838360200280828437600081840152601f19601f8201169050808301925050505050505091929192905050506112f7565b6040518080602001828103825283818151815260200191508051906020019060200280838360005b83811015610633578082015181840152602081019050610618565b505050509050019250505060405180910390f35b61064f611409565b6040518082815260200191505060405180910390f35b61066d61142d565b604051808273ffffffffffffffffffffffffffffffffffffffff16815260200191505060405180910390f35b6106e7600480360360408110156106af57600080fd5b81019080803573ffffffffffffffffffffffffffffffffffffffff169060200190929190803515159060200190929190505050611453565b005b6106f16115ec565b6040518082815260200191505060405180910390f35b610928600480360360a081101561071d57600080fd5b81019080803573ffffffffffffffffffffffffffffffffffffffff169060200190929190803573ffffffffffffffffffffffffffffffffffffffff1690602001909291908035906020019064010000000081111561077a57600080fd5b82018360208201111561078c57600080fd5b803590602001918460208302840111640100000000831117156107ae57600080fd5b919080806020026020016040519081016040528093929190818152602001838360200280828437600081840152601f19601f8201169050808301925050505050505091929192908035906020019064010000000081111561080e57600080fd5b82018360208201111561082057600080fd5b8035906020019184602083028401116401000000008311171561084257600080fd5b919080806020026020016040519081016040528093929190818152602001838360200280828437600081840152601f19601f820116905080830192505050505050509192919290803590602001906401000000008111156108a257600080fd5b8201836020820111156108b457600080fd5b803590602001918460018302840111640100000000831117156108d657600080fd5b91908080601f016020809104026020016040519081016040528093929190818152602001838380828437600081840152601f19601f8201169050808301925050505050505091929192905050506115f3565b60405180827bffffffffffffffffffffffffffffffffffffffffffffffffffffffff1916815260200191505060405180910390f35b610965611608565b604051808273ffffffffffffffffffffffffffffffffffffffff16815260200191505060405180910390f35b6109f3600480360360408110156109a757600080fd5b81019080803573ffffffffffffffffffffffffffffffffffffffff169060200190929190803573ffffffffffffffffffffffffffffffffffffffff16906020019092919050505061162e565b60405180821515815260200191505060405180910390f35b610b18600480360360a0811015610a2157600080fd5b81019080803573ffffffffffffffffffffffffffffffffffffffff169060200190929190803573ffffffffffffffffffffffffffffffffffffffff169060200190929190803590602001909291908035906020019092919080359060200190640100000000811115610a9257600080fd5b820183602082011115610aa457600080fd5b80359060200191846001830284011164010000000083111715610ac657600080fd5b91908080601f016020809104026020016040519081016040528093929190818152602001838380828437600081840152601f19601f8201169050808301925050505050505091929192905050506116c2565b60405180827bffffffffffffffffffffffffffffffffffffffffffffffffffffffff1916815260200191505060405180910390f35b610c5a600480360360a0811015610b6357600080fd5b81019080803573ffffffffffffffffffffffffffffffffffffffff169060200190929190803573ffffffffffffffffffffffffffffffffffffffff169060200190929190803590602001909291908035906020019092919080359060200190640100000000811115610bd457600080fd5b820183602082011115610be657600080fd5b80359060200191846001830284011164010000000083111715610c0857600080fd5b91908080601f016020809104026020016040519081016040528093929190818152602001838380828437600081840152601f19601f8201169050808301925050505050505091929192905050506116d7565b005b60008073ffffffffffffffffffffffffffffffffffffffff168373ffffffffffffffffffffffffffffffffffffffff161415610ce3576040517f08c379a000000000000000000000000000000000000000000000000000000000815260040180806020018281038252602b8152602001806123fc602b913960400191505060405180910390fd5b6065600083815260200190815260200160002060008473ffffffffffffffffffffffffffffffffffffffff1673ffffffffffffffffffffffffffffffffffffffff16815260200190815260200160002054905092915050565b600060336000837bffffffffffffffffffffffffffffffffffffffffffffffffffffffff19167bffffffffffffffffffffffffffffffffffffffffffffffffffffffff1916815260200190815260200160002060009054906101000a900460ff169050919050565b606060678054600181600116156101000203166002900480601f016020809104026020016040519081016040528092919081815260200182805460018160011615610100020316600290048015610e3c5780601f10610e1157610100808354040283529160200191610e3c565b820191906000526020600020905b815481529060010190602001808311610e1f57829003601f168201915b50505050509050919050565b8151835114610ea2576040517f08c379a00000000000000000000000000000000000000000000000000000000081526004018080602001828103825260288152602001806125236028913960400191505060405180910390fd5b600073ffffffffffffffffffffffffffffffffffffffff168473ffffffffffffffffffffffffffffffffffffffff161415610f28576040517f08c379a00000000000000000000000000000000000000000000000000000000081526004018080602001828103825260258152602001806124506025913960400191505060405180910390fd5b610f30611a5a565b73ffffffffffffffffffffffffffffffffffffffff168573ffffffffffffffffffffffffffffffffffffffff161480610f765750610f7585610f70611a5a565b61162e565b5b610fcb576040517f08c379a00000000000000000000000000000000000000000000000000000000081526004018080602001828103825260328152602001806124756032913960400191505060405180910390fd5b6000610fd5611a5a565b9050610fe5818787878787611a62565b60005b84518110156111b6576000858281518110610fff57fe5b60200260200101519050600085838151811061101757fe5b6020026020010151905061109e816040518060600160405280602a81526020016124a7602a91396065600086815260200190815260200160002060008d73ffffffffffffffffffffffffffffffffffffffff1673ffffffffffffffffffffffffffffffffffffffff16815260200190815260200160002054611a6a9092919063ffffffff16565b6065600084815260200190815260200160002060008b73ffffffffffffffffffffffffffffffffffffffff1673ffffffffffffffffffffffffffffffffffffffff16815260200190815260200160002081905550611155816065600085815260200190815260200160002060008b73ffffffffffffffffffffffffffffffffffffffff1673ffffffffffffffffffffffffffffffffffffffff16815260200190815260200160002054611b2490919063ffffffff16565b6065600084815260200190815260200160002060008a73ffffffffffffffffffffffffffffffffffffffff1673ffffffffffffffffffffffffffffffffffffffff168152602001908152602001600020819055505050806001019050610fe8565b508473ffffffffffffffffffffffffffffffffffffffff168673ffffffffffffffffffffffffffffffffffffffff168273ffffffffffffffffffffffffffffffffffffffff167f4a39dc06d4c0dbc64b70af90fd698a233a518aa5d07e595d983b8c0526c8f7fb8787604051808060200180602001838103835285818151815260200191508051906020019060200280838360005b8381101561126657808201518184015260208101905061124b565b50505050905001838103825284818151815260200191508051906020019060200280838360005b838110156112a857808201518184015260208101905061128d565b5050505090500194505050505060405180910390a46112cb818787878787611bac565b505050505050565b7f58c8e11deab7910e89bf18a1168c6e6ef28748f00fd3094549459f01cec5e0aa81565b60608151835114611353576040517f08c379a00000000000000000000000000000000000000000000000000000000081526004018080602001828103825260298152602001806124fa6029913960400191505060405180910390fd5b6060835167ffffffffffffffff8111801561136d57600080fd5b5060405190808252806020026020018201604052801561139c5781602001602082028036833780820191505090505b50905060005b84518110156113fe576113db8582815181106113ba57fe5b60200260200101518583815181106113ce57fe5b6020026020010151610c5c565b8282815181106113e757fe5b6020026020010181815250508060010190506113a2565b508091505092915050565b7fa49807205ce4d355092ef5a8a18f56e8913cf4a201fbe287825b095693c2177581565b60fb60009054906101000a900473ffffffffffffffffffffffffffffffffffffffff1681565b8173ffffffffffffffffffffffffffffffffffffffff16611472611a5a565b73ffffffffffffffffffffffffffffffffffffffff1614156114df576040517f08c379a00000000000000000000000000000000000000000000000000000000081526004018080602001828103825260298152602001806124d16029913960400191505060405180910390fd5b80606660006114ec611a5a565b73ffffffffffffffffffffffffffffffffffffffff1673ffffffffffffffffffffffffffffffffffffffff16815260200190815260200160002060008473ffffffffffffffffffffffffffffffffffffffff1673ffffffffffffffffffffffffffffffffffffffff16815260200190815260200160002060006101000a81548160ff0219169083151502179055508173ffffffffffffffffffffffffffffffffffffffff16611599611a5a565b73ffffffffffffffffffffffffffffffffffffffff167f17307eab39ab6107e8899845ad3d59bd9653f200f220920489ca2b5937696c318360405180821515815260200191505060405180910390a35050565b6101005481565b600063bc197c8160e01b905095945050505050565b60fd60009054906101000a900473ffffffffffffffffffffffffffffffffffffffff1681565b6000606660008473ffffffffffffffffffffffffffffffffffffffff1673ffffffffffffffffffffffffffffffffffffffff16815260200190815260200160002060008373ffffffffffffffffffffffffffffffffffffffff1673ffffffffffffffffffffffffffffffffffffffff16815260200190815260200160002060009054906101000a900460ff16905092915050565b600063f23a6e6160e01b905095945050505050565b600073ffffffffffffffffffffffffffffffffffffffff168473ffffffffffffffffffffffffffffffffffffffff16141561175d576040517f08c379a00000000000000000000000000000000000000000000000000000000081526004018080602001828103825260258152602001806124506025913960400191505060405180910390fd5b611765611a5a565b73ffffffffffffffffffffffffffffffffffffffff168573ffffffffffffffffffffffffffffffffffffffff1614806117ab57506117aa856117a5611a5a565b61162e565b5b611800576040517f08c379a00000000000000000000000000000000000000000000000000000000081526004018080602001828103825260298152602001806124276029913960400191505060405180910390fd5b600061180a611a5a565b905061182a81878761181b88611f3b565b61182488611f3b565b87611a62565b6118a7836040518060600160405280602a81526020016124a7602a91396065600088815260200190815260200160002060008a73ffffffffffffffffffffffffffffffffffffffff1673ffffffffffffffffffffffffffffffffffffffff16815260200190815260200160002054611a6a9092919063ffffffff16565b6065600086815260200190815260200160002060008873ffffffffffffffffffffffffffffffffffffffff1673ffffffffffffffffffffffffffffffffffffffff1681526020019081526020016000208190555061195e836065600087815260200190815260200160002060008873ffffffffffffffffffffffffffffffffffffffff1673ffffffffffffffffffffffffffffffffffffffff16815260200190815260200160002054611b2490919063ffffffff16565b6065600086815260200190815260200160002060008773ffffffffffffffffffffffffffffffffffffffff1673ffffffffffffffffffffffffffffffffffffffff168152602001908152602001600020819055508473ffffffffffffffffffffffffffffffffffffffff168673ffffffffffffffffffffffffffffffffffffffff168273ffffffffffffffffffffffffffffffffffffffff167fc3d58168c5ae7397731d063d5bbf3d657854427343f4c083240f7aacaa2d0f628787604051808381526020018281526020019250505060405180910390a4611a44818787878787611fab565b505050505050565b600081600001549050919050565b600033905090565b505050505050565b6000838311158290611b17576040517f08c379a00000000000000000000000000000000000000000000000000000000081526004018080602001828103825283818151815260200191508051906020019080838360005b83811015611adc578082015181840152602081019050611ac1565b50505050905090810190601f168015611b095780820380516001836020036101000a031916815260200191505b509250505060405180910390fd5b5082840390509392505050565b600080828401905083811015611ba2576040517f08c379a000000000000000000000000000000000000000000000000000000000815260040180806020018281038252601b8152602001807f536166654d6174683a206164646974696f6e206f766572666c6f77000000000081525060200191505060405180910390fd5b8091505092915050565b611bcb8473ffffffffffffffffffffffffffffffffffffffff166122b8565b15611f33578373ffffffffffffffffffffffffffffffffffffffff1663bc197c8187878686866040518663ffffffff1660e01b8152600401808673ffffffffffffffffffffffffffffffffffffffff1681526020018573ffffffffffffffffffffffffffffffffffffffff168152602001806020018060200180602001848103845287818151815260200191508051906020019060200280838360005b83811015611c83578082015181840152602081019050611c68565b50505050905001848103835286818151815260200191508051906020019060200280838360005b83811015611cc5578082015181840152602081019050611caa565b50505050905001848103825285818151815260200191508051906020019080838360005b83811015611d04578082015181840152602081019050611ce9565b50505050905090810190601f168015611d315780820380516001836020036101000a031916815260200191505b5098505050505050505050602060405180830381600087803b158015611d5657600080fd5b505af1925050508015611d8a57506040513d6020811015611d7657600080fd5b810190808051906020019092919050505060015b611e9457611d966122e9565b80611da15750611e43565b806040517f08c379a00000000000000000000000000000000000000000000000000000000081526004018080602001828103825283818151815260200191508051906020019080838360005b83811015611e08578082015181840152602081019050611ded565b50505050905090810190601f168015611e355780820380516001836020036101000a031916815260200191505b509250505060405180910390fd5b6040517f08c379a00000000000000000000000000000000000000000000000000000000081526004018080602001828103825260348152602001806123a06034913960400191505060405180910390fd5b63bc197c8160e01b7bffffffffffffffffffffffffffffffffffffffffffffffffffffffff1916817bffffffffffffffffffffffffffffffffffffffffffffffffffffffff191614611f31576040517f08c379a00000000000000000000000000000000000000000000000000000000081526004018080602001828103825260288152602001806123d46028913960400191505060405180910390fd5b505b505050505050565b606080600167ffffffffffffffff81118015611f5657600080fd5b50604051908082528060200260200182016040528015611f855781602001602082028036833780820191505090505b5090508281600081518110611f9657fe5b60200260200101818152505080915050919050565b611fca8473ffffffffffffffffffffffffffffffffffffffff166122b8565b156122b0578373ffffffffffffffffffffffffffffffffffffffff1663f23a6e6187878686866040518663ffffffff1660e01b8152600401808673ffffffffffffffffffffffffffffffffffffffff1681526020018573ffffffffffffffffffffffffffffffffffffffff16815260200184815260200183815260200180602001828103825283818151815260200191508051906020019080838360005b83811015612083578082015181840152602081019050612068565b50505050905090810190601f1680156120b05780820380516001836020036101000a031916815260200191505b509650505050505050602060405180830381600087803b1580156120d357600080fd5b505af192505050801561210757506040513d60208110156120f357600080fd5b810190808051906020019092919050505060015b612211576121136122e9565b8061211e57506121c0565b806040517f08c379a00000000000000000000000000000000000000000000000000000000081526004018080602001828103825283818151815260200191508051906020019080838360005b8381101561218557808201518184015260208101905061216a565b50505050905090810190601f1680156121b25780820380516001836020036101000a031916815260200191505b509250505060405180910390fd5b6040517f08c379a00000000000000000000000000000000000000000000000000000000081526004018080602001828103825260348152602001806123a06034913960400191505060405180910390fd5b63f23a6e6160e01b7bffffffffffffffffffffffffffffffffffffffffffffffffffffffff1916817bffffffffffffffffffffffffffffffffffffffffffffffffffffffff1916146122ae576040517f08c379a00000000000000000000000000000000000000000000000000000000081526004018080602001828103825260288152602001806123d46028913960400191505060405180910390fd5b505b505050505050565b600080823b905060008111915050919050565b6000601f19601f8301169050919050565b60008160e01c9050919050565b600060443d10156122f95761239c565b60046000803e61230a6000516122dc565b6308c379a0811461231b575061239c565b60405160043d036004823e80513d602482011167ffffffffffffffff821117156123475750505061239c565b808201805167ffffffffffffffff81111561236657505050505061239c565b8060208301013d85018111156123815750505050505061239c565b61238a826122cb565b60208401016040528296505050505050505b9056fe455243313135353a207472616e7366657220746f206e6f6e2045524331313535526563656976657220696d706c656d656e746572455243313135353a204552433131353552656365697665722072656a656374656420746f6b656e73455243313135353a2062616c616e636520717565727920666f7220746865207a65726f2061646472657373455243313135353a2063616c6c6572206973206e6f74206f776e6572206e6f7220617070726f766564455243313135353a207472616e7366657220746f20746865207a65726f2061646472657373455243313135353a207472616e736665722063616c6c6572206973206e6f74206f776e6572206e6f7220617070726f766564455243313135353a20696e73756666696369656e742062616c616e636520666f72207472616e73666572455243313135353a2073657474696e6720617070726f76616c2073746174757320666f722073656c66455243313135353a206163636f756e747320616e6420696473206c656e677468206d69736d61746368455243313135353a2069647320616e6420616d6f756e7473206c656e677468206d69736d61746368a26469706673582212202931cb32212d27b6170e08a214530823c0ee13268f4f16abf2d078d8b1d40fdc64736f6c63430007040033",
  "immutableReferences": {},
  "source": "// SPDX-License-Identifier: MIT\r\n\r\npragma solidity >= 0.7.4;\r\n\r\nimport \"./libraries/ERC1155Upgradeable.sol\";\r\nimport \"./libraries/ERC1155HolderUpgradeable.sol\";\r\nimport \"./libraries/utils/CountersUpgradeable.sol\";\r\nimport './USDT.sol';\r\nimport './RETokenProxy.sol';\r\n\r\n/**\r\n * @title RETokenStorage\r\n * @dev This contract provides the storage structure for the RETokenProxy contract\r\n * using ERC1155 and Counters structure. It also allows this contract to hold ERC1155 tokens.\r\n *\r\n * VERSION: 2 (Ver.2)\r\n * 1. Add Event to record any REToken/USDT pair transaction done in REToken\r\n */\r\ncontract RETokenStorageOne is ERC1155Upgradeable, ERC1155HolderUpgradeable {\r\n    \r\n    /**\r\n     * @dev Ver.1 Declaration of initial variables.\r\n     * 1. `MODERATOR` - Group of addresses possessing moderator authorization for AccessControl contract\r\n     * 2. `ADMIN_ROLE` - Group of addresses possessing admin authorization\r\n     * 3. `usdt_contract` - USDT Contract address\r\n     * 4. `usdtContract` - External connection to USDT Contract\r\n     * 5. `proxy_contract` - Proxy Contract address\r\n     * 6. `proxyContract` - External connection to Proxy Contract\r\n     */\r\n    bytes32 public constant MODERATOR = keccak256(\"MODERATOR\");\r\n    bytes32 public constant ADMIN_ROLE = keccak256(\"ADMIN_ROLE\");\r\n    address public usdt_contract;\r\n    USDT usdtContract;\r\n    address payable public proxy_contract;\r\n    RETokenProxy proxyContract;\r\n\r\n    /**\r\n     * @dev Declaration of `_tokenID` variable as unique Token ID using Counters library\r\n     */\r\n    using CountersUpgradeable for CountersUpgradeable.Counter;\r\n    CountersUpgradeable.Counter internal _tokenIds;\r\n    uint256 public _tokenID = _tokenIds.current();\r\n\r\n    /**\r\n     * @dev Declaring `REToken` struct to store token details and\r\n     * mapping of Token ID to REToken Struct\r\n     */\r\n    struct REToken {\r\n        uint256 totalSupply;\r\n        address owner;\r\n        string valuationReport;\r\n        string legalContract;\r\n    }\r\n    mapping (uint256 => REToken) reToken;\r\n\r\n     /**\r\n     * @dev Declaration of new Event to record created token details for REToken\r\n     *\r\n     * @param id - Unique token ID\r\n     * @param totalSupply - Number of tokens for unique token ID\r\n     * @param owner - Asset Owner wallet address\r\n     * @param valuationReport - File Hash of Valuation Report\r\n     * @param legalContract - File Hash of Legal Contract\r\n     */\r\n    event RETokenID(uint256 indexed id, uint256 indexed totalSupply, address indexed owner, string valuationReport, string legalContract);\r\n\r\n    /**\r\n     * @dev Functions for ERC1155 Token\r\n     * 1. __ERC1155_init - Construct the ERC1155 token with URI\r\n     * 2. incrementTokenId() - Increase `tokenID` by 1 before minting new token\r\n     */\r\n    function __ERC1155_init() initializer internal {\r\n        __ERC1155_init(\"https://token-cdn-domain/{id}.json\");\r\n    }\r\n\r\n    function incrementTokenId() internal {\r\n        _tokenIds.increment();\r\n        _tokenID = _tokenIds.current();\r\n    }\r\n\r\n    /**\r\n     * @dev Ver.2 Declaration of new Event to record all USDT transactions for REToken\r\n     *\r\n     * @param id - Unique token ID purchased\r\n     * @param tokenAmt - Number of tokens for unique token ID purchased\r\n     * @param buyer - Buyer wallet address\r\n     * @param seller - Seller wallet address\r\n     * @param USDT - Total amount of USDT paid by buyer\r\n     */\r\n    event RETokenUSDT(uint256 indexed id, uint256 tokenAmt, address indexed buyer, address indexed seller, uint256 USDT);\r\n}",
  "sourcePath": "C:\\BCCode\\retoken-app\\client\\src\\contracts\\RETokenStorageOne.sol",
  "compiler": {
    "name": "solc",
    "version": "0.7.4+commit.3f05b770.Emscripten.clang"
  },
  "schemaVersion": "3.3.4",
  "updatedAt": "2021-03-18T05:45:08.151Z",
  "devdoc": {
    "details": "This contract provides the storage structure for the RETokenProxy contract using ERC1155 and Counters structure. It also allows this contract to hold ERC1155 tokens. VERSION: 2 (Ver.2) 1. Add Event to record any REToken/USDT pair transaction done in REToken",
    "events": {
      "RETokenID(uint256,uint256,address,string,string)": {
        "details": "Declaration of new Event to record created token details for REToken",
        "params": {
          "id": "- Unique token ID",
          "legalContract": "- File Hash of Legal Contract",
          "owner": "- Asset Owner wallet address",
          "totalSupply": "- Number of tokens for unique token ID",
          "valuationReport": "- File Hash of Valuation Report"
        }
      },
      "RETokenUSDT(uint256,uint256,address,address,uint256)": {
        "details": "Ver.2 Declaration of new Event to record all USDT transactions for REToken",
        "params": {
          "USDT": "- Total amount of USDT paid by buyer",
          "buyer": "- Buyer wallet address",
          "id": "- Unique token ID purchased",
          "seller": "- Seller wallet address",
          "tokenAmt": "- Number of tokens for unique token ID purchased"
        }
      }
    },
    "kind": "dev",
    "methods": {
      "balanceOf(address,uint256)": {
        "details": "See {IERC1155-balanceOf}. Requirements: - `account` cannot be the zero address."
      },
      "balanceOfBatch(address[],uint256[])": {
        "details": "See {IERC1155-balanceOfBatch}. Requirements: - `accounts` and `ids` must have the same length."
      },
      "isApprovedForAll(address,address)": {
        "details": "See {IERC1155-isApprovedForAll}."
      },
      "safeBatchTransferFrom(address,address,uint256[],uint256[],bytes)": {
        "details": "See {IERC1155-safeBatchTransferFrom}."
      },
      "safeTransferFrom(address,address,uint256,uint256,bytes)": {
        "details": "See {IERC1155-safeTransferFrom}."
      },
      "setApprovalForAll(address,bool)": {
        "details": "See {IERC1155-setApprovalForAll}."
      },
      "supportsInterface(bytes4)": {
        "details": "See {IERC165-supportsInterface}. Time complexity O(1), guaranteed to always use less than 30 000 gas."
      },
      "uri(uint256)": {
        "details": "See {IERC1155MetadataURI-uri}. This implementation returns the same URI for *all* token types. It relies on the token type ID substitution mechanism https://eips.ethereum.org/EIPS/eip-1155#metadata[defined in the EIP]. Clients calling this function must replace the `\\{id\\}` substring with the actual token type ID."
      }
    },
    "stateVariables": {
      "MODERATOR": {
        "details": "Ver.1 Declaration of initial variables. 1. `MODERATOR` - Group of addresses possessing moderator authorization for AccessControl contract 2. `ADMIN_ROLE` - Group of addresses possessing admin authorization 3. `usdt_contract` - USDT Contract address 4. `usdtContract` - External connection to USDT Contract 5. `proxy_contract` - Proxy Contract address 6. `proxyContract` - External connection to Proxy Contract"
      }
    },
    "title": "RETokenStorage",
    "version": 1
  },
  "userdoc": {
    "kind": "user",
    "methods": {},
    "version": 1
  }
}