{
  "contractName": "RETokenProxy",
  "abi": [
    {
      "anonymous": false,
      "inputs": [
        {
          "indexed": true,
          "internalType": "address",
          "name": "account",
          "type": "address"
        },
        {
          "indexed": true,
          "internalType": "address",
          "name": "operator",
          "type": "address"
        },
        {
          "indexed": false,
          "internalType": "bool",
          "name": "approved",
          "type": "bool"
        }
      ],
      "name": "ApprovalForAll",
      "type": "event"
    },
    {
      "anonymous": false,
      "inputs": [
        {
          "indexed": false,
          "internalType": "address",
          "name": "account",
          "type": "address"
        }
      ],
      "name": "Paused",
      "type": "event"
    },
    {
      "anonymous": false,
      "inputs": [
        {
          "indexed": false,
          "internalType": "uint256",
          "name": "timestamp",
          "type": "uint256"
        },
        {
          "indexed": true,
          "internalType": "uint256",
          "name": "id",
          "type": "uint256"
        },
        {
          "indexed": true,
          "internalType": "uint256",
          "name": "totalSupply",
          "type": "uint256"
        },
        {
          "indexed": true,
          "internalType": "address",
          "name": "owner",
          "type": "address"
        },
        {
          "indexed": false,
          "internalType": "string",
          "name": "valuationReport",
          "type": "string"
        },
        {
          "indexed": false,
          "internalType": "string",
          "name": "legalContract",
          "type": "string"
        }
      ],
      "name": "RETokenID",
      "type": "event"
    },
    {
      "anonymous": false,
      "inputs": [
        {
          "indexed": true,
          "internalType": "bytes32",
          "name": "role",
          "type": "bytes32"
        },
        {
          "indexed": true,
          "internalType": "bytes32",
          "name": "previousAdminRole",
          "type": "bytes32"
        },
        {
          "indexed": true,
          "internalType": "bytes32",
          "name": "newAdminRole",
          "type": "bytes32"
        }
      ],
      "name": "RoleAdminChanged",
      "type": "event"
    },
    {
      "anonymous": false,
      "inputs": [
        {
          "indexed": true,
          "internalType": "bytes32",
          "name": "role",
          "type": "bytes32"
        },
        {
          "indexed": true,
          "internalType": "address",
          "name": "account",
          "type": "address"
        },
        {
          "indexed": true,
          "internalType": "address",
          "name": "sender",
          "type": "address"
        }
      ],
      "name": "RoleGranted",
      "type": "event"
    },
    {
      "anonymous": false,
      "inputs": [
        {
          "indexed": true,
          "internalType": "bytes32",
          "name": "role",
          "type": "bytes32"
        },
        {
          "indexed": true,
          "internalType": "address",
          "name": "account",
          "type": "address"
        },
        {
          "indexed": true,
          "internalType": "address",
          "name": "sender",
          "type": "address"
        }
      ],
      "name": "RoleRevoked",
      "type": "event"
    },
    {
      "anonymous": false,
      "inputs": [
        {
          "indexed": true,
          "internalType": "address",
          "name": "operator",
          "type": "address"
        },
        {
          "indexed": true,
          "internalType": "address",
          "name": "from",
          "type": "address"
        },
        {
          "indexed": true,
          "internalType": "address",
          "name": "to",
          "type": "address"
        },
        {
          "indexed": false,
          "internalType": "uint256[]",
          "name": "ids",
          "type": "uint256[]"
        },
        {
          "indexed": false,
          "internalType": "uint256[]",
          "name": "values",
          "type": "uint256[]"
        }
      ],
      "name": "TransferBatch",
      "type": "event"
    },
    {
      "anonymous": false,
      "inputs": [
        {
          "indexed": true,
          "internalType": "address",
          "name": "operator",
          "type": "address"
        },
        {
          "indexed": true,
          "internalType": "address",
          "name": "from",
          "type": "address"
        },
        {
          "indexed": true,
          "internalType": "address",
          "name": "to",
          "type": "address"
        },
        {
          "indexed": false,
          "internalType": "uint256",
          "name": "id",
          "type": "uint256"
        },
        {
          "indexed": false,
          "internalType": "uint256",
          "name": "value",
          "type": "uint256"
        }
      ],
      "name": "TransferSingle",
      "type": "event"
    },
    {
      "anonymous": false,
      "inputs": [
        {
          "indexed": false,
          "internalType": "string",
          "name": "value",
          "type": "string"
        },
        {
          "indexed": true,
          "internalType": "uint256",
          "name": "id",
          "type": "uint256"
        }
      ],
      "name": "URI",
      "type": "event"
    },
    {
      "anonymous": false,
      "inputs": [
        {
          "indexed": false,
          "internalType": "address",
          "name": "account",
          "type": "address"
        }
      ],
      "name": "Unpaused",
      "type": "event"
    },
    {
      "anonymous": false,
      "inputs": [
        {
          "indexed": true,
          "internalType": "address",
          "name": "newImplementation",
          "type": "address"
        }
      ],
      "name": "Upgraded",
      "type": "event"
    },
    {
      "stateMutability": "payable",
      "type": "fallback"
    },
    {
      "inputs": [],
      "name": "ADMIN_ROLE",
      "outputs": [
        {
          "internalType": "bytes32",
          "name": "",
          "type": "bytes32"
        }
      ],
      "stateMutability": "view",
      "type": "function"
    },
    {
      "inputs": [],
      "name": "DEFAULT_ADMIN_ROLE",
      "outputs": [
        {
          "internalType": "bytes32",
          "name": "",
          "type": "bytes32"
        }
      ],
      "stateMutability": "view",
      "type": "function"
    },
    {
      "inputs": [],
      "name": "MODERATOR",
      "outputs": [
        {
          "internalType": "bytes32",
          "name": "",
          "type": "bytes32"
        }
      ],
      "stateMutability": "view",
      "type": "function"
    },
    {
      "inputs": [],
      "name": "_implementation",
      "outputs": [
        {
          "internalType": "address",
          "name": "impl",
          "type": "address"
        }
      ],
      "stateMutability": "view",
      "type": "function"
    },
    {
      "inputs": [],
      "name": "_tokenID",
      "outputs": [
        {
          "internalType": "uint256",
          "name": "",
          "type": "uint256"
        }
      ],
      "stateMutability": "view",
      "type": "function"
    },
    {
      "inputs": [
        {
          "internalType": "address",
          "name": "account",
          "type": "address"
        },
        {
          "internalType": "uint256",
          "name": "id",
          "type": "uint256"
        }
      ],
      "name": "balanceOf",
      "outputs": [
        {
          "internalType": "uint256",
          "name": "",
          "type": "uint256"
        }
      ],
      "stateMutability": "view",
      "type": "function"
    },
    {
      "inputs": [
        {
          "internalType": "address[]",
          "name": "accounts",
          "type": "address[]"
        },
        {
          "internalType": "uint256[]",
          "name": "ids",
          "type": "uint256[]"
        }
      ],
      "name": "balanceOfBatch",
      "outputs": [
        {
          "internalType": "uint256[]",
          "name": "",
          "type": "uint256[]"
        }
      ],
      "stateMutability": "view",
      "type": "function"
    },
    {
      "inputs": [
        {
          "internalType": "bytes32",
          "name": "role",
          "type": "bytes32"
        }
      ],
      "name": "getRoleAdmin",
      "outputs": [
        {
          "internalType": "bytes32",
          "name": "",
          "type": "bytes32"
        }
      ],
      "stateMutability": "view",
      "type": "function"
    },
    {
      "inputs": [
        {
          "internalType": "bytes32",
          "name": "role",
          "type": "bytes32"
        },
        {
          "internalType": "uint256",
          "name": "index",
          "type": "uint256"
        }
      ],
      "name": "getRoleMember",
      "outputs": [
        {
          "internalType": "address",
          "name": "",
          "type": "address"
        }
      ],
      "stateMutability": "view",
      "type": "function"
    },
    {
      "inputs": [
        {
          "internalType": "bytes32",
          "name": "role",
          "type": "bytes32"
        }
      ],
      "name": "getRoleMemberCount",
      "outputs": [
        {
          "internalType": "uint256",
          "name": "",
          "type": "uint256"
        }
      ],
      "stateMutability": "view",
      "type": "function"
    },
    {
      "inputs": [
        {
          "internalType": "bytes32",
          "name": "role",
          "type": "bytes32"
        },
        {
          "internalType": "address",
          "name": "account",
          "type": "address"
        }
      ],
      "name": "grantRole",
      "outputs": [],
      "stateMutability": "nonpayable",
      "type": "function"
    },
    {
      "inputs": [
        {
          "internalType": "bytes32",
          "name": "role",
          "type": "bytes32"
        },
        {
          "internalType": "address",
          "name": "account",
          "type": "address"
        }
      ],
      "name": "hasRole",
      "outputs": [
        {
          "internalType": "bool",
          "name": "",
          "type": "bool"
        }
      ],
      "stateMutability": "view",
      "type": "function"
    },
    {
      "inputs": [
        {
          "internalType": "address",
          "name": "account",
          "type": "address"
        },
        {
          "internalType": "address",
          "name": "operator",
          "type": "address"
        }
      ],
      "name": "isApprovedForAll",
      "outputs": [
        {
          "internalType": "bool",
          "name": "",
          "type": "bool"
        }
      ],
      "stateMutability": "view",
      "type": "function"
    },
    {
      "inputs": [
        {
          "internalType": "address",
          "name": "",
          "type": "address"
        },
        {
          "internalType": "address",
          "name": "",
          "type": "address"
        },
        {
          "internalType": "uint256[]",
          "name": "",
          "type": "uint256[]"
        },
        {
          "internalType": "uint256[]",
          "name": "",
          "type": "uint256[]"
        },
        {
          "internalType": "bytes",
          "name": "",
          "type": "bytes"
        }
      ],
      "name": "onERC1155BatchReceived",
      "outputs": [
        {
          "internalType": "bytes4",
          "name": "",
          "type": "bytes4"
        }
      ],
      "stateMutability": "nonpayable",
      "type": "function"
    },
    {
      "inputs": [
        {
          "internalType": "address",
          "name": "",
          "type": "address"
        },
        {
          "internalType": "address",
          "name": "",
          "type": "address"
        },
        {
          "internalType": "uint256",
          "name": "",
          "type": "uint256"
        },
        {
          "internalType": "uint256",
          "name": "",
          "type": "uint256"
        },
        {
          "internalType": "bytes",
          "name": "",
          "type": "bytes"
        }
      ],
      "name": "onERC1155Received",
      "outputs": [
        {
          "internalType": "bytes4",
          "name": "",
          "type": "bytes4"
        }
      ],
      "stateMutability": "nonpayable",
      "type": "function"
    },
    {
      "inputs": [],
      "name": "paused",
      "outputs": [
        {
          "internalType": "bool",
          "name": "",
          "type": "bool"
        }
      ],
      "stateMutability": "view",
      "type": "function"
    },
    {
      "inputs": [],
      "name": "proxy_contract",
      "outputs": [
        {
          "internalType": "address payable",
          "name": "",
          "type": "address"
        }
      ],
      "stateMutability": "view",
      "type": "function"
    },
    {
      "inputs": [
        {
          "internalType": "bytes32",
          "name": "role",
          "type": "bytes32"
        },
        {
          "internalType": "address",
          "name": "account",
          "type": "address"
        }
      ],
      "name": "renounceRole",
      "outputs": [],
      "stateMutability": "nonpayable",
      "type": "function"
    },
    {
      "inputs": [
        {
          "internalType": "bytes32",
          "name": "role",
          "type": "bytes32"
        },
        {
          "internalType": "address",
          "name": "account",
          "type": "address"
        }
      ],
      "name": "revokeRole",
      "outputs": [],
      "stateMutability": "nonpayable",
      "type": "function"
    },
    {
      "inputs": [
        {
          "internalType": "address",
          "name": "from",
          "type": "address"
        },
        {
          "internalType": "address",
          "name": "to",
          "type": "address"
        },
        {
          "internalType": "uint256[]",
          "name": "ids",
          "type": "uint256[]"
        },
        {
          "internalType": "uint256[]",
          "name": "amounts",
          "type": "uint256[]"
        },
        {
          "internalType": "bytes",
          "name": "data",
          "type": "bytes"
        }
      ],
      "name": "safeBatchTransferFrom",
      "outputs": [],
      "stateMutability": "nonpayable",
      "type": "function"
    },
    {
      "inputs": [
        {
          "internalType": "address",
          "name": "from",
          "type": "address"
        },
        {
          "internalType": "address",
          "name": "to",
          "type": "address"
        },
        {
          "internalType": "uint256",
          "name": "id",
          "type": "uint256"
        },
        {
          "internalType": "uint256",
          "name": "amount",
          "type": "uint256"
        },
        {
          "internalType": "bytes",
          "name": "data",
          "type": "bytes"
        }
      ],
      "name": "safeTransferFrom",
      "outputs": [],
      "stateMutability": "nonpayable",
      "type": "function"
    },
    {
      "inputs": [
        {
          "internalType": "address",
          "name": "operator",
          "type": "address"
        },
        {
          "internalType": "bool",
          "name": "approved",
          "type": "bool"
        }
      ],
      "name": "setApprovalForAll",
      "outputs": [],
      "stateMutability": "nonpayable",
      "type": "function"
    },
    {
      "inputs": [
        {
          "internalType": "bytes4",
          "name": "interfaceId",
          "type": "bytes4"
        }
      ],
      "name": "supportsInterface",
      "outputs": [
        {
          "internalType": "bool",
          "name": "",
          "type": "bool"
        }
      ],
      "stateMutability": "view",
      "type": "function"
    },
    {
      "inputs": [
        {
          "internalType": "uint256",
          "name": "",
          "type": "uint256"
        }
      ],
      "name": "uri",
      "outputs": [
        {
          "internalType": "string",
          "name": "",
          "type": "string"
        }
      ],
      "stateMutability": "view",
      "type": "function"
    },
    {
      "inputs": [],
      "name": "usdt_contract",
      "outputs": [
        {
          "internalType": "address",
          "name": "",
          "type": "address"
        }
      ],
      "stateMutability": "view",
      "type": "function"
    },
    {
      "stateMutability": "payable",
      "type": "receive"
    },
    {
      "inputs": [
        {
          "internalType": "address",
          "name": "_c",
          "type": "address"
        }
      ],
      "name": "setUSDTContract",
      "outputs": [],
      "stateMutability": "nonpayable",
      "type": "function"
    },
    {
      "inputs": [
        {
          "internalType": "address",
          "name": "_c",
          "type": "address"
        }
      ],
      "name": "upgradeTo",
      "outputs": [],
      "stateMutability": "nonpayable",
      "type": "function"
    },
    {
      "inputs": [],
      "name": "pause",
      "outputs": [],
      "stateMutability": "nonpayable",
      "type": "function"
    },
    {
      "inputs": [],
      "name": "unpause",
      "outputs": [],
      "stateMutability": "nonpayable",
      "type": "function"
    },
    {
      "inputs": [],
      "name": "__Proxy_init",
      "outputs": [],
      "stateMutability": "nonpayable",
      "type": "function"
    }
  ],
  "bytecode": "0x60806040526200001c6101646200003460201b620028e61760201c565b610165553480156200002d57600080fd5b5062000042565b600081600001549050919050565b61485d80620000526000396000f3fe6080604052600436106101d05760003560e01c806375e15838116100f7578063bc197c8111610095578063e985e9c511610064578063e985e9c514610edb578063eaac40f314610f62578063f23a6e6114610fb3578063f242432a14611102576101df565b8063bc197c8114610b8d578063ca15c87314610df0578063d547741f14610e3f578063d84e803814610e9a576101df565b806391d14854116100d157806391d1485414610a69578063a217fddf14610ada578063a22cb46514610b05578063ad0cdd8914610b62576101df565b806375e15838146109a25780638456cb59146109e35780639010d07c146109fa576101df565b806336568abe1161016f5780634e39b9e11161013e5780634e39b9e1146108f257806359679b0f146109095780635c975abb1461094a57806375b238fc14610977576101df565b806336568abe146106815780633659cfe6146106dc5780633f4ba83a1461072d5780634e1273f414610744576101df565b8063248a9ca3116101ab578063248a9ca31461037c5780632eb2c2d6146103cb5780632f2ff15d146105fb57806334b4e62514610656576101df565b8062fdd58e146101e957806301ffc9a7146102585780630e89341c146102c8576101df565b366101df576101dd61121e565b005b6101e761121e565b005b3480156101f557600080fd5b506102426004803603604081101561020c57600080fd5b81019080803573ffffffffffffffffffffffffffffffffffffffff16906020019092919080359060200190929190505050611238565b6040518082815260200191505060405180910390f35b34801561026457600080fd5b506102b06004803603602081101561027b57600080fd5b8101908080357bffffffffffffffffffffffffffffffffffffffffffffffffffffffff19169060200190929190505050611318565b60405180821515815260200191505060405180910390f35b3480156102d457600080fd5b50610301600480360360208110156102eb57600080fd5b8101908080359060200190929190505050611380565b6040518080602001828103825283818151815260200191508051906020019080838360005b83811015610341578082015181840152602081019050610326565b50505050905090810190601f16801561036e5780820380516001836020036101000a031916815260200191505b509250505060405180910390f35b34801561038857600080fd5b506103b56004803603602081101561039f57600080fd5b8101908080359060200190929190505050611424565b6040518082815260200191505060405180910390f35b3480156103d757600080fd5b506105f9600480360360a08110156103ee57600080fd5b81019080803573ffffffffffffffffffffffffffffffffffffffff169060200190929190803573ffffffffffffffffffffffffffffffffffffffff1690602001909291908035906020019064010000000081111561044b57600080fd5b82018360208201111561045d57600080fd5b8035906020019184602083028401116401000000008311171561047f57600080fd5b919080806020026020016040519081016040528093929190818152602001838360200280828437600081840152601f19601f820116905080830192505050505050509192919290803590602001906401000000008111156104df57600080fd5b8201836020820111156104f157600080fd5b8035906020019184602083028401116401000000008311171561051357600080fd5b919080806020026020016040519081016040528093929190818152602001838360200280828437600081840152601f19601f8201169050808301925050505050505091929192908035906020019064010000000081111561057357600080fd5b82018360208201111561058557600080fd5b803590602001918460018302840111640100000000831117156105a757600080fd5b91908080601f016020809104026020016040519081016040528093929190818152602001838380828437600081840152601f19601f820116905080830192505050505050509192919290505050611444565b005b34801561060757600080fd5b506106546004803603604081101561061e57600080fd5b8101908080359060200190929190803573ffffffffffffffffffffffffffffffffffffffff1690602001909291905050506118cf565b005b34801561066257600080fd5b5061066b611959565b6040518082815260200191505060405180910390f35b34801561068d57600080fd5b506106da600480360360408110156106a457600080fd5b8101908080359060200190929190803573ffffffffffffffffffffffffffffffffffffffff16906020019092919050505061197d565b005b3480156106e857600080fd5b5061072b600480360360208110156106ff57600080fd5b81019080803573ffffffffffffffffffffffffffffffffffffffff169060200190929190505050611a16565b005b34801561073957600080fd5b50610742611b1b565b005b34801561075057600080fd5b5061089b6004803603604081101561076757600080fd5b810190808035906020019064010000000081111561078457600080fd5b82018360208201111561079657600080fd5b803590602001918460208302840111640100000000831117156107b857600080fd5b919080806020026020016040519081016040528093929190818152602001838360200280828437600081840152601f19601f8201169050808301925050505050505091929192908035906020019064010000000081111561081857600080fd5b82018360208201111561082a57600080fd5b8035906020019184602083028401116401000000008311171561084c57600080fd5b919080806020026020016040519081016040528093929190818152602001838360200280828437600081840152601f19601f820116905080830192505050505050509192919290505050611ba4565b6040518080602001828103825283818151815260200191508051906020019060200280838360005b838110156108de5780820151818401526020810190506108c3565b505050509050019250505060405180910390f35b3480156108fe57600080fd5b50610907611cb6565b005b34801561091557600080fd5b5061091e611f11565b604051808273ffffffffffffffffffffffffffffffffffffffff16815260200191505060405180910390f35b34801561095657600080fd5b5061095f611f42565b60405180821515815260200191505060405180910390f35b34801561098357600080fd5b5061098c611f59565b6040518082815260200191505060405180910390f35b3480156109ae57600080fd5b506109b7611f7d565b604051808273ffffffffffffffffffffffffffffffffffffffff16815260200191505060405180910390f35b3480156109ef57600080fd5b506109f8611fa4565b005b348015610a0657600080fd5b50610a3d60048036036040811015610a1d57600080fd5b81019080803590602001909291908035906020019092919050505061202d565b604051808273ffffffffffffffffffffffffffffffffffffffff16815260200191505060405180910390f35b348015610a7557600080fd5b50610ac260048036036040811015610a8c57600080fd5b8101908080359060200190929190803573ffffffffffffffffffffffffffffffffffffffff16906020019092919050505061205f565b60405180821515815260200191505060405180910390f35b348015610ae657600080fd5b50610aef612091565b6040518082815260200191505060405180910390f35b348015610b1157600080fd5b50610b6060048036036040811015610b2857600080fd5b81019080803573ffffffffffffffffffffffffffffffffffffffff169060200190929190803515159060200190929190505050612098565b005b348015610b6e57600080fd5b50610b77612231565b6040518082815260200191505060405180910390f35b348015610b9957600080fd5b50610dbb600480360360a0811015610bb057600080fd5b81019080803573ffffffffffffffffffffffffffffffffffffffff169060200190929190803573ffffffffffffffffffffffffffffffffffffffff16906020019092919080359060200190640100000000811115610c0d57600080fd5b820183602082011115610c1f57600080fd5b80359060200191846020830284011164010000000083111715610c4157600080fd5b919080806020026020016040519081016040528093929190818152602001838360200280828437600081840152601f19601f82011690508083019250505050505050919291929080359060200190640100000000811115610ca157600080fd5b820183602082011115610cb357600080fd5b80359060200191846020830284011164010000000083111715610cd557600080fd5b919080806020026020016040519081016040528093929190818152602001838360200280828437600081840152601f19601f82011690508083019250505050505050919291929080359060200190640100000000811115610d3557600080fd5b820183602082011115610d4757600080fd5b80359060200191846001830284011164010000000083111715610d6957600080fd5b91908080601f016020809104026020016040519081016040528093929190818152602001838380828437600081840152601f19601f820116905080830192505050505050509192919290505050612238565b60405180827bffffffffffffffffffffffffffffffffffffffffffffffffffffffff1916815260200191505060405180910390f35b348015610dfc57600080fd5b50610e2960048036036020811015610e1357600080fd5b810190808035906020019092919050505061224d565b6040518082815260200191505060405180910390f35b348015610e4b57600080fd5b50610e9860048036036040811015610e6257600080fd5b8101908080359060200190929190803573ffffffffffffffffffffffffffffffffffffffff169060200190929190505050612274565b005b348015610ea657600080fd5b50610eaf6122fe565b604051808273ffffffffffffffffffffffffffffffffffffffff16815260200191505060405180910390f35b348015610ee757600080fd5b50610f4a60048036036040811015610efe57600080fd5b81019080803573ffffffffffffffffffffffffffffffffffffffff169060200190929190803573ffffffffffffffffffffffffffffffffffffffff169060200190929190505050612325565b60405180821515815260200191505060405180910390f35b348015610f6e57600080fd5b50610fb160048036036020811015610f8557600080fd5b81019080803573ffffffffffffffffffffffffffffffffffffffff1690602001909291905050506123b9565b005b348015610fbf57600080fd5b506110cd600480360360a0811015610fd657600080fd5b81019080803573ffffffffffffffffffffffffffffffffffffffff169060200190929190803573ffffffffffffffffffffffffffffffffffffffff16906020019092919080359060200190929190803590602001909291908035906020019064010000000081111561104757600080fd5b82018360208201111561105957600080fd5b8035906020019184600183028401116401000000008311171561107b57600080fd5b91908080601f016020809104026020016040519081016040528093929190818152602001838380828437600081840152601f19601f82011690508083019250505050505050919291929050505061255c565b60405180827bffffffffffffffffffffffffffffffffffffffffffffffffffffffff1916815260200191505060405180910390f35b34801561110e57600080fd5b5061121c600480360360a081101561112557600080fd5b81019080803573ffffffffffffffffffffffffffffffffffffffff169060200190929190803573ffffffffffffffffffffffffffffffffffffffff16906020019092919080359060200190929190803590602001909291908035906020019064010000000081111561119657600080fd5b8201836020820111156111a857600080fd5b803590602001918460018302840111640100000000831117156111ca57600080fd5b91908080601f016020809104026020016040519081016040528093929190818152602001838380828437600081840152601f19601f820116905080830192505050505050509192919290505050612571565b005b6112266128f4565b611236611231611f11565b6128f6565b565b60008073ffffffffffffffffffffffffffffffffffffffff168373ffffffffffffffffffffffffffffffffffffffff1614156112bf576040517f08c379a000000000000000000000000000000000000000000000000000000000815260040180806020018281038252602b8152602001806145ba602b913960400191505060405180910390fd5b60c9600083815260200190815260200160002060008473ffffffffffffffffffffffffffffffffffffffff1673ffffffffffffffffffffffffffffffffffffffff16815260200190815260200160002054905092915050565b600060976000837bffffffffffffffffffffffffffffffffffffffffffffffffffffffff19167bffffffffffffffffffffffffffffffffffffffffffffffffffffffff1916815260200190815260200160002060009054906101000a900460ff169050919050565b606060cb8054600181600116156101000203166002900480601f0160208091040260200160405190810160405280929190818152602001828054600181600116156101000203166002900480156114185780601f106113ed57610100808354040283529160200191611418565b820191906000526020600020905b8154815290600101906020018083116113fb57829003601f168201915b50505050509050919050565b600060336000838152602001908152602001600020600201549050919050565b815183511461149e576040517f08c379a00000000000000000000000000000000000000000000000000000000081526004018080602001828103825260288152602001806147d16028913960400191505060405180910390fd5b600073ffffffffffffffffffffffffffffffffffffffff168473ffffffffffffffffffffffffffffffffffffffff161415611524576040517f08c379a000000000000000000000000000000000000000000000000000000000815260040180806020018281038252602581526020018061466f6025913960400191505060405180910390fd5b61152c61291c565b73ffffffffffffffffffffffffffffffffffffffff168573ffffffffffffffffffffffffffffffffffffffff16148061157257506115718561156c61291c565b612325565b5b6115c7576040517f08c379a00000000000000000000000000000000000000000000000000000000081526004018080602001828103825260328152602001806146946032913960400191505060405180910390fd5b60006115d161291c565b90506115e1818787878787612924565b60005b84518110156117b25760008582815181106115fb57fe5b60200260200101519050600085838151811061161357fe5b6020026020010151905061169a816040518060600160405280602a81526020016146f4602a913960c9600086815260200190815260200160002060008d73ffffffffffffffffffffffffffffffffffffffff1673ffffffffffffffffffffffffffffffffffffffff1681526020019081526020016000205461292c9092919063ffffffff16565b60c9600084815260200190815260200160002060008b73ffffffffffffffffffffffffffffffffffffffff1673ffffffffffffffffffffffffffffffffffffffff168152602001908152602001600020819055506117518160c9600085815260200190815260200160002060008b73ffffffffffffffffffffffffffffffffffffffff1673ffffffffffffffffffffffffffffffffffffffff168152602001908152602001600020546129e690919063ffffffff16565b60c9600084815260200190815260200160002060008a73ffffffffffffffffffffffffffffffffffffffff1673ffffffffffffffffffffffffffffffffffffffff1681526020019081526020016000208190555050508060010190506115e4565b508473ffffffffffffffffffffffffffffffffffffffff168673ffffffffffffffffffffffffffffffffffffffff168273ffffffffffffffffffffffffffffffffffffffff167f4a39dc06d4c0dbc64b70af90fd698a233a518aa5d07e595d983b8c0526c8f7fb8787604051808060200180602001838103835285818151815260200191508051906020019060200280838360005b83811015611862578082015181840152602081019050611847565b50505050905001838103825284818151815260200191508051906020019060200280838360005b838110156118a4578082015181840152602081019050611889565b5050505090500194505050505060405180910390a46118c7818787878787612a6e565b505050505050565b6118f660336000848152602001908152602001600020600201546118f161291c565b61205f565b61194b576040517f08c379a000000000000000000000000000000000000000000000000000000000815260040180806020018281038252602f81526020018061458b602f913960400191505060405180910390fd5b6119558282612dfd565b5050565b7f58c8e11deab7910e89bf18a1168c6e6ef28748f00fd3094549459f01cec5e0aa81565b61198561291c565b73ffffffffffffffffffffffffffffffffffffffff168173ffffffffffffffffffffffffffffffffffffffff1614611a08576040517f08c379a000000000000000000000000000000000000000000000000000000000815260040180806020018281038252602f8152602001806147f9602f913960400191505060405180910390fd5b611a128282612e91565b5050565b611a407fa49807205ce4d355092ef5a8a18f56e8913cf4a201fbe287825b095693c217753361205f565b611a95576040517f08c379a00000000000000000000000000000000000000000000000000000000081526004018080602001828103825260268152602001806147ab6026913960400191505060405180910390fd5b611a9d611f42565b611b0f576040517f08c379a00000000000000000000000000000000000000000000000000000000081526004018080602001828103825260148152602001807f5061757361626c653a206e6f742070617573656400000000000000000000000081525060200191505060405180910390fd5b611b1881612f25565b50565b611b457fa49807205ce4d355092ef5a8a18f56e8913cf4a201fbe287825b095693c217753361205f565b611b9a576040517f08c379a00000000000000000000000000000000000000000000000000000000081526004018080602001828103825260268152602001806147ab6026913960400191505060405180910390fd5b611ba2612f74565b565b60608151835114611c00576040517f08c379a00000000000000000000000000000000000000000000000000000000081526004018080602001828103825260298152602001806147826029913960400191505060405180910390fd5b6060835167ffffffffffffffff81118015611c1a57600080fd5b50604051908082528060200260200182016040528015611c495781602001602082028036833780820191505090505b50905060005b8451811015611cab57611c88858281518110611c6757fe5b6020026020010151858381518110611c7b57fe5b6020026020010151611238565b828281518110611c9457fe5b602002602001018181525050806001019050611c4f565b508091505092915050565b600060019054906101000a900460ff1680611cd55750611cd461305f565b5b80611ceb575060008054906101000a900460ff16155b611d40576040517f08c379a000000000000000000000000000000000000000000000000000000000815260040180806020018281038252602e8152602001806146c6602e913960400191505060405180910390fd5b60008060019054906101000a900460ff161590508015611d90576001600060016101000a81548160ff02191690831515021790555060016000806101000a81548160ff0219169083151502179055505b3061016160006101000a81548173ffffffffffffffffffffffffffffffffffffffff021916908373ffffffffffffffffffffffffffffffffffffffff16021790555061016160009054906101000a900473ffffffffffffffffffffffffffffffffffffffff1661016260006101000a81548173ffffffffffffffffffffffffffffffffffffffff021916908373ffffffffffffffffffffffffffffffffffffffff160217905550611e3f613070565b611e4761317e565b611e917fa49807205ce4d355092ef5a8a18f56e8913cf4a201fbe287825b095693c217757f58c8e11deab7910e89bf18a1168c6e6ef28748f00fd3094549459f01cec5e0aa61328c565b611ebb7f58c8e11deab7910e89bf18a1168c6e6ef28748f00fd3094549459f01cec5e0aa336132f0565b611ee57fa49807205ce4d355092ef5a8a18f56e8913cf4a201fbe287825b095693c21775336132f0565b611eed6132fe565b8015611f0e5760008060016101000a81548160ff0219169083151502179055505b50565b6000807f360894a13ba1a3210667c828492db98dca3e2076cc3735a920a3ca505d382bbc60001b9050805491505090565b6000606560009054906101000a900460ff16905090565b7fa49807205ce4d355092ef5a8a18f56e8913cf4a201fbe287825b095693c2177581565b61015f60009054906101000a900473ffffffffffffffffffffffffffffffffffffffff1681565b611fce7fa49807205ce4d355092ef5a8a18f56e8913cf4a201fbe287825b095693c217753361205f565b612023576040517f08c379a00000000000000000000000000000000000000000000000000000000081526004018080602001828103825260268152602001806147ab6026913960400191505060405180910390fd5b61202b61341d565b565b6000612057826033600086815260200190815260200160002060000161350990919063ffffffff16565b905092915050565b6000612089826033600086815260200190815260200160002060000161352390919063ffffffff16565b905092915050565b6000801b81565b8173ffffffffffffffffffffffffffffffffffffffff166120b761291c565b73ffffffffffffffffffffffffffffffffffffffff161415612124576040517f08c379a00000000000000000000000000000000000000000000000000000000081526004018080602001828103825260298152602001806147596029913960400191505060405180910390fd5b8060ca600061213161291c565b73ffffffffffffffffffffffffffffffffffffffff1673ffffffffffffffffffffffffffffffffffffffff16815260200190815260200160002060008473ffffffffffffffffffffffffffffffffffffffff1673ffffffffffffffffffffffffffffffffffffffff16815260200190815260200160002060006101000a81548160ff0219169083151502179055508173ffffffffffffffffffffffffffffffffffffffff166121de61291c565b73ffffffffffffffffffffffffffffffffffffffff167f17307eab39ab6107e8899845ad3d59bd9653f200f220920489ca2b5937696c318360405180821515815260200191505060405180910390a35050565b6101655481565b600063bc197c8160e01b905095945050505050565b600061226d60336000848152602001908152602001600020600001613553565b9050919050565b61229b603360008481526020019081526020016000206002015461229661291c565b61205f565b6122f0576040517f08c379a000000000000000000000000000000000000000000000000000000000815260040180806020018281038252603081526020018061460e6030913960400191505060405180910390fd5b6122fa8282612e91565b5050565b61016160009054906101000a900473ffffffffffffffffffffffffffffffffffffffff1681565b600060ca60008473ffffffffffffffffffffffffffffffffffffffff1673ffffffffffffffffffffffffffffffffffffffff16815260200190815260200160002060008373ffffffffffffffffffffffffffffffffffffffff1673ffffffffffffffffffffffffffffffffffffffff16815260200190815260200160002060009054906101000a900460ff16905092915050565b6123e37fa49807205ce4d355092ef5a8a18f56e8913cf4a201fbe287825b095693c217753361205f565b612438576040517f08c379a00000000000000000000000000000000000000000000000000000000081526004018080602001828103825260268152602001806147ab6026913960400191505060405180910390fd5b612440611f42565b6124b2576040517f08c379a00000000000000000000000000000000000000000000000000000000081526004018080602001828103825260148152602001807f5061757361626c653a206e6f742070617573656400000000000000000000000081525060200191505060405180910390fd5b8061015f60006101000a81548173ffffffffffffffffffffffffffffffffffffffff021916908373ffffffffffffffffffffffffffffffffffffffff16021790555061015f60009054906101000a900473ffffffffffffffffffffffffffffffffffffffff1661016060006101000a81548173ffffffffffffffffffffffffffffffffffffffff021916908373ffffffffffffffffffffffffffffffffffffffff16021790555050565b600063f23a6e6160e01b905095945050505050565b600073ffffffffffffffffffffffffffffffffffffffff168473ffffffffffffffffffffffffffffffffffffffff1614156125f7576040517f08c379a000000000000000000000000000000000000000000000000000000000815260040180806020018281038252602581526020018061466f6025913960400191505060405180910390fd5b6125ff61291c565b73ffffffffffffffffffffffffffffffffffffffff168573ffffffffffffffffffffffffffffffffffffffff16148061264557506126448561263f61291c565b612325565b5b61269a576040517f08c379a00000000000000000000000000000000000000000000000000000000081526004018080602001828103825260298152602001806145e56029913960400191505060405180910390fd5b60006126a461291c565b90506126c48187876126b588613568565b6126be88613568565b87612924565b612741836040518060600160405280602a81526020016146f4602a913960c9600088815260200190815260200160002060008a73ffffffffffffffffffffffffffffffffffffffff1673ffffffffffffffffffffffffffffffffffffffff1681526020019081526020016000205461292c9092919063ffffffff16565b60c9600086815260200190815260200160002060008873ffffffffffffffffffffffffffffffffffffffff1673ffffffffffffffffffffffffffffffffffffffff168152602001908152602001600020819055506127f88360c9600087815260200190815260200160002060008873ffffffffffffffffffffffffffffffffffffffff1673ffffffffffffffffffffffffffffffffffffffff168152602001908152602001600020546129e690919063ffffffff16565b60c9600086815260200190815260200160002060008773ffffffffffffffffffffffffffffffffffffffff1673ffffffffffffffffffffffffffffffffffffffff168152602001908152602001600020819055508473ffffffffffffffffffffffffffffffffffffffff168673ffffffffffffffffffffffffffffffffffffffff168273ffffffffffffffffffffffffffffffffffffffff167fc3d58168c5ae7397731d063d5bbf3d657854427343f4c083240f7aacaa2d0f628787604051808381526020018281526020019250505060405180910390a46128de8187878787876135d8565b505050505050565b600081600001549050919050565b565b3660008037600080366000845af43d6000803e8060008114612917573d6000f35b3d6000fd5b600033905090565b505050505050565b60008383111582906129d9576040517f08c379a00000000000000000000000000000000000000000000000000000000081526004018080602001828103825283818151815260200191508051906020019080838360005b8381101561299e578082015181840152602081019050612983565b50505050905090810190601f1680156129cb5780820380516001836020036101000a031916815260200191505b509250505060405180910390fd5b5082840390509392505050565b600080828401905083811015612a64576040517f08c379a000000000000000000000000000000000000000000000000000000000815260040180806020018281038252601b8152602001807f536166654d6174683a206164646974696f6e206f766572666c6f77000000000081525060200191505060405180910390fd5b8091505092915050565b612a8d8473ffffffffffffffffffffffffffffffffffffffff166138e5565b15612df5578373ffffffffffffffffffffffffffffffffffffffff1663bc197c8187878686866040518663ffffffff1660e01b8152600401808673ffffffffffffffffffffffffffffffffffffffff1681526020018573ffffffffffffffffffffffffffffffffffffffff168152602001806020018060200180602001848103845287818151815260200191508051906020019060200280838360005b83811015612b45578082015181840152602081019050612b2a565b50505050905001848103835286818151815260200191508051906020019060200280838360005b83811015612b87578082015181840152602081019050612b6c565b50505050905001848103825285818151815260200191508051906020019080838360005b83811015612bc6578082015181840152602081019050612bab565b50505050905090810190601f168015612bf35780820380516001836020036101000a031916815260200191505b5098505050505050505050602060405180830381600087803b158015612c1857600080fd5b505af1925050508015612c4c57506040513d6020811015612c3857600080fd5b810190808051906020019092919050505060015b612d5657612c58614456565b80612c635750612d05565b806040517f08c379a00000000000000000000000000000000000000000000000000000000081526004018080602001828103825283818151815260200191508051906020019080838360005b83811015612cca578082015181840152602081019050612caf565b50505050905090810190601f168015612cf75780820380516001836020036101000a031916815260200191505b509250505060405180910390fd5b6040517f08c379a000000000000000000000000000000000000000000000000000000000815260040180806020018281038252603481526020018061450d6034913960400191505060405180910390fd5b63bc197c8160e01b7bffffffffffffffffffffffffffffffffffffffffffffffffffffffff1916817bffffffffffffffffffffffffffffffffffffffffffffffffffffffff191614612df3576040517f08c379a00000000000000000000000000000000000000000000000000000000081526004018080602001828103825260288152602001806145636028913960400191505060405180910390fd5b505b505050505050565b612e2581603360008581526020019081526020016000206000016138f890919063ffffffff16565b15612e8d57612e3261291c565b73ffffffffffffffffffffffffffffffffffffffff168173ffffffffffffffffffffffffffffffffffffffff16837f2f8788117e7eff1d82e926ec794901d17c78024a50270940304540a733656f0d60405160405180910390a45b5050565b612eb9816033600085815260200190815260200160002060000161392890919063ffffffff16565b15612f2157612ec661291c565b73ffffffffffffffffffffffffffffffffffffffff168173ffffffffffffffffffffffffffffffffffffffff16837ff6391f5c32d9c69d2a47ea670b442974b53935d1edc7fd64eb21e047a839171b60405160405180910390a45b5050565b612f2e81613958565b8073ffffffffffffffffffffffffffffffffffffffff167fbc7cd75a20ee27fd9adebab32041f755214dbc6bffa90cc0225b39da2e5c2d3b60405160405180910390a250565b612f7c611f42565b612fee576040517f08c379a00000000000000000000000000000000000000000000000000000000081526004018080602001828103825260148152602001807f5061757361626c653a206e6f742070617573656400000000000000000000000081525060200191505060405180910390fd5b6000606560006101000a81548160ff0219169083151502179055507f5db9ee0a495bf2e6ff9c91a7834c1ba4fdd244a5e8aa4e537bd38aeae4b073aa61303261291c565b604051808273ffffffffffffffffffffffffffffffffffffffff16815260200191505060405180910390a1565b600061306a306138e5565b15905090565b600060019054906101000a900460ff168061308f575061308e61305f565b5b806130a5575060008054906101000a900460ff16155b6130fa576040517f08c379a000000000000000000000000000000000000000000000000000000000815260040180806020018281038252602e8152602001806146c6602e913960400191505060405180910390fd5b60008060019054906101000a900460ff16159050801561314a576001600060016101000a81548160ff02191690831515021790555060016000806101000a81548160ff0219169083151502179055505b6131526139e5565b61315a613ae3565b801561317b5760008060016101000a81548160ff0219169083151502179055505b50565b600060019054906101000a900460ff168061319d575061319c61305f565b5b806131b3575060008054906101000a900460ff16155b613208576040517f08c379a000000000000000000000000000000000000000000000000000000000815260040180806020018281038252602e8152602001806146c6602e913960400191505060405180910390fd5b60008060019054906101000a900460ff161590508015613258576001600060016101000a81548160ff02191690831515021790555060016000806101000a81548160ff0219169083151502179055505b6132606139e5565b613268613be1565b80156132895760008060016101000a81548160ff0219169083151502179055505b50565b806033600084815260200190815260200160002060020154837fbd79b86ffe0ab8e8776151514217cd7cacd52c909f66475c3af44e129f0b00ff60405160405180910390a48060336000848152602001908152602001600020600201819055505050565b6132fa8282612dfd565b5050565b600060019054906101000a900460ff168061331d575061331c61305f565b5b80613333575060008054906101000a900460ff16155b613388576040517f08c379a000000000000000000000000000000000000000000000000000000000815260040180806020018281038252602e8152602001806146c6602e913960400191505060405180910390fd5b60008060019054906101000a900460ff1615905080156133d8576001600060016101000a81548160ff02191690831515021790555060016000806101000a81548160ff0219169083151502179055505b6133f960405180606001604052806031815260200161463e60319139613cfa565b801561341a5760008060016101000a81548160ff0219169083151502179055505b50565b613425611f42565b15613498576040517f08c379a00000000000000000000000000000000000000000000000000000000081526004018080602001828103825260108152602001807f5061757361626c653a207061757365640000000000000000000000000000000081525060200191505060405180910390fd5b6001606560006101000a81548160ff0219169083151502179055507f62e78cea01bee320cd4e420270b5ea74000d11b0c9f74754ebdbfc544b05a2586134dc61291c565b604051808273ffffffffffffffffffffffffffffffffffffffff16815260200191505060405180910390a1565b60006135188360000183613e12565b60001c905092915050565b600061354b836000018373ffffffffffffffffffffffffffffffffffffffff1660001b613e95565b905092915050565b600061356182600001613eb8565b9050919050565b606080600167ffffffffffffffff8111801561358357600080fd5b506040519080825280602002602001820160405280156135b25781602001602082028036833780820191505090505b50905082816000815181106135c357fe5b60200260200101818152505080915050919050565b6135f78473ffffffffffffffffffffffffffffffffffffffff166138e5565b156138dd578373ffffffffffffffffffffffffffffffffffffffff1663f23a6e6187878686866040518663ffffffff1660e01b8152600401808673ffffffffffffffffffffffffffffffffffffffff1681526020018573ffffffffffffffffffffffffffffffffffffffff16815260200184815260200183815260200180602001828103825283818151815260200191508051906020019080838360005b838110156136b0578082015181840152602081019050613695565b50505050905090810190601f1680156136dd5780820380516001836020036101000a031916815260200191505b509650505050505050602060405180830381600087803b15801561370057600080fd5b505af192505050801561373457506040513d602081101561372057600080fd5b810190808051906020019092919050505060015b61383e57613740614456565b8061374b57506137ed565b806040517f08c379a00000000000000000000000000000000000000000000000000000000081526004018080602001828103825283818151815260200191508051906020019080838360005b838110156137b2578082015181840152602081019050613797565b50505050905090810190601f1680156137df5780820380516001836020036101000a031916815260200191505b509250505060405180910390fd5b6040517f08c379a000000000000000000000000000000000000000000000000000000000815260040180806020018281038252603481526020018061450d6034913960400191505060405180910390fd5b63f23a6e6160e01b7bffffffffffffffffffffffffffffffffffffffffffffffffffffffff1916817bffffffffffffffffffffffffffffffffffffffffffffffffffffffff1916146138db576040517f08c379a00000000000000000000000000000000000000000000000000000000081526004018080602001828103825260288152602001806145636028913960400191505060405180910390fd5b505b505050505050565b600080823b905060008111915050919050565b6000613920836000018373ffffffffffffffffffffffffffffffffffffffff1660001b613ec9565b905092915050565b6000613950836000018373ffffffffffffffffffffffffffffffffffffffff1660001b613f39565b905092915050565b61396181614021565b6139b6576040517f08c379a000000000000000000000000000000000000000000000000000000000815260040180806020018281038252603b81526020018061471e603b913960400191505060405180910390fd5b60007f360894a13ba1a3210667c828492db98dca3e2076cc3735a920a3ca505d382bbc60001b90508181555050565b600060019054906101000a900460ff1680613a045750613a0361305f565b5b80613a1a575060008054906101000a900460ff16155b613a6f576040517f08c379a000000000000000000000000000000000000000000000000000000000815260040180806020018281038252602e8152602001806146c6602e913960400191505060405180910390fd5b60008060019054906101000a900460ff161590508015613abf576001600060016101000a81548160ff02191690831515021790555060016000806101000a81548160ff0219169083151502179055505b8015613ae05760008060016101000a81548160ff0219169083151502179055505b50565b600060019054906101000a900460ff1680613b025750613b0161305f565b5b80613b18575060008054906101000a900460ff16155b613b6d576040517f08c379a000000000000000000000000000000000000000000000000000000000815260040180806020018281038252602e8152602001806146c6602e913960400191505060405180910390fd5b60008060019054906101000a900460ff161590508015613bbd576001600060016101000a81548160ff02191690831515021790555060016000806101000a81548160ff0219169083151502179055505b8015613bde5760008060016101000a81548160ff0219169083151502179055505b50565b600060019054906101000a900460ff1680613c005750613bff61305f565b5b80613c16575060008054906101000a900460ff16155b613c6b576040517f08c379a000000000000000000000000000000000000000000000000000000000815260040180806020018281038252602e8152602001806146c6602e913960400191505060405180910390fd5b60008060019054906101000a900460ff161590508015613cbb576001600060016101000a81548160ff02191690831515021790555060016000806101000a81548160ff0219169083151502179055505b6000606560006101000a81548160ff0219169083151502179055508015613cf75760008060016101000a81548160ff0219169083151502179055505b50565b600060019054906101000a900460ff1680613d195750613d1861305f565b5b80613d2f575060008054906101000a900460ff16155b613d84576040517f08c379a000000000000000000000000000000000000000000000000000000000815260040180806020018281038252602e8152602001806146c6602e913960400191505060405180910390fd5b60008060019054906101000a900460ff161590508015613dd4576001600060016101000a81548160ff02191690831515021790555060016000806101000a81548160ff0219169083151502179055505b613ddc6139e5565b613de4614034565b613ded82614142565b8015613e0e5760008060016101000a81548160ff0219169083151502179055505b5050565b600081836000018054905011613e73576040517f08c379a00000000000000000000000000000000000000000000000000000000081526004018080602001828103825260228152602001806145416022913960400191505060405180910390fd5b826000018281548110613e8257fe5b9060005260206000200154905092915050565b600080836001016000848152602001908152602001600020541415905092915050565b600081600001805490509050919050565b6000613ed58383613e95565b613f2e578260000182908060018154018082558091505060019003906000526020600020016000909190919091505582600001805490508360010160008481526020019081526020016000208190555060019050613f33565b600090505b92915050565b600080836001016000848152602001908152602001600020549050600081146140155760006001820390506000600186600001805490500390506000866000018281548110613f8457fe5b9060005260206000200154905080876000018481548110613fa157fe5b9060005260206000200181905550600183018760010160008381526020019081526020016000208190555086600001805480613fd957fe5b6001900381819060005260206000200160009055905586600101600087815260200190815260200160002060009055600194505050505061401b565b60009150505b92915050565b600080823b905060008111915050919050565b600060019054906101000a900460ff1680614053575061405261305f565b5b80614069575060008054906101000a900460ff16155b6140be576040517f08c379a000000000000000000000000000000000000000000000000000000000815260040180806020018281038252602e8152602001806146c6602e913960400191505060405180910390fd5b60008060019054906101000a900460ff16159050801561410e576001600060016101000a81548160ff02191690831515021790555060016000806101000a81548160ff0219169083151502179055505b61411e6301ffc9a760e01b61426a565b801561413f5760008060016101000a81548160ff0219169083151502179055505b50565b600060019054906101000a900460ff1680614161575061416061305f565b5b80614177575060008054906101000a900460ff16155b6141cc576040517f08c379a000000000000000000000000000000000000000000000000000000000815260040180806020018281038252602e8152602001806146c6602e913960400191505060405180910390fd5b60008060019054906101000a900460ff16159050801561421c576001600060016101000a81548160ff02191690831515021790555060016000806101000a81548160ff0219169083151502179055505b61422582614373565b61423563d9b67a2660e01b61426a565b614245630e89341c60e01b61426a565b80156142665760008060016101000a81548160ff0219169083151502179055505b5050565b63ffffffff60e01b817bffffffffffffffffffffffffffffffffffffffffffffffffffffffff19161415614306576040517f08c379a000000000000000000000000000000000000000000000000000000000815260040180806020018281038252601c8152602001807f4552433136353a20696e76616c696420696e746572666163652069640000000081525060200191505060405180910390fd5b600160976000837bffffffffffffffffffffffffffffffffffffffffffffffffffffffff19167bffffffffffffffffffffffffffffffffffffffffffffffffffffffff1916815260200190815260200160002060006101000a81548160ff02191690831515021790555050565b8060cb908051906020019061438992919061438d565b5050565b828054600181600116156101000203166002900490600052602060002090601f0160209004810192826143c3576000855561440a565b82601f106143dc57805160ff191683800117855561440a565b8280016001018555821561440a579182015b828111156144095782518255916020019190600101906143ee565b5b509050614417919061441b565b5090565b5b8082111561443457600081600090555060010161441c565b5090565b6000601f19601f8301169050919050565b60008160e01c9050919050565b600060443d101561446657614509565b60046000803e614477600051614449565b6308c379a081146144885750614509565b60405160043d036004823e80513d602482011167ffffffffffffffff821117156144b457505050614509565b808201805167ffffffffffffffff8111156144d3575050505050614509565b8060208301013d85018111156144ee57505050505050614509565b6144f782614438565b60208401016040528296505050505050505b9056fe455243313135353a207472616e7366657220746f206e6f6e2045524331313535526563656976657220696d706c656d656e746572456e756d657261626c655365743a20696e646578206f7574206f6620626f756e6473455243313135353a204552433131353552656365697665722072656a656374656420746f6b656e73416363657373436f6e74726f6c3a2073656e646572206d75737420626520616e2061646d696e20746f206772616e74455243313135353a2062616c616e636520717565727920666f7220746865207a65726f2061646472657373455243313135353a2063616c6c6572206973206e6f74206f776e6572206e6f7220617070726f766564416363657373436f6e74726f6c3a2073656e646572206d75737420626520616e2061646d696e20746f207265766f6b6568747470733a2f2f7265746f6b656e6170702e6865726f6b756170702e636f6d2f746f6b656e732f7b69647d2e6a736f6e455243313135353a207472616e7366657220746f20746865207a65726f2061646472657373455243313135353a207472616e736665722063616c6c6572206973206e6f74206f776e6572206e6f7220617070726f766564496e697469616c697a61626c653a20636f6e747261637420697320616c726561647920696e697469616c697a6564455243313135353a20696e73756666696369656e742062616c616e636520666f72207472616e7366657243616e6e6f742073657420612070726f787920696d706c656d656e746174696f6e20746f2061206e6f6e2d636f6e74726163742061646472657373455243313135353a2073657474696e6720617070726f76616c2073746174757320666f722073656c66455243313135353a206163636f756e747320616e6420696473206c656e677468206d69736d617463684163636573732044656e6965643a2043616c6c6572206973206e6f74207468652041646d696e455243313135353a2069647320616e6420616d6f756e7473206c656e677468206d69736d61746368416363657373436f6e74726f6c3a2063616e206f6e6c792072656e6f756e636520726f6c657320666f722073656c66a26469706673582212206f3581077cf41245d3e50e9e24ff6c5a7ec3846a87be6590f9bd4a7d8cae54b964736f6c63430007040033",
  "immutableReferences": {},
  "source": "// SPDX-License-Identifier: MIT\r\n\r\npragma solidity ^0.7.4;\r\n\r\nimport \"./libraries/BaseUpgradeabilityProxy.sol\";\r\nimport \"./libraries/AccessControlUpgradeable.sol\";\r\nimport \"./libraries/PausableUpgradeable.sol\";\r\nimport './RETokenStorage.sol';\r\n\r\n/**\r\n * @title RETokenProxy\r\n * @dev This contract builds on the BaseUpgradeabilityProxy contract with an authorization\r\n * mechanism for admin tasks and customized features.\r\n */\r\ncontract RETokenProxy is BaseUpgradeabilityProxy, AccessControlUpgradeable, PausableUpgradeable, RETokenStorage {\r\n    \r\n    /**\r\n     * @dev Set `_c` as `usdt_contract` and set external call instance `usdtContract`.\r\n     *\r\n     * Can only be called by addresses with ADMIN_ROLE access.\r\n     *\r\n     * @param _c - USDT Contract address\r\n     */  \r\n    function setUSDTContract(address _c) external onlyAdmin whenPaused {\r\n        usdt_contract = _c;\r\n        usdtContract = USDT(usdt_contract);\r\n    }\r\n\r\n    /**\r\n     * @dev Set `_c` to `IMPLEMENTATION_SLOT` by calling BaseUpgradeabilityProxy _upgradeTo function.\r\n     *\r\n     * Can only be called by addresses with ADMIN_ROLE access.\r\n     *\r\n     * @param _c - USDT Contract address\r\n     */  \r\n    function upgradeTo(address _c) external onlyAdmin whenPaused {\r\n        _upgradeTo(_c);\r\n    }\r\n    \r\n    /**\r\n     * @dev Set `_paused` to true or false to pause or unpause the contract by calling\r\n     * PausableUpgradeable _pause or _unpause functions.\r\n     *\r\n     * Can only be called by addresses with ADMIN_ROLE access.\r\n     */\r\n    function pause() external onlyAdmin {\r\n        _pause();\r\n    }\r\n    \r\n    function unpause() external onlyAdmin {\r\n        _unpause();\r\n    }\r\n    \r\n    /**\r\n     * @dev Set current contract address as `proxy_contract`, external call instance `proxyContract`.\r\n     * \r\n     * Set MODERATOR as admin of ADMIN_ROLE access by calling AccessControlUpgradeable _setRoleAdmin function.\r\n     * Give deployer access for MODERATOR and ADMIN_ROLE by calling AccessControlUpgradeable _setRole function.\r\n     *\r\n     * Set up Pausable feature by calling PausableUpgradeable __Pausable_init function.\r\n     * \r\n     * Construct ERC1155 token with URI by calling ERC1155 __ERC1155_init function.\r\n     */    \r\n    function __Proxy_init() public initializer {\r\n        proxy_contract = address(this);\r\n        proxyContract = RETokenProxy(proxy_contract);\r\n        __AccessControl_init();\r\n        __Pausable_init();\r\n        _setRoleAdmin(ADMIN_ROLE, MODERATOR);\r\n        _setupRole(MODERATOR, msg.sender);\r\n        _setupRole(ADMIN_ROLE, msg.sender);\r\n        __ERC1155_init();\r\n    }\r\n    \r\n    /**\r\n     * @dev Throws if called by any account without ADMIN_ROLE access.\r\n     */\r\n    modifier onlyAdmin() {\r\n        require(hasRole(ADMIN_ROLE, msg.sender), \"Access Denied: Caller is not the Admin\");\r\n        _;\r\n    }\r\n\r\n}",
  "sourcePath": "C:\\Users\\seexy\\Downloads\\Project\\solidity\\v4\\contracts\\RETokenProxy.sol",
  "compiler": {
    "name": "solc",
    "version": "0.7.4+commit.3f05b770.Emscripten.clang"
  },
  "schemaVersion": "3.3.4",
  "updatedAt": "2021-03-22T06:03:17.362Z",
  "devdoc": {
    "details": "This contract builds on the BaseUpgradeabilityProxy contract with an authorization mechanism for admin tasks and customized features.",
    "kind": "dev",
    "methods": {
      "__Proxy_init()": {
        "details": "Set current contract address as `proxy_contract`, external call instance `proxyContract`.  Set MODERATOR as admin of ADMIN_ROLE access by calling AccessControlUpgradeable _setRoleAdmin function. Give deployer access for MODERATOR and ADMIN_ROLE by calling AccessControlUpgradeable _setRole function. Set up Pausable feature by calling PausableUpgradeable __Pausable_init function.  Construct ERC1155 token with URI by calling ERC1155 __ERC1155_init function."
      },
      "_implementation()": {
        "details": "Returns the current implementation.",
        "returns": {
          "impl": "Address of the current implementation"
        }
      },
      "balanceOf(address,uint256)": {
        "details": "See {IERC1155-balanceOf}. Requirements: - `account` cannot be the zero address."
      },
      "balanceOfBatch(address[],uint256[])": {
        "details": "See {IERC1155-balanceOfBatch}. Requirements: - `accounts` and `ids` must have the same length."
      },
      "getRoleAdmin(bytes32)": {
        "details": "Returns the admin role that controls `role`. See {grantRole} and {revokeRole}. To change a role's admin, use {_setRoleAdmin}."
      },
      "getRoleMember(bytes32,uint256)": {
        "details": "Returns one of the accounts that have `role`. `index` must be a value between 0 and {getRoleMemberCount}, non-inclusive. Role bearers are not sorted in any particular way, and their ordering may change at any point. WARNING: When using {getRoleMember} and {getRoleMemberCount}, make sure you perform all queries on the same block. See the following https://forum.openzeppelin.com/t/iterating-over-elements-on-enumerableset-in-openzeppelin-contracts/2296[forum post] for more information."
      },
      "getRoleMemberCount(bytes32)": {
        "details": "Returns the number of accounts that have `role`. Can be used together with {getRoleMember} to enumerate all bearers of a role."
      },
      "grantRole(bytes32,address)": {
        "details": "Grants `role` to `account`. If `account` had not been already granted `role`, emits a {RoleGranted} event. Requirements: - the caller must have ``role``'s admin role."
      },
      "hasRole(bytes32,address)": {
        "details": "Returns `true` if `account` has been granted `role`."
      },
      "isApprovedForAll(address,address)": {
        "details": "See {IERC1155-isApprovedForAll}."
      },
      "pause()": {
        "details": "Set `_paused` to true or false to pause or unpause the contract by calling PausableUpgradeable _pause or _unpause functions. Can only be called by addresses with ADMIN_ROLE access."
      },
      "paused()": {
        "details": "Returns true if the contract is paused, and false otherwise."
      },
      "renounceRole(bytes32,address)": {
        "details": "Revokes `role` from the calling account. Roles are often managed via {grantRole} and {revokeRole}: this function's purpose is to provide a mechanism for accounts to lose their privileges if they are compromised (such as when a trusted device is misplaced). If the calling account had been granted `role`, emits a {RoleRevoked} event. Requirements: - the caller must be `account`."
      },
      "revokeRole(bytes32,address)": {
        "details": "Revokes `role` from `account`. If `account` had been granted `role`, emits a {RoleRevoked} event. Requirements: - the caller must have ``role``'s admin role."
      },
      "safeBatchTransferFrom(address,address,uint256[],uint256[],bytes)": {
        "details": "See {IERC1155-safeBatchTransferFrom}."
      },
      "safeTransferFrom(address,address,uint256,uint256,bytes)": {
        "details": "See {IERC1155-safeTransferFrom}."
      },
      "setApprovalForAll(address,bool)": {
        "details": "See {IERC1155-setApprovalForAll}."
      },
      "setUSDTContract(address)": {
        "details": "Set `_c` as `usdt_contract` and set external call instance `usdtContract`. Can only be called by addresses with ADMIN_ROLE access.",
        "params": {
          "_c": "- USDT Contract address"
        }
      },
      "supportsInterface(bytes4)": {
        "details": "See {IERC165-supportsInterface}. Time complexity O(1), guaranteed to always use less than 30 000 gas."
      },
      "upgradeTo(address)": {
        "details": "Set `_c` to `IMPLEMENTATION_SLOT` by calling BaseUpgradeabilityProxy _upgradeTo function. Can only be called by addresses with ADMIN_ROLE access.",
        "params": {
          "_c": "- USDT Contract address"
        }
      },
      "uri(uint256)": {
        "details": "See {IERC1155MetadataURI-uri}. This implementation returns the same URI for *all* token types. It relies on the token type ID substitution mechanism https://eips.ethereum.org/EIPS/eip-1155#metadata[defined in the EIP]. Clients calling this function must replace the `\\{id\\}` substring with the actual token type ID."
      }
    },
    "title": "RETokenProxy",
    "version": 1
  },
  "userdoc": {
    "kind": "user",
    "methods": {},
    "version": 1
  }
}